{
  "_format": "hh-sol-artifact-1",
  "contractName": "P2PBettingActions",
  "sourceName": "contracts/P2PBettingActions.sol",
  "abi": [
    {
      "inputs": [
        {
          "internalType": "address",
          "name": "owner",
          "type": "address"
        }
      ],
      "stateMutability": "nonpayable",
      "type": "constructor"
    },
    {
      "inputs": [],
      "name": "EmptyArgs",
      "type": "error"
    },
    {
      "inputs": [],
      "name": "EmptySource",
      "type": "error"
    },
    {
      "inputs": [],
      "name": "NoInlineSecrets",
      "type": "error"
    },
    {
      "inputs": [],
      "name": "OnlyRouterCanFulfill",
      "type": "error"
    },
    {
      "inputs": [
        {
          "internalType": "address",
          "name": "owner",
          "type": "address"
        }
      ],
      "name": "OwnableInvalidOwner",
      "type": "error"
    },
    {
      "inputs": [
        {
          "internalType": "address",
          "name": "account",
          "type": "address"
        }
      ],
      "name": "OwnableUnauthorizedAccount",
      "type": "error"
    },
    {
      "inputs": [],
      "name": "P2PBetting__MatchDidNotEnd",
      "type": "error"
    },
    {
      "anonymous": false,
      "inputs": [
        {
          "indexed": true,
          "internalType": "address",
          "name": "previousOwner",
          "type": "address"
        },
        {
          "indexed": true,
          "internalType": "address",
          "name": "newOwner",
          "type": "address"
        }
      ],
      "name": "OwnershipTransferred",
      "type": "event"
    },
    {
      "anonymous": false,
      "inputs": [
        {
          "indexed": true,
          "internalType": "bytes32",
          "name": "id",
          "type": "bytes32"
        }
      ],
      "name": "RequestFulfilled",
      "type": "event"
    },
    {
      "anonymous": false,
      "inputs": [
        {
          "indexed": true,
          "internalType": "bytes32",
          "name": "id",
          "type": "bytes32"
        }
      ],
      "name": "RequestSent",
      "type": "event"
    },
    {
      "inputs": [
        {
          "internalType": "uint256[]",
          "name": "betToClose",
          "type": "uint256[]"
        },
        {
          "internalType": "uint256",
          "name": "pointsHome",
          "type": "uint256"
        },
        {
          "internalType": "uint256",
          "name": "pointsAway",
          "type": "uint256"
        }
      ],
      "name": "_endBetsUsingMatchId",
      "outputs": [
        {
          "internalType": "bool",
          "name": "ended",
          "type": "bool"
        },
        {
          "internalType": "bool",
          "name": "tipsterWon",
          "type": "bool"
        }
      ],
      "stateMutability": "pure",
      "type": "function"
    },
    {
      "inputs": [
        {
          "internalType": "bytes",
          "name": "",
          "type": "bytes"
        }
      ],
      "name": "checkUpkeep",
      "outputs": [
        {
          "internalType": "bool",
          "name": "upkeepNeeded",
          "type": "bool"
        },
        {
          "internalType": "bytes",
          "name": "",
          "type": "bytes"
        }
      ],
      "stateMutability": "view",
      "type": "function"
    },
    {
      "inputs": [],
      "name": "donId",
      "outputs": [
        {
          "internalType": "bytes32",
          "name": "",
          "type": "bytes32"
        }
      ],
      "stateMutability": "view",
      "type": "function"
    },
    {
      "inputs": [
        {
          "internalType": "uint256",
          "name": "matchId_",
          "type": "uint256"
        }
      ],
      "name": "endUsingMatchId",
      "outputs": [
        {
          "internalType": "bytes32",
          "name": "",
          "type": "bytes32"
        }
      ],
      "stateMutability": "nonpayable",
      "type": "function"
    },
    {
      "inputs": [
        {
          "internalType": "uint256",
          "name": "matchId",
          "type": "uint256"
        }
      ],
      "name": "getResults",
      "outputs": [
        {
          "internalType": "uint256[3]",
          "name": "",
          "type": "uint256[3]"
        }
      ],
      "stateMutability": "view",
      "type": "function"
    },
    {
      "inputs": [
        {
          "internalType": "bytes32",
          "name": "requestId",
          "type": "bytes32"
        },
        {
          "internalType": "bytes",
          "name": "response",
          "type": "bytes"
        },
        {
          "internalType": "bytes",
          "name": "err",
          "type": "bytes"
        }
      ],
      "name": "handleOracleFulfillment",
      "outputs": [],
      "stateMutability": "nonpayable",
      "type": "function"
    },
    {
      "inputs": [],
      "name": "owner",
      "outputs": [
        {
          "internalType": "address",
          "name": "",
          "type": "address"
        }
      ],
      "stateMutability": "view",
      "type": "function"
    },
    {
      "inputs": [
        {
          "internalType": "bytes",
          "name": "",
          "type": "bytes"
        }
      ],
      "name": "performUpkeep",
      "outputs": [],
      "stateMutability": "nonpayable",
      "type": "function"
    },
    {
      "inputs": [],
      "name": "renounceOwnership",
      "outputs": [],
      "stateMutability": "nonpayable",
      "type": "function"
    },
    {
      "inputs": [],
      "name": "s_lastError",
      "outputs": [
        {
          "internalType": "bytes",
          "name": "",
          "type": "bytes"
        }
      ],
      "stateMutability": "view",
      "type": "function"
    },
    {
      "inputs": [],
      "name": "s_lastRequestId",
      "outputs": [
        {
          "internalType": "bytes32",
          "name": "",
          "type": "bytes32"
        }
      ],
      "stateMutability": "view",
      "type": "function"
    },
    {
      "inputs": [],
      "name": "s_lastResponse",
      "outputs": [
        {
          "internalType": "bytes",
          "name": "",
          "type": "bytes"
        }
      ],
      "stateMutability": "view",
      "type": "function"
    },
    {
      "inputs": [
        {
          "internalType": "address",
          "name": "bettingFront",
          "type": "address"
        }
      ],
      "name": "setBettingFrontAddress",
      "outputs": [],
      "stateMutability": "nonpayable",
      "type": "function"
    },
    {
      "inputs": [
        {
          "internalType": "uint256",
          "name": "_intervalForAutomation",
          "type": "uint256"
        }
      ],
      "name": "setIntervalForAutomation",
      "outputs": [],
      "stateMutability": "nonpayable",
      "type": "function"
    },
    {
      "inputs": [
        {
          "internalType": "address",
          "name": "newOwner",
          "type": "address"
        }
      ],
      "name": "transferOwnership",
      "outputs": [],
      "stateMutability": "nonpayable",
      "type": "function"
    },
    {
      "inputs": [
        {
          "internalType": "uint256",
          "name": "_value",
          "type": "uint256"
        }
      ],
      "name": "uintToString",
      "outputs": [
        {
          "internalType": "string",
          "name": "",
          "type": "string"
        }
      ],
      "stateMutability": "pure",
      "type": "function"
    }
  ],
  "bytecode": "0x60a06040526301c9c380600560006101000a81548163ffffffff021916908363ffffffff16021790555073a9d587a00a31a52ed70d6026794a8fc5e2f5dcb0600560046101000a81548173ffffffffffffffffffffffffffffffffffffffff021916908373ffffffffffffffffffffffffffffffffffffffff160217905550612065600560186101000a81548167ffffffffffffffff021916908367ffffffffffffffff1602179055507f66756e2d6176616c616e6368652d66756a692d3100000000000000000000000060001b600655604051806102c0016040528061028d8152602001620038a561028d913960079081620000fd91906200055d565b50620151806008553480156200011257600080fd5b5060405162003b3238038062003b328339818101604052810190620001389190620006ae565b600560049054906101000a900473ffffffffffffffffffffffffffffffffffffffff1681600073ffffffffffffffffffffffffffffffffffffffff168173ffffffffffffffffffffffffffffffffffffffff1603620001d15760006040517f1e4fbdf7000000000000000000000000000000000000000000000000000000008152600401620001c89190620006f1565b60405180910390fd5b620001e2816200021f60201b60201c565b508073ffffffffffffffffffffffffffffffffffffffff1660808173ffffffffffffffffffffffffffffffffffffffff168152505050506200070e565b60008060009054906101000a900473ffffffffffffffffffffffffffffffffffffffff169050816000806101000a81548173ffffffffffffffffffffffffffffffffffffffff021916908373ffffffffffffffffffffffffffffffffffffffff1602179055508173ffffffffffffffffffffffffffffffffffffffff168173ffffffffffffffffffffffffffffffffffffffff167f8be0079c531659141344cd1fd0a4f28419497f9722a3daafe3b4186f6b6457e060405160405180910390a35050565b600081519050919050565b7f4e487b7100000000000000000000000000000000000000000000000000000000600052604160045260246000fd5b7f4e487b7100000000000000000000000000000000000000000000000000000000600052602260045260246000fd5b600060028204905060018216806200036557607f821691505b6020821081036200037b576200037a6200031d565b5b50919050565b60008190508160005260206000209050919050565b60006020601f8301049050919050565b600082821b905092915050565b600060088302620003e57fffffffffffffffffffffffffffffffffffffffffffffffffffffffffffffffff82620003a6565b620003f18683620003a6565b95508019841693508086168417925050509392505050565b6000819050919050565b6000819050919050565b60006200043e62000438620004328462000409565b62000413565b62000409565b9050919050565b6000819050919050565b6200045a836200041d565b62000472620004698262000445565b848454620003b3565b825550505050565b600090565b620004896200047a565b620004968184846200044f565b505050565b5b81811015620004be57620004b26000826200047f565b6001810190506200049c565b5050565b601f8211156200050d57620004d78162000381565b620004e28462000396565b81016020851015620004f2578190505b6200050a620005018562000396565b8301826200049b565b50505b505050565b600082821c905092915050565b6000620005326000198460080262000512565b1980831691505092915050565b60006200054d83836200051f565b9150826002028217905092915050565b6200056882620002e3565b67ffffffffffffffff811115620005845762000583620002ee565b5b6200059082546200034c565b6200059d828285620004c2565b600060209050601f831160018114620005d55760008415620005c0578287015190505b620005cc85826200053f565b8655506200063c565b601f198416620005e58662000381565b60005b828110156200060f57848901518255600182019150602085019450602081019050620005e8565b868310156200062f57848901516200062b601f8916826200051f565b8355505b6001600288020188555050505b505050505050565b600080fd5b600073ffffffffffffffffffffffffffffffffffffffff82169050919050565b6000620006768262000649565b9050919050565b620006888162000669565b81146200069457600080fd5b50565b600081519050620006a8816200067d565b92915050565b600060208284031215620006c757620006c662000644565b5b6000620006d78482850162000697565b91505092915050565b620006eb8162000669565b82525050565b6000602082019050620007086000830184620006e0565b92915050565b6080516131746200073160003960008181610325015261186c01526131746000f3fe608060405234801561001057600080fd5b50600436106101005760003560e01c80638da5cb5b11610097578063e939567911610066578063e93956791461029f578063eff61be6146102cf578063f2fde38b146102eb578063fb32e6271461030757610100565b80638da5cb5b146102145780638dbe7b9d146102325780638e03ce5214610250578063b1e217491461028157610100565b80635ec249d5116100d35780635ec249d5146101795780636e04ff0d146101a9578063715018a6146101da57806381a60c0d146101e457610100565b80630ca76175146101055780633944ea3a146101215780634585e33b1461013f5780634b0795a81461015b575b600080fd5b61011f600480360381019061011a9190612320565b610323565b005b6101296103e5565b604051610136919061242a565b60405180910390f35b610159600480360381019061015491906124ac565b610473565b005b610163610510565b604051610170919061242a565b60405180910390f35b610193600480360381019061018e919061252f565b61059e565b6040516101a0919061256b565b60405180910390f35b6101c360048036038101906101be91906124ac565b610810565b6040516101d19291906125a1565b60405180910390f35b6101e2610836565b005b6101fe60048036038101906101f9919061252f565b61084a565b60405161020b919061267c565b60405180910390f35b61021c6108a8565b60405161022991906126d8565b60405180910390f35b61023a6108d1565b604051610247919061256b565b60405180910390f35b61026a600480360381019061026591906127b6565b6108d7565b604051610278929190612825565b60405180910390f35b6102896110b0565b604051610296919061256b565b60405180910390f35b6102b960048036038101906102b4919061252f565b6110b6565b6040516102c691906128a3565b60405180910390f35b6102e960048036038101906102e491906128f1565b611216565b005b610305600480360381019061030091906128f1565b611262565b005b610321600480360381019061031c919061252f565b6112e8565b005b7f000000000000000000000000000000000000000000000000000000000000000073ffffffffffffffffffffffffffffffffffffffff163373ffffffffffffffffffffffffffffffffffffffff16146103a8576040517fc6829f8300000000000000000000000000000000000000000000000000000000815260040160405180910390fd5b6103b38383836112fa565b827f85e1543bf2f84fe80c6badbce3648c8539ad1df4d2b3d822938ca0538be727e660405160405180910390a2505050565b600380546103f29061294d565b80601f016020809104026020016040519081016040528092919081815260200182805461041e9061294d565b801561046b5780601f106104405761010080835404028352916020019161046b565b820191906000526020600020905b81548152906001019060200180831161044e57829003601f168201915b505050505081565b6008546009544261048491906129ad565b1061050c57600160009054906101000a900473ffffffffffffffffffffffffffffffffffffffff1673ffffffffffffffffffffffffffffffffffffffff1663c87965726040518163ffffffff1660e01b8152600401600060405180830381600087803b1580156104f357600080fd5b505af1158015610507573d6000803e3d6000fd5b505050505b5050565b6004805461051d9061294d565b80601f01602080910402602001604051908101604052809291908181526020018280546105499061294d565b80156105965780601f1061056b57610100808354040283529160200191610596565b820191906000526020600020905b81548152906001019060200180831161057957829003601f168201915b505050505081565b6000613840600160009054906101000a900473ffffffffffffffffffffffffffffffffffffffff1673ffffffffffffffffffffffffffffffffffffffff16631f7d2f2c846040518263ffffffff1660e01b81526004016105fe91906129f0565b602060405180830381865afa15801561061b573d6000803e3d6000fd5b505050506040513d601f19601f8201168201806040525081019061063f9190612a20565b6106499190612a4d565b421015610682576040517f84ff05af00000000000000000000000000000000000000000000000000000000815260040160405180910390fd5b61068a6120c2565b6000600167ffffffffffffffff8111156106a7576106a66121f5565b5b6040519080825280602002602001820160405280156106da57816020015b60608152602001906001900390816106c55790505b5090506106e6846110b6565b816000815181106106fa576106f9612a81565b5b60200260200101819052506107a2600780546107159061294d565b80601f01602080910402602001604051908101604052809291908181526020018280546107419061294d565b801561078e5780601f106107635761010080835404028352916020019161078e565b820191906000526020600020905b81548152906001019060200180831161077157829003601f168201915b5050505050836113f290919063ffffffff16565b6000815111156107c0576107bf818361140390919063ffffffff16565b5b6107fe6107cc8361144b565b600560189054906101000a900467ffffffffffffffff16600560009054906101000a900463ffffffff16600654611867565b60028190555060025492505050919050565b600060606008546009544261082591906129ad565b1061082f57600191505b9250929050565b61083e61194a565b61084860006119d1565b565b610852612134565b600a600083815260200190815260200160002060038060200260405190810160405280929190826003801561089c576020028201915b815481526020019060010190808311610888575b50505050509050919050565b60008060009054906101000a900473ffffffffffffffffffffffffffffffffffffffff16905090565b60065481565b60008060005b85518110156110a75760028651106110945760008660008151811061090557610904612a81565b5b6020026020010151148015610935575060038660018151811061092b5761092a612a81565b5b6020026020010151105b156109dc576000866001815181106109505761094f612a81565b5b60200260200101511480156109655750838511155b80610997575060018660018151811061098157610980612a81565b5b60200260200101511480156109965750838510155b5b806109c957506002866001815181106109b3576109b2612a81565b5b60200260200101511480156109c85750838514155b5b156109d357600191505b60019250611093565b6004865110158015610a0957506001866000815181106109ff576109fe612a81565b5b6020026020010151145b8015610a305750600586600181518110610a2657610a25612a81565b5b6020026020010151105b8015610a575750600386600281518110610a4d57610a4c612a81565b5b6020026020010151105b1561109257600086600181518110610a7257610a71612a81565b5b6020026020010151148015610b635750600086600281518110610a9857610a97612a81565b5b6020026020010151148015610ac8575085600381518110610abc57610abb612a81565b5b60200260200101518511155b80610b155750600186600281518110610ae457610ae3612a81565b5b6020026020010151148015610b14575085600381518110610b0857610b07612a81565b5b60200260200101518510155b5b80610b625750600286600281518110610b3157610b30612a81565b5b6020026020010151148015610b61575085600381518110610b5557610b54612a81565b5b60200260200101518514155b5b5b15610b71576001915061108d565b600186600181518110610b8757610b86612a81565b5b6020026020010151148015610c785750600086600281518110610bad57610bac612a81565b5b6020026020010151148015610bdd575085600381518110610bd157610bd0612a81565b5b60200260200101518411155b80610c2a5750600186600281518110610bf957610bf8612a81565b5b6020026020010151148015610c29575085600381518110610c1d57610c1c612a81565b5b60200260200101518410155b5b80610c775750600286600281518110610c4657610c45612a81565b5b6020026020010151148015610c76575085600381518110610c6a57610c69612a81565b5b60200260200101518414155b5b5b15610c86576001915061108c565b600286600181518110610c9c57610c9b612a81565b5b6020026020010151148015610dae5750600086600281518110610cc257610cc1612a81565b5b6020026020010151148015610cfd575085600381518110610ce657610ce5612a81565b5b60200260200101518585610cfa9190612a4d565b11155b80610d555750600186600281518110610d1957610d18612a81565b5b6020026020010151148015610d54575085600381518110610d3d57610d3c612a81565b5b60200260200101518585610d519190612a4d565b10155b5b80610dad5750600286600281518110610d7157610d70612a81565b5b6020026020010151148015610dac575085600381518110610d9557610d94612a81565b5b60200260200101518585610da99190612a4d565b14155b5b5b15610dbc576001915061108b565b600386600181518110610dd257610dd1612a81565b5b602002602001015103610f06576000808686610dee9190612aba565b1215610e07578486610e0091906129ad565b9050610e16565b8585610e1391906129ad565b90505b600087600281518110610e2c57610e2b612a81565b5b6020026020010151148015610e5c575086600381518110610e5057610e4f612a81565b5b60200260200101518111155b80610ea95750600187600281518110610e7857610e77612a81565b5b6020026020010151148015610ea8575086600381518110610e9c57610e9b612a81565b5b60200260200101518110155b5b80610ef65750600287600281518110610ec557610ec4612a81565b5b6020026020010151148015610ef5575086600381518110610ee957610ee8612a81565b5b60200260200101518114155b5b15610f0057600192505b5061108a565b600486600181518110610f1c57610f1b612a81565b5b602002602001015114801561107f5750600086600281518110610f4257610f41612a81565b5b6020026020010151148015610f98575085600381518110610f6657610f65612a81565b5b602002602001015184111580610f97575085600381518110610f8b57610f8a612a81565b5b60200260200101518511155b5b8061100b5750600186600281518110610fb457610fb3612a81565b5b602002602001015114801561100a575085600381518110610fd857610fd7612a81565b5b602002602001015184101580611009575085600381518110610ffd57610ffc612a81565b5b60200260200101518510155b5b5b8061107e575060028660028151811061102757611026612a81565b5b602002602001015114801561107d57508560038151811061104b5761104a612a81565b5b60200260200101518414158061107c5750856003815181106110705761106f612a81565b5b60200260200101518514155b5b5b5b1561108957600191505b5b5b5b5b600192505b5b5b808061109f90612afd565b9150506108dd565b50935093915050565b60025481565b6060600082036110fd576040518060400160405280600181526020017f30000000000000000000000000000000000000000000000000000000000000008152509050611211565b600082905060005b6000821461112f57808061111890612afd565b915050600a826111289190612b74565b9150611105565b60008167ffffffffffffffff81111561114b5761114a6121f5565b5b6040519080825280601f01601f19166020018201604052801561117d5781602001600182028036833780820191505090505b5090505b6000851461120a5760018261119691906129ad565b9150600a856111a59190612ba5565b60306111b19190612a4d565b60f81b8183815181106111c7576111c6612a81565b5b60200101907effffffffffffffffffffffffffffffffffffffffffffffffffffffffffffff1916908160001a905350600a856112039190612b74565b9450611181565b8093505050505b919050565b61121e61194a565b80600160006101000a81548173ffffffffffffffffffffffffffffffffffffffff021916908373ffffffffffffffffffffffffffffffffffffffff16021790555050565b61126a61194a565b600073ffffffffffffffffffffffffffffffffffffffff168173ffffffffffffffffffffffffffffffffffffffff16036112dc5760006040517f1e4fbdf70000000000000000000000000000000000000000000000000000000081526004016112d391906126d8565b60405180910390fd5b6112e5816119d1565b50565b6112f061194a565b8060088190555050565b81600390816113099190612d82565b5080600490816113199190612d82565b506040825111156113ed5760008060208201840151905060208261133d9190612a4d565b91506000806020840186015191506020846113589190612a4d565b935060208401860151905081600a600085815260200190815260200160002060006003811061138a57611389612a81565b5b018190555080600a60008581526020019081526020016000206001600381106113b6576113b5612a81565b5b01819055506001600a60008581526020019081526020016000206002600381106113e3576113e2612a81565b5b0181905550505050505b505050565b6113ff8260008084611a95565b5050565b600081510361143e576040517ffe936cb700000000000000000000000000000000000000000000000000000000815260040160405180910390fd5b808260a001819052505050565b6060600061145a610100611b3f565b90506114a46040518060400160405280600c81526020017f636f64654c6f636174696f6e000000000000000000000000000000000000000081525082611b6690919063ffffffff16565b6114cd836000015160028111156114be576114bd612e54565b5b82611b8f90919063ffffffff16565b6115156040518060400160405280600881526020017f6c616e677561676500000000000000000000000000000000000000000000000081525082611b6690919063ffffffff16565b61153e8360400151600081111561152f5761152e612e54565b5b82611b8f90919063ffffffff16565b6115866040518060400160405280600681526020017f736f75726365000000000000000000000000000000000000000000000000000081525082611b6690919063ffffffff16565b61159d836060015182611b6690919063ffffffff16565b60008360a00151511115611659576115f36040518060400160405280600481526020017f617267730000000000000000000000000000000000000000000000000000000081525082611b6690919063ffffffff16565b6115fc81611bdf565b60005b8360a001515181101561164e5761163d8460a00151828151811061162657611625612a81565b5b602002602001015183611b6690919063ffffffff16565b8061164790612afd565b90506115ff565b5061165881611c07565b5b6000836080015151111561179a576000600281111561167b5761167a612e54565b5b8360200151600281111561169257611691612e54565b5b036116c9576040517fa80d31f700000000000000000000000000000000000000000000000000000000815260040160405180910390fd5b6117116040518060400160405280600f81526020017f736563726574734c6f636174696f6e000000000000000000000000000000000081525082611b6690919063ffffffff16565b61173a8360200151600281111561172b5761172a612e54565b5b82611b8f90919063ffffffff16565b6117826040518060400160405280600781526020017f736563726574730000000000000000000000000000000000000000000000000081525082611b6690919063ffffffff16565b611799836080015182611c2f90919063ffffffff16565b5b60008360c00151511115611856576117f06040518060400160405280600981526020017f627974657341726773000000000000000000000000000000000000000000000081525082611b6690919063ffffffff16565b6117f981611bdf565b60005b8360c001515181101561184b5761183a8460c00151828151811061182357611822612a81565b5b602002602001015183611c2f90919063ffffffff16565b8061184490612afd565b90506117fc565b5061185581611c07565b5b806000015160000151915050919050565b6000807f000000000000000000000000000000000000000000000000000000000000000073ffffffffffffffffffffffffffffffffffffffff1663461d27628688600188886040518663ffffffff1660e01b81526004016118cc959493929190612ee2565b6020604051808303816000875af11580156118eb573d6000803e3d6000fd5b505050506040513d601f19601f8201168201806040525081019061190f9190612f51565b9050807f1131472297a800fee664d1d89cfa8f7676ff07189ecc53f80bbb5f4969099db860405160405180910390a280915050949350505050565b611952611c58565b73ffffffffffffffffffffffffffffffffffffffff166119706108a8565b73ffffffffffffffffffffffffffffffffffffffff16146119cf57611993611c58565b6040517f118cdaa70000000000000000000000000000000000000000000000000000000081526004016119c691906126d8565b60405180910390fd5b565b60008060009054906101000a900473ffffffffffffffffffffffffffffffffffffffff169050816000806101000a81548173ffffffffffffffffffffffffffffffffffffffff021916908373ffffffffffffffffffffffffffffffffffffffff1602179055508173ffffffffffffffffffffffffffffffffffffffff168173ffffffffffffffffffffffffffffffffffffffff167f8be0079c531659141344cd1fd0a4f28419497f9722a3daafe3b4186f6b6457e060405160405180910390a35050565b6000815103611ad0576040517f22ce3edd00000000000000000000000000000000000000000000000000000000815260040160405180910390fd5b8284600001906002811115611ae857611ae7612e54565b5b90816002811115611afc57611afb612e54565b5b815250508184604001906000811115611b1857611b17612e54565b5b90816000811115611b2c57611b2b612e54565b5b8152505080846060018190525050505050565b611b47612156565b611b55816000015183611c60565b506000816020018181525050919050565b611b738260038351611cd9565b611b8a818360000151611e8290919063ffffffff16565b505050565b611bb160026005600660ff16901b178360000151611e9e90919063ffffffff16565b50611bdb8282604051602001611bc791906129f0565b604051602081830303815290604052611c2f565b5050565b611bea816004611f08565b600181602001818151611bfd9190612a4d565b9150818152505050565b611c12816007611f08565b600181602001818151611c2591906129ad565b9150818152505050565b611c3c8260028351611cd9565b611c53818360000151611e8290919063ffffffff16565b505050565b600033905090565b611c68612176565b6000602083611c779190612ba5565b14611ca357602082611c899190612ba5565b6020611c9591906129ad565b82611ca09190612a4d565b91505b818360200181815250506040518084526000815282810160200181811015611cca57600080fd5b80604052505082905092915050565b60178167ffffffffffffffff1611611d1457611d0e8160058460ff16901b60ff16178460000151611e9e90919063ffffffff16565b50611e7d565b60ff8167ffffffffffffffff1611611d7257611d47601860058460ff16901b178460000151611e9e90919063ffffffff16565b50611d6c8167ffffffffffffffff1660018560000151611f2e9092919063ffffffff16565b50611e7c565b61ffff8167ffffffffffffffff1611611dd157611da6601960058460ff16901b178460000151611e9e90919063ffffffff16565b50611dcb8167ffffffffffffffff1660028560000151611f2e9092919063ffffffff16565b50611e7b565b63ffffffff8167ffffffffffffffff1611611e3257611e07601a60058460ff16901b178460000151611e9e90919063ffffffff16565b50611e2c8167ffffffffffffffff1660048560000151611f2e9092919063ffffffff16565b50611e7a565b611e53601b60058460ff16901b178460000151611e9e90919063ffffffff16565b50611e788167ffffffffffffffff1660088560000151611f2e9092919063ffffffff16565b505b5b5b5b505050565b611e8a612176565b611e9683838451611fbb565b905092915050565b611ea6612176565b600083600001515190506000600182611ebf9190612a4d565b905084602001518210611ee357611ee285600283611edd9190612f7e565b61209e565b5b84516020838201018581538151831115611efb578282525b5050849250505092915050565b611f29601f60058360ff16901b178360000151611e9e90919063ffffffff16565b505050565b611f36612176565b6000846000015151905060008184611f4e9190612a4d565b90508560200151811115611f7357611f7286600283611f6d9190612f7e565b61209e565b5b6000600185610100611f8591906130f3565b611f8f91906129ad565b905086518281018783198251161781528151841115611fac578382525b50508693505050509392505050565b611fc3612176565b8251821115611fd157600080fd5b6000846000015151905060008382611fe99190612a4d565b9050856020015181111561200e5761200d866002836120089190612f7e565b61209e565b5b60008087518051856020830101935080851115612029578482525b60208901925050505b60208610612070578051825260208261204b9190612a4d565b915060208161205a9190612a4d565b905060208661206991906129ad565b9550612032565b60006001876020036101000a0390508019825116818451168181178552505050879450505050509392505050565b6000826000015190506120b18383611c60565b506120bc8382611e82565b50505050565b6040518060e00160405280600060028111156120e1576120e0612e54565b5b8152602001600060028111156120fa576120f9612e54565b5b815260200160008081111561211257612111612e54565b5b8152602001606081526020016060815260200160608152602001606081525090565b6040518060600160405280600390602082028036833780820191505090505090565b6040518060400160405280612169612176565b8152602001600081525090565b604051806040016040528060608152602001600081525090565b6000604051905090565b600080fd5b600080fd5b6000819050919050565b6121b7816121a4565b81146121c257600080fd5b50565b6000813590506121d4816121ae565b92915050565b600080fd5b600080fd5b6000601f19601f8301169050919050565b7f4e487b7100000000000000000000000000000000000000000000000000000000600052604160045260246000fd5b61222d826121e4565b810181811067ffffffffffffffff8211171561224c5761224b6121f5565b5b80604052505050565b600061225f612190565b905061226b8282612224565b919050565b600067ffffffffffffffff82111561228b5761228a6121f5565b5b612294826121e4565b9050602081019050919050565b82818337600083830152505050565b60006122c36122be84612270565b612255565b9050828152602081018484840111156122df576122de6121df565b5b6122ea8482856122a1565b509392505050565b600082601f830112612307576123066121da565b5b81356123178482602086016122b0565b91505092915050565b6000806000606084860312156123395761233861219a565b5b6000612347868287016121c5565b935050602084013567ffffffffffffffff8111156123685761236761219f565b5b612374868287016122f2565b925050604084013567ffffffffffffffff8111156123955761239461219f565b5b6123a1868287016122f2565b9150509250925092565b600081519050919050565b600082825260208201905092915050565b60005b838110156123e55780820151818401526020810190506123ca565b60008484015250505050565b60006123fc826123ab565b61240681856123b6565b93506124168185602086016123c7565b61241f816121e4565b840191505092915050565b6000602082019050818103600083015261244481846123f1565b905092915050565b600080fd5b600080fd5b60008083601f84011261246c5761246b6121da565b5b8235905067ffffffffffffffff8111156124895761248861244c565b5b6020830191508360018202830111156124a5576124a4612451565b5b9250929050565b600080602083850312156124c3576124c261219a565b5b600083013567ffffffffffffffff8111156124e1576124e061219f565b5b6124ed85828601612456565b92509250509250929050565b6000819050919050565b61250c816124f9565b811461251757600080fd5b50565b60008135905061252981612503565b92915050565b6000602082840312156125455761254461219a565b5b60006125538482850161251a565b91505092915050565b612565816121a4565b82525050565b6000602082019050612580600083018461255c565b92915050565b60008115159050919050565b61259b81612586565b82525050565b60006040820190506125b66000830185612592565b81810360208301526125c881846123f1565b90509392505050565b600060039050919050565b600081905092915050565b6000819050919050565b6125fa816124f9565b82525050565b600061260c83836125f1565b60208301905092915050565b6000602082019050919050565b61262e816125d1565b61263881846125dc565b9250612643826125e7565b8060005b8381101561267457815161265b8782612600565b965061266683612618565b925050600181019050612647565b505050505050565b60006060820190506126916000830184612625565b92915050565b600073ffffffffffffffffffffffffffffffffffffffff82169050919050565b60006126c282612697565b9050919050565b6126d2816126b7565b82525050565b60006020820190506126ed60008301846126c9565b92915050565b600067ffffffffffffffff82111561270e5761270d6121f5565b5b602082029050602081019050919050565b600061273261272d846126f3565b612255565b9050808382526020820190506020840283018581111561275557612754612451565b5b835b8181101561277e578061276a888261251a565b845260208401935050602081019050612757565b5050509392505050565b600082601f83011261279d5761279c6121da565b5b81356127ad84826020860161271f565b91505092915050565b6000806000606084860312156127cf576127ce61219a565b5b600084013567ffffffffffffffff8111156127ed576127ec61219f565b5b6127f986828701612788565b935050602061280a8682870161251a565b925050604061281b8682870161251a565b9150509250925092565b600060408201905061283a6000830185612592565b6128476020830184612592565b9392505050565b600081519050919050565b600082825260208201905092915050565b60006128758261284e565b61287f8185612859565b935061288f8185602086016123c7565b612898816121e4565b840191505092915050565b600060208201905081810360008301526128bd818461286a565b905092915050565b6128ce816126b7565b81146128d957600080fd5b50565b6000813590506128eb816128c5565b92915050565b6000602082840312156129075761290661219a565b5b6000612915848285016128dc565b91505092915050565b7f4e487b7100000000000000000000000000000000000000000000000000000000600052602260045260246000fd5b6000600282049050600182168061296557607f821691505b6020821081036129785761297761291e565b5b50919050565b7f4e487b7100000000000000000000000000000000000000000000000000000000600052601160045260246000fd5b60006129b8826124f9565b91506129c3836124f9565b92508282039050818111156129db576129da61297e565b5b92915050565b6129ea816124f9565b82525050565b6000602082019050612a0560008301846129e1565b92915050565b600081519050612a1a81612503565b92915050565b600060208284031215612a3657612a3561219a565b5b6000612a4484828501612a0b565b91505092915050565b6000612a58826124f9565b9150612a63836124f9565b9250828201905080821115612a7b57612a7a61297e565b5b92915050565b7f4e487b7100000000000000000000000000000000000000000000000000000000600052603260045260246000fd5b6000819050919050565b6000612ac582612ab0565b9150612ad083612ab0565b9250828203905081811260008412168282136000851215161715612af757612af661297e565b5b92915050565b6000612b08826124f9565b91507fffffffffffffffffffffffffffffffffffffffffffffffffffffffffffffffff8203612b3a57612b3961297e565b5b600182019050919050565b7f4e487b7100000000000000000000000000000000000000000000000000000000600052601260045260246000fd5b6000612b7f826124f9565b9150612b8a836124f9565b925082612b9a57612b99612b45565b5b828204905092915050565b6000612bb0826124f9565b9150612bbb836124f9565b925082612bcb57612bca612b45565b5b828206905092915050565b60008190508160005260206000209050919050565b60006020601f8301049050919050565b600082821b905092915050565b600060088302612c387fffffffffffffffffffffffffffffffffffffffffffffffffffffffffffffffff82612bfb565b612c428683612bfb565b95508019841693508086168417925050509392505050565b6000819050919050565b6000612c7f612c7a612c75846124f9565b612c5a565b6124f9565b9050919050565b6000819050919050565b612c9983612c64565b612cad612ca582612c86565b848454612c08565b825550505050565b600090565b612cc2612cb5565b612ccd818484612c90565b505050565b5b81811015612cf157612ce6600082612cba565b600181019050612cd3565b5050565b601f821115612d3657612d0781612bd6565b612d1084612beb565b81016020851015612d1f578190505b612d33612d2b85612beb565b830182612cd2565b50505b505050565b600082821c905092915050565b6000612d5960001984600802612d3b565b1980831691505092915050565b6000612d728383612d48565b9150826002028217905092915050565b612d8b826123ab565b67ffffffffffffffff811115612da457612da36121f5565b5b612dae825461294d565b612db9828285612cf5565b600060209050601f831160018114612dec5760008415612dda578287015190505b612de48582612d66565b865550612e4c565b601f198416612dfa86612bd6565b60005b82811015612e2257848901518255600182019150602085019450602081019050612dfd565b86831015612e3f5784890151612e3b601f891682612d48565b8355505b6001600288020188555050505b505050505050565b7f4e487b7100000000000000000000000000000000000000000000000000000000600052602160045260246000fd5b600067ffffffffffffffff82169050919050565b612ea081612e83565b82525050565b600061ffff82169050919050565b612ebd81612ea6565b82525050565b600063ffffffff82169050919050565b612edc81612ec3565b82525050565b600060a082019050612ef76000830188612e97565b8181036020830152612f0981876123f1565b9050612f186040830186612eb4565b612f256060830185612ed3565b612f32608083018461255c565b9695505050505050565b600081519050612f4b816121ae565b92915050565b600060208284031215612f6757612f6661219a565b5b6000612f7584828501612f3c565b91505092915050565b6000612f89826124f9565b9150612f94836124f9565b9250828202612fa2816124f9565b91508282048414831517612fb957612fb861297e565b5b5092915050565b60008160011c9050919050565b6000808291508390505b600185111561301757808604811115612ff357612ff261297e565b5b60018516156130025780820291505b808102905061301085612fc0565b9450612fd7565b94509492505050565b60008261303057600190506130ec565b8161303e57600090506130ec565b8160018114613054576002811461305e5761308d565b60019150506130ec565b60ff8411156130705761306f61297e565b5b8360020a9150848211156130875761308661297e565b5b506130ec565b5060208310610133831016604e8410600b84101617156130c25782820a9050838111156130bd576130bc61297e565b5b6130ec565b6130cf8484846001612fcd565b925090508184048111156130e6576130e561297e565b5b81810290505b9392505050565b60006130fe826124f9565b9150613109836124f9565b92506131367fffffffffffffffffffffffffffffffffffffffffffffffffffffffffffffffff8484613020565b90509291505056fea26469706673582212204aae81a13011b9925fa9c808ccf6a1f3a4203f822b8e54a606cc05c417d2b18a64736f6c63430008140033636f6e73742067616d654964203d20617267735b305d3b636f6e737420636f6e666967203d207b202075726c3a206068747470733a2f2f6170692e73706f727473646174612e696f2f76332f6e62612f73746174732f6a736f6e2f426f7853636f72652f247b67616d6549647d3f6b65793d3036623966656237363235333432373439343664323836393334666630323335607d3b636f6e737420726573706f6e7365203d2061776169742046756e6374696f6e732e6d616b65487474705265717565737428636f6e666967293b636f6e737420616c6c4d617463686573203d20726573706f6e73652e646174613b636f6e7374206d61746368203d20616c6c4d6174636865732e66696e64286d61746368203d3e207b2020696620286d617463682e47616d65456e644461746554696d6520213d206e756c6c202626206d617463682e47616d654944203d3d3d2067616d65496429207b2020202072657475726e20747275653b20207d7d293b69662028216d6174636829207b20207468726f77206e6577204572726f722827446964206e6f7420656e64206f72206e6f6e6578697374656e7427293b7d6c657420656e636f64656444617461203d205b5d3b656e636f646564446174612e7075736828656e636f646555696e743235362867616d65496429293b656e636f646564446174612e7075736828656e636f646555696e74323536286d617463682e486f6d655465616d53636f726529293b656e636f646564446174612e7075736828656e636f646555696e74323536286d617463682e417761795465616d53636f726529293b72657475726e2046756e6374696f6e732e656e636f6465537472696e67284a534f4e2e737472696e6769667928656e636f646564446174612929",
  "linkReferences": {},
  "deployedLinkReferences": {}
}