{
  "_format": "hh-sol-artifact-1",
  "contractName": "P2PBetting",
  "sourceName": "contracts/P2PBetting.sol",
  "abi": [
    {
      "inputs": [
        {
          "internalType": "uint256",
          "name": "fee_",
          "type": "uint256"
        },
        {
          "internalType": "address",
          "name": "owner",
          "type": "address"
        },
        {
          "internalType": "uint64",
          "name": "subscriptionId_",
          "type": "uint64"
        }
      ],
      "stateMutability": "nonpayable",
      "type": "constructor"
    },
    {
      "inputs": [],
      "name": "OnlyRouterCanFulfill",
      "type": "error"
    },
    {
      "inputs": [],
      "name": "P2PBetting__AlreadyRetrievedOrBetNonexistent",
      "type": "error"
    },
    {
      "inputs": [],
      "name": "P2PBetting__BetIsFullOrNonexistent",
      "type": "error"
    },
    {
      "inputs": [],
      "name": "P2PBetting__CantCallIfNotOwner",
      "type": "error"
    },
    {
      "inputs": [],
      "name": "P2PBetting__CantEnterBetNow",
      "type": "error"
    },
    {
      "inputs": [],
      "name": "P2PBetting__MatchDidNotEnd",
      "type": "error"
    },
    {
      "inputs": [],
      "name": "P2PBetting__MatchDoesntExist",
      "type": "error"
    },
    {
      "inputs": [],
      "name": "P2PBetting__MaxPriceCantBeZero",
      "type": "error"
    },
    {
      "inputs": [],
      "name": "P2PBetting__NotEnoughEthSent",
      "type": "error"
    },
    {
      "inputs": [],
      "name": "P2PBetting__NumberOfChallengersCantBeZero",
      "type": "error"
    },
    {
      "inputs": [],
      "name": "P2PBetting__OddsMustBeHigherThanOne",
      "type": "error"
    },
    {
      "inputs": [],
      "name": "P2PBetting__OnlyCalledIfTipsterLost",
      "type": "error"
    },
    {
      "inputs": [],
      "name": "P2PBetting__TooMuchEthSent",
      "type": "error"
    },
    {
      "inputs": [],
      "name": "P2PBetting__TransferFailed",
      "type": "error"
    },
    {
      "inputs": [],
      "name": "P2PBetting__UnexpectedRequestId",
      "type": "error"
    },
    {
      "inputs": [],
      "name": "P2PBetting__UserNotInBet",
      "type": "error"
    },
    {
      "inputs": [],
      "name": "P2PBetting__WrongBetFormat",
      "type": "error"
    },
    {
      "anonymous": false,
      "inputs": [
        {
          "indexed": false,
          "internalType": "string",
          "name": "message",
          "type": "string"
        }
      ],
      "name": "LogError",
      "type": "event"
    },
    {
      "anonymous": false,
      "inputs": [
        {
          "indexed": true,
          "internalType": "address",
          "name": "previousOwner",
          "type": "address"
        },
        {
          "indexed": true,
          "internalType": "address",
          "name": "newOwner",
          "type": "address"
        }
      ],
      "name": "OwnershipTransferred",
      "type": "event"
    },
    {
      "anonymous": false,
      "inputs": [
        {
          "indexed": true,
          "internalType": "uint256",
          "name": "maxPrice",
          "type": "uint256"
        },
        {
          "indexed": true,
          "internalType": "uint256",
          "name": "odds",
          "type": "uint256"
        },
        {
          "indexed": true,
          "internalType": "uint256",
          "name": "maxNumOfPlayers",
          "type": "uint256"
        },
        {
          "indexed": false,
          "internalType": "uint256",
          "name": "betId",
          "type": "uint256"
        }
      ],
      "name": "P2PBetting__BetCreated",
      "type": "event"
    },
    {
      "anonymous": false,
      "inputs": [
        {
          "indexed": true,
          "internalType": "address",
          "name": "challenger",
          "type": "address"
        },
        {
          "indexed": true,
          "internalType": "uint256",
          "name": "betID",
          "type": "uint256"
        }
      ],
      "name": "P2PBetting__BetJoined",
      "type": "event"
    },
    {
      "anonymous": false,
      "inputs": [
        {
          "indexed": true,
          "internalType": "uint256",
          "name": "feesCollected",
          "type": "uint256"
        }
      ],
      "name": "P2PBetting__FeesCollected",
      "type": "event"
    },
    {
      "anonymous": false,
      "inputs": [
        {
          "indexed": true,
          "internalType": "uint256",
          "name": "oldFee",
          "type": "uint256"
        },
        {
          "indexed": true,
          "internalType": "uint256",
          "name": "newFee",
          "type": "uint256"
        }
      ],
      "name": "P2PBetting__NewFeeSet",
      "type": "event"
    },
    {
      "anonymous": false,
      "inputs": [
        {
          "indexed": true,
          "internalType": "address",
          "name": "oracle",
          "type": "address"
        }
      ],
      "name": "P2PBetting__NewOracleSet",
      "type": "event"
    },
    {
      "anonymous": false,
      "inputs": [
        {
          "indexed": true,
          "internalType": "address",
          "name": "winner",
          "type": "address"
        },
        {
          "indexed": true,
          "internalType": "uint256",
          "name": "amount",
          "type": "uint256"
        }
      ],
      "name": "P2PBetting__RewardClaimed",
      "type": "event"
    },
    {
      "anonymous": false,
      "inputs": [
        {
          "indexed": true,
          "internalType": "bytes32",
          "name": "id",
          "type": "bytes32"
        }
      ],
      "name": "RequestFulfilled",
      "type": "event"
    },
    {
      "anonymous": false,
      "inputs": [
        {
          "indexed": true,
          "internalType": "bytes32",
          "name": "id",
          "type": "bytes32"
        }
      ],
      "name": "RequestSent",
      "type": "event"
    },
    {
      "anonymous": false,
      "inputs": [
        {
          "indexed": false,
          "internalType": "string",
          "name": "name",
          "type": "string"
        }
      ],
      "name": "testevent",
      "type": "event"
    },
    {
      "inputs": [],
      "name": "collectFees",
      "outputs": [],
      "stateMutability": "nonpayable",
      "type": "function"
    },
    {
      "inputs": [
        {
          "internalType": "uint256",
          "name": "matchId",
          "type": "uint256"
        },
        {
          "internalType": "uint256",
          "name": "maxNumberOfChallengers_",
          "type": "uint256"
        },
        {
          "internalType": "uint256",
          "name": "odds_",
          "type": "uint256"
        },
        {
          "internalType": "uint256",
          "name": "maxEntryFee_",
          "type": "uint256"
        },
        {
          "internalType": "uint256[]",
          "name": "betData_",
          "type": "uint256[]"
        }
      ],
      "name": "createBet",
      "outputs": [],
      "stateMutability": "payable",
      "type": "function"
    },
    {
      "inputs": [],
      "name": "donId",
      "outputs": [
        {
          "internalType": "bytes32",
          "name": "",
          "type": "bytes32"
        }
      ],
      "stateMutability": "view",
      "type": "function"
    },
    {
      "inputs": [
        {
          "internalType": "uint256",
          "name": "betId_",
          "type": "uint256"
        },
        {
          "internalType": "bool",
          "name": "tipsterWon",
          "type": "bool"
        }
      ],
      "name": "endBetOwner",
      "outputs": [],
      "stateMutability": "nonpayable",
      "type": "function"
    },
    {
      "inputs": [
        {
          "internalType": "uint256",
          "name": "matchId",
          "type": "uint256"
        }
      ],
      "name": "endBetsUsingMatchId",
      "outputs": [],
      "stateMutability": "nonpayable",
      "type": "function"
    },
    {
      "inputs": [],
      "name": "getAllBets",
      "outputs": [
        {
          "internalType": "uint256[]",
          "name": "",
          "type": "uint256[]"
        }
      ],
      "stateMutability": "view",
      "type": "function"
    },
    {
      "inputs": [
        {
          "internalType": "uint256",
          "name": "betId",
          "type": "uint256"
        }
      ],
      "name": "getBet",
      "outputs": [
        {
          "components": [
            {
              "internalType": "uint256",
              "name": "betId",
              "type": "uint256"
            },
            {
              "internalType": "uint256",
              "name": "matchId",
              "type": "uint256"
            },
            {
              "internalType": "address",
              "name": "tipster",
              "type": "address"
            },
            {
              "internalType": "uint256",
              "name": "collateralGiven",
              "type": "uint256"
            },
            {
              "internalType": "uint256",
              "name": "moneyInBet",
              "type": "uint256"
            },
            {
              "internalType": "uint256",
              "name": "maxNumberOfChallengers",
              "type": "uint256"
            },
            {
              "internalType": "address[]",
              "name": "challengers",
              "type": "address[]"
            },
            {
              "internalType": "uint256[]",
              "name": "challengersMoneyBet",
              "type": "uint256[]"
            },
            {
              "internalType": "uint256",
              "name": "odds",
              "type": "uint256"
            },
            {
              "internalType": "uint256",
              "name": "maxEntryFee",
              "type": "uint256"
            },
            {
              "internalType": "uint256",
              "name": "fee",
              "type": "uint256"
            },
            {
              "internalType": "bool",
              "name": "tipsterWon",
              "type": "bool"
            },
            {
              "internalType": "bool",
              "name": "ended",
              "type": "bool"
            },
            {
              "internalType": "uint256",
              "name": "startMatchTimestamp",
              "type": "uint256"
            },
            {
              "internalType": "uint256[]",
              "name": "betData",
              "type": "uint256[]"
            }
          ],
          "internalType": "struct P2PBetting.Bet",
          "name": "",
          "type": "tuple"
        }
      ],
      "stateMutability": "view",
      "type": "function"
    },
    {
      "inputs": [
        {
          "internalType": "uint256",
          "name": "betId_",
          "type": "uint256"
        }
      ],
      "name": "getCollateralBack",
      "outputs": [],
      "stateMutability": "nonpayable",
      "type": "function"
    },
    {
      "inputs": [],
      "name": "getFee",
      "outputs": [
        {
          "internalType": "uint256",
          "name": "",
          "type": "uint256"
        }
      ],
      "stateMutability": "view",
      "type": "function"
    },
    {
      "inputs": [],
      "name": "getFeesCollected",
      "outputs": [
        {
          "internalType": "uint256",
          "name": "",
          "type": "uint256"
        }
      ],
      "stateMutability": "view",
      "type": "function"
    },
    {
      "inputs": [],
      "name": "getIntervalForAutomation",
      "outputs": [
        {
          "internalType": "uint256",
          "name": "",
          "type": "uint256"
        }
      ],
      "stateMutability": "view",
      "type": "function"
    },
    {
      "inputs": [],
      "name": "getLastTimestamp",
      "outputs": [
        {
          "internalType": "uint256",
          "name": "",
          "type": "uint256"
        }
      ],
      "stateMutability": "view",
      "type": "function"
    },
    {
      "inputs": [
        {
          "internalType": "uint256",
          "name": "matchId",
          "type": "uint256"
        }
      ],
      "name": "getMatch",
      "outputs": [
        {
          "components": [
            {
              "internalType": "uint256",
              "name": "matchId",
              "type": "uint256"
            },
            {
              "internalType": "string",
              "name": "home",
              "type": "string"
            },
            {
              "internalType": "string",
              "name": "away",
              "type": "string"
            },
            {
              "internalType": "uint256",
              "name": "pointsHome",
              "type": "uint256"
            },
            {
              "internalType": "uint256",
              "name": "pointsAway",
              "type": "uint256"
            },
            {
              "internalType": "uint256",
              "name": "timeOfGame",
              "type": "uint256"
            },
            {
              "internalType": "bool",
              "name": "ended",
              "type": "bool"
            },
            {
              "internalType": "uint256[]",
              "name": "betsOfMatch",
              "type": "uint256[]"
            }
          ],
          "internalType": "struct P2PBetting.Match",
          "name": "",
          "type": "tuple"
        }
      ],
      "stateMutability": "view",
      "type": "function"
    },
    {
      "inputs": [],
      "name": "getNumberOfBets",
      "outputs": [
        {
          "internalType": "uint256",
          "name": "",
          "type": "uint256"
        }
      ],
      "stateMutability": "view",
      "type": "function"
    },
    {
      "inputs": [
        {
          "internalType": "uint256",
          "name": "betId_",
          "type": "uint256"
        }
      ],
      "name": "getNumberOfChallenger",
      "outputs": [
        {
          "internalType": "uint256",
          "name": "",
          "type": "uint256"
        }
      ],
      "stateMutability": "view",
      "type": "function"
    },
    {
      "inputs": [],
      "name": "getNumberOfMatchesDone",
      "outputs": [
        {
          "internalType": "uint256",
          "name": "",
          "type": "uint256"
        }
      ],
      "stateMutability": "view",
      "type": "function"
    },
    {
      "inputs": [],
      "name": "getOracle",
      "outputs": [
        {
          "internalType": "address",
          "name": "",
          "type": "address"
        }
      ],
      "stateMutability": "view",
      "type": "function"
    },
    {
      "inputs": [
        {
          "internalType": "address",
          "name": "user",
          "type": "address"
        }
      ],
      "name": "getProfile",
      "outputs": [
        {
          "components": [
            {
              "internalType": "int256",
              "name": "balanceVariation",
              "type": "int256"
            },
            {
              "internalType": "uint256[]",
              "name": "betIdHistory",
              "type": "uint256[]"
            }
          ],
          "internalType": "struct P2PBetting.Profile",
          "name": "",
          "type": "tuple"
        }
      ],
      "stateMutability": "view",
      "type": "function"
    },
    {
      "inputs": [
        {
          "internalType": "uint256",
          "name": "betId",
          "type": "uint256"
        },
        {
          "internalType": "uint256",
          "name": "numberOfChallenger",
          "type": "uint256"
        }
      ],
      "name": "getRewards",
      "outputs": [],
      "stateMutability": "nonpayable",
      "type": "function"
    },
    {
      "inputs": [],
      "name": "getTimestampToGetMatches",
      "outputs": [
        {
          "internalType": "uint256",
          "name": "",
          "type": "uint256"
        }
      ],
      "stateMutability": "view",
      "type": "function"
    },
    {
      "inputs": [
        {
          "internalType": "uint256",
          "name": "usdValue_",
          "type": "uint256"
        }
      ],
      "name": "getUsdConversionRate",
      "outputs": [
        {
          "internalType": "uint256",
          "name": "",
          "type": "uint256"
        }
      ],
      "stateMutability": "view",
      "type": "function"
    },
    {
      "inputs": [
        {
          "internalType": "bytes32",
          "name": "requestId",
          "type": "bytes32"
        },
        {
          "internalType": "bytes",
          "name": "response",
          "type": "bytes"
        },
        {
          "internalType": "bytes",
          "name": "err",
          "type": "bytes"
        }
      ],
      "name": "handleOracleFulfillment",
      "outputs": [],
      "stateMutability": "nonpayable",
      "type": "function"
    },
    {
      "inputs": [
        {
          "internalType": "uint256",
          "name": "betId_",
          "type": "uint256"
        }
      ],
      "name": "joinBet",
      "outputs": [],
      "stateMutability": "payable",
      "type": "function"
    },
    {
      "inputs": [],
      "name": "owner",
      "outputs": [
        {
          "internalType": "address",
          "name": "",
          "type": "address"
        }
      ],
      "stateMutability": "view",
      "type": "function"
    },
    {
      "inputs": [],
      "name": "renounceOwnership",
      "outputs": [],
      "stateMutability": "nonpayable",
      "type": "function"
    },
    {
      "inputs": [],
      "name": "s_lastError",
      "outputs": [
        {
          "internalType": "bytes",
          "name": "",
          "type": "bytes"
        }
      ],
      "stateMutability": "view",
      "type": "function"
    },
    {
      "inputs": [],
      "name": "s_lastRequestId",
      "outputs": [
        {
          "internalType": "bytes32",
          "name": "",
          "type": "bytes32"
        }
      ],
      "stateMutability": "view",
      "type": "function"
    },
    {
      "inputs": [],
      "name": "s_lastResponse",
      "outputs": [
        {
          "internalType": "bytes",
          "name": "",
          "type": "bytes"
        }
      ],
      "stateMutability": "view",
      "type": "function"
    },
    {
      "inputs": [
        {
          "internalType": "bytes32",
          "name": "newDonId",
          "type": "bytes32"
        }
      ],
      "name": "setDonId",
      "outputs": [],
      "stateMutability": "nonpayable",
      "type": "function"
    },
    {
      "inputs": [
        {
          "internalType": "uint256",
          "name": "newFee",
          "type": "uint256"
        }
      ],
      "name": "setFee",
      "outputs": [],
      "stateMutability": "nonpayable",
      "type": "function"
    },
    {
      "inputs": [
        {
          "internalType": "uint256",
          "name": "newInterval",
          "type": "uint256"
        }
      ],
      "name": "setIntervalForAutomation",
      "outputs": [],
      "stateMutability": "nonpayable",
      "type": "function"
    },
    {
      "inputs": [
        {
          "internalType": "uint256",
          "name": "betId_",
          "type": "uint256"
        },
        {
          "internalType": "uint256",
          "name": "newTimestamp",
          "type": "uint256"
        }
      ],
      "name": "setStartMatchTimestamp",
      "outputs": [],
      "stateMutability": "nonpayable",
      "type": "function"
    },
    {
      "inputs": [
        {
          "internalType": "uint256",
          "name": "newTimestamp",
          "type": "uint256"
        }
      ],
      "name": "setTimestampToGetMatches",
      "outputs": [],
      "stateMutability": "nonpayable",
      "type": "function"
    },
    {
      "inputs": [
        {
          "internalType": "address",
          "name": "newOracle",
          "type": "address"
        }
      ],
      "name": "setUsdOracle",
      "outputs": [],
      "stateMutability": "nonpayable",
      "type": "function"
    },
    {
      "inputs": [
        {
          "internalType": "uint256",
          "name": "gameId",
          "type": "uint256"
        }
      ],
      "name": "testEndMatch",
      "outputs": [],
      "stateMutability": "nonpayable",
      "type": "function"
    },
    {
      "inputs": [
        {
          "internalType": "uint256",
          "name": "gameId",
          "type": "uint256"
        },
        {
          "internalType": "uint256",
          "name": "timestamp",
          "type": "uint256"
        },
        {
          "internalType": "string",
          "name": "home_",
          "type": "string"
        },
        {
          "internalType": "string",
          "name": "away_",
          "type": "string"
        },
        {
          "internalType": "uint256",
          "name": "pointsHome_",
          "type": "uint256"
        },
        {
          "internalType": "uint256",
          "name": "pointsAway_",
          "type": "uint256"
        }
      ],
      "name": "testingAddMatch",
      "outputs": [],
      "stateMutability": "nonpayable",
      "type": "function"
    },
    {
      "inputs": [
        {
          "internalType": "address",
          "name": "newOwner",
          "type": "address"
        }
      ],
      "name": "transferOwnership",
      "outputs": [],
      "stateMutability": "nonpayable",
      "type": "function"
    },
    {
      "inputs": [
        {
          "internalType": "uint256",
          "name": "_value",
          "type": "uint256"
        }
      ],
      "name": "uintToString",
      "outputs": [
        {
          "internalType": "string",
          "name": "",
          "type": "string"
        }
      ],
      "stateMutability": "pure",
      "type": "function"
    }
  ],
  "bytecode": "0x60a06040526301c9c380600460006101000a81548163ffffffff021916908363ffffffff16021790555073a9d587a00a31a52ed70d6026794a8fc5e2f5dcb06004806101000a81548173ffffffffffffffffffffffffffffffffffffffff021916908373ffffffffffffffffffffffffffffffffffffffff160217905550612065600460186101000a81548167ffffffffffffffff021916908367ffffffffffffffff1602179055507f66756e2d6176616c616e6368652d66756a692d3100000000000000000000000060001b6005556040518060400160405280600181526020017f30000000000000000000000000000000000000000000000000000000000000008152506006908162000115919062000701565b506040518060400160405280600181526020017f3000000000000000000000000000000000000000000000000000000000000000815250600790816200015c919062000701565b5062015180600b556000600e553480156200017657600080fd5b50604051620068773803806200687783398181016040528101906200019c9190620008c8565b60048054906101000a900473ffffffffffffffffffffffffffffffffffffffff16620001dd620001d16200026b60201b60201c565b6200027360201b60201c565b8073ffffffffffffffffffffffffffffffffffffffff1660808173ffffffffffffffffffffffffffffffffffffffff16815250505062000223826200033760201b60201c565b6103e88362000233919062000953565b60098190555080600460186101000a81548167ffffffffffffffff021916908367ffffffffffffffff16021790555050505062000ab9565b600033905090565b60008060009054906101000a900473ffffffffffffffffffffffffffffffffffffffff169050816000806101000a81548173ffffffffffffffffffffffffffffffffffffffff021916908373ffffffffffffffffffffffffffffffffffffffff1602179055508173ffffffffffffffffffffffffffffffffffffffff168173ffffffffffffffffffffffffffffffffffffffff167f8be0079c531659141344cd1fd0a4f28419497f9722a3daafe3b4186f6b6457e060405160405180910390a35050565b62000347620003cd60201b60201c565b600073ffffffffffffffffffffffffffffffffffffffff168173ffffffffffffffffffffffffffffffffffffffff1603620003b9576040517f08c379a0000000000000000000000000000000000000000000000000000000008152600401620003b09062000a25565b60405180910390fd5b620003ca816200027360201b60201c565b50565b620003dd6200026b60201b60201c565b73ffffffffffffffffffffffffffffffffffffffff16620004036200045e60201b60201c565b73ffffffffffffffffffffffffffffffffffffffff16146200045c576040517f08c379a0000000000000000000000000000000000000000000000000000000008152600401620004539062000a97565b60405180910390fd5b565b60008060009054906101000a900473ffffffffffffffffffffffffffffffffffffffff16905090565b600081519050919050565b7f4e487b7100000000000000000000000000000000000000000000000000000000600052604160045260246000fd5b7f4e487b7100000000000000000000000000000000000000000000000000000000600052602260045260246000fd5b600060028204905060018216806200050957607f821691505b6020821081036200051f576200051e620004c1565b5b50919050565b60008190508160005260206000209050919050565b60006020601f8301049050919050565b600082821b905092915050565b600060088302620005897fffffffffffffffffffffffffffffffffffffffffffffffffffffffffffffffff826200054a565b6200059586836200054a565b95508019841693508086168417925050509392505050565b6000819050919050565b6000819050919050565b6000620005e2620005dc620005d684620005ad565b620005b7565b620005ad565b9050919050565b6000819050919050565b620005fe83620005c1565b620006166200060d82620005e9565b84845462000557565b825550505050565b600090565b6200062d6200061e565b6200063a818484620005f3565b505050565b5b8181101562000662576200065660008262000623565b60018101905062000640565b5050565b601f821115620006b1576200067b8162000525565b62000686846200053a565b8101602085101562000696578190505b620006ae620006a5856200053a565b8301826200063f565b50505b505050565b600082821c905092915050565b6000620006d660001984600802620006b6565b1980831691505092915050565b6000620006f18383620006c3565b9150826002028217905092915050565b6200070c8262000487565b67ffffffffffffffff81111562000728576200072762000492565b5b620007348254620004f0565b6200074182828562000666565b600060209050601f83116001811462000779576000841562000764578287015190505b620007708582620006e3565b865550620007e0565b601f198416620007898662000525565b60005b82811015620007b3578489015182556001820191506020850194506020810190506200078c565b86831015620007d35784890151620007cf601f891682620006c3565b8355505b6001600288020188555050505b505050505050565b600080fd5b620007f881620005ad565b81146200080457600080fd5b50565b6000815190506200081881620007ed565b92915050565b600073ffffffffffffffffffffffffffffffffffffffff82169050919050565b60006200084b826200081e565b9050919050565b6200085d816200083e565b81146200086957600080fd5b50565b6000815190506200087d8162000852565b92915050565b600067ffffffffffffffff82169050919050565b620008a28162000883565b8114620008ae57600080fd5b50565b600081519050620008c28162000897565b92915050565b600080600060608486031215620008e457620008e3620007e8565b5b6000620008f48682870162000807565b935050602062000907868287016200086c565b92505060406200091a86828701620008b1565b9150509250925092565b7f4e487b7100000000000000000000000000000000000000000000000000000000600052601160045260246000fd5b60006200096082620005ad565b91506200096d83620005ad565b92508282026200097d81620005ad565b9150828204841483151762000997576200099662000924565b5b5092915050565b600082825260208201905092915050565b7f4f776e61626c653a206e6577206f776e657220697320746865207a65726f206160008201527f6464726573730000000000000000000000000000000000000000000000000000602082015250565b600062000a0d6026836200099e565b915062000a1a82620009af565b604082019050919050565b6000602082019050818103600083015262000a4081620009fe565b9050919050565b7f4f776e61626c653a2063616c6c6572206973206e6f7420746865206f776e6572600082015250565b600062000a7f6020836200099e565b915062000a8c8262000a47565b602082019050919050565b6000602082019050818103600083015262000ab28162000a70565b9050919050565b608051615da262000ad56000396000610aea0152615da26000f3fe6080604052600436106102255760003560e01c8063800a716b11610123578063c325340b116100ab578063e93956791161006f578063e93956791461079f578063f222d0b9146107dc578063f2fde38b14610807578063f39522e414610830578063fb32e6271461086d57610225565b8063c325340b146106de578063c879657214610709578063cc11298e14610720578063ced72f8714610749578063d4aae80f1461077457610225565b80638dbe7b9d116100f25780638dbe7b9d1461060d578063b1e2174914610638578063b238322d14610663578063b740af791461068c578063bf4e2858146106b557610225565b8063800a716b14610565578063833b1fce1461058e5780638b6f14f3146105b95780638da5cb5b146105e257610225565b80634b0795a8116101b15780636c0106d1116101755780636c0106d1146104a8578063700eae73146104d1578063715018a6146104fc578063785179861461051357806378ca5de71461053c57610225565b80634b0795a8146103e45780636605d3f21461040f578063677306da1461042b57806369fe0e2d146104565780636bdfaee71461047f57610225565b80632ddd9aff116101f85780632ddd9aff146102f857806337899770146103355780633944ea3a1461036057806339fb3f451461038b5780633d092b3d146103a757610225565b8063061e494f1461022a5780630ca76175146102675780630f53a4701461029057806311e59e14146102cd575b600080fd5b34801561023657600080fd5b50610251600480360381019061024c919061470f565b610896565b60405161025e9190614a56565b60405180910390f35b34801561027357600080fd5b5061028e60048036038101906102899190614bf4565b610ae8565b005b34801561029c57600080fd5b506102b760048036038101906102b29190614cab565b610baa565b6040516102c49190614d2e565b60405180910390f35b3480156102d957600080fd5b506102e2610c65565b6040516102ef9190614d5f565b60405180910390f35b34801561030457600080fd5b5061031f600480360381019061031a919061470f565b610c6f565b60405161032c9190614d5f565b60405180910390f35b34801561034157600080fd5b5061034a610d4c565b6040516103579190614d5f565b60405180910390f35b34801561036c57600080fd5b50610375610d56565b6040516103829190614df9565b60405180910390f35b6103a560048036038101906103a0919061470f565b610de4565b005b3480156103b357600080fd5b506103ce60048036038101906103c9919061470f565b6112f0565b6040516103db9190614f2e565b60405180910390f35b3480156103f057600080fd5b506103f96114dd565b6040516104069190614df9565b60405180910390f35b61042960048036038101906104249190615018565b61156b565b005b34801561043757600080fd5b506104406119a0565b60405161044d9190614d5f565b60405180910390f35b34801561046257600080fd5b5061047d6004803603810190610478919061470f565b6119aa565b005b34801561048b57600080fd5b506104a660048036038101906104a1919061470f565b6119f2565b005b3480156104b457600080fd5b506104cf60048036038101906104ca919061470f565b611a06565b005b3480156104dd57600080fd5b506104e6611a40565b6040516104f3919061511e565b60405180910390f35b34801561050857600080fd5b50610511611a98565b005b34801561051f57600080fd5b5061053a60048036038101906105359190615140565b611aac565b005b34801561054857600080fd5b50610563600480360381019061055e9190615180565b611ad1565b005b34801561057157600080fd5b5061058c600480360381019061058791906151d9565b611ae3565b005b34801561059a57600080fd5b506105a3611b4c565b6040516105b09190615228565b60405180910390f35b3480156105c557600080fd5b506105e060048036038101906105db919061470f565b611b76565b005b3480156105ee57600080fd5b506105f7611b88565b6040516106049190615228565b60405180910390f35b34801561061957600080fd5b50610622611bb1565b60405161062f9190615252565b60405180910390f35b34801561064457600080fd5b5061064d611bb7565b60405161065a9190615252565b60405180910390f35b34801561066f57600080fd5b5061068a6004803603810190610685919061530e565b611bbd565b005b34801561069857600080fd5b506106b360048036038101906106ae9190614cab565b611ce1565b005b3480156106c157600080fd5b506106dc60048036038101906106d7919061470f565b611d70565b005b3480156106ea57600080fd5b506106f36120f0565b6040516107009190614d5f565b60405180910390f35b34801561071557600080fd5b5061071e6120fa565b005b34801561072c57600080fd5b5061074760048036038101906107429190615140565b6121e6565b005b34801561075557600080fd5b5061075e612920565b60405161076b9190614d5f565b60405180910390f35b34801561078057600080fd5b5061078961292a565b6040516107969190614d5f565b60405180910390f35b3480156107ab57600080fd5b506107c660048036038101906107c1919061470f565b612934565b6040516107d3919061541d565b60405180910390f35b3480156107e857600080fd5b506107f1612a94565b6040516107fe9190614d5f565b60405180910390f35b34801561081357600080fd5b5061082e60048036038101906108299190614cab565b612a9e565b005b34801561083c57600080fd5b506108576004803603810190610852919061470f565b612b21565b6040516108649190614d5f565b60405180910390f35b34801561087957600080fd5b50610894600480360381019061088f919061470f565b612c6f565b005b61089e6144e0565b60116000838152602001908152602001600020604051806101e001604052908160008201548152602001600182015481526020016002820160009054906101000a900473ffffffffffffffffffffffffffffffffffffffff1673ffffffffffffffffffffffffffffffffffffffff1673ffffffffffffffffffffffffffffffffffffffff168152602001600382015481526020016004820154815260200160058201548152602001600682018054806020026020016040519081016040528092919081815260200182805480156109ca57602002820191906000526020600020905b8160009054906101000a900473ffffffffffffffffffffffffffffffffffffffff1673ffffffffffffffffffffffffffffffffffffffff1681526020019060010190808311610980575b5050505050815260200160078201805480602002602001604051908101604052809291908181526020018280548015610a2257602002820191906000526020600020905b815481526020019060010190808311610a0e575b505050505081526020016008820154815260200160098201548152602001600a8201548152602001600b820160009054906101000a900460ff16151515158152602001600b820160019054906101000a900460ff16151515158152602001600c8201548152602001600d8201805480602002602001604051908101604052809291908181526020018280548015610ad857602002820191906000526020600020905b815481526020019060010190808311610ac4575b5050505050815250509050919050565b7f000000000000000000000000000000000000000000000000000000000000000073ffffffffffffffffffffffffffffffffffffffff163373ffffffffffffffffffffffffffffffffffffffff1614610b6d576040517fc6829f8300000000000000000000000000000000000000000000000000000000815260040160405180910390fd5b610b78838383612c81565b827f85e1543bf2f84fe80c6badbce3648c8539ad1df4d2b3d822938ca0538be727e660405160405180910390a2505050565b610bb2614570565b601060008373ffffffffffffffffffffffffffffffffffffffff1673ffffffffffffffffffffffffffffffffffffffff1681526020019081526020016000206040518060400160405290816000820154815260200160018201805480602002602001604051908101604052809291908181526020018280548015610c5557602002820191906000526020600020905b815481526020019060010190808311610c41575b5050505050815250509050919050565b6000600b54905090565b600080600860009054906101000a900473ffffffffffffffffffffffffffffffffffffffff1673ffffffffffffffffffffffffffffffffffffffff1663feaf968c6040518163ffffffff1660e01b815260040160a060405180830381865afa158015610cdf573d6000803e3d6000fd5b505050506040513d601f19601f82011682018060405250810190610d0391906154c2565b50505091505060006402540be40082610d1c919061556c565b9050600081670de0b6b3a764000086610d3591906155e4565b610d3f9190615655565b9050809350505050919050565b6000600c54905090565b60028054610d63906156b5565b80601f0160208091040260200160405190810160405280929190818152602001828054610d8f906156b5565b8015610ddc5780601f10610db157610100808354040283529160200191610ddc565b820191906000526020600020905b815481529060010190602001808311610dbf57829003601f168201915b505050505081565b600060116000838152602001908152602001600020604051806101e001604052908160008201548152602001600182015481526020016002820160009054906101000a900473ffffffffffffffffffffffffffffffffffffffff1673ffffffffffffffffffffffffffffffffffffffff1673ffffffffffffffffffffffffffffffffffffffff16815260200160038201548152602001600482015481526020016005820154815260200160068201805480602002602001604051908101604052809291908181526020018280548015610f1257602002820191906000526020600020905b8160009054906101000a900473ffffffffffffffffffffffffffffffffffffffff1673ffffffffffffffffffffffffffffffffffffffff1681526020019060010190808311610ec8575b5050505050815260200160078201805480602002602001604051908101604052809291908181526020018280548015610f6a57602002820191906000526020600020905b815481526020019060010190808311610f56575b505050505081526020016008820154815260200160098201548152602001600a8201548152602001600b820160009054906101000a900460ff16151515158152602001600b820160019054906101000a900460ff16151515158152602001600c8201548152602001600d820180548060200260200160405190810160405280929190818152602001828054801561102057602002820191906000526020600020905b81548152602001906001019080831161100c575b50505050508152505090508060c00151518160a001511161106d576040517f81071d2800000000000000000000000000000000000000000000000000000000815260040160405180910390fd5b8061012001513411156110ac576040517fed47562600000000000000000000000000000000000000000000000000000000815260040160405180910390fd5b806101800151806110ce5750806101a00151610258426110cc91906156e6565b115b15611105576040517fba05bf4700000000000000000000000000000000000000000000000000000000815260040160405180910390fd5b60116000838152602001908152602001600020600601339080600181540180825580915050600190039060005260206000200160009091909190916101000a81548173ffffffffffffffffffffffffffffffffffffffff021916908373ffffffffffffffffffffffffffffffffffffffff16021790555060116000838152602001908152602001600020600701349080600181540180825580915050600190039060005260206000200160009091909190915055346011600084815260200190815260200160002060040160008282546111df91906156e6565b92505081905550601060003373ffffffffffffffffffffffffffffffffffffffff1673ffffffffffffffffffffffffffffffffffffffff16815260200190815260200160002060010182908060018154018082558091505060019003906000526020600020016000909190919091505534601060003373ffffffffffffffffffffffffffffffffffffffff1673ffffffffffffffffffffffffffffffffffffffff16815260200190815260200160002060000160008282546112a1919061571a565b92505081905550813373ffffffffffffffffffffffffffffffffffffffff167f36ded20b495c4e5f788b261f134395c38eb7360ff2bb88fc16c7b6775193932860405160405180910390a35050565b6112f861458a565b601260008381526020019081526020016000206040518061010001604052908160008201548152602001600182018054611331906156b5565b80601f016020809104026020016040519081016040528092919081815260200182805461135d906156b5565b80156113aa5780601f1061137f576101008083540402835291602001916113aa565b820191906000526020600020905b81548152906001019060200180831161138d57829003601f168201915b505050505081526020016002820180546113c3906156b5565b80601f01602080910402602001604051908101604052809291908181526020018280546113ef906156b5565b801561143c5780601f106114115761010080835404028352916020019161143c565b820191906000526020600020905b81548152906001019060200180831161141f57829003601f168201915b505050505081526020016003820154815260200160048201548152602001600582015481526020016006820160009054906101000a900460ff16151515158152602001600782018054806020026020016040519081016040528092919081815260200182805480156114cd57602002820191906000526020600020905b8154815260200190600101908083116114b9575b5050505050815250509050919050565b600380546114ea906156b5565b80601f0160208091040260200160405190810160405280929190818152602001828054611516906156b5565b80156115635780601f1061153857610100808354040283529160200191611563565b820191906000526020600020905b81548152906001019060200180831161154657829003601f168201915b505050505081565b600084036115a5576040517f0d27d3e900000000000000000000000000000000000000000000000000000000815260040160405180910390fd5b600082036115df576040517f2e2785d600000000000000000000000000000000000000000000000000000000815260040160405180910390fd5b60028151101561161b576040517fc4819f9d00000000000000000000000000000000000000000000000000000000815260040160405180910390fd5b6116236144e0565b33816040019073ffffffffffffffffffffffffffffffffffffffff16908173ffffffffffffffffffffffffffffffffffffffff1681525050848160a001818152505083816101000181815250506009548161014001818152505085816020018181525050828161012001818152505081816101c001819052503481608001818152505034816060018181525050600e548160000181815250506012600087815260200190815260200160002060050154816101a00181815250508060116000600e548152602001908152602001600020600082015181600001556020820151816001015560408201518160020160006101000a81548173ffffffffffffffffffffffffffffffffffffffff021916908373ffffffffffffffffffffffffffffffffffffffff160217905550606082015181600301556080820151816004015560a0820151816005015560c08201518160060190805190602001906117889291906145d1565b5060e08201518160070190805190602001906117a592919061465b565b506101008201518160080155610120820151816009015561014082015181600a015561016082015181600b0160006101000a81548160ff02191690831515021790555061018082015181600b0160016101000a81548160ff0219169083151502179055506101a082015181600c01556101c082015181600d01908051906020019061183192919061465b565b50905050601060003373ffffffffffffffffffffffffffffffffffffffff1673ffffffffffffffffffffffffffffffffffffffff168152602001908152602001600020600101600e54908060018154018082558091505060019003906000526020600020016000909190919091505534601060003373ffffffffffffffffffffffffffffffffffffffff1673ffffffffffffffffffffffffffffffffffffffff16815260200190815260200160002060000160008282546118f2919061571a565b9250508190555060126000878152602001908152602001600020600701600e549080600181540180825580915050600190039060005260206000200160009091909190915055600e600081548092919061194b9061575d565b91905055508484847fbe5a78b4c9e5bd34e20d793f7a455a9d350624e5e173ee900fd14880f679f1e16001600e5461198391906157a5565b6040516119909190614d5f565b60405180910390a4505050505050565b6000600d54905090565b6119b2613156565b600060095490508160098190555081817f3ddd765e918a581cb556c6b10e6c7cb12c695d5eb7516a9be17358dec5ef3c9660405160405180910390a35050565b6119fa613156565b611a03816131d4565b50565b611a0e613156565b60016012600083815260200190815260200160002060060160006101000a81548160ff02191690831515021790555050565b60606014805480602002602001604051908101604052809291908181526020018280548015611a8e57602002820191906000526020600020905b815481526020019060010190808311611a7a575b5050505050905090565b611aa0613156565b611aaa6000614315565b565b60006011600084815260200190815260200160002090508181600c0181905550505050565b611ad9613156565b8060058190555050565b611aeb613156565b8060116000848152602001908152602001600020600b0160006101000a81548160ff021916908315150217905550600160116000848152602001908152602001600020600b0160016101000a81548160ff0219169083151502179055505050565b6000600860009054906101000a900473ffffffffffffffffffffffffffffffffffffffff16905090565b611b7e613156565b80600d8190555050565b60008060009054906101000a900473ffffffffffffffffffffffffffffffffffffffff16905090565b60055481565b60015481565b611bc5613156565b611bcd61458a565b86816000018181525050858160a001818152505084816020018190525083816040018190525082816060018181525050818160800181815250508060126000898152602001908152602001600020600082015181600001556020820151816001019081611c3a9190615985565b506040820151816002019081611c509190615985565b50606082015181600301556080820151816004015560a0820151816005015560c08201518160060160006101000a81548160ff02191690831515021790555060e0820151816007019080519060200190611cab92919061465b565b50905050601487908060018154018082558091505060019003906000526020600020016000909190919091505550505050505050565b611ce9613156565b80600860006101000a81548173ffffffffffffffffffffffffffffffffffffffff021916908373ffffffffffffffffffffffffffffffffffffffff1602179055508073ffffffffffffffffffffffffffffffffffffffff167f6f4d463f06d6303ccb5e5f3efff065c43013611c234549b89243f40257a7b72260405160405180910390a250565b600060116000838152602001908152602001600020604051806101e001604052908160008201548152602001600182015481526020016002820160009054906101000a900473ffffffffffffffffffffffffffffffffffffffff1673ffffffffffffffffffffffffffffffffffffffff1673ffffffffffffffffffffffffffffffffffffffff16815260200160038201548152602001600482015481526020016005820154815260200160068201805480602002602001604051908101604052809291908181526020018280548015611e9e57602002820191906000526020600020905b8160009054906101000a900473ffffffffffffffffffffffffffffffffffffffff1673ffffffffffffffffffffffffffffffffffffffff1681526020019060010190808311611e54575b5050505050815260200160078201805480602002602001604051908101604052809291908181526020018280548015611ef657602002820191906000526020600020905b815481526020019060010190808311611ee2575b505050505081526020016008820154815260200160098201548152602001600a8201548152602001600b820160009054906101000a900460ff16151515158152602001600b820160019054906101000a900460ff16151515158152602001600c8201548152602001600d8201805480602002602001604051908101604052809291908181526020018280548015611fac57602002820191906000526020600020905b815481526020019060010190808311611f98575b50505050508152505090506000816060015103611ff5576040517fdfba2d6c00000000000000000000000000000000000000000000000000000000815260040160405180910390fd5b806101800151158061200957508061016001515b15612040576040517ff0f84dd500000000000000000000000000000000000000000000000000000000815260040160405180910390fd5b60006103e88261010001518360600151846080015161205f91906157a5565b61206991906155e4565b6120739190615655565b826080015161208291906157a5565b905060006011600085815260200190815260200160002060030181905550816040015173ffffffffffffffffffffffffffffffffffffffff166108fc829081150290604051600060405180830381858888f193505050501580156120ea573d6000803e3d6000fd5b50505050565b6000600f54905090565b6000612104611b88565b73ffffffffffffffffffffffffffffffffffffffff16600a5460405161212990615a88565b60006040518083038185875af1925050503d8060008114612166576040519150601f19603f3d011682016040523d82523d6000602084013e61216b565b606091505b50509050806121a6576040517f4a5f2a1b00000000000000000000000000000000000000000000000000000000815260040160405180910390fd5b6000600a5490506000600a81905550807ff4f2ad6f4b10f9853be76745070984d581f6da2399617776ec329308e46d080460405160405180910390a25050565b600060116000848152602001908152602001600020604051806101e001604052908160008201548152602001600182015481526020016002820160009054906101000a900473ffffffffffffffffffffffffffffffffffffffff1673ffffffffffffffffffffffffffffffffffffffff1673ffffffffffffffffffffffffffffffffffffffff1681526020016003820154815260200160048201548152602001600582015481526020016006820180548060200260200160405190810160405280929190818152602001828054801561231457602002820191906000526020600020905b8160009054906101000a900473ffffffffffffffffffffffffffffffffffffffff1673ffffffffffffffffffffffffffffffffffffffff16815260200190600101908083116122ca575b505050505081526020016007820180548060200260200160405190810160405280929190818152602001828054801561236c57602002820191906000526020600020905b815481526020019060010190808311612358575b505050505081526020016008820154815260200160098201548152602001600a8201548152602001600b820160009054906101000a900460ff16151515158152602001600b820160019054906101000a900460ff16151515158152602001600c8201548152602001600d820180548060200260200160405190810160405280929190818152602001828054801561242257602002820191906000526020600020905b81548152602001906001019080831161240e575b5050505050815250509050806040015173ffffffffffffffffffffffffffffffffffffffff163373ffffffffffffffffffffffffffffffffffffffff1614801561246e57508061016001515b801561247f57506000816080015114155b801561248d57508061018001515b15612626578060800151601060003373ffffffffffffffffffffffffffffffffffffffff1673ffffffffffffffffffffffffffffffffffffffff16815260200190815260200160002060000160008282546124e89190615a9d565b9250508190555060006103e880606461250191906155e4565b61250b91906155e4565b8261014001518361010001518460600151856080015161252b91906157a5565b61253591906155e4565b61253f91906155e4565b6125499190615655565b9050600081836080015161255d91906157a5565b90506000601160008781526020019081526020016000206004018190555081600a600082825461258d91906156e6565b925050819055503373ffffffffffffffffffffffffffffffffffffffff166108fc829081150290604051600060405180830381858888f193505050501580156125da573d6000803e3d6000fd5b50803373ffffffffffffffffffffffffffffffffffffffff167f3c92031d788fb886d6b0cef0d544d742f65fe462e576906cfe03a5f36ef1244060405160405180910390a3505061291b565b8060c00151518210801561268357508060c00151828151811061264c5761264b615ae1565b5b602002602001015173ffffffffffffffffffffffffffffffffffffffff163373ffffffffffffffffffffffffffffffffffffffff16145b80156126ae575060008160e0015183815181106126a3576126a2615ae1565b5b602002602001015114155b80156126bc57508061018001515b80156126cb5750806101600151155b156128e85760006103e88260e0015184815181106126ec576126eb615ae1565b5b602002602001015183610100015161270491906155e4565b61270e9190615655565b905080601060003373ffffffffffffffffffffffffffffffffffffffff1673ffffffffffffffffffffffffffffffffffffffff16815260200190815260200160002060000160008282546127629190615a9d565b9250508190555060006103e8606461277a91906155e4565b8361014001518361278b91906155e4565b6127959190615655565b9050600081836127a591906157a5565b905060006011600088815260200190815260200160002060070186815481106127d1576127d0615ae1565b5b906000526020600020018190555081600a60008282546127f191906156e6565b9250508190555060003373ffffffffffffffffffffffffffffffffffffffff168260405161281e90615a88565b60006040518083038185875af1925050503d806000811461285b576040519150601f19603f3d011682016040523d82523d6000602084013e612860565b606091505b505090508061289b576040517f4a5f2a1b00000000000000000000000000000000000000000000000000000000815260040160405180910390fd5b813373ffffffffffffffffffffffffffffffffffffffff167f3c92031d788fb886d6b0cef0d544d742f65fe462e576906cfe03a5f36ef1244060405160405180910390a35050505061291a565b6040517fdfba2d6c00000000000000000000000000000000000000000000000000000000815260040160405180910390fd5b5b505050565b6000600954905090565b6000600a54905090565b60606000820361297b576040518060400160405280600181526020017f30000000000000000000000000000000000000000000000000000000000000008152509050612a8f565b600082905060005b600082146129ad5780806129969061575d565b915050600a826129a69190615655565b9150612983565b60008167ffffffffffffffff8111156129c9576129c8614ac9565b5b6040519080825280601f01601f1916602001820160405280156129fb5781602001600182028036833780820191505090505b5090505b60008514612a8857600182612a1491906157a5565b9150600a85612a239190615b10565b6030612a2f91906156e6565b60f81b818381518110612a4557612a44615ae1565b5b60200101907effffffffffffffffffffffffffffffffffffffffffffffffffffffffffffff1916908160001a905350600a85612a819190615655565b94506129ff565b8093505050505b919050565b6000600e54905090565b612aa6613156565b600073ffffffffffffffffffffffffffffffffffffffff168173ffffffffffffffffffffffffffffffffffffffff1603612b15576040517f08c379a0000000000000000000000000000000000000000000000000000000008152600401612b0c90615bb3565b60405180910390fd5b612b1e81614315565b50565b60008060116000848152602001908152602001600020600601805480602002602001604051908101604052809291908181526020018280548015612bba57602002820191906000526020600020905b8160009054906101000a900473ffffffffffffffffffffffffffffffffffffffff1673ffffffffffffffffffffffffffffffffffffffff1681526020019060010190808311612b70575b5050505050905060005b8151811015612c37573373ffffffffffffffffffffffffffffffffffffffff16828281518110612bf757612bf6615ae1565b5b602002602001015173ffffffffffffffffffffffffffffffffffffffff1603612c24578092505050612c6a565b8080612c2f9061575d565b915050612bc4565b506040517f1fe25f4c00000000000000000000000000000000000000000000000000000000815260040160405180910390fd5b919050565b612c77613156565b80600b8190555050565b8160029081612c909190615c2e565b508060039081612ca09190615c2e565b5060008060808451108015612cb757506000845114155b15612fb857602082018401519050602082612cd291906156e6565b9150600080602084018601519150602084612ced91906156e6565b93506020840186015190506000601260008581526020019081526020016000206040518061010001604052908160008201548152602001600182018054612d33906156b5565b80601f0160208091040260200160405190810160405280929190818152602001828054612d5f906156b5565b8015612dac5780601f10612d8157610100808354040283529160200191612dac565b820191906000526020600020905b815481529060010190602001808311612d8f57829003601f168201915b50505050508152602001600282018054612dc5906156b5565b80601f0160208091040260200160405190810160405280929190818152602001828054612df1906156b5565b8015612e3e5780601f10612e1357610100808354040283529160200191612e3e565b820191906000526020600020905b815481529060010190602001808311612e2157829003601f168201915b505050505081526020016003820154815260200160048201548152602001600582015481526020016006820160009054906101000a900460ff1615151515815260200160078201805480602002602001604051908101604052809291908181526020018280548015612ecf57602002820191906000526020600020905b815481526020019060010190808311612ebb575b5050505050815250509050828160600181815250508181608001818152505060018160c00190151590811515815250508060126000868152602001908152602001600020600082015181600001556020820151816001019081612f329190615985565b506040820151816002019081612f489190615985565b50606082015181600301556080820151816004015560a0820151816005015560c08201518160060160006101000a81548160ff02191690831515021790555060e0820151816007019080519060200190612fa392919061465b565b50905050612fb0846131d4565b50505061314f565b5b835182101561314e57602082018401519050602082612fd891906156e6565b91506000602083018501519050602083612ff291906156e6565b9250600061300086856143d9565b905060208461300f91906156e6565b9350600061301d87866143d9565b905060208561302c91906156e6565b945061303661458a565b84816000018181525050818160200181905250828160400181905250838160a0018181525050806012600087815260200190815260200160002060008201518160000155602082015181600101908161308f9190615985565b5060408201518160020190816130a59190615985565b50606082015181600301556080820151816004015560a0820151816005015560c08201518160060160006101000a81548160ff02191690831515021790555060e082015181600701908051906020019061310092919061465b565b50905050600f60008154809291906131179061575d565b9190505550601485908060018154018082558091505060019003906000526020600020016000909190919091505550505050612fb9565b5b5050505050565b61315e6144d8565b73ffffffffffffffffffffffffffffffffffffffff1661317c611b88565b73ffffffffffffffffffffffffffffffffffffffff16146131d2576040517f08c379a00000000000000000000000000000000000000000000000000000000081526004016131c990615d4c565b60405180910390fd5b565b600060126000838152602001908152602001600020604051806101000160405290816000820154815260200160018201805461320f906156b5565b80601f016020809104026020016040519081016040528092919081815260200182805461323b906156b5565b80156132885780601f1061325d57610100808354040283529160200191613288565b820191906000526020600020905b81548152906001019060200180831161326b57829003601f168201915b505050505081526020016002820180546132a1906156b5565b80601f01602080910402602001604051908101604052809291908181526020018280546132cd906156b5565b801561331a5780601f106132ef5761010080835404028352916020019161331a565b820191906000526020600020905b8154815290600101906020018083116132fd57829003601f168201915b505050505081526020016003820154815260200160048201548152602001600582015481526020016006820160009054906101000a900460ff16151515158152602001600782018054806020026020016040519081016040528092919081815260200182805480156133ab57602002820191906000526020600020905b815481526020019060010190808311613397575b50505050508152505090508060c001516133f1576040517f84ff05af00000000000000000000000000000000000000000000000000000000815260040160405180910390fd5b60008160e00151905060005b815181101561430f5760006011600084848151811061341f5761341e615ae1565b5b60200260200101518152602001908152602001600020604051806101e001604052908160008201548152602001600182015481526020016002820160009054906101000a900473ffffffffffffffffffffffffffffffffffffffff1673ffffffffffffffffffffffffffffffffffffffff1673ffffffffffffffffffffffffffffffffffffffff1681526020016003820154815260200160048201548152602001600582015481526020016006820180548060200260200160405190810160405280929190818152602001828054801561354e57602002820191906000526020600020905b8160009054906101000a900473ffffffffffffffffffffffffffffffffffffffff1673ffffffffffffffffffffffffffffffffffffffff1681526020019060010190808311613504575b50505050508152602001600782018054806020026020016040519081016040528092919081815260200182805480156135a657602002820191906000526020600020905b815481526020019060010190808311613592575b505050505081526020016008820154815260200160098201548152602001600a8201548152602001600b820160009054906101000a900460ff16151515158152602001600b820160019054906101000a900460ff16151515158152602001600c8201548152602001600d820180548060200260200160405190810160405280929190818152602001828054801561365c57602002820191906000526020600020905b815481526020019060010190808311613648575b50505050508152505090506002816101c0015151106142d1576000816101c001516000815181106136905761368f615ae1565b5b60200260200101511480156136c557506003816101c001516001815181106136bb576136ba615ae1565b5b6020026020010151105b1561391f576000816101c001516001815181106136e5576136e4615ae1565b5b602002602001015114801561370257508360800151846060015111155b8061374157506001816101c0015160018151811061372357613722615ae1565b5b602002602001015114801561374057508360800151846060015110155b5b8061378057506002816101c0015160018151811061376257613761615ae1565b5b602002602001015114801561377f57508360800151846060015114155b5b15613798576001816101600190151590811515815250505b60018161018001901515908115158152505080601160008585815181106137c2576137c1615ae1565b5b60200260200101518152602001908152602001600020600082015181600001556020820151816001015560408201518160020160006101000a81548173ffffffffffffffffffffffffffffffffffffffff021916908373ffffffffffffffffffffffffffffffffffffffff160217905550606082015181600301556080820151816004015560a0820151816005015560c082015181600601908051906020019061386d9291906145d1565b5060e082015181600701908051906020019061388a92919061465b565b506101008201518160080155610120820151816009015561014082015181600a015561016082015181600b0160006101000a81548160ff02191690831515021790555061018082015181600b0160016101000a81548160ff0219169083151502179055506101a082015181600c01556101c082015181600d01908051906020019061391692919061465b565b509050506142cc565b6004816101c00151511015801561395657506001816101c0015160008151811061394c5761394b615ae1565b5b6020026020010151145b801561398257506005816101c0015160018151811061397857613977615ae1565b5b6020026020010151105b80156139ae57506003816101c001516002815181106139a4576139a3615ae1565b5b6020026020010151105b156142cb576000816101c001516001815181106139ce576139cd615ae1565b5b6020026020010151148015613ae957506000816101c001516002815181106139f9576139f8615ae1565b5b6020026020010151148015613a325750806101c00151600381518110613a2257613a21615ae1565b5b6020026020010151846060015111155b80613a8d57506001816101c00151600281518110613a5357613a52615ae1565b5b6020026020010151148015613a8c5750806101c00151600381518110613a7c57613a7b615ae1565b5b6020026020010151846060015110155b5b80613ae857506002816101c00151600281518110613aae57613aad615ae1565b5b6020026020010151148015613ae75750806101c00151600381518110613ad757613ad6615ae1565b5b6020026020010151846060015114155b5b5b15613b0557600181610160019015159081151581525050614148565b6001816101c00151600181518110613b2057613b1f615ae1565b5b6020026020010151148015613c3b57506000816101c00151600281518110613b4b57613b4a615ae1565b5b6020026020010151148015613b845750806101c00151600381518110613b7457613b73615ae1565b5b6020026020010151846080015111155b80613bdf57506001816101c00151600281518110613ba557613ba4615ae1565b5b6020026020010151148015613bde5750806101c00151600381518110613bce57613bcd615ae1565b5b6020026020010151846080015110155b5b80613c3a57506002816101c00151600281518110613c0057613bff615ae1565b5b6020026020010151148015613c395750806101c00151600381518110613c2957613c28615ae1565b5b6020026020010151846080015114155b5b5b15613c5757600181610160019015159081151581525050614147565b6002816101c00151600181518110613c7257613c71615ae1565b5b6020026020010151148015613dba57506000816101c00151600281518110613c9d57613c9c615ae1565b5b6020026020010151148015613ce55750806101c00151600381518110613cc657613cc5615ae1565b5b602002602001015184606001518560800151613ce291906156e6565b11155b80613d4f57506001816101c00151600281518110613d0657613d05615ae1565b5b6020026020010151148015613d4e5750806101c00151600381518110613d2f57613d2e615ae1565b5b602002602001015184606001518560800151613d4b91906156e6565b10155b5b80613db957506002816101c00151600281518110613d7057613d6f615ae1565b5b6020026020010151148015613db85750806101c00151600381518110613d9957613d98615ae1565b5b602002602001015184606001518560800151613db591906156e6565b14155b5b5b15613dd657600181610160019015159081151581525050614146565b6003816101c00151600181518110613df157613df0615ae1565b5b602002602001015103613f695760008085606001518660800151613e15919061571a565b1215613e365784608001518560600151613e2f91906157a5565b9050613e4d565b84606001518560800151613e4a91906157a5565b90505b6000826101c00151600281518110613e6857613e67615ae1565b5b6020026020010151148015613e9d5750816101c00151600381518110613e9157613e90615ae1565b5b60200260200101518111155b80613ef457506001826101c00151600281518110613ebe57613ebd615ae1565b5b6020026020010151148015613ef35750816101c00151600381518110613ee757613ee6615ae1565b5b60200260200101518110155b5b80613f4b57506002826101c00151600281518110613f1557613f14615ae1565b5b6020026020010151148015613f4a5750816101c00151600381518110613f3e57613f3d615ae1565b5b60200260200101518114155b5b15613f63576001826101600190151590811515815250505b50614145565b6004816101c00151600181518110613f8457613f83615ae1565b5b602002602001015114801561412c57506000816101c00151600281518110613faf57613fae615ae1565b5b60200260200101511480156140175750806101c00151600381518110613fd857613fd7615ae1565b5b602002602001015184608001511115806140165750806101c0015160038151811061400657614005615ae1565b5b6020026020010151846060015111155b5b806140a157506001816101c0015160028151811061403857614037615ae1565b5b60200260200101511480156140a05750806101c0015160038151811061406157614060615ae1565b5b6020026020010151846080015110158061409f5750806101c0015160038151811061408f5761408e615ae1565b5b6020026020010151846060015110155b5b5b8061412b57506002816101c001516002815181106140c2576140c1615ae1565b5b602002602001015114801561412a5750806101c001516003815181106140eb576140ea615ae1565b5b602002602001015184608001511415806141295750806101c0015160038151811061411957614118615ae1565b5b6020026020010151846060015114155b5b5b5b15614144576001816101600190151590811515815250505b5b5b5b5b600181610180019015159081151581525050806011600085858151811061417257614171615ae1565b5b60200260200101518152602001908152602001600020600082015181600001556020820151816001015560408201518160020160006101000a81548173ffffffffffffffffffffffffffffffffffffffff021916908373ffffffffffffffffffffffffffffffffffffffff160217905550606082015181600301556080820151816004015560a0820151816005015560c082015181600601908051906020019061421d9291906145d1565b5060e082015181600701908051906020019061423a92919061465b565b506101008201518160080155610120820151816009015561014082015181600a015561016082015181600b0160006101000a81548160ff02191690831515021790555061018082015181600b0160016101000a81548160ff0219169083151502179055506101a082015181600c01556101c082015181600d0190805190602001906142c692919061465b565b509050505b5b6142fb565b60158590806001815401808255809150506001900390600052602060002001600090919091909150555b5080806143079061575d565b9150506133fd565b50505050565b60008060009054906101000a900473ffffffffffffffffffffffffffffffffffffffff169050816000806101000a81548173ffffffffffffffffffffffffffffffffffffffff021916908373ffffffffffffffffffffffffffffffffffffffff1602179055508173ffffffffffffffffffffffffffffffffffffffff168173ffffffffffffffffffffffffffffffffffffffff167f8be0079c531659141344cd1fd0a4f28419497f9722a3daafe3b4186f6b6457e060405160405180910390a35050565b6060600060208301840151905060008167ffffffffffffffff81111561440257614401614ac9565b5b6040519080825280601f01601f1916602001820160405280156144345781602001600182028036833780820191505090505b50905060005b828110156144cc57856020828761445191906156e6565b61445b91906156e6565b8151811061446c5761446b615ae1565b5b602001015160f81c60f81b82828151811061448a57614489615ae1565b5b60200101907effffffffffffffffffffffffffffffffffffffffffffffffffffffffffffff1916908160001a90535080806144c49061575d565b91505061443a565b50809250505092915050565b600033905090565b604051806101e001604052806000815260200160008152602001600073ffffffffffffffffffffffffffffffffffffffff168152602001600081526020016000815260200160008152602001606081526020016060815260200160008152602001600081526020016000815260200160001515815260200160001515815260200160008152602001606081525090565b604051806040016040528060008152602001606081525090565b604051806101000160405280600081526020016060815260200160608152602001600081526020016000815260200160008152602001600015158152602001606081525090565b82805482825590600052602060002090810192821561464a579160200282015b828111156146495782518260006101000a81548173ffffffffffffffffffffffffffffffffffffffff021916908373ffffffffffffffffffffffffffffffffffffffff160217905550916020019190600101906145f1565b5b50905061465791906146a8565b5090565b828054828255906000526020600020908101928215614697579160200282015b8281111561469657825182559160200191906001019061467b565b5b5090506146a491906146a8565b5090565b5b808211156146c15760008160009055506001016146a9565b5090565b6000604051905090565b600080fd5b600080fd5b6000819050919050565b6146ec816146d9565b81146146f757600080fd5b50565b600081359050614709816146e3565b92915050565b600060208284031215614725576147246146cf565b5b6000614733848285016146fa565b91505092915050565b614745816146d9565b82525050565b600073ffffffffffffffffffffffffffffffffffffffff82169050919050565b60006147768261474b565b9050919050565b6147868161476b565b82525050565b600081519050919050565b600082825260208201905092915050565b6000819050602082019050919050565b60006147c4838361477d565b60208301905092915050565b6000602082019050919050565b60006147e88261478c565b6147f28185614797565b93506147fd836147a8565b8060005b8381101561482e57815161481588826147b8565b9750614820836147d0565b925050600181019050614801565b5085935050505092915050565b600081519050919050565b600082825260208201905092915050565b6000819050602082019050919050565b6000614873838361473c565b60208301905092915050565b6000602082019050919050565b60006148978261483b565b6148a18185614846565b93506148ac83614857565b8060005b838110156148dd5781516148c48882614867565b97506148cf8361487f565b9250506001810190506148b0565b5085935050505092915050565b60008115159050919050565b6148ff816148ea565b82525050565b60006101e08301600083015161491e600086018261473c565b506020830151614931602086018261473c565b506040830151614944604086018261477d565b506060830151614957606086018261473c565b50608083015161496a608086018261473c565b5060a083015161497d60a086018261473c565b5060c083015184820360c086015261499582826147dd565b91505060e083015184820360e08601526149af828261488c565b9150506101008301516149c661010086018261473c565b506101208301516149db61012086018261473c565b506101408301516149f061014086018261473c565b50610160830151614a056101608601826148f6565b50610180830151614a1a6101808601826148f6565b506101a0830151614a2f6101a086018261473c565b506101c08301518482036101c0860152614a49828261488c565b9150508091505092915050565b60006020820190508181036000830152614a708184614905565b905092915050565b6000819050919050565b614a8b81614a78565b8114614a9657600080fd5b50565b600081359050614aa881614a82565b92915050565b600080fd5b600080fd5b6000601f19601f8301169050919050565b7f4e487b7100000000000000000000000000000000000000000000000000000000600052604160045260246000fd5b614b0182614ab8565b810181811067ffffffffffffffff82111715614b2057614b1f614ac9565b5b80604052505050565b6000614b336146c5565b9050614b3f8282614af8565b919050565b600067ffffffffffffffff821115614b5f57614b5e614ac9565b5b614b6882614ab8565b9050602081019050919050565b82818337600083830152505050565b6000614b97614b9284614b44565b614b29565b905082815260208101848484011115614bb357614bb2614ab3565b5b614bbe848285614b75565b509392505050565b600082601f830112614bdb57614bda614aae565b5b8135614beb848260208601614b84565b91505092915050565b600080600060608486031215614c0d57614c0c6146cf565b5b6000614c1b86828701614a99565b935050602084013567ffffffffffffffff811115614c3c57614c3b6146d4565b5b614c4886828701614bc6565b925050604084013567ffffffffffffffff811115614c6957614c686146d4565b5b614c7586828701614bc6565b9150509250925092565b614c888161476b565b8114614c9357600080fd5b50565b600081359050614ca581614c7f565b92915050565b600060208284031215614cc157614cc06146cf565b5b6000614ccf84828501614c96565b91505092915050565b6000819050919050565b614ceb81614cd8565b82525050565b6000604083016000830151614d096000860182614ce2565b5060208301518482036020860152614d21828261488c565b9150508091505092915050565b60006020820190508181036000830152614d488184614cf1565b905092915050565b614d59816146d9565b82525050565b6000602082019050614d746000830184614d50565b92915050565b600081519050919050565b600082825260208201905092915050565b60005b83811015614db4578082015181840152602081019050614d99565b60008484015250505050565b6000614dcb82614d7a565b614dd58185614d85565b9350614de5818560208601614d96565b614dee81614ab8565b840191505092915050565b60006020820190508181036000830152614e138184614dc0565b905092915050565b600081519050919050565b600082825260208201905092915050565b6000614e4282614e1b565b614e4c8185614e26565b9350614e5c818560208601614d96565b614e6581614ab8565b840191505092915050565b600061010083016000830151614e89600086018261473c565b5060208301518482036020860152614ea18282614e37565b91505060408301518482036040860152614ebb8282614e37565b9150506060830151614ed0606086018261473c565b506080830151614ee3608086018261473c565b5060a0830151614ef660a086018261473c565b5060c0830151614f0960c08601826148f6565b5060e083015184820360e0860152614f21828261488c565b9150508091505092915050565b60006020820190508181036000830152614f488184614e70565b905092915050565b600067ffffffffffffffff821115614f6b57614f6a614ac9565b5b602082029050602081019050919050565b600080fd5b6000614f94614f8f84614f50565b614b29565b90508083825260208201905060208402830185811115614fb757614fb6614f7c565b5b835b81811015614fe05780614fcc88826146fa565b845260208401935050602081019050614fb9565b5050509392505050565b600082601f830112614fff57614ffe614aae565b5b813561500f848260208601614f81565b91505092915050565b600080600080600060a08688031215615034576150336146cf565b5b6000615042888289016146fa565b9550506020615053888289016146fa565b9450506040615064888289016146fa565b9350506060615075888289016146fa565b925050608086013567ffffffffffffffff811115615096576150956146d4565b5b6150a288828901614fea565b9150509295509295909350565b600082825260208201905092915050565b60006150cb8261483b565b6150d581856150af565b93506150e083614857565b8060005b838110156151115781516150f88882614867565b97506151038361487f565b9250506001810190506150e4565b5085935050505092915050565b6000602082019050818103600083015261513881846150c0565b905092915050565b60008060408385031215615157576151566146cf565b5b6000615165858286016146fa565b9250506020615176858286016146fa565b9150509250929050565b600060208284031215615196576151956146cf565b5b60006151a484828501614a99565b91505092915050565b6151b6816148ea565b81146151c157600080fd5b50565b6000813590506151d3816151ad565b92915050565b600080604083850312156151f0576151ef6146cf565b5b60006151fe858286016146fa565b925050602061520f858286016151c4565b9150509250929050565b6152228161476b565b82525050565b600060208201905061523d6000830184615219565b92915050565b61524c81614a78565b82525050565b60006020820190506152676000830184615243565b92915050565b600067ffffffffffffffff82111561528857615287614ac9565b5b61529182614ab8565b9050602081019050919050565b60006152b16152ac8461526d565b614b29565b9050828152602081018484840111156152cd576152cc614ab3565b5b6152d8848285614b75565b509392505050565b600082601f8301126152f5576152f4614aae565b5b813561530584826020860161529e565b91505092915050565b60008060008060008060c0878903121561532b5761532a6146cf565b5b600061533989828a016146fa565b965050602061534a89828a016146fa565b955050604087013567ffffffffffffffff81111561536b5761536a6146d4565b5b61537789828a016152e0565b945050606087013567ffffffffffffffff811115615398576153976146d4565b5b6153a489828a016152e0565b93505060806153b589828a016146fa565b92505060a06153c689828a016146fa565b9150509295509295509295565b600082825260208201905092915050565b60006153ef82614e1b565b6153f981856153d3565b9350615409818560208601614d96565b61541281614ab8565b840191505092915050565b6000602082019050818103600083015261543781846153e4565b905092915050565b600069ffffffffffffffffffff82169050919050565b61545e8161543f565b811461546957600080fd5b50565b60008151905061547b81615455565b92915050565b61548a81614cd8565b811461549557600080fd5b50565b6000815190506154a781615481565b92915050565b6000815190506154bc816146e3565b92915050565b600080600080600060a086880312156154de576154dd6146cf565b5b60006154ec8882890161546c565b95505060206154fd88828901615498565b945050604061550e888289016154ad565b935050606061551f888289016154ad565b92505060806155308882890161546c565b9150509295509295909350565b7f4e487b7100000000000000000000000000000000000000000000000000000000600052601160045260246000fd5b600061557782614cd8565b915061558283614cd8565b925082820261559081614cd8565b91507f800000000000000000000000000000000000000000000000000000000000000084146000841216156155c8576155c761553d565b5b82820584148315176155dd576155dc61553d565b5b5092915050565b60006155ef826146d9565b91506155fa836146d9565b9250828202615608816146d9565b9150828204841483151761561f5761561e61553d565b5b5092915050565b7f4e487b7100000000000000000000000000000000000000000000000000000000600052601260045260246000fd5b6000615660826146d9565b915061566b836146d9565b92508261567b5761567a615626565b5b828204905092915050565b7f4e487b7100000000000000000000000000000000000000000000000000000000600052602260045260246000fd5b600060028204905060018216806156cd57607f821691505b6020821081036156e0576156df615686565b5b50919050565b60006156f1826146d9565b91506156fc836146d9565b92508282019050808211156157145761571361553d565b5b92915050565b600061572582614cd8565b915061573083614cd8565b92508282039050818112600084121682821360008512151617156157575761575661553d565b5b92915050565b6000615768826146d9565b91507fffffffffffffffffffffffffffffffffffffffffffffffffffffffffffffffff820361579a5761579961553d565b5b600182019050919050565b60006157b0826146d9565b91506157bb836146d9565b92508282039050818111156157d3576157d261553d565b5b92915050565b60008190508160005260206000209050919050565b60006020601f8301049050919050565b600082821b905092915050565b60006008830261583b7fffffffffffffffffffffffffffffffffffffffffffffffffffffffffffffffff826157fe565b61584586836157fe565b95508019841693508086168417925050509392505050565b6000819050919050565b600061588261587d615878846146d9565b61585d565b6146d9565b9050919050565b6000819050919050565b61589c83615867565b6158b06158a882615889565b84845461580b565b825550505050565b600090565b6158c56158b8565b6158d0818484615893565b505050565b5b818110156158f4576158e96000826158bd565b6001810190506158d6565b5050565b601f8211156159395761590a816157d9565b615913846157ee565b81016020851015615922578190505b61593661592e856157ee565b8301826158d5565b50505b505050565b600082821c905092915050565b600061595c6000198460080261593e565b1980831691505092915050565b6000615975838361594b565b9150826002028217905092915050565b61598e82614e1b565b67ffffffffffffffff8111156159a7576159a6614ac9565b5b6159b182546156b5565b6159bc8282856158f8565b600060209050601f8311600181146159ef57600084156159dd578287015190505b6159e78582615969565b865550615a4f565b601f1984166159fd866157d9565b60005b82811015615a2557848901518255600182019150602085019450602081019050615a00565b86831015615a425784890151615a3e601f89168261594b565b8355505b6001600288020188555050505b505050505050565b600081905092915050565b50565b6000615a72600083615a57565b9150615a7d82615a62565b600082019050919050565b6000615a9382615a65565b9150819050919050565b6000615aa882614cd8565b9150615ab383614cd8565b925082820190508281121560008312168382126000841215161715615adb57615ada61553d565b5b92915050565b7f4e487b7100000000000000000000000000000000000000000000000000000000600052603260045260246000fd5b6000615b1b826146d9565b9150615b26836146d9565b925082615b3657615b35615626565b5b828206905092915050565b7f4f776e61626c653a206e6577206f776e657220697320746865207a65726f206160008201527f6464726573730000000000000000000000000000000000000000000000000000602082015250565b6000615b9d6026836153d3565b9150615ba882615b41565b604082019050919050565b60006020820190508181036000830152615bcc81615b90565b9050919050565b60008190508160005260206000209050919050565b601f821115615c2957615bfa81615bd3565b615c03846157ee565b81016020851015615c12578190505b615c26615c1e856157ee565b8301826158d5565b50505b505050565b615c3782614d7a565b67ffffffffffffffff811115615c5057615c4f614ac9565b5b615c5a82546156b5565b615c65828285615be8565b600060209050601f831160018114615c985760008415615c86578287015190505b615c908582615969565b865550615cf8565b601f198416615ca686615bd3565b60005b82811015615cce57848901518255600182019150602085019450602081019050615ca9565b86831015615ceb5784890151615ce7601f89168261594b565b8355505b6001600288020188555050505b505050505050565b7f4f776e61626c653a2063616c6c6572206973206e6f7420746865206f776e6572600082015250565b6000615d366020836153d3565b9150615d4182615d00565b602082019050919050565b60006020820190508181036000830152615d6581615d29565b905091905056fea2646970667358221220a6b4035baab796b064fdd2a500866654feadff8bfbb79aee9d5a8ae572e567ab64736f6c63430008140033",
  "linkReferences": {},
  "deployedLinkReferences": {}
}