{
  "_format": "hh-sol-artifact-1",
  "contractName": "P2PBettingFront",
  "sourceName": "contracts/P2PBettingFront.sol",
  "abi": [
    {
      "inputs": [
        {
          "internalType": "uint256",
          "name": "fee_",
          "type": "uint256"
        },
        {
          "internalType": "address",
          "name": "owner",
          "type": "address"
        }
      ],
      "stateMutability": "nonpayable",
      "type": "constructor"
    },
    {
      "inputs": [],
      "name": "P2PBetting__AlreadyRetrievedOrBetNonexistent",
      "type": "error"
    },
    {
      "inputs": [],
      "name": "P2PBetting__BetIsFullOrNonexistent",
      "type": "error"
    },
    {
      "inputs": [],
      "name": "P2PBetting__CantCallIfNotOwner",
      "type": "error"
    },
    {
      "inputs": [],
      "name": "P2PBetting__CantEnterBetNow",
      "type": "error"
    },
    {
      "inputs": [],
      "name": "P2PBetting__MatchDidNotEnd",
      "type": "error"
    },
    {
      "inputs": [],
      "name": "P2PBetting__MatchDoesntExist",
      "type": "error"
    },
    {
      "inputs": [],
      "name": "P2PBetting__MaxPriceCantBeZero",
      "type": "error"
    },
    {
      "inputs": [],
      "name": "P2PBetting__NotEnoughEthSent",
      "type": "error"
    },
    {
      "inputs": [],
      "name": "P2PBetting__NumberOfChallengersCantBeZero",
      "type": "error"
    },
    {
      "inputs": [],
      "name": "P2PBetting__OddsMustBeHigherThanOne",
      "type": "error"
    },
    {
      "inputs": [],
      "name": "P2PBetting__OnlyCalledIfTipsterLost",
      "type": "error"
    },
    {
      "inputs": [],
      "name": "P2PBetting__TooMuchEthSent",
      "type": "error"
    },
    {
      "inputs": [],
      "name": "P2PBetting__TransferFailed",
      "type": "error"
    },
    {
      "inputs": [],
      "name": "P2PBetting__UnexpectedRequestId",
      "type": "error"
    },
    {
      "inputs": [],
      "name": "P2PBetting__UserNotInBet",
      "type": "error"
    },
    {
      "inputs": [],
      "name": "P2PBetting__WrongBetFormat",
      "type": "error"
    },
    {
      "anonymous": false,
      "inputs": [
        {
          "indexed": true,
          "internalType": "address",
          "name": "previousOwner",
          "type": "address"
        },
        {
          "indexed": true,
          "internalType": "address",
          "name": "newOwner",
          "type": "address"
        }
      ],
      "name": "OwnershipTransferred",
      "type": "event"
    },
    {
      "anonymous": false,
      "inputs": [
        {
          "indexed": true,
          "internalType": "uint256",
          "name": "maxPrice",
          "type": "uint256"
        },
        {
          "indexed": true,
          "internalType": "uint256",
          "name": "odds",
          "type": "uint256"
        },
        {
          "indexed": true,
          "internalType": "uint256",
          "name": "maxNumOfPlayers",
          "type": "uint256"
        },
        {
          "indexed": false,
          "internalType": "uint256",
          "name": "betId",
          "type": "uint256"
        }
      ],
      "name": "P2PBetting__BetCreated",
      "type": "event"
    },
    {
      "anonymous": false,
      "inputs": [
        {
          "indexed": true,
          "internalType": "uint256",
          "name": "betId",
          "type": "uint256"
        },
        {
          "indexed": true,
          "internalType": "bool",
          "name": "tipsterWon",
          "type": "bool"
        }
      ],
      "name": "P2PBetting__BetEnded",
      "type": "event"
    },
    {
      "anonymous": false,
      "inputs": [
        {
          "indexed": true,
          "internalType": "address",
          "name": "challenger",
          "type": "address"
        },
        {
          "indexed": true,
          "internalType": "uint256",
          "name": "betID",
          "type": "uint256"
        }
      ],
      "name": "P2PBetting__BetJoined",
      "type": "event"
    },
    {
      "anonymous": false,
      "inputs": [
        {
          "indexed": true,
          "internalType": "uint256",
          "name": "feesCollected",
          "type": "uint256"
        }
      ],
      "name": "P2PBetting__FeesCollected",
      "type": "event"
    },
    {
      "anonymous": false,
      "inputs": [
        {
          "indexed": true,
          "internalType": "uint256",
          "name": "oldFee",
          "type": "uint256"
        },
        {
          "indexed": true,
          "internalType": "uint256",
          "name": "newFee",
          "type": "uint256"
        }
      ],
      "name": "P2PBetting__NewFeeSet",
      "type": "event"
    },
    {
      "anonymous": false,
      "inputs": [
        {
          "indexed": true,
          "internalType": "address",
          "name": "oracle",
          "type": "address"
        }
      ],
      "name": "P2PBetting__NewOracleSet",
      "type": "event"
    },
    {
      "anonymous": false,
      "inputs": [
        {
          "indexed": true,
          "internalType": "address",
          "name": "winner",
          "type": "address"
        },
        {
          "indexed": true,
          "internalType": "uint256",
          "name": "amount",
          "type": "uint256"
        }
      ],
      "name": "P2PBetting__RewardClaimed",
      "type": "event"
    },
    {
      "anonymous": false,
      "inputs": [
        {
          "indexed": false,
          "internalType": "string",
          "name": "name",
          "type": "string"
        }
      ],
      "name": "testevent",
      "type": "event"
    },
    {
      "inputs": [],
      "name": "collectFees",
      "outputs": [],
      "stateMutability": "nonpayable",
      "type": "function"
    },
    {
      "inputs": [
        {
          "internalType": "uint256",
          "name": "matchId",
          "type": "uint256"
        },
        {
          "internalType": "uint256",
          "name": "maxNumberOfChallengers_",
          "type": "uint256"
        },
        {
          "internalType": "uint256",
          "name": "odds_",
          "type": "uint256"
        },
        {
          "internalType": "uint256",
          "name": "maxEntryFee_",
          "type": "uint256"
        },
        {
          "internalType": "uint256[]",
          "name": "betData_",
          "type": "uint256[]"
        }
      ],
      "name": "createBet",
      "outputs": [],
      "stateMutability": "payable",
      "type": "function"
    },
    {
      "inputs": [
        {
          "internalType": "uint256",
          "name": "betId",
          "type": "uint256"
        }
      ],
      "name": "endBet",
      "outputs": [],
      "stateMutability": "nonpayable",
      "type": "function"
    },
    {
      "inputs": [
        {
          "internalType": "uint256",
          "name": "betId_",
          "type": "uint256"
        },
        {
          "internalType": "bool",
          "name": "tipsterWon",
          "type": "bool"
        }
      ],
      "name": "endBetOwner",
      "outputs": [],
      "stateMutability": "nonpayable",
      "type": "function"
    },
    {
      "inputs": [
        {
          "internalType": "uint256",
          "name": "matchId",
          "type": "uint256"
        }
      ],
      "name": "endBetsUsingMatchId",
      "outputs": [],
      "stateMutability": "nonpayable",
      "type": "function"
    },
    {
      "inputs": [
        {
          "internalType": "uint256",
          "name": "matchId",
          "type": "uint256"
        }
      ],
      "name": "endMatch",
      "outputs": [
        {
          "internalType": "bool",
          "name": "",
          "type": "bool"
        }
      ],
      "stateMutability": "nonpayable",
      "type": "function"
    },
    {
      "inputs": [],
      "name": "getAllBets",
      "outputs": [
        {
          "internalType": "uint256[]",
          "name": "",
          "type": "uint256[]"
        }
      ],
      "stateMutability": "view",
      "type": "function"
    },
    {
      "inputs": [
        {
          "internalType": "uint256",
          "name": "betId",
          "type": "uint256"
        }
      ],
      "name": "getBet",
      "outputs": [
        {
          "components": [
            {
              "internalType": "uint256",
              "name": "betId",
              "type": "uint256"
            },
            {
              "internalType": "uint256",
              "name": "matchId",
              "type": "uint256"
            },
            {
              "internalType": "address",
              "name": "tipster",
              "type": "address"
            },
            {
              "internalType": "uint256",
              "name": "collateralGiven",
              "type": "uint256"
            },
            {
              "internalType": "uint256",
              "name": "moneyInBet",
              "type": "uint256"
            },
            {
              "internalType": "uint256",
              "name": "maxNumberOfChallengers",
              "type": "uint256"
            },
            {
              "internalType": "address[]",
              "name": "challengers",
              "type": "address[]"
            },
            {
              "internalType": "uint256[]",
              "name": "challengersMoneyBet",
              "type": "uint256[]"
            },
            {
              "internalType": "uint256",
              "name": "odds",
              "type": "uint256"
            },
            {
              "internalType": "uint256",
              "name": "maxEntryFee",
              "type": "uint256"
            },
            {
              "internalType": "uint256",
              "name": "fee",
              "type": "uint256"
            },
            {
              "internalType": "bool",
              "name": "tipsterWon",
              "type": "bool"
            },
            {
              "internalType": "bool",
              "name": "ended",
              "type": "bool"
            },
            {
              "internalType": "uint256",
              "name": "startMatchTimestamp",
              "type": "uint256"
            },
            {
              "internalType": "uint256[]",
              "name": "betData",
              "type": "uint256[]"
            }
          ],
          "internalType": "struct P2PBettingFront.Bet",
          "name": "",
          "type": "tuple"
        }
      ],
      "stateMutability": "view",
      "type": "function"
    },
    {
      "inputs": [
        {
          "internalType": "uint256",
          "name": "betId_",
          "type": "uint256"
        }
      ],
      "name": "getCollateralBack",
      "outputs": [],
      "stateMutability": "nonpayable",
      "type": "function"
    },
    {
      "inputs": [],
      "name": "getFee",
      "outputs": [
        {
          "internalType": "uint256",
          "name": "",
          "type": "uint256"
        }
      ],
      "stateMutability": "view",
      "type": "function"
    },
    {
      "inputs": [],
      "name": "getFeesCollected",
      "outputs": [
        {
          "internalType": "uint256",
          "name": "",
          "type": "uint256"
        }
      ],
      "stateMutability": "view",
      "type": "function"
    },
    {
      "inputs": [
        {
          "internalType": "uint256",
          "name": "matchId",
          "type": "uint256"
        }
      ],
      "name": "getMatch",
      "outputs": [
        {
          "components": [
            {
              "internalType": "uint256",
              "name": "matchId",
              "type": "uint256"
            },
            {
              "internalType": "string",
              "name": "home",
              "type": "string"
            },
            {
              "internalType": "string",
              "name": "away",
              "type": "string"
            },
            {
              "internalType": "uint256",
              "name": "pointsHome",
              "type": "uint256"
            },
            {
              "internalType": "uint256",
              "name": "pointsAway",
              "type": "uint256"
            },
            {
              "internalType": "uint256",
              "name": "timeOfGame",
              "type": "uint256"
            },
            {
              "internalType": "bool",
              "name": "ended",
              "type": "bool"
            },
            {
              "internalType": "uint256[]",
              "name": "betsOfMatch",
              "type": "uint256[]"
            }
          ],
          "internalType": "struct P2PBettingFront.Match",
          "name": "",
          "type": "tuple"
        }
      ],
      "stateMutability": "view",
      "type": "function"
    },
    {
      "inputs": [
        {
          "internalType": "uint256",
          "name": "matchId",
          "type": "uint256"
        }
      ],
      "name": "getMatchTimestamp",
      "outputs": [
        {
          "internalType": "uint256",
          "name": "",
          "type": "uint256"
        }
      ],
      "stateMutability": "view",
      "type": "function"
    },
    {
      "inputs": [],
      "name": "getNumberOfBets",
      "outputs": [
        {
          "internalType": "uint256",
          "name": "",
          "type": "uint256"
        }
      ],
      "stateMutability": "view",
      "type": "function"
    },
    {
      "inputs": [
        {
          "internalType": "uint256",
          "name": "betId_",
          "type": "uint256"
        }
      ],
      "name": "getNumberOfChallenger",
      "outputs": [
        {
          "internalType": "uint256",
          "name": "",
          "type": "uint256"
        }
      ],
      "stateMutability": "view",
      "type": "function"
    },
    {
      "inputs": [],
      "name": "getNumberOfMatchesDone",
      "outputs": [
        {
          "internalType": "uint256",
          "name": "",
          "type": "uint256"
        }
      ],
      "stateMutability": "view",
      "type": "function"
    },
    {
      "inputs": [],
      "name": "getOracle",
      "outputs": [
        {
          "internalType": "address",
          "name": "",
          "type": "address"
        }
      ],
      "stateMutability": "view",
      "type": "function"
    },
    {
      "inputs": [
        {
          "internalType": "address",
          "name": "user",
          "type": "address"
        }
      ],
      "name": "getProfile",
      "outputs": [
        {
          "components": [
            {
              "internalType": "int256",
              "name": "balanceVariation",
              "type": "int256"
            },
            {
              "internalType": "uint256[]",
              "name": "betIdHistory",
              "type": "uint256[]"
            }
          ],
          "internalType": "struct P2PBettingFront.Profile",
          "name": "",
          "type": "tuple"
        }
      ],
      "stateMutability": "view",
      "type": "function"
    },
    {
      "inputs": [
        {
          "internalType": "uint256",
          "name": "betId",
          "type": "uint256"
        },
        {
          "internalType": "uint256",
          "name": "numberOfChallenger",
          "type": "uint256"
        }
      ],
      "name": "getRewards",
      "outputs": [],
      "stateMutability": "nonpayable",
      "type": "function"
    },
    {
      "inputs": [
        {
          "internalType": "uint256",
          "name": "usdValue_",
          "type": "uint256"
        }
      ],
      "name": "getUsdConversionRate",
      "outputs": [
        {
          "internalType": "uint256",
          "name": "",
          "type": "uint256"
        }
      ],
      "stateMutability": "view",
      "type": "function"
    },
    {
      "inputs": [
        {
          "internalType": "uint256",
          "name": "betId_",
          "type": "uint256"
        }
      ],
      "name": "joinBet",
      "outputs": [],
      "stateMutability": "payable",
      "type": "function"
    },
    {
      "inputs": [],
      "name": "owner",
      "outputs": [
        {
          "internalType": "address",
          "name": "",
          "type": "address"
        }
      ],
      "stateMutability": "view",
      "type": "function"
    },
    {
      "inputs": [],
      "name": "renounceOwnership",
      "outputs": [],
      "stateMutability": "nonpayable",
      "type": "function"
    },
    {
      "inputs": [
        {
          "internalType": "address",
          "name": "bettingAction",
          "type": "address"
        }
      ],
      "name": "setBettingActionsContract",
      "outputs": [],
      "stateMutability": "nonpayable",
      "type": "function"
    },
    {
      "inputs": [
        {
          "internalType": "uint256",
          "name": "newFee",
          "type": "uint256"
        }
      ],
      "name": "setFee",
      "outputs": [],
      "stateMutability": "nonpayable",
      "type": "function"
    },
    {
      "inputs": [
        {
          "internalType": "address",
          "name": "newOracle",
          "type": "address"
        }
      ],
      "name": "setUsdOracle",
      "outputs": [],
      "stateMutability": "nonpayable",
      "type": "function"
    },
    {
      "inputs": [
        {
          "internalType": "uint256",
          "name": "gameId",
          "type": "uint256"
        }
      ],
      "name": "testEndMatch",
      "outputs": [],
      "stateMutability": "nonpayable",
      "type": "function"
    },
    {
      "inputs": [
        {
          "internalType": "uint256",
          "name": "gameId",
          "type": "uint256"
        },
        {
          "internalType": "uint256",
          "name": "timestamp",
          "type": "uint256"
        },
        {
          "internalType": "string",
          "name": "home_",
          "type": "string"
        },
        {
          "internalType": "string",
          "name": "away_",
          "type": "string"
        },
        {
          "internalType": "uint256",
          "name": "pointsHome_",
          "type": "uint256"
        },
        {
          "internalType": "uint256",
          "name": "pointsAway_",
          "type": "uint256"
        }
      ],
      "name": "testingAddMatch",
      "outputs": [],
      "stateMutability": "nonpayable",
      "type": "function"
    },
    {
      "inputs": [
        {
          "internalType": "address",
          "name": "newOwner",
          "type": "address"
        }
      ],
      "name": "transferOwnership",
      "outputs": [],
      "stateMutability": "nonpayable",
      "type": "function"
    }
  ],
  "bytecode": "0x608060405260006005553480156200001657600080fd5b50604051620050703803806200507083398181016040528101906200003c91906200034c565b6200005c620000506200008b60201b60201c565b6200009360201b60201c565b6200006d816200015760201b60201c565b6103e8826200007d9190620003c2565b600381905550505062000528565b600033905090565b60008060009054906101000a900473ffffffffffffffffffffffffffffffffffffffff169050816000806101000a81548173ffffffffffffffffffffffffffffffffffffffff021916908373ffffffffffffffffffffffffffffffffffffffff1602179055508173ffffffffffffffffffffffffffffffffffffffff168173ffffffffffffffffffffffffffffffffffffffff167f8be0079c531659141344cd1fd0a4f28419497f9722a3daafe3b4186f6b6457e060405160405180910390a35050565b62000167620001ed60201b60201c565b600073ffffffffffffffffffffffffffffffffffffffff168173ffffffffffffffffffffffffffffffffffffffff1603620001d9576040517f08c379a0000000000000000000000000000000000000000000000000000000008152600401620001d09062000494565b60405180910390fd5b620001ea816200009360201b60201c565b50565b620001fd6200008b60201b60201c565b73ffffffffffffffffffffffffffffffffffffffff16620002236200027e60201b60201c565b73ffffffffffffffffffffffffffffffffffffffff16146200027c576040517f08c379a0000000000000000000000000000000000000000000000000000000008152600401620002739062000506565b60405180910390fd5b565b60008060009054906101000a900473ffffffffffffffffffffffffffffffffffffffff16905090565b600080fd5b6000819050919050565b620002c181620002ac565b8114620002cd57600080fd5b50565b600081519050620002e181620002b6565b92915050565b600073ffffffffffffffffffffffffffffffffffffffff82169050919050565b60006200031482620002e7565b9050919050565b620003268162000307565b81146200033257600080fd5b50565b60008151905062000346816200031b565b92915050565b60008060408385031215620003665762000365620002a7565b5b60006200037685828601620002d0565b9250506020620003898582860162000335565b9150509250929050565b7f4e487b7100000000000000000000000000000000000000000000000000000000600052601160045260246000fd5b6000620003cf82620002ac565b9150620003dc83620002ac565b9250828202620003ec81620002ac565b9150828204841483151762000406576200040562000393565b5b5092915050565b600082825260208201905092915050565b7f4f776e61626c653a206e6577206f776e657220697320746865207a65726f206160008201527f6464726573730000000000000000000000000000000000000000000000000000602082015250565b60006200047c6026836200040d565b915062000489826200041e565b604082019050919050565b60006020820190508181036000830152620004af816200046d565b9050919050565b7f4f776e61626c653a2063616c6c6572206973206e6f7420746865206f776e6572600082015250565b6000620004ee6020836200040d565b9150620004fb82620004b6565b602082019050919050565b600060208201905081810360008301526200052181620004df565b9050919050565b614b3880620005386000396000f3fe6080604052600436106101c25760003560e01c8063833b1fce116100f7578063c879657211610095578063d4aae80f11610064578063d4aae80f1461060c578063f222d0b914610637578063f2fde38b14610662578063f39522e41461068b576101c2565b8063c879657214610578578063cc11298e1461058f578063cdfdb089146105b8578063ced72f87146105e1576101c2565b8063b740af79116100d1578063b740af79146104d2578063bf4e2858146104fb578063c325340b14610524578063c41d28ae1461054f576101c2565b8063833b1fce146104535780638da5cb5b1461047e578063b238322d146104a9576101c2565b80636605d3f2116101645780636c0106d11161013e5780636c0106d1146103bf578063700eae73146103e8578063715018a614610413578063800a716b1461042a576101c2565b80636605d3f21461035157806369fe0e2d1461036d5780636bdfaee714610396576101c2565b80631f7d2f2c116101a05780631f7d2f2c1461027e5780632ddd9aff146102bb57806339fb3f45146102f85780633d092b3d14610314576101c2565b8063061e494f146101c75780630eaa8532146102045780630f53a47014610241575b600080fd5b3480156101d357600080fd5b506101ee60048036038101906101e991906136f3565b6106c8565b6040516101fb9190613a3a565b60405180910390f35b34801561021057600080fd5b5061022b600480360381019061022691906136f3565b61091a565b6040516102389190613a6b565b60405180910390f35b34801561024d57600080fd5b5061026860048036038101906102639190613ab2565b610cd0565b6040516102759190613b35565b60405180910390f35b34801561028a57600080fd5b506102a560048036038101906102a091906136f3565b610d8b565b6040516102b29190613b66565b60405180910390f35b3480156102c757600080fd5b506102e260048036038101906102dd91906136f3565b610dab565b6040516102ef9190613b66565b60405180910390f35b610312600480360381019061030d91906136f3565b610e88565b005b34801561032057600080fd5b5061033b600480360381019061033691906136f3565b611394565b6040516103489190613ccf565b60405180910390f35b61036b60048036038101906103669190613e39565b611581565b005b34801561037957600080fd5b50610394600480360381019061038f91906136f3565b611ab4565b005b3480156103a257600080fd5b506103bd60048036038101906103b891906136f3565b611afc565b005b3480156103cb57600080fd5b506103e660048036038101906103e191906136f3565b611c0e565b005b3480156103f457600080fd5b506103fd611c48565b60405161040a9190613f3f565b60405180910390f35b34801561041f57600080fd5b50610428611ca0565b005b34801561043657600080fd5b50610451600480360381019061044c9190613f8d565b611cb4565b005b34801561045f57600080fd5b50610468611d1d565b6040516104759190613fdc565b60405180910390f35b34801561048a57600080fd5b50610493611d47565b6040516104a09190613fdc565b60405180910390f35b3480156104b557600080fd5b506104d060048036038101906104cb91906140ac565b611d70565b005b3480156104de57600080fd5b506104f960048036038101906104f49190613ab2565b611eac565b005b34801561050757600080fd5b50610522600480360381019061051d91906136f3565b611f3b565b005b34801561053057600080fd5b506105396122bb565b6040516105469190613b66565b60405180910390f35b34801561055b57600080fd5b5061057660048036038101906105719190613ab2565b6122c5565b005b34801561058457600080fd5b5061058d612311565b005b34801561059b57600080fd5b506105b660048036038101906105b19190614171565b612405565b005b3480156105c457600080fd5b506105df60048036038101906105da91906136f3565b612ae2565b005b3480156105ed57600080fd5b506105f661318b565b6040516106039190613b66565b60405180910390f35b34801561061857600080fd5b50610621613195565b60405161062e9190613b66565b60405180910390f35b34801561064357600080fd5b5061064c61319f565b6040516106599190613b66565b60405180910390f35b34801561066e57600080fd5b5061068960048036038101906106849190613ab2565b6131a9565b005b34801561069757600080fd5b506106b260048036038101906106ad91906136f3565b61322c565b6040516106bf9190613b66565b60405180910390f35b6106d06134c4565b60086000838152602001908152602001600020604051806101e001604052908160008201548152602001600182015481526020016002820160009054906101000a900473ffffffffffffffffffffffffffffffffffffffff1673ffffffffffffffffffffffffffffffffffffffff1673ffffffffffffffffffffffffffffffffffffffff168152602001600382015481526020016004820154815260200160058201548152602001600682018054806020026020016040519081016040528092919081815260200182805480156107fc57602002820191906000526020600020905b8160009054906101000a900473ffffffffffffffffffffffffffffffffffffffff1673ffffffffffffffffffffffffffffffffffffffff16815260200190600101908083116107b2575b505050505081526020016007820180548060200260200160405190810160405280929190818152602001828054801561085457602002820191906000526020600020905b815481526020019060010190808311610840575b505050505081526020016008820154815260200160098201548152602001600a8201548152602001600b820160009054906101000a900460ff16151515158152602001600b820160019054906101000a900460ff16151515158152602001600c8201548152602001600d820180548060200260200160405190810160405280929190818152602001828054801561090a57602002820191906000526020600020905b8154815260200190600101908083116108f6575b5050505050815250509050919050565b600080600160009054906101000a900473ffffffffffffffffffffffffffffffffffffffff1673ffffffffffffffffffffffffffffffffffffffff166381a60c0d846040518263ffffffff1660e01b81526004016109789190613b66565b606060405180830381865afa158015610995573d6000803e3d6000fd5b505050506040513d601f19601f820116820180604052508101906109b99190614277565b90506001816002600381106109d1576109d06142a4565b5b602002015103610cc5576000600960008581526020019081526020016000206040518061010001604052908160008201548152602001600182018054610a1690614302565b80601f0160208091040260200160405190810160405280929190818152602001828054610a4290614302565b8015610a8f5780601f10610a6457610100808354040283529160200191610a8f565b820191906000526020600020905b815481529060010190602001808311610a7257829003601f168201915b50505050508152602001600282018054610aa890614302565b80601f0160208091040260200160405190810160405280929190818152602001828054610ad490614302565b8015610b215780601f10610af657610100808354040283529160200191610b21565b820191906000526020600020905b815481529060010190602001808311610b0457829003601f168201915b505050505081526020016003820154815260200160048201548152602001600582015481526020016006820160009054906101000a900460ff1615151515815260200160078201805480602002602001604051908101604052809291908181526020018280548015610bb257602002820191906000526020600020905b815481526020019060010190808311610b9e575b505050505081525050905081600060038110610bd157610bd06142a4565b5b602002015181606001818152505081600160038110610bf357610bf26142a4565b5b602002015181608001818152505060018160c00190151590811515815250508060096000868152602001908152602001600020600082015181600001556020820151816001019081610c4591906144df565b506040820151816002019081610c5b91906144df565b50606082015181600301556080820151816004015560a0820151816005015560c08201518160060160006101000a81548160ff02191690831515021790555060e0820151816007019080519060200190610cb6929190613554565b50905050600192505050610ccb565b60009150505b919050565b610cd86135a1565b600760008373ffffffffffffffffffffffffffffffffffffffff1673ffffffffffffffffffffffffffffffffffffffff1681526020019081526020016000206040518060400160405290816000820154815260200160018201805480602002602001604051908101604052809291908181526020018280548015610d7b57602002820191906000526020600020905b815481526020019060010190808311610d67575b5050505050815250509050919050565b600060096000838152602001908152602001600020600501549050919050565b600080600260009054906101000a900473ffffffffffffffffffffffffffffffffffffffff1673ffffffffffffffffffffffffffffffffffffffff1663feaf968c6040518163ffffffff1660e01b815260040160a060405180830381865afa158015610e1b573d6000803e3d6000fd5b505050506040513d601f19601f82011682018060405250810190610e3f919061461f565b50505091505060006402540be40082610e5891906146c9565b9050600081670de0b6b3a764000086610e719190614741565b610e7b91906147b2565b9050809350505050919050565b600060086000838152602001908152602001600020604051806101e001604052908160008201548152602001600182015481526020016002820160009054906101000a900473ffffffffffffffffffffffffffffffffffffffff1673ffffffffffffffffffffffffffffffffffffffff1673ffffffffffffffffffffffffffffffffffffffff16815260200160038201548152602001600482015481526020016005820154815260200160068201805480602002602001604051908101604052809291908181526020018280548015610fb657602002820191906000526020600020905b8160009054906101000a900473ffffffffffffffffffffffffffffffffffffffff1673ffffffffffffffffffffffffffffffffffffffff1681526020019060010190808311610f6c575b505050505081526020016007820180548060200260200160405190810160405280929190818152602001828054801561100e57602002820191906000526020600020905b815481526020019060010190808311610ffa575b505050505081526020016008820154815260200160098201548152602001600a8201548152602001600b820160009054906101000a900460ff16151515158152602001600b820160019054906101000a900460ff16151515158152602001600c8201548152602001600d82018054806020026020016040519081016040528092919081815260200182805480156110c457602002820191906000526020600020905b8154815260200190600101908083116110b0575b50505050508152505090508060c00151518160a0015111611111576040517f81071d2800000000000000000000000000000000000000000000000000000000815260040160405180910390fd5b806101200151341115611150576040517fed47562600000000000000000000000000000000000000000000000000000000815260040160405180910390fd5b806101800151806111725750806101a001516102584261117091906147e3565b115b156111a9576040517fba05bf4700000000000000000000000000000000000000000000000000000000815260040160405180910390fd5b60086000838152602001908152602001600020600601339080600181540180825580915050600190039060005260206000200160009091909190916101000a81548173ffffffffffffffffffffffffffffffffffffffff021916908373ffffffffffffffffffffffffffffffffffffffff160217905550600860008381526020019081526020016000206007013490806001815401808255809150506001900390600052602060002001600090919091909150553460086000848152602001908152602001600020600401600082825461128391906147e3565b92505081905550600760003373ffffffffffffffffffffffffffffffffffffffff1673ffffffffffffffffffffffffffffffffffffffff16815260200190815260200160002060010182908060018154018082558091505060019003906000526020600020016000909190919091505534600760003373ffffffffffffffffffffffffffffffffffffffff1673ffffffffffffffffffffffffffffffffffffffff16815260200190815260200160002060000160008282546113459190614817565b92505081905550813373ffffffffffffffffffffffffffffffffffffffff167f36ded20b495c4e5f788b261f134395c38eb7360ff2bb88fc16c7b6775193932860405160405180910390a35050565b61139c6135bb565b6009600083815260200190815260200160002060405180610100016040529081600082015481526020016001820180546113d590614302565b80601f016020809104026020016040519081016040528092919081815260200182805461140190614302565b801561144e5780601f106114235761010080835404028352916020019161144e565b820191906000526020600020905b81548152906001019060200180831161143157829003601f168201915b5050505050815260200160028201805461146790614302565b80601f016020809104026020016040519081016040528092919081815260200182805461149390614302565b80156114e05780601f106114b5576101008083540402835291602001916114e0565b820191906000526020600020905b8154815290600101906020018083116114c357829003601f168201915b505050505081526020016003820154815260200160048201548152602001600582015481526020016006820160009054906101000a900460ff161515151581526020016007820180548060200260200160405190810160405280929190818152602001828054801561157157602002820191906000526020600020905b81548152602001906001019080831161155d575b5050505050815250509050919050565b6103e883116115bc576040517f7ed63ccd00000000000000000000000000000000000000000000000000000000815260040160405180910390fd5b600084036115f6576040517f0d27d3e900000000000000000000000000000000000000000000000000000000815260040160405180910390fd5b60008203611630576040517f2e2785d600000000000000000000000000000000000000000000000000000000815260040160405180910390fd5b6000600960008781526020019081526020016000206005015403611680576040517f2d5342f500000000000000000000000000000000000000000000000000000000815260040160405180910390fd5b6002815110156116bc576040517fc4819f9d00000000000000000000000000000000000000000000000000000000815260040160405180910390fd5b81846116c89190614741565b6103e88385876116d89190614741565b6116e29190614741565b6116ec91906147b2565b6116f6919061485a565b34101561172f576040517f745f581d00000000000000000000000000000000000000000000000000000000815260040160405180910390fd5b6117376134c4565b33816040019073ffffffffffffffffffffffffffffffffffffffff16908173ffffffffffffffffffffffffffffffffffffffff1681525050848160a001818152505083816101000181815250506003548161014001818152505085816020018181525050828161012001818152505081816101c0018190525034816080018181525050348160600181815250506005548160000181815250506009600087815260200190815260200160002060050154816101a001818152505080600860006005548152602001908152602001600020600082015181600001556020820151816001015560408201518160020160006101000a81548173ffffffffffffffffffffffffffffffffffffffff021916908373ffffffffffffffffffffffffffffffffffffffff160217905550606082015181600301556080820151816004015560a0820151816005015560c082015181600601908051906020019061189c929190613602565b5060e08201518160070190805190602001906118b9929190613554565b506101008201518160080155610120820151816009015561014082015181600a015561016082015181600b0160006101000a81548160ff02191690831515021790555061018082015181600b0160016101000a81548160ff0219169083151502179055506101a082015181600c01556101c082015181600d019080519060200190611945929190613554565b50905050600760003373ffffffffffffffffffffffffffffffffffffffff1673ffffffffffffffffffffffffffffffffffffffff168152602001908152602001600020600101600554908060018154018082558091505060019003906000526020600020016000909190919091505534600760003373ffffffffffffffffffffffffffffffffffffffff1673ffffffffffffffffffffffffffffffffffffffff1681526020019081526020016000206000016000828254611a069190614817565b9250508190555060096000878152602001908152602001600020600701600554908060018154018082558091505060019003906000526020600020016000909190919091505560056000815480929190611a5f9061488e565b91905055508484847fbe5a78b4c9e5bd34e20d793f7a455a9d350624e5e173ee900fd14880f679f1e16001600554611a97919061485a565b604051611aa49190613b66565b60405180910390a4505050505050565b611abc61337a565b600060035490508160038190555081817f3ddd765e918a581cb556c6b10e6c7cb12c695d5eb7516a9be17358dec5ef3c9660405160405180910390a35050565b611b0461337a565b6009600082815260200190815260200160002060060160009054906101000a900460ff16611b5e576040517f84ff05af00000000000000000000000000000000000000000000000000000000815260040160405180910390fd5b600060096000838152602001908152602001600020600701805480602002602001604051908101604052809291908181526020018280548015611bc057602002820191906000526020600020905b815481526020019060010190808311611bac575b5050505050905060005b8151811015611c0957611bf6828281518110611be957611be86142a4565b5b6020026020010151612ae2565b8080611c019061488e565b915050611bca565b505050565b611c1661337a565b60016009600083815260200190815260200160002060060160006101000a81548160ff02191690831515021790555050565b6060600a805480602002602001604051908101604052809291908181526020018280548015611c9657602002820191906000526020600020905b815481526020019060010190808311611c82575b5050505050905090565b611ca861337a565b611cb260006133f8565b565b611cbc61337a565b8060086000848152602001908152602001600020600b0160006101000a81548160ff021916908315150217905550600160086000848152602001908152602001600020600b0160016101000a81548160ff0219169083151502179055505050565b6000600260009054906101000a900473ffffffffffffffffffffffffffffffffffffffff16905090565b60008060009054906101000a900473ffffffffffffffffffffffffffffffffffffffff16905090565b611d7861337a565b611d806135bb565b86816000018181525050858160a001818152505084816020018190525083816040018190525082816060018181525050818160800181815250508060096000898152602001908152602001600020600082015181600001556020820151816001019081611ded91906144df565b506040820151816002019081611e0391906144df565b50606082015181600301556080820151816004015560a0820151816005015560c08201518160060160006101000a81548160ff02191690831515021790555060e0820151816007019080519060200190611e5e929190613554565b50905050600a87908060018154018082558091505060019003906000526020600020016000909190919091505560066000815480929190611e9e9061488e565b919050555050505050505050565b611eb461337a565b80600260006101000a81548173ffffffffffffffffffffffffffffffffffffffff021916908373ffffffffffffffffffffffffffffffffffffffff1602179055508073ffffffffffffffffffffffffffffffffffffffff167f6f4d463f06d6303ccb5e5f3efff065c43013611c234549b89243f40257a7b72260405160405180910390a250565b600060086000838152602001908152602001600020604051806101e001604052908160008201548152602001600182015481526020016002820160009054906101000a900473ffffffffffffffffffffffffffffffffffffffff1673ffffffffffffffffffffffffffffffffffffffff1673ffffffffffffffffffffffffffffffffffffffff1681526020016003820154815260200160048201548152602001600582015481526020016006820180548060200260200160405190810160405280929190818152602001828054801561206957602002820191906000526020600020905b8160009054906101000a900473ffffffffffffffffffffffffffffffffffffffff1673ffffffffffffffffffffffffffffffffffffffff168152602001906001019080831161201f575b50505050508152602001600782018054806020026020016040519081016040528092919081815260200182805480156120c157602002820191906000526020600020905b8154815260200190600101908083116120ad575b505050505081526020016008820154815260200160098201548152602001600a8201548152602001600b820160009054906101000a900460ff16151515158152602001600b820160019054906101000a900460ff16151515158152602001600c8201548152602001600d820180548060200260200160405190810160405280929190818152602001828054801561217757602002820191906000526020600020905b815481526020019060010190808311612163575b505050505081525050905060008160600151036121c0576040517fdfba2d6c00000000000000000000000000000000000000000000000000000000815260040160405180910390fd5b80610180015115806121d457508061016001515b1561220b576040517ff0f84dd500000000000000000000000000000000000000000000000000000000815260040160405180910390fd5b60006103e88261010001518360600151846080015161222a919061485a565b6122349190614741565b61223e91906147b2565b826080015161224d919061485a565b905060006008600085815260200190815260200160002060030181905550816040015173ffffffffffffffffffffffffffffffffffffffff166108fc829081150290604051600060405180830381858888f193505050501580156122b5573d6000803e3d6000fd5b50505050565b6000600654905090565b6122cd61337a565b80600160006101000a81548173ffffffffffffffffffffffffffffffffffffffff021916908373ffffffffffffffffffffffffffffffffffffffff16021790555050565b600080600454146123d557600454905060006004819055506000612333611d47565b73ffffffffffffffffffffffffffffffffffffffff168260405161235690614907565b60006040518083038185875af1925050503d8060008114612393576040519150601f19603f3d011682016040523d82523d6000602084013e612398565b606091505b50509050806123d3576040517f4a5f2a1b00000000000000000000000000000000000000000000000000000000815260040160405180910390fd5b505b807ff4f2ad6f4b10f9853be76745070984d581f6da2399617776ec329308e46d080460405160405180910390a250565b600060086000848152602001908152602001600020604051806101e001604052908160008201548152602001600182015481526020016002820160009054906101000a900473ffffffffffffffffffffffffffffffffffffffff1673ffffffffffffffffffffffffffffffffffffffff1673ffffffffffffffffffffffffffffffffffffffff1681526020016003820154815260200160048201548152602001600582015481526020016006820180548060200260200160405190810160405280929190818152602001828054801561253357602002820191906000526020600020905b8160009054906101000a900473ffffffffffffffffffffffffffffffffffffffff1673ffffffffffffffffffffffffffffffffffffffff16815260200190600101908083116124e9575b505050505081526020016007820180548060200260200160405190810160405280929190818152602001828054801561258b57602002820191906000526020600020905b815481526020019060010190808311612577575b505050505081526020016008820154815260200160098201548152602001600a8201548152602001600b820160009054906101000a900460ff16151515158152602001600b820160019054906101000a900460ff16151515158152602001600c8201548152602001600d820180548060200260200160405190810160405280929190818152602001828054801561264157602002820191906000526020600020905b81548152602001906001019080831161262d575b5050505050815250509050806040015173ffffffffffffffffffffffffffffffffffffffff163373ffffffffffffffffffffffffffffffffffffffff1614801561268d57508061016001515b801561269e57506000816080015114155b80156126ac57508061018001515b15612845578060800151600760003373ffffffffffffffffffffffffffffffffffffffff1673ffffffffffffffffffffffffffffffffffffffff1681526020019081526020016000206000016000828254612707919061491c565b9250508190555060006103e88060646127209190614741565b61272a9190614741565b8261014001518361010001518460600151856080015161274a919061485a565b6127549190614741565b61275e9190614741565b61276891906147b2565b9050600081836080015161277c919061485a565b90506000600860008781526020019081526020016000206004018190555081600460008282546127ac91906147e3565b925050819055503373ffffffffffffffffffffffffffffffffffffffff166108fc829081150290604051600060405180830381858888f193505050501580156127f9573d6000803e3d6000fd5b50803373ffffffffffffffffffffffffffffffffffffffff167f3c92031d788fb886d6b0cef0d544d742f65fe462e576906cfe03a5f36ef1244060405160405180910390a35050612add565b8060c0015151821080156128a257508060c00151828151811061286b5761286a6142a4565b5b602002602001015173ffffffffffffffffffffffffffffffffffffffff163373ffffffffffffffffffffffffffffffffffffffff16145b80156128cd575060008160e0015183815181106128c2576128c16142a4565b5b602002602001015114155b80156128db57508061018001515b80156128ea5750806101600151155b15612aaa5760006103e88260e00151848151811061290b5761290a6142a4565b5b60200260200101518361010001516129239190614741565b61292d91906147b2565b905080600760003373ffffffffffffffffffffffffffffffffffffffff1673ffffffffffffffffffffffffffffffffffffffff1681526020019081526020016000206000016000828254612981919061491c565b9250508190555060006103e860646129999190614741565b836101400151836129aa9190614741565b6129b491906147b2565b9050600081836129c4919061485a565b905060006008600088815260200190815260200160002060070186815481106129f0576129ef6142a4565b5b90600052602060002001819055508160046000828254612a1091906147e3565b925050819055503373ffffffffffffffffffffffffffffffffffffffff166108fc829081150290604051600060405180830381858888f19350505050158015612a5d573d6000803e3d6000fd5b50803373ffffffffffffffffffffffffffffffffffffffff167f3c92031d788fb886d6b0cef0d544d742f65fe462e576906cfe03a5f36ef1244060405160405180910390a3505050612adc565b6040517fdfba2d6c00000000000000000000000000000000000000000000000000000000815260040160405180910390fd5b5b505050565b600060086000838152602001908152602001600020604051806101e001604052908160008201548152602001600182015481526020016002820160009054906101000a900473ffffffffffffffffffffffffffffffffffffffff1673ffffffffffffffffffffffffffffffffffffffff1673ffffffffffffffffffffffffffffffffffffffff16815260200160038201548152602001600482015481526020016005820154815260200160068201805480602002602001604051908101604052809291908181526020018280548015612c1057602002820191906000526020600020905b8160009054906101000a900473ffffffffffffffffffffffffffffffffffffffff1673ffffffffffffffffffffffffffffffffffffffff1681526020019060010190808311612bc6575b5050505050815260200160078201805480602002602001604051908101604052809291908181526020018280548015612c6857602002820191906000526020600020905b815481526020019060010190808311612c54575b505050505081526020016008820154815260200160098201548152602001600a8201548152602001600b820160009054906101000a900460ff16151515158152602001600b820160019054906101000a900460ff16151515158152602001600c8201548152602001600d8201805480602002602001604051908101604052809291908181526020018280548015612d1e57602002820191906000526020600020905b815481526020019060010190808311612d0a575b5050505050815250509050600060096000836020015181526020019081526020016000206040518061010001604052908160008201548152602001600182018054612d6890614302565b80601f0160208091040260200160405190810160405280929190818152602001828054612d9490614302565b8015612de15780601f10612db657610100808354040283529160200191612de1565b820191906000526020600020905b815481529060010190602001808311612dc457829003601f168201915b50505050508152602001600282018054612dfa90614302565b80601f0160208091040260200160405190810160405280929190818152602001828054612e2690614302565b8015612e735780601f10612e4857610100808354040283529160200191612e73565b820191906000526020600020905b815481529060010190602001808311612e5657829003601f168201915b505050505081526020016003820154815260200160048201548152602001600582015481526020016006820160009054906101000a900460ff1615151515815260200160078201805480602002602001604051908101604052809291908181526020018280548015612f0457602002820191906000526020600020905b815481526020019060010190808311612ef0575b5050505050815250509050600081606001519050600082608001519050600080600160009054906101000a900473ffffffffffffffffffffffffffffffffffffffff1673ffffffffffffffffffffffffffffffffffffffff16638e03ce52876101c0015186866040518463ffffffff1660e01b8152600401612f8893929190614960565b6040805180830381865afa158015612fa4573d6000803e3d6000fd5b505050506040513d601f19601f82011682018060405250810190612fc891906149b3565b9150915081156131825781866101800190151590811515815250508015612ffb5780866101600190151590811515815250505b8560086000898152602001908152602001600020600082015181600001556020820151816001015560408201518160020160006101000a81548173ffffffffffffffffffffffffffffffffffffffff021916908373ffffffffffffffffffffffffffffffffffffffff160217905550606082015181600301556080820151816004015560a0820151816005015560c08201518160060190805190602001906130a4929190613602565b5060e08201518160070190805190602001906130c1929190613554565b506101008201518160080155610120820151816009015561014082015181600a015561016082015181600b0160006101000a81548160ff02191690831515021790555061018082015181600b0160016101000a81548160ff0219169083151502179055506101a082015181600c01556101c082015181600d01908051906020019061314d929190613554565b50905050801515877f3e7529bf0003c3cc898fc752bfc3d08b80e8c7569f8858373c34663d04ff5b6560405160405180910390a35b50505050505050565b6000600354905090565b6000600454905090565b6000600554905090565b6131b161337a565b600073ffffffffffffffffffffffffffffffffffffffff168173ffffffffffffffffffffffffffffffffffffffff1603613220576040517f08c379a000000000000000000000000000000000000000000000000000000000815260040161321790614a76565b60405180910390fd5b613229816133f8565b50565b600080600860008481526020019081526020016000206006018054806020026020016040519081016040528092919081815260200182805480156132c557602002820191906000526020600020905b8160009054906101000a900473ffffffffffffffffffffffffffffffffffffffff1673ffffffffffffffffffffffffffffffffffffffff168152602001906001019080831161327b575b5050505050905060005b8151811015613342573373ffffffffffffffffffffffffffffffffffffffff16828281518110613302576133016142a4565b5b602002602001015173ffffffffffffffffffffffffffffffffffffffff160361332f578092505050613375565b808061333a9061488e565b9150506132cf565b506040517f1fe25f4c00000000000000000000000000000000000000000000000000000000815260040160405180910390fd5b919050565b6133826134bc565b73ffffffffffffffffffffffffffffffffffffffff166133a0611d47565b73ffffffffffffffffffffffffffffffffffffffff16146133f6576040517f08c379a00000000000000000000000000000000000000000000000000000000081526004016133ed90614ae2565b60405180910390fd5b565b60008060009054906101000a900473ffffffffffffffffffffffffffffffffffffffff169050816000806101000a81548173ffffffffffffffffffffffffffffffffffffffff021916908373ffffffffffffffffffffffffffffffffffffffff1602179055508173ffffffffffffffffffffffffffffffffffffffff168173ffffffffffffffffffffffffffffffffffffffff167f8be0079c531659141344cd1fd0a4f28419497f9722a3daafe3b4186f6b6457e060405160405180910390a35050565b600033905090565b604051806101e001604052806000815260200160008152602001600073ffffffffffffffffffffffffffffffffffffffff168152602001600081526020016000815260200160008152602001606081526020016060815260200160008152602001600081526020016000815260200160001515815260200160001515815260200160008152602001606081525090565b828054828255906000526020600020908101928215613590579160200282015b8281111561358f578251825591602001919060010190613574565b5b50905061359d919061368c565b5090565b604051806040016040528060008152602001606081525090565b604051806101000160405280600081526020016060815260200160608152602001600081526020016000815260200160008152602001600015158152602001606081525090565b82805482825590600052602060002090810192821561367b579160200282015b8281111561367a5782518260006101000a81548173ffffffffffffffffffffffffffffffffffffffff021916908373ffffffffffffffffffffffffffffffffffffffff16021790555091602001919060010190613622565b5b509050613688919061368c565b5090565b5b808211156136a557600081600090555060010161368d565b5090565b6000604051905090565b600080fd5b600080fd5b6000819050919050565b6136d0816136bd565b81146136db57600080fd5b50565b6000813590506136ed816136c7565b92915050565b600060208284031215613709576137086136b3565b5b6000613717848285016136de565b91505092915050565b613729816136bd565b82525050565b600073ffffffffffffffffffffffffffffffffffffffff82169050919050565b600061375a8261372f565b9050919050565b61376a8161374f565b82525050565b600081519050919050565b600082825260208201905092915050565b6000819050602082019050919050565b60006137a88383613761565b60208301905092915050565b6000602082019050919050565b60006137cc82613770565b6137d6818561377b565b93506137e18361378c565b8060005b838110156138125781516137f9888261379c565b9750613804836137b4565b9250506001810190506137e5565b5085935050505092915050565b600081519050919050565b600082825260208201905092915050565b6000819050602082019050919050565b60006138578383613720565b60208301905092915050565b6000602082019050919050565b600061387b8261381f565b613885818561382a565b93506138908361383b565b8060005b838110156138c15781516138a8888261384b565b97506138b383613863565b925050600181019050613894565b5085935050505092915050565b60008115159050919050565b6138e3816138ce565b82525050565b60006101e0830160008301516139026000860182613720565b5060208301516139156020860182613720565b5060408301516139286040860182613761565b50606083015161393b6060860182613720565b50608083015161394e6080860182613720565b5060a083015161396160a0860182613720565b5060c083015184820360c086015261397982826137c1565b91505060e083015184820360e08601526139938282613870565b9150506101008301516139aa610100860182613720565b506101208301516139bf610120860182613720565b506101408301516139d4610140860182613720565b506101608301516139e96101608601826138da565b506101808301516139fe6101808601826138da565b506101a0830151613a136101a0860182613720565b506101c08301518482036101c0860152613a2d8282613870565b9150508091505092915050565b60006020820190508181036000830152613a5481846138e9565b905092915050565b613a65816138ce565b82525050565b6000602082019050613a806000830184613a5c565b92915050565b613a8f8161374f565b8114613a9a57600080fd5b50565b600081359050613aac81613a86565b92915050565b600060208284031215613ac857613ac76136b3565b5b6000613ad684828501613a9d565b91505092915050565b6000819050919050565b613af281613adf565b82525050565b6000604083016000830151613b106000860182613ae9565b5060208301518482036020860152613b288282613870565b9150508091505092915050565b60006020820190508181036000830152613b4f8184613af8565b905092915050565b613b60816136bd565b82525050565b6000602082019050613b7b6000830184613b57565b92915050565b600081519050919050565b600082825260208201905092915050565b60005b83811015613bbb578082015181840152602081019050613ba0565b60008484015250505050565b6000601f19601f8301169050919050565b6000613be382613b81565b613bed8185613b8c565b9350613bfd818560208601613b9d565b613c0681613bc7565b840191505092915050565b600061010083016000830151613c2a6000860182613720565b5060208301518482036020860152613c428282613bd8565b91505060408301518482036040860152613c5c8282613bd8565b9150506060830151613c716060860182613720565b506080830151613c846080860182613720565b5060a0830151613c9760a0860182613720565b5060c0830151613caa60c08601826138da565b5060e083015184820360e0860152613cc28282613870565b9150508091505092915050565b60006020820190508181036000830152613ce98184613c11565b905092915050565b600080fd5b7f4e487b7100000000000000000000000000000000000000000000000000000000600052604160045260246000fd5b613d2e82613bc7565b810181811067ffffffffffffffff82111715613d4d57613d4c613cf6565b5b80604052505050565b6000613d606136a9565b9050613d6c8282613d25565b919050565b600067ffffffffffffffff821115613d8c57613d8b613cf6565b5b602082029050602081019050919050565b600080fd5b6000613db5613db084613d71565b613d56565b90508083825260208201905060208402830185811115613dd857613dd7613d9d565b5b835b81811015613e015780613ded88826136de565b845260208401935050602081019050613dda565b5050509392505050565b600082601f830112613e2057613e1f613cf1565b5b8135613e30848260208601613da2565b91505092915050565b600080600080600060a08688031215613e5557613e546136b3565b5b6000613e63888289016136de565b9550506020613e74888289016136de565b9450506040613e85888289016136de565b9350506060613e96888289016136de565b925050608086013567ffffffffffffffff811115613eb757613eb66136b8565b5b613ec388828901613e0b565b9150509295509295909350565b600082825260208201905092915050565b6000613eec8261381f565b613ef68185613ed0565b9350613f018361383b565b8060005b83811015613f32578151613f19888261384b565b9750613f2483613863565b925050600181019050613f05565b5085935050505092915050565b60006020820190508181036000830152613f598184613ee1565b905092915050565b613f6a816138ce565b8114613f7557600080fd5b50565b600081359050613f8781613f61565b92915050565b60008060408385031215613fa457613fa36136b3565b5b6000613fb2858286016136de565b9250506020613fc385828601613f78565b9150509250929050565b613fd68161374f565b82525050565b6000602082019050613ff16000830184613fcd565b92915050565b600080fd5b600067ffffffffffffffff82111561401757614016613cf6565b5b61402082613bc7565b9050602081019050919050565b82818337600083830152505050565b600061404f61404a84613ffc565b613d56565b90508281526020810184848401111561406b5761406a613ff7565b5b61407684828561402d565b509392505050565b600082601f83011261409357614092613cf1565b5b81356140a384826020860161403c565b91505092915050565b60008060008060008060c087890312156140c9576140c86136b3565b5b60006140d789828a016136de565b96505060206140e889828a016136de565b955050604087013567ffffffffffffffff811115614109576141086136b8565b5b61411589828a0161407e565b945050606087013567ffffffffffffffff811115614136576141356136b8565b5b61414289828a0161407e565b935050608061415389828a016136de565b92505060a061416489828a016136de565b9150509295509295509295565b60008060408385031215614188576141876136b3565b5b6000614196858286016136de565b92505060206141a7858286016136de565b9150509250929050565b600067ffffffffffffffff8211156141cc576141cb613cf6565b5b602082029050919050565b6000815190506141e6816136c7565b92915050565b60006141ff6141fa846141b1565b613d56565b9050806020840283018581111561421957614218613d9d565b5b835b81811015614242578061422e88826141d7565b84526020840193505060208101905061421b565b5050509392505050565b600082601f83011261426157614260613cf1565b5b600361426e8482856141ec565b91505092915050565b60006060828403121561428d5761428c6136b3565b5b600061429b8482850161424c565b91505092915050565b7f4e487b7100000000000000000000000000000000000000000000000000000000600052603260045260246000fd5b7f4e487b7100000000000000000000000000000000000000000000000000000000600052602260045260246000fd5b6000600282049050600182168061431a57607f821691505b60208210810361432d5761432c6142d3565b5b50919050565b60008190508160005260206000209050919050565b60006020601f8301049050919050565b600082821b905092915050565b6000600883026143957fffffffffffffffffffffffffffffffffffffffffffffffffffffffffffffffff82614358565b61439f8683614358565b95508019841693508086168417925050509392505050565b6000819050919050565b60006143dc6143d76143d2846136bd565b6143b7565b6136bd565b9050919050565b6000819050919050565b6143f6836143c1565b61440a614402826143e3565b848454614365565b825550505050565b600090565b61441f614412565b61442a8184846143ed565b505050565b5b8181101561444e57614443600082614417565b600181019050614430565b5050565b601f8211156144935761446481614333565b61446d84614348565b8101602085101561447c578190505b61449061448885614348565b83018261442f565b50505b505050565b600082821c905092915050565b60006144b660001984600802614498565b1980831691505092915050565b60006144cf83836144a5565b9150826002028217905092915050565b6144e882613b81565b67ffffffffffffffff81111561450157614500613cf6565b5b61450b8254614302565b614516828285614452565b600060209050601f8311600181146145495760008415614537578287015190505b61454185826144c3565b8655506145a9565b601f19841661455786614333565b60005b8281101561457f5784890151825560018201915060208501945060208101905061455a565b8683101561459c5784890151614598601f8916826144a5565b8355505b6001600288020188555050505b505050505050565b600069ffffffffffffffffffff82169050919050565b6145d0816145b1565b81146145db57600080fd5b50565b6000815190506145ed816145c7565b92915050565b6145fc81613adf565b811461460757600080fd5b50565b600081519050614619816145f3565b92915050565b600080600080600060a0868803121561463b5761463a6136b3565b5b6000614649888289016145de565b955050602061465a8882890161460a565b945050604061466b888289016141d7565b935050606061467c888289016141d7565b925050608061468d888289016145de565b9150509295509295909350565b7f4e487b7100000000000000000000000000000000000000000000000000000000600052601160045260246000fd5b60006146d482613adf565b91506146df83613adf565b92508282026146ed81613adf565b91507f800000000000000000000000000000000000000000000000000000000000000084146000841216156147255761472461469a565b5b828205841483151761473a5761473961469a565b5b5092915050565b600061474c826136bd565b9150614757836136bd565b9250828202614765816136bd565b9150828204841483151761477c5761477b61469a565b5b5092915050565b7f4e487b7100000000000000000000000000000000000000000000000000000000600052601260045260246000fd5b60006147bd826136bd565b91506147c8836136bd565b9250826147d8576147d7614783565b5b828204905092915050565b60006147ee826136bd565b91506147f9836136bd565b92508282019050808211156148115761481061469a565b5b92915050565b600061482282613adf565b915061482d83613adf565b92508282039050818112600084121682821360008512151617156148545761485361469a565b5b92915050565b6000614865826136bd565b9150614870836136bd565b92508282039050818111156148885761488761469a565b5b92915050565b6000614899826136bd565b91507fffffffffffffffffffffffffffffffffffffffffffffffffffffffffffffffff82036148cb576148ca61469a565b5b600182019050919050565b600081905092915050565b50565b60006148f16000836148d6565b91506148fc826148e1565b600082019050919050565b6000614912826148e4565b9150819050919050565b600061492782613adf565b915061493283613adf565b92508282019050828112156000831216838212600084121516171561495a5761495961469a565b5b92915050565b6000606082019050818103600083015261497a8186613ee1565b90506149896020830185613b57565b6149966040830184613b57565b949350505050565b6000815190506149ad81613f61565b92915050565b600080604083850312156149ca576149c96136b3565b5b60006149d88582860161499e565b92505060206149e98582860161499e565b9150509250929050565b600082825260208201905092915050565b7f4f776e61626c653a206e6577206f776e657220697320746865207a65726f206160008201527f6464726573730000000000000000000000000000000000000000000000000000602082015250565b6000614a606026836149f3565b9150614a6b82614a04565b604082019050919050565b60006020820190508181036000830152614a8f81614a53565b9050919050565b7f4f776e61626c653a2063616c6c6572206973206e6f7420746865206f776e6572600082015250565b6000614acc6020836149f3565b9150614ad782614a96565b602082019050919050565b60006020820190508181036000830152614afb81614abf565b905091905056fea2646970667358221220def1b5540a60145af177469158a87a4f738cdae57ec41b46961b0dc9686d34be64736f6c63430008140033",
  "linkReferences": {},
  "deployedLinkReferences": {}
}