{
  "_format": "hh-sol-artifact-1",
  "contractName": "P2PBetting",
  "sourceName": "contracts/P2PBetting.sol",
  "abi": [
    {
      "inputs": [
        {
          "internalType": "uint256",
          "name": "fee_",
          "type": "uint256"
        },
        {
          "internalType": "address",
          "name": "owner",
          "type": "address"
        },
        {
          "internalType": "uint64",
          "name": "subscriptionId_",
          "type": "uint64"
        }
      ],
      "stateMutability": "nonpayable",
      "type": "constructor"
    },
    {
      "inputs": [],
      "name": "OnlyRouterCanFulfill",
      "type": "error"
    },
    {
      "inputs": [
        {
          "internalType": "address",
          "name": "owner",
          "type": "address"
        }
      ],
      "name": "OwnableInvalidOwner",
      "type": "error"
    },
    {
      "inputs": [
        {
          "internalType": "address",
          "name": "account",
          "type": "address"
        }
      ],
      "name": "OwnableUnauthorizedAccount",
      "type": "error"
    },
    {
      "inputs": [],
      "name": "P2PBetting__AlreadyRetrievedOrBetNonexistent",
      "type": "error"
    },
    {
      "inputs": [],
      "name": "P2PBetting__BetIsFullOrNonexistent",
      "type": "error"
    },
    {
      "inputs": [],
      "name": "P2PBetting__CantCallIfNotOwner",
      "type": "error"
    },
    {
      "inputs": [],
      "name": "P2PBetting__CantEnterBetNow",
      "type": "error"
    },
    {
      "inputs": [],
      "name": "P2PBetting__MatchDidNotEnd",
      "type": "error"
    },
    {
      "inputs": [],
      "name": "P2PBetting__MatchDoesntExist",
      "type": "error"
    },
    {
      "inputs": [],
      "name": "P2PBetting__MaxPriceCantBeZero",
      "type": "error"
    },
    {
      "inputs": [],
      "name": "P2PBetting__NotEnoughEthSent",
      "type": "error"
    },
    {
      "inputs": [],
      "name": "P2PBetting__NumberOfChallengersCantBeZero",
      "type": "error"
    },
    {
      "inputs": [],
      "name": "P2PBetting__OddsMustBeHigherThanOne",
      "type": "error"
    },
    {
      "inputs": [],
      "name": "P2PBetting__OnlyCalledIfTipsterLost",
      "type": "error"
    },
    {
      "inputs": [],
      "name": "P2PBetting__TooMuchEthSent",
      "type": "error"
    },
    {
      "inputs": [],
      "name": "P2PBetting__TransferFailed",
      "type": "error"
    },
    {
      "inputs": [],
      "name": "P2PBetting__UnexpectedRequestId",
      "type": "error"
    },
    {
      "inputs": [],
      "name": "P2PBetting__UserNotInBet",
      "type": "error"
    },
    {
      "inputs": [],
      "name": "P2PBetting__WrongBetFormat",
      "type": "error"
    },
    {
      "anonymous": false,
      "inputs": [
        {
          "indexed": true,
          "internalType": "address",
          "name": "previousOwner",
          "type": "address"
        },
        {
          "indexed": true,
          "internalType": "address",
          "name": "newOwner",
          "type": "address"
        }
      ],
      "name": "OwnershipTransferred",
      "type": "event"
    },
    {
      "anonymous": false,
      "inputs": [
        {
          "indexed": true,
          "internalType": "uint256",
          "name": "maxPrice",
          "type": "uint256"
        },
        {
          "indexed": true,
          "internalType": "uint256",
          "name": "odds",
          "type": "uint256"
        },
        {
          "indexed": true,
          "internalType": "uint256",
          "name": "maxNumOfPlayers",
          "type": "uint256"
        },
        {
          "indexed": false,
          "internalType": "uint256",
          "name": "betId",
          "type": "uint256"
        }
      ],
      "name": "P2PBetting__BetCreated",
      "type": "event"
    },
    {
      "anonymous": false,
      "inputs": [
        {
          "indexed": true,
          "internalType": "address",
          "name": "challenger",
          "type": "address"
        },
        {
          "indexed": true,
          "internalType": "uint256",
          "name": "betID",
          "type": "uint256"
        }
      ],
      "name": "P2PBetting__BetJoined",
      "type": "event"
    },
    {
      "anonymous": false,
      "inputs": [
        {
          "indexed": true,
          "internalType": "uint256",
          "name": "feesCollected",
          "type": "uint256"
        }
      ],
      "name": "P2PBetting__FeesCollected",
      "type": "event"
    },
    {
      "anonymous": false,
      "inputs": [
        {
          "indexed": true,
          "internalType": "uint256",
          "name": "oldFee",
          "type": "uint256"
        },
        {
          "indexed": true,
          "internalType": "uint256",
          "name": "newFee",
          "type": "uint256"
        }
      ],
      "name": "P2PBetting__NewFeeSet",
      "type": "event"
    },
    {
      "anonymous": false,
      "inputs": [
        {
          "indexed": true,
          "internalType": "address",
          "name": "oracle",
          "type": "address"
        }
      ],
      "name": "P2PBetting__NewOracleSet",
      "type": "event"
    },
    {
      "anonymous": false,
      "inputs": [
        {
          "indexed": true,
          "internalType": "address",
          "name": "winner",
          "type": "address"
        },
        {
          "indexed": true,
          "internalType": "uint256",
          "name": "amount",
          "type": "uint256"
        }
      ],
      "name": "P2PBetting__RewardClaimed",
      "type": "event"
    },
    {
      "anonymous": false,
      "inputs": [
        {
          "indexed": true,
          "internalType": "bytes32",
          "name": "id",
          "type": "bytes32"
        }
      ],
      "name": "RequestFulfilled",
      "type": "event"
    },
    {
      "anonymous": false,
      "inputs": [
        {
          "indexed": true,
          "internalType": "bytes32",
          "name": "id",
          "type": "bytes32"
        }
      ],
      "name": "RequestSent",
      "type": "event"
    },
    {
      "anonymous": false,
      "inputs": [
        {
          "indexed": false,
          "internalType": "string",
          "name": "name",
          "type": "string"
        }
      ],
      "name": "testevent",
      "type": "event"
    },
    {
      "inputs": [],
      "name": "collectFees",
      "outputs": [],
      "stateMutability": "nonpayable",
      "type": "function"
    },
    {
      "inputs": [
        {
          "internalType": "uint256",
          "name": "matchId",
          "type": "uint256"
        },
        {
          "internalType": "uint256",
          "name": "maxNumberOfChallengers_",
          "type": "uint256"
        },
        {
          "internalType": "uint256",
          "name": "odds_",
          "type": "uint256"
        },
        {
          "internalType": "uint256",
          "name": "maxEntryFee_",
          "type": "uint256"
        },
        {
          "internalType": "uint256[]",
          "name": "betData_",
          "type": "uint256[]"
        }
      ],
      "name": "createBet",
      "outputs": [],
      "stateMutability": "payable",
      "type": "function"
    },
    {
      "inputs": [],
      "name": "donId",
      "outputs": [
        {
          "internalType": "bytes32",
          "name": "",
          "type": "bytes32"
        }
      ],
      "stateMutability": "view",
      "type": "function"
    },
    {
      "inputs": [
        {
          "internalType": "uint256",
          "name": "betId_",
          "type": "uint256"
        },
        {
          "internalType": "bool",
          "name": "tipsterWon",
          "type": "bool"
        }
      ],
      "name": "endBetOwner",
      "outputs": [],
      "stateMutability": "nonpayable",
      "type": "function"
    },
    {
      "inputs": [
        {
          "internalType": "uint256",
          "name": "matchId",
          "type": "uint256"
        }
      ],
      "name": "endBetsUsingMatchId",
      "outputs": [],
      "stateMutability": "nonpayable",
      "type": "function"
    },
    {
      "inputs": [],
      "name": "getAllBets",
      "outputs": [
        {
          "internalType": "uint256[]",
          "name": "",
          "type": "uint256[]"
        }
      ],
      "stateMutability": "view",
      "type": "function"
    },
    {
      "inputs": [
        {
          "internalType": "uint256",
          "name": "betId",
          "type": "uint256"
        }
      ],
      "name": "getBet",
      "outputs": [
        {
          "components": [
            {
              "internalType": "uint256",
              "name": "betId",
              "type": "uint256"
            },
            {
              "internalType": "uint256",
              "name": "matchId",
              "type": "uint256"
            },
            {
              "internalType": "address",
              "name": "tipster",
              "type": "address"
            },
            {
              "internalType": "uint256",
              "name": "collateralGiven",
              "type": "uint256"
            },
            {
              "internalType": "uint256",
              "name": "moneyInBet",
              "type": "uint256"
            },
            {
              "internalType": "uint256",
              "name": "maxNumberOfChallengers",
              "type": "uint256"
            },
            {
              "internalType": "address[]",
              "name": "challengers",
              "type": "address[]"
            },
            {
              "internalType": "uint256[]",
              "name": "challengersMoneyBet",
              "type": "uint256[]"
            },
            {
              "internalType": "uint256",
              "name": "odds",
              "type": "uint256"
            },
            {
              "internalType": "uint256",
              "name": "maxEntryFee",
              "type": "uint256"
            },
            {
              "internalType": "uint256",
              "name": "fee",
              "type": "uint256"
            },
            {
              "internalType": "bool",
              "name": "tipsterWon",
              "type": "bool"
            },
            {
              "internalType": "bool",
              "name": "ended",
              "type": "bool"
            },
            {
              "internalType": "uint256",
              "name": "startMatchTimestamp",
              "type": "uint256"
            },
            {
              "internalType": "uint256[]",
              "name": "betData",
              "type": "uint256[]"
            }
          ],
          "internalType": "struct P2PBetting.Bet",
          "name": "",
          "type": "tuple"
        }
      ],
      "stateMutability": "view",
      "type": "function"
    },
    {
      "inputs": [
        {
          "internalType": "uint256",
          "name": "betId_",
          "type": "uint256"
        }
      ],
      "name": "getCollateralBack",
      "outputs": [],
      "stateMutability": "nonpayable",
      "type": "function"
    },
    {
      "inputs": [],
      "name": "getFee",
      "outputs": [
        {
          "internalType": "uint256",
          "name": "",
          "type": "uint256"
        }
      ],
      "stateMutability": "view",
      "type": "function"
    },
    {
      "inputs": [],
      "name": "getFeesCollected",
      "outputs": [
        {
          "internalType": "uint256",
          "name": "",
          "type": "uint256"
        }
      ],
      "stateMutability": "view",
      "type": "function"
    },
    {
      "inputs": [],
      "name": "getIntervalForAutomation",
      "outputs": [
        {
          "internalType": "uint256",
          "name": "",
          "type": "uint256"
        }
      ],
      "stateMutability": "view",
      "type": "function"
    },
    {
      "inputs": [],
      "name": "getLastTimestamp",
      "outputs": [
        {
          "internalType": "uint256",
          "name": "",
          "type": "uint256"
        }
      ],
      "stateMutability": "view",
      "type": "function"
    },
    {
      "inputs": [
        {
          "internalType": "uint256",
          "name": "matchId",
          "type": "uint256"
        }
      ],
      "name": "getMatch",
      "outputs": [
        {
          "components": [
            {
              "internalType": "uint256",
              "name": "matchId",
              "type": "uint256"
            },
            {
              "internalType": "string",
              "name": "home",
              "type": "string"
            },
            {
              "internalType": "string",
              "name": "away",
              "type": "string"
            },
            {
              "internalType": "uint256",
              "name": "pointsHome",
              "type": "uint256"
            },
            {
              "internalType": "uint256",
              "name": "pointsAway",
              "type": "uint256"
            },
            {
              "internalType": "uint256",
              "name": "timeOfGame",
              "type": "uint256"
            },
            {
              "internalType": "bool",
              "name": "ended",
              "type": "bool"
            },
            {
              "internalType": "uint256[]",
              "name": "betsOfMatch",
              "type": "uint256[]"
            }
          ],
          "internalType": "struct P2PBetting.Match",
          "name": "",
          "type": "tuple"
        }
      ],
      "stateMutability": "view",
      "type": "function"
    },
    {
      "inputs": [],
      "name": "getNumberOfBets",
      "outputs": [
        {
          "internalType": "uint256",
          "name": "",
          "type": "uint256"
        }
      ],
      "stateMutability": "view",
      "type": "function"
    },
    {
      "inputs": [
        {
          "internalType": "uint256",
          "name": "betId_",
          "type": "uint256"
        }
      ],
      "name": "getNumberOfChallenger",
      "outputs": [
        {
          "internalType": "uint256",
          "name": "",
          "type": "uint256"
        }
      ],
      "stateMutability": "view",
      "type": "function"
    },
    {
      "inputs": [],
      "name": "getNumberOfMatchesDone",
      "outputs": [
        {
          "internalType": "uint256",
          "name": "",
          "type": "uint256"
        }
      ],
      "stateMutability": "view",
      "type": "function"
    },
    {
      "inputs": [],
      "name": "getOracle",
      "outputs": [
        {
          "internalType": "address",
          "name": "",
          "type": "address"
        }
      ],
      "stateMutability": "view",
      "type": "function"
    },
    {
      "inputs": [
        {
          "internalType": "address",
          "name": "user",
          "type": "address"
        }
      ],
      "name": "getProfile",
      "outputs": [
        {
          "components": [
            {
              "internalType": "int256",
              "name": "balanceVariation",
              "type": "int256"
            },
            {
              "internalType": "uint256[]",
              "name": "betIdHistory",
              "type": "uint256[]"
            }
          ],
          "internalType": "struct P2PBetting.Profile",
          "name": "",
          "type": "tuple"
        }
      ],
      "stateMutability": "view",
      "type": "function"
    },
    {
      "inputs": [
        {
          "internalType": "uint256",
          "name": "betId",
          "type": "uint256"
        },
        {
          "internalType": "uint256",
          "name": "numberOfChallenger",
          "type": "uint256"
        }
      ],
      "name": "getRewards",
      "outputs": [],
      "stateMutability": "nonpayable",
      "type": "function"
    },
    {
      "inputs": [],
      "name": "getTimestampToGetMatches",
      "outputs": [
        {
          "internalType": "uint256",
          "name": "",
          "type": "uint256"
        }
      ],
      "stateMutability": "view",
      "type": "function"
    },
    {
      "inputs": [
        {
          "internalType": "uint256",
          "name": "usdValue_",
          "type": "uint256"
        }
      ],
      "name": "getUsdConversionRate",
      "outputs": [
        {
          "internalType": "uint256",
          "name": "",
          "type": "uint256"
        }
      ],
      "stateMutability": "view",
      "type": "function"
    },
    {
      "inputs": [
        {
          "internalType": "bytes32",
          "name": "requestId",
          "type": "bytes32"
        },
        {
          "internalType": "bytes",
          "name": "response",
          "type": "bytes"
        },
        {
          "internalType": "bytes",
          "name": "err",
          "type": "bytes"
        }
      ],
      "name": "handleOracleFulfillment",
      "outputs": [],
      "stateMutability": "nonpayable",
      "type": "function"
    },
    {
      "inputs": [
        {
          "internalType": "uint256",
          "name": "betId_",
          "type": "uint256"
        }
      ],
      "name": "joinBet",
      "outputs": [],
      "stateMutability": "payable",
      "type": "function"
    },
    {
      "inputs": [],
      "name": "owner",
      "outputs": [
        {
          "internalType": "address",
          "name": "",
          "type": "address"
        }
      ],
      "stateMutability": "view",
      "type": "function"
    },
    {
      "inputs": [],
      "name": "renounceOwnership",
      "outputs": [],
      "stateMutability": "nonpayable",
      "type": "function"
    },
    {
      "inputs": [],
      "name": "s_lastError",
      "outputs": [
        {
          "internalType": "bytes",
          "name": "",
          "type": "bytes"
        }
      ],
      "stateMutability": "view",
      "type": "function"
    },
    {
      "inputs": [],
      "name": "s_lastRequestId",
      "outputs": [
        {
          "internalType": "bytes32",
          "name": "",
          "type": "bytes32"
        }
      ],
      "stateMutability": "view",
      "type": "function"
    },
    {
      "inputs": [],
      "name": "s_lastResponse",
      "outputs": [
        {
          "internalType": "bytes",
          "name": "",
          "type": "bytes"
        }
      ],
      "stateMutability": "view",
      "type": "function"
    },
    {
      "inputs": [
        {
          "internalType": "bytes32",
          "name": "newDonId",
          "type": "bytes32"
        }
      ],
      "name": "setDonId",
      "outputs": [],
      "stateMutability": "nonpayable",
      "type": "function"
    },
    {
      "inputs": [
        {
          "internalType": "uint256",
          "name": "newFee",
          "type": "uint256"
        }
      ],
      "name": "setFee",
      "outputs": [],
      "stateMutability": "nonpayable",
      "type": "function"
    },
    {
      "inputs": [
        {
          "internalType": "uint256",
          "name": "newInterval",
          "type": "uint256"
        }
      ],
      "name": "setIntervalForAutomation",
      "outputs": [],
      "stateMutability": "nonpayable",
      "type": "function"
    },
    {
      "inputs": [
        {
          "internalType": "uint256",
          "name": "newTimestamp",
          "type": "uint256"
        }
      ],
      "name": "setTimestampToGetMatches",
      "outputs": [],
      "stateMutability": "nonpayable",
      "type": "function"
    },
    {
      "inputs": [
        {
          "internalType": "address",
          "name": "newOracle",
          "type": "address"
        }
      ],
      "name": "setUsdOracle",
      "outputs": [],
      "stateMutability": "nonpayable",
      "type": "function"
    },
    {
      "inputs": [
        {
          "internalType": "uint256",
          "name": "gameId",
          "type": "uint256"
        }
      ],
      "name": "testEndMatch",
      "outputs": [],
      "stateMutability": "nonpayable",
      "type": "function"
    },
    {
      "inputs": [
        {
          "internalType": "uint256",
          "name": "gameId",
          "type": "uint256"
        },
        {
          "internalType": "uint256",
          "name": "timestamp",
          "type": "uint256"
        },
        {
          "internalType": "string",
          "name": "home_",
          "type": "string"
        },
        {
          "internalType": "string",
          "name": "away_",
          "type": "string"
        },
        {
          "internalType": "uint256",
          "name": "pointsHome_",
          "type": "uint256"
        },
        {
          "internalType": "uint256",
          "name": "pointsAway_",
          "type": "uint256"
        }
      ],
      "name": "testingAddMatch",
      "outputs": [],
      "stateMutability": "nonpayable",
      "type": "function"
    },
    {
      "inputs": [
        {
          "internalType": "address",
          "name": "newOwner",
          "type": "address"
        }
      ],
      "name": "transferOwnership",
      "outputs": [],
      "stateMutability": "nonpayable",
      "type": "function"
    },
    {
      "inputs": [
        {
          "internalType": "uint256",
          "name": "_value",
          "type": "uint256"
        }
      ],
      "name": "uintToString",
      "outputs": [
        {
          "internalType": "string",
          "name": "",
          "type": "string"
        }
      ],
      "stateMutability": "pure",
      "type": "function"
    }
  ],
  "bytecode": "0x60a06040526301c9c380600460006101000a81548163ffffffff021916908363ffffffff16021790555073a9d587a00a31a52ed70d6026794a8fc5e2f5dcb06004806101000a81548173ffffffffffffffffffffffffffffffffffffffff021916908373ffffffffffffffffffffffffffffffffffffffff160217905550612065600460186101000a81548167ffffffffffffffff021916908367ffffffffffffffff1602179055507f66756e2d6176616c616e6368652d66756a692d3100000000000000000000000060001b6005556040518060400160405280600181526020017f30000000000000000000000000000000000000000000000000000000000000008152506006908162000115919062000600565b506040518060400160405280600181526020017f3000000000000000000000000000000000000000000000000000000000000000815250600790816200015c919062000600565b5062015180600b556000600e553480156200017657600080fd5b506040516200663c3803806200663c83398181016040528101906200019c9190620007c7565b60048054906101000a900473ffffffffffffffffffffffffffffffffffffffff1682600073ffffffffffffffffffffffffffffffffffffffff168173ffffffffffffffffffffffffffffffffffffffff1603620002335760006040517f1e4fbdf70000000000000000000000000000000000000000000000000000000081526004016200022a919062000834565b60405180910390fd5b6200024481620002c260201b60201c565b508073ffffffffffffffffffffffffffffffffffffffff1660808173ffffffffffffffffffffffffffffffffffffffff1681525050506103e8836200028a919062000880565b60098190555080600460186101000a81548167ffffffffffffffff021916908367ffffffffffffffff160217905550505050620008cb565b60008060009054906101000a900473ffffffffffffffffffffffffffffffffffffffff169050816000806101000a81548173ffffffffffffffffffffffffffffffffffffffff021916908373ffffffffffffffffffffffffffffffffffffffff1602179055508173ffffffffffffffffffffffffffffffffffffffff168173ffffffffffffffffffffffffffffffffffffffff167f8be0079c531659141344cd1fd0a4f28419497f9722a3daafe3b4186f6b6457e060405160405180910390a35050565b600081519050919050565b7f4e487b7100000000000000000000000000000000000000000000000000000000600052604160045260246000fd5b7f4e487b7100000000000000000000000000000000000000000000000000000000600052602260045260246000fd5b600060028204905060018216806200040857607f821691505b6020821081036200041e576200041d620003c0565b5b50919050565b60008190508160005260206000209050919050565b60006020601f8301049050919050565b600082821b905092915050565b600060088302620004887fffffffffffffffffffffffffffffffffffffffffffffffffffffffffffffffff8262000449565b62000494868362000449565b95508019841693508086168417925050509392505050565b6000819050919050565b6000819050919050565b6000620004e1620004db620004d584620004ac565b620004b6565b620004ac565b9050919050565b6000819050919050565b620004fd83620004c0565b620005156200050c82620004e8565b84845462000456565b825550505050565b600090565b6200052c6200051d565b62000539818484620004f2565b505050565b5b8181101562000561576200055560008262000522565b6001810190506200053f565b5050565b601f821115620005b0576200057a8162000424565b620005858462000439565b8101602085101562000595578190505b620005ad620005a48562000439565b8301826200053e565b50505b505050565b600082821c905092915050565b6000620005d560001984600802620005b5565b1980831691505092915050565b6000620005f08383620005c2565b9150826002028217905092915050565b6200060b8262000386565b67ffffffffffffffff81111562000627576200062662000391565b5b620006338254620003ef565b6200064082828562000565565b600060209050601f83116001811462000678576000841562000663578287015190505b6200066f8582620005e2565b865550620006df565b601f198416620006888662000424565b60005b82811015620006b2578489015182556001820191506020850194506020810190506200068b565b86831015620006d25784890151620006ce601f891682620005c2565b8355505b6001600288020188555050505b505050505050565b600080fd5b620006f781620004ac565b81146200070357600080fd5b50565b6000815190506200071781620006ec565b92915050565b600073ffffffffffffffffffffffffffffffffffffffff82169050919050565b60006200074a826200071d565b9050919050565b6200075c816200073d565b81146200076857600080fd5b50565b6000815190506200077c8162000751565b92915050565b600067ffffffffffffffff82169050919050565b620007a18162000782565b8114620007ad57600080fd5b50565b600081519050620007c18162000796565b92915050565b600080600060608486031215620007e357620007e2620006e7565b5b6000620007f38682870162000706565b935050602062000806868287016200076b565b92505060406200081986828701620007b0565b9150509250925092565b6200082e816200073d565b82525050565b60006020820190506200084b600083018462000823565b92915050565b7f4e487b7100000000000000000000000000000000000000000000000000000000600052601160045260246000fd5b60006200088d82620004ac565b91506200089a83620004ac565b9250828202620008aa81620004ac565b91508282048414831517620008c457620008c362000851565b5b5092915050565b608051615d55620008e76000396000610ab60152615d556000f3fe60806040526004361061021a5760003560e01c8063800a716b11610123578063c325340b116100ab578063e93956791161006f578063e93956791461076b578063f222d0b9146107a8578063f2fde38b146107d3578063f39522e4146107fc578063fb32e627146108395761021a565b8063c325340b146106aa578063c8796572146106d5578063cc11298e146106ec578063ced72f8714610715578063d4aae80f146107405761021a565b80638dbe7b9d116100f25780638dbe7b9d146105d9578063b1e2174914610604578063b238322d1461062f578063b740af7914610658578063bf4e2858146106815761021a565b8063800a716b14610531578063833b1fce1461055a5780638b6f14f3146105855780638da5cb5b146105ae5761021a565b80634b0795a8116101a65780636bdfaee7116101755780636bdfaee7146104745780636c0106d11461049d578063700eae73146104c6578063715018a6146104f157806378ca5de7146105085761021a565b80634b0795a8146103d95780636605d3f214610404578063677306da1461042057806369fe0e2d1461044b5761021a565b80632ddd9aff116101ed5780632ddd9aff146102ed578063378997701461032a5780633944ea3a1461035557806339fb3f45146103805780633d092b3d1461039c5761021a565b8063061e494f1461021f5780630ca761751461025c5780630f53a4701461028557806311e59e14146102c2575b600080fd5b34801561022b57600080fd5b50610246600480360381019061024191906147c0565b610862565b6040516102539190614b07565b60405180910390f35b34801561026857600080fd5b50610283600480360381019061027e9190614ca5565b610ab4565b005b34801561029157600080fd5b506102ac60048036038101906102a79190614d5c565b610b76565b6040516102b99190614ddf565b60405180910390f35b3480156102ce57600080fd5b506102d7610c31565b6040516102e49190614e10565b60405180910390f35b3480156102f957600080fd5b50610314600480360381019061030f91906147c0565b610c3b565b6040516103219190614e10565b60405180910390f35b34801561033657600080fd5b5061033f610d18565b60405161034c9190614e10565b60405180910390f35b34801561036157600080fd5b5061036a610d22565b6040516103779190614eaa565b60405180910390f35b61039a600480360381019061039591906147c0565b610db0565b005b3480156103a857600080fd5b506103c360048036038101906103be91906147c0565b6112bc565b6040516103d09190614fdf565b60405180910390f35b3480156103e557600080fd5b506103ee6114a9565b6040516103fb9190614eaa565b60405180910390f35b61041e600480360381019061041991906150c9565b611537565b005b34801561042c57600080fd5b50610435611a6a565b6040516104429190614e10565b60405180910390f35b34801561045757600080fd5b50610472600480360381019061046d91906147c0565b611a74565b005b34801561048057600080fd5b5061049b600480360381019061049691906147c0565b611abc565b005b3480156104a957600080fd5b506104c460048036038101906104bf91906147c0565b611ad0565b005b3480156104d257600080fd5b506104db611b0a565b6040516104e891906151cf565b60405180910390f35b3480156104fd57600080fd5b50610506611b62565b005b34801561051457600080fd5b5061052f600480360381019061052a91906151f1565b611b76565b005b34801561053d57600080fd5b506105586004803603810190610553919061524a565b611b88565b005b34801561056657600080fd5b5061056f611bf1565b60405161057c9190615299565b60405180910390f35b34801561059157600080fd5b506105ac60048036038101906105a791906147c0565b611c1b565b005b3480156105ba57600080fd5b506105c3611c2d565b6040516105d09190615299565b60405180910390f35b3480156105e557600080fd5b506105ee611c56565b6040516105fb91906152c3565b60405180910390f35b34801561061057600080fd5b50610619611c5c565b60405161062691906152c3565b60405180910390f35b34801561063b57600080fd5b506106566004803603810190610651919061537f565b611c62565b005b34801561066457600080fd5b5061067f600480360381019061067a9190614d5c565b611d86565b005b34801561068d57600080fd5b506106a860048036038101906106a391906147c0565b611e15565b005b3480156106b657600080fd5b506106bf612195565b6040516106cc9190614e10565b60405180910390f35b3480156106e157600080fd5b506106ea61219f565b005b3480156106f857600080fd5b50610713600480360381019061070e9190615444565b61228b565b005b34801561072157600080fd5b5061072a6129c5565b6040516107379190614e10565b60405180910390f35b34801561074c57600080fd5b506107556129cf565b6040516107629190614e10565b60405180910390f35b34801561077757600080fd5b50610792600480360381019061078d91906147c0565b6129d9565b60405161079f91906154ce565b60405180910390f35b3480156107b457600080fd5b506107bd612b39565b6040516107ca9190614e10565b60405180910390f35b3480156107df57600080fd5b506107fa60048036038101906107f59190614d5c565b612b43565b005b34801561080857600080fd5b50610823600480360381019061081e91906147c0565b612bc9565b6040516108309190614e10565b60405180910390f35b34801561084557600080fd5b50610860600480360381019061085b91906147c0565b612d17565b005b61086a614591565b60116000838152602001908152602001600020604051806101e001604052908160008201548152602001600182015481526020016002820160009054906101000a900473ffffffffffffffffffffffffffffffffffffffff1673ffffffffffffffffffffffffffffffffffffffff1673ffffffffffffffffffffffffffffffffffffffff1681526020016003820154815260200160048201548152602001600582015481526020016006820180548060200260200160405190810160405280929190818152602001828054801561099657602002820191906000526020600020905b8160009054906101000a900473ffffffffffffffffffffffffffffffffffffffff1673ffffffffffffffffffffffffffffffffffffffff168152602001906001019080831161094c575b50505050508152602001600782018054806020026020016040519081016040528092919081815260200182805480156109ee57602002820191906000526020600020905b8154815260200190600101908083116109da575b505050505081526020016008820154815260200160098201548152602001600a8201548152602001600b820160009054906101000a900460ff16151515158152602001600b820160019054906101000a900460ff16151515158152602001600c8201548152602001600d8201805480602002602001604051908101604052809291908181526020018280548015610aa457602002820191906000526020600020905b815481526020019060010190808311610a90575b5050505050815250509050919050565b7f000000000000000000000000000000000000000000000000000000000000000073ffffffffffffffffffffffffffffffffffffffff163373ffffffffffffffffffffffffffffffffffffffff1614610b39576040517fc6829f8300000000000000000000000000000000000000000000000000000000815260040160405180910390fd5b610b44838383612d29565b827f85e1543bf2f84fe80c6badbce3648c8539ad1df4d2b3d822938ca0538be727e660405160405180910390a2505050565b610b7e614621565b601060008373ffffffffffffffffffffffffffffffffffffffff1673ffffffffffffffffffffffffffffffffffffffff1681526020019081526020016000206040518060400160405290816000820154815260200160018201805480602002602001604051908101604052809291908181526020018280548015610c2157602002820191906000526020600020905b815481526020019060010190808311610c0d575b5050505050815250509050919050565b6000600b54905090565b600080600860009054906101000a900473ffffffffffffffffffffffffffffffffffffffff1673ffffffffffffffffffffffffffffffffffffffff1663feaf968c6040518163ffffffff1660e01b815260040160a060405180830381865afa158015610cab573d6000803e3d6000fd5b505050506040513d601f19601f82011682018060405250810190610ccf9190615573565b50505091505060006402540be40082610ce8919061561d565b9050600081670de0b6b3a764000086610d019190615695565b610d0b9190615706565b9050809350505050919050565b6000600c54905090565b60028054610d2f90615766565b80601f0160208091040260200160405190810160405280929190818152602001828054610d5b90615766565b8015610da85780601f10610d7d57610100808354040283529160200191610da8565b820191906000526020600020905b815481529060010190602001808311610d8b57829003601f168201915b505050505081565b600060116000838152602001908152602001600020604051806101e001604052908160008201548152602001600182015481526020016002820160009054906101000a900473ffffffffffffffffffffffffffffffffffffffff1673ffffffffffffffffffffffffffffffffffffffff1673ffffffffffffffffffffffffffffffffffffffff16815260200160038201548152602001600482015481526020016005820154815260200160068201805480602002602001604051908101604052809291908181526020018280548015610ede57602002820191906000526020600020905b8160009054906101000a900473ffffffffffffffffffffffffffffffffffffffff1673ffffffffffffffffffffffffffffffffffffffff1681526020019060010190808311610e94575b5050505050815260200160078201805480602002602001604051908101604052809291908181526020018280548015610f3657602002820191906000526020600020905b815481526020019060010190808311610f22575b505050505081526020016008820154815260200160098201548152602001600a8201548152602001600b820160009054906101000a900460ff16151515158152602001600b820160019054906101000a900460ff16151515158152602001600c8201548152602001600d8201805480602002602001604051908101604052809291908181526020018280548015610fec57602002820191906000526020600020905b815481526020019060010190808311610fd8575b50505050508152505090508060c00151518160a0015111611039576040517f81071d2800000000000000000000000000000000000000000000000000000000815260040160405180910390fd5b806101200151341115611078576040517fed47562600000000000000000000000000000000000000000000000000000000815260040160405180910390fd5b8061018001518061109a5750806101a00151610258426110989190615797565b115b156110d1576040517fba05bf4700000000000000000000000000000000000000000000000000000000815260040160405180910390fd5b60116000838152602001908152602001600020600601339080600181540180825580915050600190039060005260206000200160009091909190916101000a81548173ffffffffffffffffffffffffffffffffffffffff021916908373ffffffffffffffffffffffffffffffffffffffff16021790555060116000838152602001908152602001600020600701349080600181540180825580915050600190039060005260206000200160009091909190915055346011600084815260200190815260200160002060040160008282546111ab9190615797565b92505081905550601060003373ffffffffffffffffffffffffffffffffffffffff1673ffffffffffffffffffffffffffffffffffffffff16815260200190815260200160002060010182908060018154018082558091505060019003906000526020600020016000909190919091505534601060003373ffffffffffffffffffffffffffffffffffffffff1673ffffffffffffffffffffffffffffffffffffffff168152602001908152602001600020600001600082825461126d91906157cb565b92505081905550813373ffffffffffffffffffffffffffffffffffffffff167f36ded20b495c4e5f788b261f134395c38eb7360ff2bb88fc16c7b6775193932860405160405180910390a35050565b6112c461463b565b6012600083815260200190815260200160002060405180610100016040529081600082015481526020016001820180546112fd90615766565b80601f016020809104026020016040519081016040528092919081815260200182805461132990615766565b80156113765780601f1061134b57610100808354040283529160200191611376565b820191906000526020600020905b81548152906001019060200180831161135957829003601f168201915b5050505050815260200160028201805461138f90615766565b80601f01602080910402602001604051908101604052809291908181526020018280546113bb90615766565b80156114085780601f106113dd57610100808354040283529160200191611408565b820191906000526020600020905b8154815290600101906020018083116113eb57829003601f168201915b505050505081526020016003820154815260200160048201548152602001600582015481526020016006820160009054906101000a900460ff161515151581526020016007820180548060200260200160405190810160405280929190818152602001828054801561149957602002820191906000526020600020905b815481526020019060010190808311611485575b5050505050815250509050919050565b600380546114b690615766565b80601f01602080910402602001604051908101604052809291908181526020018280546114e290615766565b801561152f5780601f106115045761010080835404028352916020019161152f565b820191906000526020600020905b81548152906001019060200180831161151257829003601f168201915b505050505081565b6103e88311611572576040517f7ed63ccd00000000000000000000000000000000000000000000000000000000815260040160405180910390fd5b600084036115ac576040517f0d27d3e900000000000000000000000000000000000000000000000000000000815260040160405180910390fd5b600082036115e6576040517f2e2785d600000000000000000000000000000000000000000000000000000000815260040160405180910390fd5b6000601260008781526020019081526020016000206005015403611636576040517f2d5342f500000000000000000000000000000000000000000000000000000000815260040160405180910390fd5b600281511015611672576040517fc4819f9d00000000000000000000000000000000000000000000000000000000815260040160405180910390fd5b818461167e9190615695565b6103e883858761168e9190615695565b6116989190615695565b6116a29190615706565b6116ac919061580e565b3410156116e5576040517f745f581d00000000000000000000000000000000000000000000000000000000815260040160405180910390fd5b6116ed614591565b33816040019073ffffffffffffffffffffffffffffffffffffffff16908173ffffffffffffffffffffffffffffffffffffffff1681525050848160a001818152505083816101000181815250506009548161014001818152505085816020018181525050828161012001818152505081816101c001819052503481608001818152505034816060018181525050600e548160000181815250506012600087815260200190815260200160002060050154816101a00181815250508060116000600e548152602001908152602001600020600082015181600001556020820151816001015560408201518160020160006101000a81548173ffffffffffffffffffffffffffffffffffffffff021916908373ffffffffffffffffffffffffffffffffffffffff160217905550606082015181600301556080820151816004015560a0820151816005015560c0820151816006019080519060200190611852929190614682565b5060e082015181600701908051906020019061186f92919061470c565b506101008201518160080155610120820151816009015561014082015181600a015561016082015181600b0160006101000a81548160ff02191690831515021790555061018082015181600b0160016101000a81548160ff0219169083151502179055506101a082015181600c01556101c082015181600d0190805190602001906118fb92919061470c565b50905050601060003373ffffffffffffffffffffffffffffffffffffffff1673ffffffffffffffffffffffffffffffffffffffff168152602001908152602001600020600101600e54908060018154018082558091505060019003906000526020600020016000909190919091505534601060003373ffffffffffffffffffffffffffffffffffffffff1673ffffffffffffffffffffffffffffffffffffffff16815260200190815260200160002060000160008282546119bc91906157cb565b9250508190555060126000878152602001908152602001600020600701600e549080600181540180825580915050600190039060005260206000200160009091909190915055600e6000815480929190611a1590615842565b91905055508484847fbe5a78b4c9e5bd34e20d793f7a455a9d350624e5e173ee900fd14880f679f1e16001600e54611a4d919061580e565b604051611a5a9190614e10565b60405180910390a4505050505050565b6000600d54905090565b611a7c6131fe565b600060095490508160098190555081817f3ddd765e918a581cb556c6b10e6c7cb12c695d5eb7516a9be17358dec5ef3c9660405160405180910390a35050565b611ac46131fe565b611acd81613285565b50565b611ad86131fe565b60016012600083815260200190815260200160002060060160006101000a81548160ff02191690831515021790555050565b60606014805480602002602001604051908101604052809291908181526020018280548015611b5857602002820191906000526020600020905b815481526020019060010190808311611b44575b5050505050905090565b611b6a6131fe565b611b7460006143c6565b565b611b7e6131fe565b8060058190555050565b611b906131fe565b8060116000848152602001908152602001600020600b0160006101000a81548160ff021916908315150217905550600160116000848152602001908152602001600020600b0160016101000a81548160ff0219169083151502179055505050565b6000600860009054906101000a900473ffffffffffffffffffffffffffffffffffffffff16905090565b611c236131fe565b80600d8190555050565b60008060009054906101000a900473ffffffffffffffffffffffffffffffffffffffff16905090565b60055481565b60015481565b611c6a6131fe565b611c7261463b565b86816000018181525050858160a001818152505084816020018190525083816040018190525082816060018181525050818160800181815250508060126000898152602001908152602001600020600082015181600001556020820151816001019081611cdf9190615a36565b506040820151816002019081611cf59190615a36565b50606082015181600301556080820151816004015560a0820151816005015560c08201518160060160006101000a81548160ff02191690831515021790555060e0820151816007019080519060200190611d5092919061470c565b50905050601487908060018154018082558091505060019003906000526020600020016000909190919091505550505050505050565b611d8e6131fe565b80600860006101000a81548173ffffffffffffffffffffffffffffffffffffffff021916908373ffffffffffffffffffffffffffffffffffffffff1602179055508073ffffffffffffffffffffffffffffffffffffffff167f6f4d463f06d6303ccb5e5f3efff065c43013611c234549b89243f40257a7b72260405160405180910390a250565b600060116000838152602001908152602001600020604051806101e001604052908160008201548152602001600182015481526020016002820160009054906101000a900473ffffffffffffffffffffffffffffffffffffffff1673ffffffffffffffffffffffffffffffffffffffff1673ffffffffffffffffffffffffffffffffffffffff16815260200160038201548152602001600482015481526020016005820154815260200160068201805480602002602001604051908101604052809291908181526020018280548015611f4357602002820191906000526020600020905b8160009054906101000a900473ffffffffffffffffffffffffffffffffffffffff1673ffffffffffffffffffffffffffffffffffffffff1681526020019060010190808311611ef9575b5050505050815260200160078201805480602002602001604051908101604052809291908181526020018280548015611f9b57602002820191906000526020600020905b815481526020019060010190808311611f87575b505050505081526020016008820154815260200160098201548152602001600a8201548152602001600b820160009054906101000a900460ff16151515158152602001600b820160019054906101000a900460ff16151515158152602001600c8201548152602001600d820180548060200260200160405190810160405280929190818152602001828054801561205157602002820191906000526020600020905b81548152602001906001019080831161203d575b5050505050815250509050600081606001510361209a576040517fdfba2d6c00000000000000000000000000000000000000000000000000000000815260040160405180910390fd5b80610180015115806120ae57508061016001515b156120e5576040517ff0f84dd500000000000000000000000000000000000000000000000000000000815260040160405180910390fd5b60006103e882610100015183606001518460800151612104919061580e565b61210e9190615695565b6121189190615706565b8260800151612127919061580e565b905060006011600085815260200190815260200160002060030181905550816040015173ffffffffffffffffffffffffffffffffffffffff166108fc829081150290604051600060405180830381858888f1935050505015801561218f573d6000803e3d6000fd5b50505050565b6000600f54905090565b60006121a9611c2d565b73ffffffffffffffffffffffffffffffffffffffff16600a546040516121ce90615b39565b60006040518083038185875af1925050503d806000811461220b576040519150601f19603f3d011682016040523d82523d6000602084013e612210565b606091505b505090508061224b576040517f4a5f2a1b00000000000000000000000000000000000000000000000000000000815260040160405180910390fd5b6000600a5490506000600a81905550807ff4f2ad6f4b10f9853be76745070984d581f6da2399617776ec329308e46d080460405160405180910390a25050565b600060116000848152602001908152602001600020604051806101e001604052908160008201548152602001600182015481526020016002820160009054906101000a900473ffffffffffffffffffffffffffffffffffffffff1673ffffffffffffffffffffffffffffffffffffffff1673ffffffffffffffffffffffffffffffffffffffff168152602001600382015481526020016004820154815260200160058201548152602001600682018054806020026020016040519081016040528092919081815260200182805480156123b957602002820191906000526020600020905b8160009054906101000a900473ffffffffffffffffffffffffffffffffffffffff1673ffffffffffffffffffffffffffffffffffffffff168152602001906001019080831161236f575b505050505081526020016007820180548060200260200160405190810160405280929190818152602001828054801561241157602002820191906000526020600020905b8154815260200190600101908083116123fd575b505050505081526020016008820154815260200160098201548152602001600a8201548152602001600b820160009054906101000a900460ff16151515158152602001600b820160019054906101000a900460ff16151515158152602001600c8201548152602001600d82018054806020026020016040519081016040528092919081815260200182805480156124c757602002820191906000526020600020905b8154815260200190600101908083116124b3575b5050505050815250509050806040015173ffffffffffffffffffffffffffffffffffffffff163373ffffffffffffffffffffffffffffffffffffffff1614801561251357508061016001515b801561252457506000816080015114155b801561253257508061018001515b156126cb578060800151601060003373ffffffffffffffffffffffffffffffffffffffff1673ffffffffffffffffffffffffffffffffffffffff168152602001908152602001600020600001600082825461258d9190615b4e565b9250508190555060006103e88060646125a69190615695565b6125b09190615695565b826101400151836101000151846060015185608001516125d0919061580e565b6125da9190615695565b6125e49190615695565b6125ee9190615706565b90506000818360800151612602919061580e565b90506000601160008781526020019081526020016000206004018190555081600a60008282546126329190615797565b925050819055503373ffffffffffffffffffffffffffffffffffffffff166108fc829081150290604051600060405180830381858888f1935050505015801561267f573d6000803e3d6000fd5b50803373ffffffffffffffffffffffffffffffffffffffff167f3c92031d788fb886d6b0cef0d544d742f65fe462e576906cfe03a5f36ef1244060405160405180910390a350506129c0565b8060c00151518210801561272857508060c0015182815181106126f1576126f0615b92565b5b602002602001015173ffffffffffffffffffffffffffffffffffffffff163373ffffffffffffffffffffffffffffffffffffffff16145b8015612753575060008160e00151838151811061274857612747615b92565b5b602002602001015114155b801561276157508061018001515b80156127705750806101600151155b1561298d5760006103e88260e00151848151811061279157612790615b92565b5b60200260200101518361010001516127a99190615695565b6127b39190615706565b905080601060003373ffffffffffffffffffffffffffffffffffffffff1673ffffffffffffffffffffffffffffffffffffffff16815260200190815260200160002060000160008282546128079190615b4e565b9250508190555060006103e8606461281f9190615695565b836101400151836128309190615695565b61283a9190615706565b90506000818361284a919061580e565b9050600060116000888152602001908152602001600020600701868154811061287657612875615b92565b5b906000526020600020018190555081600a60008282546128969190615797565b9250508190555060003373ffffffffffffffffffffffffffffffffffffffff16826040516128c390615b39565b60006040518083038185875af1925050503d8060008114612900576040519150601f19603f3d011682016040523d82523d6000602084013e612905565b606091505b5050905080612940576040517f4a5f2a1b00000000000000000000000000000000000000000000000000000000815260040160405180910390fd5b813373ffffffffffffffffffffffffffffffffffffffff167f3c92031d788fb886d6b0cef0d544d742f65fe462e576906cfe03a5f36ef1244060405160405180910390a3505050506129bf565b6040517fdfba2d6c00000000000000000000000000000000000000000000000000000000815260040160405180910390fd5b5b505050565b6000600954905090565b6000600a54905090565b606060008203612a20576040518060400160405280600181526020017f30000000000000000000000000000000000000000000000000000000000000008152509050612b34565b600082905060005b60008214612a52578080612a3b90615842565b915050600a82612a4b9190615706565b9150612a28565b60008167ffffffffffffffff811115612a6e57612a6d614b7a565b5b6040519080825280601f01601f191660200182016040528015612aa05781602001600182028036833780820191505090505b5090505b60008514612b2d57600182612ab9919061580e565b9150600a85612ac89190615bc1565b6030612ad49190615797565b60f81b818381518110612aea57612ae9615b92565b5b60200101907effffffffffffffffffffffffffffffffffffffffffffffffffffffffffffff1916908160001a905350600a85612b269190615706565b9450612aa4565b8093505050505b919050565b6000600e54905090565b612b4b6131fe565b600073ffffffffffffffffffffffffffffffffffffffff168173ffffffffffffffffffffffffffffffffffffffff1603612bbd5760006040517f1e4fbdf7000000000000000000000000000000000000000000000000000000008152600401612bb49190615299565b60405180910390fd5b612bc6816143c6565b50565b60008060116000848152602001908152602001600020600601805480602002602001604051908101604052809291908181526020018280548015612c6257602002820191906000526020600020905b8160009054906101000a900473ffffffffffffffffffffffffffffffffffffffff1673ffffffffffffffffffffffffffffffffffffffff1681526020019060010190808311612c18575b5050505050905060005b8151811015612cdf573373ffffffffffffffffffffffffffffffffffffffff16828281518110612c9f57612c9e615b92565b5b602002602001015173ffffffffffffffffffffffffffffffffffffffff1603612ccc578092505050612d12565b8080612cd790615842565b915050612c6c565b506040517f1fe25f4c00000000000000000000000000000000000000000000000000000000815260040160405180910390fd5b919050565b612d1f6131fe565b80600b8190555050565b8160029081612d389190615c4d565b508060039081612d489190615c4d565b5060008060808451108015612d5f57506000845114155b1561306057602082018401519050602082612d7a9190615797565b9150600080602084018601519150602084612d959190615797565b93506020840186015190506000601260008581526020019081526020016000206040518061010001604052908160008201548152602001600182018054612ddb90615766565b80601f0160208091040260200160405190810160405280929190818152602001828054612e0790615766565b8015612e545780601f10612e2957610100808354040283529160200191612e54565b820191906000526020600020905b815481529060010190602001808311612e3757829003601f168201915b50505050508152602001600282018054612e6d90615766565b80601f0160208091040260200160405190810160405280929190818152602001828054612e9990615766565b8015612ee65780601f10612ebb57610100808354040283529160200191612ee6565b820191906000526020600020905b815481529060010190602001808311612ec957829003601f168201915b505050505081526020016003820154815260200160048201548152602001600582015481526020016006820160009054906101000a900460ff1615151515815260200160078201805480602002602001604051908101604052809291908181526020018280548015612f7757602002820191906000526020600020905b815481526020019060010190808311612f63575b5050505050815250509050828160600181815250508181608001818152505060018160c00190151590811515815250508060126000868152602001908152602001600020600082015181600001556020820151816001019081612fda9190615a36565b506040820151816002019081612ff09190615a36565b50606082015181600301556080820151816004015560a0820151816005015560c08201518160060160006101000a81548160ff02191690831515021790555060e082015181600701908051906020019061304b92919061470c565b5090505061305884613285565b5050506131f7565b5b83518210156131f6576020820184015190506020826130809190615797565b9150600060208301850151905060208361309a9190615797565b925060006130a8868561448a565b90506020846130b79190615797565b935060006130c5878661448a565b90506020856130d49190615797565b94506130de61463b565b84816000018181525050818160200181905250828160400181905250838160a001818152505080601260008781526020019081526020016000206000820151816000015560208201518160010190816131379190615a36565b50604082015181600201908161314d9190615a36565b50606082015181600301556080820151816004015560a0820151816005015560c08201518160060160006101000a81548160ff02191690831515021790555060e08201518160070190805190602001906131a892919061470c565b50905050600f60008154809291906131bf90615842565b9190505550601485908060018154018082558091505060019003906000526020600020016000909190919091505550505050613061565b5b5050505050565b613206614589565b73ffffffffffffffffffffffffffffffffffffffff16613224611c2d565b73ffffffffffffffffffffffffffffffffffffffff161461328357613247614589565b6040517f118cdaa700000000000000000000000000000000000000000000000000000000815260040161327a9190615299565b60405180910390fd5b565b60006012600083815260200190815260200160002060405180610100016040529081600082015481526020016001820180546132c090615766565b80601f01602080910402602001604051908101604052809291908181526020018280546132ec90615766565b80156133395780601f1061330e57610100808354040283529160200191613339565b820191906000526020600020905b81548152906001019060200180831161331c57829003601f168201915b5050505050815260200160028201805461335290615766565b80601f016020809104026020016040519081016040528092919081815260200182805461337e90615766565b80156133cb5780601f106133a0576101008083540402835291602001916133cb565b820191906000526020600020905b8154815290600101906020018083116133ae57829003601f168201915b505050505081526020016003820154815260200160048201548152602001600582015481526020016006820160009054906101000a900460ff161515151581526020016007820180548060200260200160405190810160405280929190818152602001828054801561345c57602002820191906000526020600020905b815481526020019060010190808311613448575b50505050508152505090508060c001516134a2576040517f84ff05af00000000000000000000000000000000000000000000000000000000815260040160405180910390fd5b60008160e00151905060005b81518110156143c0576000601160008484815181106134d0576134cf615b92565b5b60200260200101518152602001908152602001600020604051806101e001604052908160008201548152602001600182015481526020016002820160009054906101000a900473ffffffffffffffffffffffffffffffffffffffff1673ffffffffffffffffffffffffffffffffffffffff1673ffffffffffffffffffffffffffffffffffffffff168152602001600382015481526020016004820154815260200160058201548152602001600682018054806020026020016040519081016040528092919081815260200182805480156135ff57602002820191906000526020600020905b8160009054906101000a900473ffffffffffffffffffffffffffffffffffffffff1673ffffffffffffffffffffffffffffffffffffffff16815260200190600101908083116135b5575b505050505081526020016007820180548060200260200160405190810160405280929190818152602001828054801561365757602002820191906000526020600020905b815481526020019060010190808311613643575b505050505081526020016008820154815260200160098201548152602001600a8201548152602001600b820160009054906101000a900460ff16151515158152602001600b820160019054906101000a900460ff16151515158152602001600c8201548152602001600d820180548060200260200160405190810160405280929190818152602001828054801561370d57602002820191906000526020600020905b8154815260200190600101908083116136f9575b50505050508152505090506002816101c001515110614382576000816101c0015160008151811061374157613740615b92565b5b602002602001015114801561377657506003816101c0015160018151811061376c5761376b615b92565b5b6020026020010151105b156139d0576000816101c0015160018151811061379657613795615b92565b5b60200260200101511480156137b357508360800151846060015111155b806137f257506001816101c001516001815181106137d4576137d3615b92565b5b60200260200101511480156137f157508360800151846060015110155b5b8061383157506002816101c0015160018151811061381357613812615b92565b5b602002602001015114801561383057508360800151846060015114155b5b15613849576001816101600190151590811515815250505b600181610180019015159081151581525050806011600085858151811061387357613872615b92565b5b60200260200101518152602001908152602001600020600082015181600001556020820151816001015560408201518160020160006101000a81548173ffffffffffffffffffffffffffffffffffffffff021916908373ffffffffffffffffffffffffffffffffffffffff160217905550606082015181600301556080820151816004015560a0820151816005015560c082015181600601908051906020019061391e929190614682565b5060e082015181600701908051906020019061393b92919061470c565b506101008201518160080155610120820151816009015561014082015181600a015561016082015181600b0160006101000a81548160ff02191690831515021790555061018082015181600b0160016101000a81548160ff0219169083151502179055506101a082015181600c01556101c082015181600d0190805190602001906139c792919061470c565b5090505061437d565b6004816101c001515110158015613a0757506001816101c001516000815181106139fd576139fc615b92565b5b6020026020010151145b8015613a3357506005816101c00151600181518110613a2957613a28615b92565b5b6020026020010151105b8015613a5f57506003816101c00151600281518110613a5557613a54615b92565b5b6020026020010151105b1561437c576000816101c00151600181518110613a7f57613a7e615b92565b5b6020026020010151148015613b9a57506000816101c00151600281518110613aaa57613aa9615b92565b5b6020026020010151148015613ae35750806101c00151600381518110613ad357613ad2615b92565b5b6020026020010151846060015111155b80613b3e57506001816101c00151600281518110613b0457613b03615b92565b5b6020026020010151148015613b3d5750806101c00151600381518110613b2d57613b2c615b92565b5b6020026020010151846060015110155b5b80613b9957506002816101c00151600281518110613b5f57613b5e615b92565b5b6020026020010151148015613b985750806101c00151600381518110613b8857613b87615b92565b5b6020026020010151846060015114155b5b5b15613bb6576001816101600190151590811515815250506141f9565b6001816101c00151600181518110613bd157613bd0615b92565b5b6020026020010151148015613cec57506000816101c00151600281518110613bfc57613bfb615b92565b5b6020026020010151148015613c355750806101c00151600381518110613c2557613c24615b92565b5b6020026020010151846080015111155b80613c9057506001816101c00151600281518110613c5657613c55615b92565b5b6020026020010151148015613c8f5750806101c00151600381518110613c7f57613c7e615b92565b5b6020026020010151846080015110155b5b80613ceb57506002816101c00151600281518110613cb157613cb0615b92565b5b6020026020010151148015613cea5750806101c00151600381518110613cda57613cd9615b92565b5b6020026020010151846080015114155b5b5b15613d08576001816101600190151590811515815250506141f8565b6002816101c00151600181518110613d2357613d22615b92565b5b6020026020010151148015613e6b57506000816101c00151600281518110613d4e57613d4d615b92565b5b6020026020010151148015613d965750806101c00151600381518110613d7757613d76615b92565b5b602002602001015184606001518560800151613d939190615797565b11155b80613e0057506001816101c00151600281518110613db757613db6615b92565b5b6020026020010151148015613dff5750806101c00151600381518110613de057613ddf615b92565b5b602002602001015184606001518560800151613dfc9190615797565b10155b5b80613e6a57506002816101c00151600281518110613e2157613e20615b92565b5b6020026020010151148015613e695750806101c00151600381518110613e4a57613e49615b92565b5b602002602001015184606001518560800151613e669190615797565b14155b5b5b15613e87576001816101600190151590811515815250506141f7565b6003816101c00151600181518110613ea257613ea1615b92565b5b60200260200101510361401a5760008085606001518660800151613ec691906157cb565b1215613ee75784608001518560600151613ee0919061580e565b9050613efe565b84606001518560800151613efb919061580e565b90505b6000826101c00151600281518110613f1957613f18615b92565b5b6020026020010151148015613f4e5750816101c00151600381518110613f4257613f41615b92565b5b60200260200101518111155b80613fa557506001826101c00151600281518110613f6f57613f6e615b92565b5b6020026020010151148015613fa45750816101c00151600381518110613f9857613f97615b92565b5b60200260200101518110155b5b80613ffc57506002826101c00151600281518110613fc657613fc5615b92565b5b6020026020010151148015613ffb5750816101c00151600381518110613fef57613fee615b92565b5b60200260200101518114155b5b15614014576001826101600190151590811515815250505b506141f6565b6004816101c0015160018151811061403557614034615b92565b5b60200260200101511480156141dd57506000816101c001516002815181106140605761405f615b92565b5b60200260200101511480156140c85750806101c0015160038151811061408957614088615b92565b5b602002602001015184608001511115806140c75750806101c001516003815181106140b7576140b6615b92565b5b6020026020010151846060015111155b5b8061415257506001816101c001516002815181106140e9576140e8615b92565b5b60200260200101511480156141515750806101c0015160038151811061411257614111615b92565b5b602002602001015184608001511015806141505750806101c001516003815181106141405761413f615b92565b5b6020026020010151846060015110155b5b5b806141dc57506002816101c0015160028151811061417357614172615b92565b5b60200260200101511480156141db5750806101c0015160038151811061419c5761419b615b92565b5b602002602001015184608001511415806141da5750806101c001516003815181106141ca576141c9615b92565b5b6020026020010151846060015114155b5b5b5b156141f5576001816101600190151590811515815250505b5b5b5b5b600181610180019015159081151581525050806011600085858151811061422357614222615b92565b5b60200260200101518152602001908152602001600020600082015181600001556020820151816001015560408201518160020160006101000a81548173ffffffffffffffffffffffffffffffffffffffff021916908373ffffffffffffffffffffffffffffffffffffffff160217905550606082015181600301556080820151816004015560a0820151816005015560c08201518160060190805190602001906142ce929190614682565b5060e08201518160070190805190602001906142eb92919061470c565b506101008201518160080155610120820151816009015561014082015181600a015561016082015181600b0160006101000a81548160ff02191690831515021790555061018082015181600b0160016101000a81548160ff0219169083151502179055506101a082015181600c01556101c082015181600d01908051906020019061437792919061470c565b509050505b5b6143ac565b60158590806001815401808255809150506001900390600052602060002001600090919091909150555b5080806143b890615842565b9150506134ae565b50505050565b60008060009054906101000a900473ffffffffffffffffffffffffffffffffffffffff169050816000806101000a81548173ffffffffffffffffffffffffffffffffffffffff021916908373ffffffffffffffffffffffffffffffffffffffff1602179055508173ffffffffffffffffffffffffffffffffffffffff168173ffffffffffffffffffffffffffffffffffffffff167f8be0079c531659141344cd1fd0a4f28419497f9722a3daafe3b4186f6b6457e060405160405180910390a35050565b6060600060208301840151905060008167ffffffffffffffff8111156144b3576144b2614b7a565b5b6040519080825280601f01601f1916602001820160405280156144e55781602001600182028036833780820191505090505b50905060005b8281101561457d5785602082876145029190615797565b61450c9190615797565b8151811061451d5761451c615b92565b5b602001015160f81c60f81b82828151811061453b5761453a615b92565b5b60200101907effffffffffffffffffffffffffffffffffffffffffffffffffffffffffffff1916908160001a905350808061457590615842565b9150506144eb565b50809250505092915050565b600033905090565b604051806101e001604052806000815260200160008152602001600073ffffffffffffffffffffffffffffffffffffffff168152602001600081526020016000815260200160008152602001606081526020016060815260200160008152602001600081526020016000815260200160001515815260200160001515815260200160008152602001606081525090565b604051806040016040528060008152602001606081525090565b604051806101000160405280600081526020016060815260200160608152602001600081526020016000815260200160008152602001600015158152602001606081525090565b8280548282559060005260206000209081019282156146fb579160200282015b828111156146fa5782518260006101000a81548173ffffffffffffffffffffffffffffffffffffffff021916908373ffffffffffffffffffffffffffffffffffffffff160217905550916020019190600101906146a2565b5b5090506147089190614759565b5090565b828054828255906000526020600020908101928215614748579160200282015b8281111561474757825182559160200191906001019061472c565b5b5090506147559190614759565b5090565b5b8082111561477257600081600090555060010161475a565b5090565b6000604051905090565b600080fd5b600080fd5b6000819050919050565b61479d8161478a565b81146147a857600080fd5b50565b6000813590506147ba81614794565b92915050565b6000602082840312156147d6576147d5614780565b5b60006147e4848285016147ab565b91505092915050565b6147f68161478a565b82525050565b600073ffffffffffffffffffffffffffffffffffffffff82169050919050565b6000614827826147fc565b9050919050565b6148378161481c565b82525050565b600081519050919050565b600082825260208201905092915050565b6000819050602082019050919050565b6000614875838361482e565b60208301905092915050565b6000602082019050919050565b60006148998261483d565b6148a38185614848565b93506148ae83614859565b8060005b838110156148df5781516148c68882614869565b97506148d183614881565b9250506001810190506148b2565b5085935050505092915050565b600081519050919050565b600082825260208201905092915050565b6000819050602082019050919050565b600061492483836147ed565b60208301905092915050565b6000602082019050919050565b6000614948826148ec565b61495281856148f7565b935061495d83614908565b8060005b8381101561498e5781516149758882614918565b975061498083614930565b925050600181019050614961565b5085935050505092915050565b60008115159050919050565b6149b08161499b565b82525050565b60006101e0830160008301516149cf60008601826147ed565b5060208301516149e260208601826147ed565b5060408301516149f5604086018261482e565b506060830151614a0860608601826147ed565b506080830151614a1b60808601826147ed565b5060a0830151614a2e60a08601826147ed565b5060c083015184820360c0860152614a46828261488e565b91505060e083015184820360e0860152614a60828261493d565b915050610100830151614a776101008601826147ed565b50610120830151614a8c6101208601826147ed565b50610140830151614aa16101408601826147ed565b50610160830151614ab66101608601826149a7565b50610180830151614acb6101808601826149a7565b506101a0830151614ae06101a08601826147ed565b506101c08301518482036101c0860152614afa828261493d565b9150508091505092915050565b60006020820190508181036000830152614b2181846149b6565b905092915050565b6000819050919050565b614b3c81614b29565b8114614b4757600080fd5b50565b600081359050614b5981614b33565b92915050565b600080fd5b600080fd5b6000601f19601f8301169050919050565b7f4e487b7100000000000000000000000000000000000000000000000000000000600052604160045260246000fd5b614bb282614b69565b810181811067ffffffffffffffff82111715614bd157614bd0614b7a565b5b80604052505050565b6000614be4614776565b9050614bf08282614ba9565b919050565b600067ffffffffffffffff821115614c1057614c0f614b7a565b5b614c1982614b69565b9050602081019050919050565b82818337600083830152505050565b6000614c48614c4384614bf5565b614bda565b905082815260208101848484011115614c6457614c63614b64565b5b614c6f848285614c26565b509392505050565b600082601f830112614c8c57614c8b614b5f565b5b8135614c9c848260208601614c35565b91505092915050565b600080600060608486031215614cbe57614cbd614780565b5b6000614ccc86828701614b4a565b935050602084013567ffffffffffffffff811115614ced57614cec614785565b5b614cf986828701614c77565b925050604084013567ffffffffffffffff811115614d1a57614d19614785565b5b614d2686828701614c77565b9150509250925092565b614d398161481c565b8114614d4457600080fd5b50565b600081359050614d5681614d30565b92915050565b600060208284031215614d7257614d71614780565b5b6000614d8084828501614d47565b91505092915050565b6000819050919050565b614d9c81614d89565b82525050565b6000604083016000830151614dba6000860182614d93565b5060208301518482036020860152614dd2828261493d565b9150508091505092915050565b60006020820190508181036000830152614df98184614da2565b905092915050565b614e0a8161478a565b82525050565b6000602082019050614e256000830184614e01565b92915050565b600081519050919050565b600082825260208201905092915050565b60005b83811015614e65578082015181840152602081019050614e4a565b60008484015250505050565b6000614e7c82614e2b565b614e868185614e36565b9350614e96818560208601614e47565b614e9f81614b69565b840191505092915050565b60006020820190508181036000830152614ec48184614e71565b905092915050565b600081519050919050565b600082825260208201905092915050565b6000614ef382614ecc565b614efd8185614ed7565b9350614f0d818560208601614e47565b614f1681614b69565b840191505092915050565b600061010083016000830151614f3a60008601826147ed565b5060208301518482036020860152614f528282614ee8565b91505060408301518482036040860152614f6c8282614ee8565b9150506060830151614f8160608601826147ed565b506080830151614f9460808601826147ed565b5060a0830151614fa760a08601826147ed565b5060c0830151614fba60c08601826149a7565b5060e083015184820360e0860152614fd2828261493d565b9150508091505092915050565b60006020820190508181036000830152614ff98184614f21565b905092915050565b600067ffffffffffffffff82111561501c5761501b614b7a565b5b602082029050602081019050919050565b600080fd5b600061504561504084615001565b614bda565b905080838252602082019050602084028301858111156150685761506761502d565b5b835b81811015615091578061507d88826147ab565b84526020840193505060208101905061506a565b5050509392505050565b600082601f8301126150b0576150af614b5f565b5b81356150c0848260208601615032565b91505092915050565b600080600080600060a086880312156150e5576150e4614780565b5b60006150f3888289016147ab565b9550506020615104888289016147ab565b9450506040615115888289016147ab565b9350506060615126888289016147ab565b925050608086013567ffffffffffffffff81111561514757615146614785565b5b6151538882890161509b565b9150509295509295909350565b600082825260208201905092915050565b600061517c826148ec565b6151868185615160565b935061519183614908565b8060005b838110156151c25781516151a98882614918565b97506151b483614930565b925050600181019050615195565b5085935050505092915050565b600060208201905081810360008301526151e98184615171565b905092915050565b60006020828403121561520757615206614780565b5b600061521584828501614b4a565b91505092915050565b6152278161499b565b811461523257600080fd5b50565b6000813590506152448161521e565b92915050565b6000806040838503121561526157615260614780565b5b600061526f858286016147ab565b925050602061528085828601615235565b9150509250929050565b6152938161481c565b82525050565b60006020820190506152ae600083018461528a565b92915050565b6152bd81614b29565b82525050565b60006020820190506152d860008301846152b4565b92915050565b600067ffffffffffffffff8211156152f9576152f8614b7a565b5b61530282614b69565b9050602081019050919050565b600061532261531d846152de565b614bda565b90508281526020810184848401111561533e5761533d614b64565b5b615349848285614c26565b509392505050565b600082601f83011261536657615365614b5f565b5b813561537684826020860161530f565b91505092915050565b60008060008060008060c0878903121561539c5761539b614780565b5b60006153aa89828a016147ab565b96505060206153bb89828a016147ab565b955050604087013567ffffffffffffffff8111156153dc576153db614785565b5b6153e889828a01615351565b945050606087013567ffffffffffffffff81111561540957615408614785565b5b61541589828a01615351565b935050608061542689828a016147ab565b92505060a061543789828a016147ab565b9150509295509295509295565b6000806040838503121561545b5761545a614780565b5b6000615469858286016147ab565b925050602061547a858286016147ab565b9150509250929050565b600082825260208201905092915050565b60006154a082614ecc565b6154aa8185615484565b93506154ba818560208601614e47565b6154c381614b69565b840191505092915050565b600060208201905081810360008301526154e88184615495565b905092915050565b600069ffffffffffffffffffff82169050919050565b61550f816154f0565b811461551a57600080fd5b50565b60008151905061552c81615506565b92915050565b61553b81614d89565b811461554657600080fd5b50565b60008151905061555881615532565b92915050565b60008151905061556d81614794565b92915050565b600080600080600060a0868803121561558f5761558e614780565b5b600061559d8882890161551d565b95505060206155ae88828901615549565b94505060406155bf8882890161555e565b93505060606155d08882890161555e565b92505060806155e18882890161551d565b9150509295509295909350565b7f4e487b7100000000000000000000000000000000000000000000000000000000600052601160045260246000fd5b600061562882614d89565b915061563383614d89565b925082820261564181614d89565b91507f80000000000000000000000000000000000000000000000000000000000000008414600084121615615679576156786155ee565b5b828205841483151761568e5761568d6155ee565b5b5092915050565b60006156a08261478a565b91506156ab8361478a565b92508282026156b98161478a565b915082820484148315176156d0576156cf6155ee565b5b5092915050565b7f4e487b7100000000000000000000000000000000000000000000000000000000600052601260045260246000fd5b60006157118261478a565b915061571c8361478a565b92508261572c5761572b6156d7565b5b828204905092915050565b7f4e487b7100000000000000000000000000000000000000000000000000000000600052602260045260246000fd5b6000600282049050600182168061577e57607f821691505b60208210810361579157615790615737565b5b50919050565b60006157a28261478a565b91506157ad8361478a565b92508282019050808211156157c5576157c46155ee565b5b92915050565b60006157d682614d89565b91506157e183614d89565b9250828203905081811260008412168282136000851215161715615808576158076155ee565b5b92915050565b60006158198261478a565b91506158248361478a565b925082820390508181111561583c5761583b6155ee565b5b92915050565b600061584d8261478a565b91507fffffffffffffffffffffffffffffffffffffffffffffffffffffffffffffffff820361587f5761587e6155ee565b5b600182019050919050565b60008190508160005260206000209050919050565b60006020601f8301049050919050565b600082821b905092915050565b6000600883026158ec7fffffffffffffffffffffffffffffffffffffffffffffffffffffffffffffffff826158af565b6158f686836158af565b95508019841693508086168417925050509392505050565b6000819050919050565b600061593361592e6159298461478a565b61590e565b61478a565b9050919050565b6000819050919050565b61594d83615918565b6159616159598261593a565b8484546158bc565b825550505050565b600090565b615976615969565b615981818484615944565b505050565b5b818110156159a55761599a60008261596e565b600181019050615987565b5050565b601f8211156159ea576159bb8161588a565b6159c48461589f565b810160208510156159d3578190505b6159e76159df8561589f565b830182615986565b50505b505050565b600082821c905092915050565b6000615a0d600019846008026159ef565b1980831691505092915050565b6000615a2683836159fc565b9150826002028217905092915050565b615a3f82614ecc565b67ffffffffffffffff811115615a5857615a57614b7a565b5b615a628254615766565b615a6d8282856159a9565b600060209050601f831160018114615aa05760008415615a8e578287015190505b615a988582615a1a565b865550615b00565b601f198416615aae8661588a565b60005b82811015615ad657848901518255600182019150602085019450602081019050615ab1565b86831015615af35784890151615aef601f8916826159fc565b8355505b6001600288020188555050505b505050505050565b600081905092915050565b50565b6000615b23600083615b08565b9150615b2e82615b13565b600082019050919050565b6000615b4482615b16565b9150819050919050565b6000615b5982614d89565b9150615b6483614d89565b925082820190508281121560008312168382126000841215161715615b8c57615b8b6155ee565b5b92915050565b7f4e487b7100000000000000000000000000000000000000000000000000000000600052603260045260246000fd5b6000615bcc8261478a565b9150615bd78361478a565b925082615be757615be66156d7565b5b828206905092915050565b60008190508160005260206000209050919050565b601f821115615c4857615c1981615bf2565b615c228461589f565b81016020851015615c31578190505b615c45615c3d8561589f565b830182615986565b50505b505050565b615c5682614e2b565b67ffffffffffffffff811115615c6f57615c6e614b7a565b5b615c798254615766565b615c84828285615c07565b600060209050601f831160018114615cb75760008415615ca5578287015190505b615caf8582615a1a565b865550615d17565b601f198416615cc586615bf2565b60005b82811015615ced57848901518255600182019150602085019450602081019050615cc8565b86831015615d0a5784890151615d06601f8916826159fc565b8355505b6001600288020188555050505b50505050505056fea2646970667358221220e991e21effe1c3b49a6c7662b3023e000572a345fe9522fb7379b2b854836e8e64736f6c63430008140033",
  "linkReferences": {},
  "deployedLinkReferences": {}
}