{
  "_format": "hh-sol-artifact-1",
  "contractName": "P2PBettingActions",
  "sourceName": "contracts/P2PBettingActions.sol",
  "abi": [
    {
      "inputs": [
        {
          "internalType": "address",
          "name": "owner",
          "type": "address"
        }
      ],
      "stateMutability": "nonpayable",
      "type": "constructor"
    },
    {
      "inputs": [],
      "name": "EmptyArgs",
      "type": "error"
    },
    {
      "inputs": [],
      "name": "EmptySource",
      "type": "error"
    },
    {
      "inputs": [],
      "name": "NoInlineSecrets",
      "type": "error"
    },
    {
      "inputs": [],
      "name": "OnlyRouterCanFulfill",
      "type": "error"
    },
    {
      "inputs": [],
      "name": "P2PBetting__MatchDidNotEnd",
      "type": "error"
    },
    {
      "anonymous": false,
      "inputs": [
        {
          "indexed": true,
          "internalType": "address",
          "name": "from",
          "type": "address"
        },
        {
          "indexed": true,
          "internalType": "address",
          "name": "to",
          "type": "address"
        }
      ],
      "name": "OwnershipTransferRequested",
      "type": "event"
    },
    {
      "anonymous": false,
      "inputs": [
        {
          "indexed": true,
          "internalType": "address",
          "name": "from",
          "type": "address"
        },
        {
          "indexed": true,
          "internalType": "address",
          "name": "to",
          "type": "address"
        }
      ],
      "name": "OwnershipTransferred",
      "type": "event"
    },
    {
      "anonymous": false,
      "inputs": [
        {
          "indexed": true,
          "internalType": "bytes32",
          "name": "id",
          "type": "bytes32"
        }
      ],
      "name": "RequestFulfilled",
      "type": "event"
    },
    {
      "anonymous": false,
      "inputs": [
        {
          "indexed": true,
          "internalType": "bytes32",
          "name": "id",
          "type": "bytes32"
        }
      ],
      "name": "RequestSent",
      "type": "event"
    },
    {
      "inputs": [
        {
          "internalType": "uint256[]",
          "name": "betToClose",
          "type": "uint256[]"
        },
        {
          "internalType": "uint256",
          "name": "pointsHome",
          "type": "uint256"
        },
        {
          "internalType": "uint256",
          "name": "pointsAway",
          "type": "uint256"
        }
      ],
      "name": "_endBetsUsingMatchId",
      "outputs": [
        {
          "internalType": "bool",
          "name": "ended",
          "type": "bool"
        },
        {
          "internalType": "bool",
          "name": "tipsterWon",
          "type": "bool"
        }
      ],
      "stateMutability": "pure",
      "type": "function"
    },
    {
      "inputs": [],
      "name": "acceptOwnership",
      "outputs": [],
      "stateMutability": "nonpayable",
      "type": "function"
    },
    {
      "inputs": [
        {
          "internalType": "bytes",
          "name": "",
          "type": "bytes"
        }
      ],
      "name": "checkUpkeep",
      "outputs": [
        {
          "internalType": "bool",
          "name": "upkeepNeeded",
          "type": "bool"
        },
        {
          "internalType": "bytes",
          "name": "",
          "type": "bytes"
        }
      ],
      "stateMutability": "view",
      "type": "function"
    },
    {
      "inputs": [],
      "name": "donId",
      "outputs": [
        {
          "internalType": "bytes32",
          "name": "",
          "type": "bytes32"
        }
      ],
      "stateMutability": "view",
      "type": "function"
    },
    {
      "inputs": [
        {
          "internalType": "uint256",
          "name": "matchId_",
          "type": "uint256"
        }
      ],
      "name": "endUsingMatchId",
      "outputs": [
        {
          "internalType": "bytes32",
          "name": "",
          "type": "bytes32"
        }
      ],
      "stateMutability": "nonpayable",
      "type": "function"
    },
    {
      "inputs": [
        {
          "internalType": "uint256",
          "name": "matchId",
          "type": "uint256"
        }
      ],
      "name": "getResults",
      "outputs": [
        {
          "internalType": "uint256[3]",
          "name": "",
          "type": "uint256[3]"
        }
      ],
      "stateMutability": "view",
      "type": "function"
    },
    {
      "inputs": [
        {
          "internalType": "bytes32",
          "name": "requestId",
          "type": "bytes32"
        },
        {
          "internalType": "bytes",
          "name": "response",
          "type": "bytes"
        },
        {
          "internalType": "bytes",
          "name": "err",
          "type": "bytes"
        }
      ],
      "name": "handleOracleFulfillment",
      "outputs": [],
      "stateMutability": "nonpayable",
      "type": "function"
    },
    {
      "inputs": [],
      "name": "owner",
      "outputs": [
        {
          "internalType": "address",
          "name": "",
          "type": "address"
        }
      ],
      "stateMutability": "view",
      "type": "function"
    },
    {
      "inputs": [
        {
          "internalType": "bytes",
          "name": "",
          "type": "bytes"
        }
      ],
      "name": "performUpkeep",
      "outputs": [],
      "stateMutability": "nonpayable",
      "type": "function"
    },
    {
      "inputs": [],
      "name": "s_lastError",
      "outputs": [
        {
          "internalType": "bytes",
          "name": "",
          "type": "bytes"
        }
      ],
      "stateMutability": "view",
      "type": "function"
    },
    {
      "inputs": [],
      "name": "s_lastRequestId",
      "outputs": [
        {
          "internalType": "bytes32",
          "name": "",
          "type": "bytes32"
        }
      ],
      "stateMutability": "view",
      "type": "function"
    },
    {
      "inputs": [],
      "name": "s_lastResponse",
      "outputs": [
        {
          "internalType": "bytes",
          "name": "",
          "type": "bytes"
        }
      ],
      "stateMutability": "view",
      "type": "function"
    },
    {
      "inputs": [
        {
          "internalType": "address",
          "name": "bettingFront",
          "type": "address"
        }
      ],
      "name": "setBettingFrontAddress",
      "outputs": [],
      "stateMutability": "nonpayable",
      "type": "function"
    },
    {
      "inputs": [
        {
          "internalType": "uint256",
          "name": "_intervalForAutomation",
          "type": "uint256"
        }
      ],
      "name": "setIntervalForAutomation",
      "outputs": [],
      "stateMutability": "nonpayable",
      "type": "function"
    },
    {
      "inputs": [
        {
          "internalType": "address",
          "name": "to",
          "type": "address"
        }
      ],
      "name": "transferOwnership",
      "outputs": [],
      "stateMutability": "nonpayable",
      "type": "function"
    }
  ],
  "bytecode": "0x60a0604052622dc6c0600660006101000a81548163ffffffff021916908363ffffffff16021790555073a9d587a00a31a52ed70d6026794a8fc5e2f5dcb0600660046101000a81548173ffffffffffffffffffffffffffffffffffffffff021916908373ffffffffffffffffffffffffffffffffffffffff160217905550612065600660186101000a81548167ffffffffffffffff021916908367ffffffffffffffff1602179055507f66756e2d6176616c616e6368652d66756a692d3100000000000000000000000060001b600755604051806102c00160405280610285815260200162003d25610285913960089081620000fc91906200063e565b50620151806009553480156200011157600080fd5b5060405162003faa38038062003faa83398181016040528101906200013791906200078f565b600660049054906101000a900473ffffffffffffffffffffffffffffffffffffffff16818060008073ffffffffffffffffffffffffffffffffffffffff168273ffffffffffffffffffffffffffffffffffffffff1603620001cf576040517f08c379a0000000000000000000000000000000000000000000000000000000008152600401620001c69062000822565b60405180910390fd5b816000806101000a81548173ffffffffffffffffffffffffffffffffffffffff021916908373ffffffffffffffffffffffffffffffffffffffff160217905550600073ffffffffffffffffffffffffffffffffffffffff168173ffffffffffffffffffffffffffffffffffffffff1614620002565762000255816200029560201b60201c565b5b5050508073ffffffffffffffffffffffffffffffffffffffff1660808173ffffffffffffffffffffffffffffffffffffffff16815250505050620008b6565b3373ffffffffffffffffffffffffffffffffffffffff168173ffffffffffffffffffffffffffffffffffffffff160362000306576040517f08c379a0000000000000000000000000000000000000000000000000000000008152600401620002fd9062000894565b60405180910390fd5b80600160006101000a81548173ffffffffffffffffffffffffffffffffffffffff021916908373ffffffffffffffffffffffffffffffffffffffff1602179055508073ffffffffffffffffffffffffffffffffffffffff1660008054906101000a900473ffffffffffffffffffffffffffffffffffffffff1673ffffffffffffffffffffffffffffffffffffffff167fed8889f560326eb138920d842192f0eb3dd22b4f139c87a2c57538e05bae127860405160405180910390a350565b600081519050919050565b7f4e487b7100000000000000000000000000000000000000000000000000000000600052604160045260246000fd5b7f4e487b7100000000000000000000000000000000000000000000000000000000600052602260045260246000fd5b600060028204905060018216806200044657607f821691505b6020821081036200045c576200045b620003fe565b5b50919050565b60008190508160005260206000209050919050565b60006020601f8301049050919050565b600082821b905092915050565b600060088302620004c67fffffffffffffffffffffffffffffffffffffffffffffffffffffffffffffffff8262000487565b620004d2868362000487565b95508019841693508086168417925050509392505050565b6000819050919050565b6000819050919050565b60006200051f620005196200051384620004ea565b620004f4565b620004ea565b9050919050565b6000819050919050565b6200053b83620004fe565b620005536200054a8262000526565b84845462000494565b825550505050565b600090565b6200056a6200055b565b6200057781848462000530565b505050565b5b818110156200059f576200059360008262000560565b6001810190506200057d565b5050565b601f821115620005ee57620005b88162000462565b620005c38462000477565b81016020851015620005d3578190505b620005eb620005e28562000477565b8301826200057c565b50505b505050565b600082821c905092915050565b60006200061360001984600802620005f3565b1980831691505092915050565b60006200062e838362000600565b9150826002028217905092915050565b6200064982620003c4565b67ffffffffffffffff811115620006655762000664620003cf565b5b6200067182546200042d565b6200067e828285620005a3565b600060209050601f831160018114620006b65760008415620006a1578287015190505b620006ad858262000620565b8655506200071d565b601f198416620006c68662000462565b60005b82811015620006f057848901518255600182019150602085019450602081019050620006c9565b868310156200071057848901516200070c601f89168262000600565b8355505b6001600288020188555050505b505050505050565b600080fd5b600073ffffffffffffffffffffffffffffffffffffffff82169050919050565b600062000757826200072a565b9050919050565b62000769816200074a565b81146200077557600080fd5b50565b60008151905062000789816200075e565b92915050565b600060208284031215620007a857620007a762000725565b5b6000620007b88482850162000778565b91505092915050565b600082825260208201905092915050565b7f43616e6e6f7420736574206f776e657220746f207a65726f0000000000000000600082015250565b60006200080a601883620007c1565b91506200081782620007d2565b602082019050919050565b600060208201905081810360008301526200083d81620007fb565b9050919050565b7f43616e6e6f74207472616e7366657220746f2073656c66000000000000000000600082015250565b60006200087c601783620007c1565b9150620008898262000844565b602082019050919050565b60006020820190508181036000830152620008af816200086d565b9050919050565b60805161344c620008d9600039600081816102ea0152611888015261344c6000f3fe608060405234801561001057600080fd5b50600436106100f55760003560e01c806381a60c0d11610097578063b1e2174911610066578063b1e2174914610276578063eff61be614610294578063f2fde38b146102b0578063fb32e627146102cc576100f5565b806381a60c0d146101d95780638da5cb5b146102095780638dbe7b9d146102275780638e03ce5214610245576100f5565b80634b0795a8116100d35780634b0795a8146101505780635ec249d51461016e5780636e04ff0d1461019e57806379ba5097146101cf576100f5565b80630ca76175146100fa5780633944ea3a146101165780634585e33b14610134575b600080fd5b610114600480360381019061010f91906124f8565b6102e8565b005b61011e6103aa565b60405161012b9190612602565b60405180910390f35b61014e60048036038101906101499190612684565b610438565b005b6101586104d5565b6040516101659190612602565b60405180910390f35b61018860048036038101906101839190612707565b610563565b6040516101959190612743565b60405180910390f35b6101b860048036038101906101b39190612684565b6107d5565b6040516101c6929190612779565b60405180910390f35b6101d76107fb565b005b6101f360048036038101906101ee9190612707565b610990565b6040516102009190612854565b60405180910390f35b6102116109ee565b60405161021e91906128b0565b60405180910390f35b61022f610a17565b60405161023c9190612743565b60405180910390f35b61025f600480360381019061025a919061298e565b610a1d565b60405161026d9291906129fd565b60405180910390f35b61027e6111f6565b60405161028b9190612743565b60405180910390f35b6102ae60048036038101906102a99190612a52565b6111fc565b005b6102ca60048036038101906102c59190612a52565b611248565b005b6102e660048036038101906102e19190612707565b61125c565b005b7f000000000000000000000000000000000000000000000000000000000000000073ffffffffffffffffffffffffffffffffffffffff163373ffffffffffffffffffffffffffffffffffffffff161461036d576040517fc6829f8300000000000000000000000000000000000000000000000000000000815260040160405180910390fd5b61037883838361126e565b827f85e1543bf2f84fe80c6badbce3648c8539ad1df4d2b3d822938ca0538be727e660405160405180910390a2505050565b600480546103b790612aae565b80601f01602080910402602001604051908101604052809291908181526020018280546103e390612aae565b80156104305780601f1061040557610100808354040283529160200191610430565b820191906000526020600020905b81548152906001019060200180831161041357829003601f168201915b505050505081565b600954600a54426104499190612b0e565b106104d157600260009054906101000a900473ffffffffffffffffffffffffffffffffffffffff1673ffffffffffffffffffffffffffffffffffffffff1663c87965726040518163ffffffff1660e01b8152600401600060405180830381600087803b1580156104b857600080fd5b505af11580156104cc573d6000803e3d6000fd5b505050505b5050565b600580546104e290612aae565b80601f016020809104026020016040519081016040528092919081815260200182805461050e90612aae565b801561055b5780601f106105305761010080835404028352916020019161055b565b820191906000526020600020905b81548152906001019060200180831161053e57829003601f168201915b505050505081565b6000613840600260009054906101000a900473ffffffffffffffffffffffffffffffffffffffff1673ffffffffffffffffffffffffffffffffffffffff16631f7d2f2c846040518263ffffffff1660e01b81526004016105c39190612b51565b602060405180830381865afa1580156105e0573d6000803e3d6000fd5b505050506040513d601f19601f820116820180604052508101906106049190612b81565b61060e9190612bae565b421015610647576040517f84ff05af00000000000000000000000000000000000000000000000000000000815260040160405180910390fd5b61064f61229a565b6000600167ffffffffffffffff81111561066c5761066b6123cd565b5b60405190808252806020026020018201604052801561069f57816020015b606081526020019060019003908161068a5790505b5090506106ab84611340565b816000815181106106bf576106be612be2565b5b6020026020010181905250610767600880546106da90612aae565b80601f016020809104026020016040519081016040528092919081815260200182805461070690612aae565b80156107535780601f1061072857610100808354040283529160200191610753565b820191906000526020600020905b81548152906001019060200180831161073657829003601f168201915b50505050508361140e90919063ffffffff16565b60008151111561078557610784818361141f90919063ffffffff16565b5b6107c361079183611467565b600660189054906101000a900467ffffffffffffffff16600660009054906101000a900463ffffffff16600754611883565b60038190555060035492505050919050565b60006060600954600a54426107ea9190612b0e565b106107f457600191505b9250929050565b600160009054906101000a900473ffffffffffffffffffffffffffffffffffffffff1673ffffffffffffffffffffffffffffffffffffffff163373ffffffffffffffffffffffffffffffffffffffff161461088b576040517f08c379a000000000000000000000000000000000000000000000000000000000815260040161088290612c6e565b60405180910390fd5b60008060009054906101000a900473ffffffffffffffffffffffffffffffffffffffff169050336000806101000a81548173ffffffffffffffffffffffffffffffffffffffff021916908373ffffffffffffffffffffffffffffffffffffffff1602179055506000600160006101000a81548173ffffffffffffffffffffffffffffffffffffffff021916908373ffffffffffffffffffffffffffffffffffffffff1602179055503373ffffffffffffffffffffffffffffffffffffffff168173ffffffffffffffffffffffffffffffffffffffff167f8be0079c531659141344cd1fd0a4f28419497f9722a3daafe3b4186f6b6457e060405160405180910390a350565b61099861230c565b600b60008381526020019081526020016000206003806020026040519081016040528092919082600380156109e2576020028201915b8154815260200190600101908083116109ce575b50505050509050919050565b60008060009054906101000a900473ffffffffffffffffffffffffffffffffffffffff16905090565b60075481565b60008060005b85518110156111ed5760028651106111da57600086600081518110610a4b57610a4a612be2565b5b6020026020010151148015610a7b5750600386600181518110610a7157610a70612be2565b5b6020026020010151105b15610b2257600086600181518110610a9657610a95612be2565b5b6020026020010151148015610aab5750838511155b80610add5750600186600181518110610ac757610ac6612be2565b5b6020026020010151148015610adc5750838510155b5b80610b0f5750600286600181518110610af957610af8612be2565b5b6020026020010151148015610b0e5750838514155b5b15610b1957600191505b600192506111d9565b6004865110158015610b4f5750600186600081518110610b4557610b44612be2565b5b6020026020010151145b8015610b765750600586600181518110610b6c57610b6b612be2565b5b6020026020010151105b8015610b9d5750600386600281518110610b9357610b92612be2565b5b6020026020010151105b156111d857600086600181518110610bb857610bb7612be2565b5b6020026020010151148015610ca95750600086600281518110610bde57610bdd612be2565b5b6020026020010151148015610c0e575085600381518110610c0257610c01612be2565b5b60200260200101518511155b80610c5b5750600186600281518110610c2a57610c29612be2565b5b6020026020010151148015610c5a575085600381518110610c4e57610c4d612be2565b5b60200260200101518510155b5b80610ca85750600286600281518110610c7757610c76612be2565b5b6020026020010151148015610ca7575085600381518110610c9b57610c9a612be2565b5b60200260200101518514155b5b5b15610cb757600191506111d3565b600186600181518110610ccd57610ccc612be2565b5b6020026020010151148015610dbe5750600086600281518110610cf357610cf2612be2565b5b6020026020010151148015610d23575085600381518110610d1757610d16612be2565b5b60200260200101518411155b80610d705750600186600281518110610d3f57610d3e612be2565b5b6020026020010151148015610d6f575085600381518110610d6357610d62612be2565b5b60200260200101518410155b5b80610dbd5750600286600281518110610d8c57610d8b612be2565b5b6020026020010151148015610dbc575085600381518110610db057610daf612be2565b5b60200260200101518414155b5b5b15610dcc57600191506111d2565b600286600181518110610de257610de1612be2565b5b6020026020010151148015610ef45750600086600281518110610e0857610e07612be2565b5b6020026020010151148015610e43575085600381518110610e2c57610e2b612be2565b5b60200260200101518585610e409190612bae565b11155b80610e9b5750600186600281518110610e5f57610e5e612be2565b5b6020026020010151148015610e9a575085600381518110610e8357610e82612be2565b5b60200260200101518585610e979190612bae565b10155b5b80610ef35750600286600281518110610eb757610eb6612be2565b5b6020026020010151148015610ef2575085600381518110610edb57610eda612be2565b5b60200260200101518585610eef9190612bae565b14155b5b5b15610f0257600191506111d1565b600386600181518110610f1857610f17612be2565b5b60200260200101510361104c576000808686610f349190612c98565b1215610f4d578486610f469190612b0e565b9050610f5c565b8585610f599190612b0e565b90505b600087600281518110610f7257610f71612be2565b5b6020026020010151148015610fa2575086600381518110610f9657610f95612be2565b5b60200260200101518111155b80610fef5750600187600281518110610fbe57610fbd612be2565b5b6020026020010151148015610fee575086600381518110610fe257610fe1612be2565b5b60200260200101518110155b5b8061103c575060028760028151811061100b5761100a612be2565b5b602002602001015114801561103b57508660038151811061102f5761102e612be2565b5b60200260200101518114155b5b1561104657600192505b506111d0565b60048660018151811061106257611061612be2565b5b60200260200101511480156111c5575060008660028151811061108857611087612be2565b5b60200260200101511480156110de5750856003815181106110ac576110ab612be2565b5b6020026020010151841115806110dd5750856003815181106110d1576110d0612be2565b5b60200260200101518511155b5b8061115157506001866002815181106110fa576110f9612be2565b5b602002602001015114801561115057508560038151811061111e5761111d612be2565b5b60200260200101518410158061114f57508560038151811061114357611142612be2565b5b60200260200101518510155b5b5b806111c4575060028660028151811061116d5761116c612be2565b5b60200260200101511480156111c357508560038151811061119157611190612be2565b5b6020026020010151841415806111c25750856003815181106111b6576111b5612be2565b5b60200260200101518514155b5b5b5b156111cf57600191505b5b5b5b5b600192505b5b5b80806111e590612cdb565b915050610a23565b50935093915050565b60035481565b611204611966565b80600260006101000a81548173ffffffffffffffffffffffffffffffffffffffff021916908373ffffffffffffffffffffffffffffffffffffffff16021790555050565b611250611966565b611259816119f6565b50565b611264611966565b8060098190555050565b816004908161127d9190612ecf565b50806005908161128d9190612ecf565b506000806000848060200190518101906112a79190612fa1565b80935081945082955050505081600b60008581526020019081526020016000206000600381106112da576112d9612be2565b5b018190555080600b600085815260200190815260200160002060016003811061130657611305612be2565b5b01819055506001600b600085815260200190815260200160002060026003811061133357611332612be2565b5b0181905550505050505050565b60606000600161134f84611b22565b01905060008167ffffffffffffffff81111561136e5761136d6123cd565b5b6040519080825280601f01601f1916602001820160405280156113a05781602001600182028036833780820191505090505b509050600082602001820190505b600115611403578080600190039150507f3031323334353637383961626364656600000000000000000000000000000000600a86061a8153600a85816113f7576113f6612ff4565b5b049450600085036113ae575b819350505050919050565b61141b8260008084611c75565b5050565b600081510361145a576040517ffe936cb700000000000000000000000000000000000000000000000000000000815260040160405180910390fd5b808260a001819052505050565b60606000611476610100611d1f565b90506114c06040518060400160405280600c81526020017f636f64654c6f636174696f6e000000000000000000000000000000000000000081525082611d4690919063ffffffff16565b6114e9836000015160028111156114da576114d9613023565b5b82611d6f90919063ffffffff16565b6115316040518060400160405280600881526020017f6c616e677561676500000000000000000000000000000000000000000000000081525082611d4690919063ffffffff16565b61155a8360400151600081111561154b5761154a613023565b5b82611d6f90919063ffffffff16565b6115a26040518060400160405280600681526020017f736f75726365000000000000000000000000000000000000000000000000000081525082611d4690919063ffffffff16565b6115b9836060015182611d4690919063ffffffff16565b60008360a001515111156116755761160f6040518060400160405280600481526020017f617267730000000000000000000000000000000000000000000000000000000081525082611d4690919063ffffffff16565b61161881611dbf565b60005b8360a001515181101561166a576116598460a00151828151811061164257611641612be2565b5b602002602001015183611d4690919063ffffffff16565b8061166390612cdb565b905061161b565b5061167481611de7565b5b600083608001515111156117b6576000600281111561169757611696613023565b5b836020015160028111156116ae576116ad613023565b5b036116e5576040517fa80d31f700000000000000000000000000000000000000000000000000000000815260040160405180910390fd5b61172d6040518060400160405280600f81526020017f736563726574734c6f636174696f6e000000000000000000000000000000000081525082611d4690919063ffffffff16565b6117568360200151600281111561174757611746613023565b5b82611d6f90919063ffffffff16565b61179e6040518060400160405280600781526020017f736563726574730000000000000000000000000000000000000000000000000081525082611d4690919063ffffffff16565b6117b5836080015182611e0f90919063ffffffff16565b5b60008360c001515111156118725761180c6040518060400160405280600981526020017f627974657341726773000000000000000000000000000000000000000000000081525082611d4690919063ffffffff16565b61181581611dbf565b60005b8360c0015151811015611867576118568460c00151828151811061183f5761183e612be2565b5b602002602001015183611e0f90919063ffffffff16565b8061186090612cdb565b9050611818565b5061187181611de7565b5b806000015160000151915050919050565b6000807f000000000000000000000000000000000000000000000000000000000000000073ffffffffffffffffffffffffffffffffffffffff1663461d27628688600188886040518663ffffffff1660e01b81526004016118e89594939291906130b1565b6020604051808303816000875af1158015611907573d6000803e3d6000fd5b505050506040513d601f19601f8201168201806040525081019061192b9190613120565b9050807f1131472297a800fee664d1d89cfa8f7676ff07189ecc53f80bbb5f4969099db860405160405180910390a280915050949350505050565b60008054906101000a900473ffffffffffffffffffffffffffffffffffffffff1673ffffffffffffffffffffffffffffffffffffffff163373ffffffffffffffffffffffffffffffffffffffff16146119f4576040517f08c379a00000000000000000000000000000000000000000000000000000000081526004016119eb90613199565b60405180910390fd5b565b3373ffffffffffffffffffffffffffffffffffffffff168173ffffffffffffffffffffffffffffffffffffffff1603611a64576040517f08c379a0000000000000000000000000000000000000000000000000000000008152600401611a5b90613205565b60405180910390fd5b80600160006101000a81548173ffffffffffffffffffffffffffffffffffffffff021916908373ffffffffffffffffffffffffffffffffffffffff1602179055508073ffffffffffffffffffffffffffffffffffffffff1660008054906101000a900473ffffffffffffffffffffffffffffffffffffffff1673ffffffffffffffffffffffffffffffffffffffff167fed8889f560326eb138920d842192f0eb3dd22b4f139c87a2c57538e05bae127860405160405180910390a350565b600080600090507a184f03e93ff9f4daa797ed6e38ed64bf6a1f0100000000000000008310611b80577a184f03e93ff9f4daa797ed6e38ed64bf6a1f0100000000000000008381611b7657611b75612ff4565b5b0492506040810190505b6d04ee2d6d415b85acef81000000008310611bbd576d04ee2d6d415b85acef81000000008381611bb357611bb2612ff4565b5b0492506020810190505b662386f26fc100008310611bec57662386f26fc100008381611be257611be1612ff4565b5b0492506010810190505b6305f5e1008310611c15576305f5e1008381611c0b57611c0a612ff4565b5b0492506008810190505b6127108310611c3a576127108381611c3057611c2f612ff4565b5b0492506004810190505b60648310611c5d5760648381611c5357611c52612ff4565b5b0492506002810190505b600a8310611c6c576001810190505b80915050919050565b6000815103611cb0576040517f22ce3edd00000000000000000000000000000000000000000000000000000000815260040160405180910390fd5b8284600001906002811115611cc857611cc7613023565b5b90816002811115611cdc57611cdb613023565b5b815250508184604001906000811115611cf857611cf7613023565b5b90816000811115611d0c57611d0b613023565b5b8152505080846060018190525050505050565b611d2761232e565b611d35816000015183611e38565b506000816020018181525050919050565b611d538260038351611eb1565b611d6a81836000015161205a90919063ffffffff16565b505050565b611d9160026005600660ff16901b17836000015161207690919063ffffffff16565b50611dbb8282604051602001611da79190612b51565b604051602081830303815290604052611e0f565b5050565b611dca8160046120e0565b600181602001818151611ddd9190612bae565b9150818152505050565b611df28160076120e0565b600181602001818151611e059190612b0e565b9150818152505050565b611e1c8260028351611eb1565b611e3381836000015161205a90919063ffffffff16565b505050565b611e4061234e565b6000602083611e4f9190613225565b14611e7b57602082611e619190613225565b6020611e6d9190612b0e565b82611e789190612bae565b91505b818360200181815250506040518084526000815282810160200181811015611ea257600080fd5b80604052505082905092915050565b60178167ffffffffffffffff1611611eec57611ee68160058460ff16901b60ff1617846000015161207690919063ffffffff16565b50612055565b60ff8167ffffffffffffffff1611611f4a57611f1f601860058460ff16901b17846000015161207690919063ffffffff16565b50611f448167ffffffffffffffff16600185600001516121069092919063ffffffff16565b50612054565b61ffff8167ffffffffffffffff1611611fa957611f7e601960058460ff16901b17846000015161207690919063ffffffff16565b50611fa38167ffffffffffffffff16600285600001516121069092919063ffffffff16565b50612053565b63ffffffff8167ffffffffffffffff161161200a57611fdf601a60058460ff16901b17846000015161207690919063ffffffff16565b506120048167ffffffffffffffff16600485600001516121069092919063ffffffff16565b50612052565b61202b601b60058460ff16901b17846000015161207690919063ffffffff16565b506120508167ffffffffffffffff16600885600001516121069092919063ffffffff16565b505b5b5b5b505050565b61206261234e565b61206e83838451612193565b905092915050565b61207e61234e565b6000836000015151905060006001826120979190612bae565b9050846020015182106120bb576120ba856002836120b59190613256565b612276565b5b845160208382010185815381518311156120d3578282525b5050849250505092915050565b612101601f60058360ff16901b17836000015161207690919063ffffffff16565b505050565b61210e61234e565b60008460000151519050600081846121269190612bae565b9050856020015181111561214b5761214a866002836121459190613256565b612276565b5b600060018561010061215d91906133cb565b6121679190612b0e565b905086518281018783198251161781528151841115612184578382525b50508693505050509392505050565b61219b61234e565b82518211156121a957600080fd5b60008460000151519050600083826121c19190612bae565b905085602001518111156121e6576121e5866002836121e09190613256565b612276565b5b60008087518051856020830101935080851115612201578482525b60208901925050505b6020861061224857805182526020826122239190612bae565b91506020816122329190612bae565b90506020866122419190612b0e565b955061220a565b60006001876020036101000a0390508019825116818451168181178552505050879450505050509392505050565b6000826000015190506122898383611e38565b50612294838261205a565b50505050565b6040518060e00160405280600060028111156122b9576122b8613023565b5b8152602001600060028111156122d2576122d1613023565b5b81526020016000808111156122ea576122e9613023565b5b8152602001606081526020016060815260200160608152602001606081525090565b6040518060600160405280600390602082028036833780820191505090505090565b604051806040016040528061234161234e565b8152602001600081525090565b604051806040016040528060608152602001600081525090565b6000604051905090565b600080fd5b600080fd5b6000819050919050565b61238f8161237c565b811461239a57600080fd5b50565b6000813590506123ac81612386565b92915050565b600080fd5b600080fd5b6000601f19601f8301169050919050565b7f4e487b7100000000000000000000000000000000000000000000000000000000600052604160045260246000fd5b612405826123bc565b810181811067ffffffffffffffff82111715612424576124236123cd565b5b80604052505050565b6000612437612368565b905061244382826123fc565b919050565b600067ffffffffffffffff821115612463576124626123cd565b5b61246c826123bc565b9050602081019050919050565b82818337600083830152505050565b600061249b61249684612448565b61242d565b9050828152602081018484840111156124b7576124b66123b7565b5b6124c2848285612479565b509392505050565b600082601f8301126124df576124de6123b2565b5b81356124ef848260208601612488565b91505092915050565b60008060006060848603121561251157612510612372565b5b600061251f8682870161239d565b935050602084013567ffffffffffffffff8111156125405761253f612377565b5b61254c868287016124ca565b925050604084013567ffffffffffffffff81111561256d5761256c612377565b5b612579868287016124ca565b9150509250925092565b600081519050919050565b600082825260208201905092915050565b60005b838110156125bd5780820151818401526020810190506125a2565b60008484015250505050565b60006125d482612583565b6125de818561258e565b93506125ee81856020860161259f565b6125f7816123bc565b840191505092915050565b6000602082019050818103600083015261261c81846125c9565b905092915050565b600080fd5b600080fd5b60008083601f840112612644576126436123b2565b5b8235905067ffffffffffffffff81111561266157612660612624565b5b60208301915083600182028301111561267d5761267c612629565b5b9250929050565b6000806020838503121561269b5761269a612372565b5b600083013567ffffffffffffffff8111156126b9576126b8612377565b5b6126c58582860161262e565b92509250509250929050565b6000819050919050565b6126e4816126d1565b81146126ef57600080fd5b50565b600081359050612701816126db565b92915050565b60006020828403121561271d5761271c612372565b5b600061272b848285016126f2565b91505092915050565b61273d8161237c565b82525050565b60006020820190506127586000830184612734565b92915050565b60008115159050919050565b6127738161275e565b82525050565b600060408201905061278e600083018561276a565b81810360208301526127a081846125c9565b90509392505050565b600060039050919050565b600081905092915050565b6000819050919050565b6127d2816126d1565b82525050565b60006127e483836127c9565b60208301905092915050565b6000602082019050919050565b612806816127a9565b61281081846127b4565b925061281b826127bf565b8060005b8381101561284c57815161283387826127d8565b965061283e836127f0565b92505060018101905061281f565b505050505050565b600060608201905061286960008301846127fd565b92915050565b600073ffffffffffffffffffffffffffffffffffffffff82169050919050565b600061289a8261286f565b9050919050565b6128aa8161288f565b82525050565b60006020820190506128c560008301846128a1565b92915050565b600067ffffffffffffffff8211156128e6576128e56123cd565b5b602082029050602081019050919050565b600061290a612905846128cb565b61242d565b9050808382526020820190506020840283018581111561292d5761292c612629565b5b835b81811015612956578061294288826126f2565b84526020840193505060208101905061292f565b5050509392505050565b600082601f830112612975576129746123b2565b5b81356129858482602086016128f7565b91505092915050565b6000806000606084860312156129a7576129a6612372565b5b600084013567ffffffffffffffff8111156129c5576129c4612377565b5b6129d186828701612960565b93505060206129e2868287016126f2565b92505060406129f3868287016126f2565b9150509250925092565b6000604082019050612a12600083018561276a565b612a1f602083018461276a565b9392505050565b612a2f8161288f565b8114612a3a57600080fd5b50565b600081359050612a4c81612a26565b92915050565b600060208284031215612a6857612a67612372565b5b6000612a7684828501612a3d565b91505092915050565b7f4e487b7100000000000000000000000000000000000000000000000000000000600052602260045260246000fd5b60006002820490506001821680612ac657607f821691505b602082108103612ad957612ad8612a7f565b5b50919050565b7f4e487b7100000000000000000000000000000000000000000000000000000000600052601160045260246000fd5b6000612b19826126d1565b9150612b24836126d1565b9250828203905081811115612b3c57612b3b612adf565b5b92915050565b612b4b816126d1565b82525050565b6000602082019050612b666000830184612b42565b92915050565b600081519050612b7b816126db565b92915050565b600060208284031215612b9757612b96612372565b5b6000612ba584828501612b6c565b91505092915050565b6000612bb9826126d1565b9150612bc4836126d1565b9250828201905080821115612bdc57612bdb612adf565b5b92915050565b7f4e487b7100000000000000000000000000000000000000000000000000000000600052603260045260246000fd5b600082825260208201905092915050565b7f4d7573742062652070726f706f736564206f776e657200000000000000000000600082015250565b6000612c58601683612c11565b9150612c6382612c22565b602082019050919050565b60006020820190508181036000830152612c8781612c4b565b9050919050565b6000819050919050565b6000612ca382612c8e565b9150612cae83612c8e565b9250828203905081811260008412168282136000851215161715612cd557612cd4612adf565b5b92915050565b6000612ce6826126d1565b91507fffffffffffffffffffffffffffffffffffffffffffffffffffffffffffffffff8203612d1857612d17612adf565b5b600182019050919050565b60008190508160005260206000209050919050565b60006020601f8301049050919050565b600082821b905092915050565b600060088302612d857fffffffffffffffffffffffffffffffffffffffffffffffffffffffffffffffff82612d48565b612d8f8683612d48565b95508019841693508086168417925050509392505050565b6000819050919050565b6000612dcc612dc7612dc2846126d1565b612da7565b6126d1565b9050919050565b6000819050919050565b612de683612db1565b612dfa612df282612dd3565b848454612d55565b825550505050565b600090565b612e0f612e02565b612e1a818484612ddd565b505050565b5b81811015612e3e57612e33600082612e07565b600181019050612e20565b5050565b601f821115612e8357612e5481612d23565b612e5d84612d38565b81016020851015612e6c578190505b612e80612e7885612d38565b830182612e1f565b50505b505050565b600082821c905092915050565b6000612ea660001984600802612e88565b1980831691505092915050565b6000612ebf8383612e95565b9150826002028217905092915050565b612ed882612583565b67ffffffffffffffff811115612ef157612ef06123cd565b5b612efb8254612aae565b612f06828285612e42565b600060209050601f831160018114612f395760008415612f27578287015190505b612f318582612eb3565b865550612f99565b601f198416612f4786612d23565b60005b82811015612f6f57848901518255600182019150602085019450602081019050612f4a565b86831015612f8c5784890151612f88601f891682612e95565b8355505b6001600288020188555050505b505050505050565b600080600060608486031215612fba57612fb9612372565b5b6000612fc886828701612b6c565b9350506020612fd986828701612b6c565b9250506040612fea86828701612b6c565b9150509250925092565b7f4e487b7100000000000000000000000000000000000000000000000000000000600052601260045260246000fd5b7f4e487b7100000000000000000000000000000000000000000000000000000000600052602160045260246000fd5b600067ffffffffffffffff82169050919050565b61306f81613052565b82525050565b600061ffff82169050919050565b61308c81613075565b82525050565b600063ffffffff82169050919050565b6130ab81613092565b82525050565b600060a0820190506130c66000830188613066565b81810360208301526130d881876125c9565b90506130e76040830186613083565b6130f460608301856130a2565b6131016080830184612734565b9695505050505050565b60008151905061311a81612386565b92915050565b60006020828403121561313657613135612372565b5b60006131448482850161310b565b91505092915050565b7f4f6e6c792063616c6c61626c65206279206f776e657200000000000000000000600082015250565b6000613183601683612c11565b915061318e8261314d565b602082019050919050565b600060208201905081810360008301526131b281613176565b9050919050565b7f43616e6e6f74207472616e7366657220746f2073656c66000000000000000000600082015250565b60006131ef601783612c11565b91506131fa826131b9565b602082019050919050565b6000602082019050818103600083015261321e816131e2565b9050919050565b6000613230826126d1565b915061323b836126d1565b92508261324b5761324a612ff4565b5b828206905092915050565b6000613261826126d1565b915061326c836126d1565b925082820261327a816126d1565b9150828204841483151761329157613290612adf565b5b5092915050565b60008160011c9050919050565b6000808291508390505b60018511156132ef578086048111156132cb576132ca612adf565b5b60018516156132da5780820291505b80810290506132e885613298565b94506132af565b94509492505050565b60008261330857600190506133c4565b8161331657600090506133c4565b816001811461332c576002811461333657613365565b60019150506133c4565b60ff84111561334857613347612adf565b5b8360020a91508482111561335f5761335e612adf565b5b506133c4565b5060208310610133831016604e8410600b841016171561339a5782820a90508381111561339557613394612adf565b5b6133c4565b6133a784848460016132a5565b925090508184048111156133be576133bd612adf565b5b81810290505b9392505050565b60006133d6826126d1565b91506133e1836126d1565b925061340e7fffffffffffffffffffffffffffffffffffffffffffffffffffffffffffffffff84846132f8565b90509291505056fea26469706673582212203b89935914fc46bf23945287b28dc78375ec8c3db7b11ce367b9392c47278b7364736f6c63430008140033636f6e73742067616d654964203d20617267735b305d3b636f6e737420636f6e666967203d207b75726c3a206068747470733a2f2f6170692e73706f727473646174612e696f2f76332f6e62612f73746174732f6a736f6e2f426f7853636f72652f247b67616d6549647d3f6b65793d3036623966656237363235333432373439343664323836393334666630323335607d3b636f6e737420726573706f6e7365203d2061776169742046756e6374696f6e732e6d616b65487474705265717565737428636f6e666967293b636f6e7374206d61746368203d20726573706f6e73652e646174612e47616d653b6966286d617463682e4973436c6f736564297b636f6e73742067616d65496455696e74203d207061727365496e742867616d6549642c203130293b636f6e737420656e636f64656447616d654964203d2046756e6374696f6e732e656e636f646555696e743235362867616d65496455696e74293b636f6e737420656e636f646564486f6d655465616d53636f7265203d2046756e6374696f6e732e656e636f646555696e74323536286d617463682e486f6d655465616d53636f7265293b636f6e737420656e636f646564417761795465616d53636f7265203d2046756e6374696f6e732e656e636f646555696e74323536286d617463682e417761795465616d53636f7265293b72657475726e204275666665722e636f6e636174285b656e636f64656447616d6549642c20656e636f646564486f6d655465616d53636f72652c20656e636f646564417761795465616d53636f72655d293b7d656c73657b7468726f77206e6577204572726f7228274d61746368206e6f7420666f756e6420666f7220676976656e20617267756d656e747327297d",
  "linkReferences": {},
  "deployedLinkReferences": {}
}