{
  "_format": "hh-sol-artifact-1",
  "contractName": "P2PBetting",
  "sourceName": "contracts/P2PBetting.sol",
  "abi": [
    {
      "inputs": [
        {
          "internalType": "uint256",
          "name": "fee_",
          "type": "uint256"
        },
        {
          "internalType": "address",
          "name": "owner",
          "type": "address"
        },
        {
          "internalType": "uint64",
          "name": "subscriptionId_",
          "type": "uint64"
        }
      ],
      "stateMutability": "nonpayable",
      "type": "constructor"
    },
    {
      "inputs": [],
      "name": "OnlyRouterCanFulfill",
      "type": "error"
    },
    {
      "inputs": [],
      "name": "P2PBetting__AlreadyRetrievedOrBetNonexistent",
      "type": "error"
    },
    {
      "inputs": [],
      "name": "P2PBetting__BetIsFullOrNonexistent",
      "type": "error"
    },
    {
      "inputs": [],
      "name": "P2PBetting__CantCallIfNotOwner",
      "type": "error"
    },
    {
      "inputs": [],
      "name": "P2PBetting__CantEnterBetNow",
      "type": "error"
    },
    {
      "inputs": [],
      "name": "P2PBetting__MatchDidNotEnd",
      "type": "error"
    },
    {
      "inputs": [],
      "name": "P2PBetting__MatchDoesntExist",
      "type": "error"
    },
    {
      "inputs": [],
      "name": "P2PBetting__MaxPriceCantBeZero",
      "type": "error"
    },
    {
      "inputs": [],
      "name": "P2PBetting__NotEnoughEthSent",
      "type": "error"
    },
    {
      "inputs": [],
      "name": "P2PBetting__NumberOfChallengersCantBeZero",
      "type": "error"
    },
    {
      "inputs": [],
      "name": "P2PBetting__OddsMustBeHigherThanOne",
      "type": "error"
    },
    {
      "inputs": [],
      "name": "P2PBetting__OnlyCalledIfTipsterLost",
      "type": "error"
    },
    {
      "inputs": [],
      "name": "P2PBetting__TooMuchEthSent",
      "type": "error"
    },
    {
      "inputs": [],
      "name": "P2PBetting__TransferFailed",
      "type": "error"
    },
    {
      "inputs": [],
      "name": "P2PBetting__UnexpectedRequestId",
      "type": "error"
    },
    {
      "inputs": [],
      "name": "P2PBetting__UserNotInBet",
      "type": "error"
    },
    {
      "inputs": [],
      "name": "P2PBetting__WrongBetFormat",
      "type": "error"
    },
    {
      "anonymous": false,
      "inputs": [
        {
          "indexed": true,
          "internalType": "address",
          "name": "previousOwner",
          "type": "address"
        },
        {
          "indexed": true,
          "internalType": "address",
          "name": "newOwner",
          "type": "address"
        }
      ],
      "name": "OwnershipTransferred",
      "type": "event"
    },
    {
      "anonymous": false,
      "inputs": [
        {
          "indexed": true,
          "internalType": "uint256",
          "name": "maxPrice",
          "type": "uint256"
        },
        {
          "indexed": true,
          "internalType": "uint256",
          "name": "odds",
          "type": "uint256"
        },
        {
          "indexed": true,
          "internalType": "uint256",
          "name": "maxNumOfPlayers",
          "type": "uint256"
        },
        {
          "indexed": false,
          "internalType": "uint256",
          "name": "betId",
          "type": "uint256"
        }
      ],
      "name": "P2PBetting__BetCreated",
      "type": "event"
    },
    {
      "anonymous": false,
      "inputs": [
        {
          "indexed": true,
          "internalType": "address",
          "name": "challenger",
          "type": "address"
        },
        {
          "indexed": true,
          "internalType": "uint256",
          "name": "betID",
          "type": "uint256"
        }
      ],
      "name": "P2PBetting__BetJoined",
      "type": "event"
    },
    {
      "anonymous": false,
      "inputs": [
        {
          "indexed": true,
          "internalType": "uint256",
          "name": "feesCollected",
          "type": "uint256"
        }
      ],
      "name": "P2PBetting__FeesCollected",
      "type": "event"
    },
    {
      "anonymous": false,
      "inputs": [
        {
          "indexed": true,
          "internalType": "uint256",
          "name": "oldFee",
          "type": "uint256"
        },
        {
          "indexed": true,
          "internalType": "uint256",
          "name": "newFee",
          "type": "uint256"
        }
      ],
      "name": "P2PBetting__NewFeeSet",
      "type": "event"
    },
    {
      "anonymous": false,
      "inputs": [
        {
          "indexed": true,
          "internalType": "address",
          "name": "oracle",
          "type": "address"
        }
      ],
      "name": "P2PBetting__NewOracleSet",
      "type": "event"
    },
    {
      "anonymous": false,
      "inputs": [
        {
          "indexed": true,
          "internalType": "address",
          "name": "winner",
          "type": "address"
        },
        {
          "indexed": true,
          "internalType": "uint256",
          "name": "amount",
          "type": "uint256"
        }
      ],
      "name": "P2PBetting__RewardClaimed",
      "type": "event"
    },
    {
      "anonymous": false,
      "inputs": [
        {
          "indexed": true,
          "internalType": "bytes32",
          "name": "id",
          "type": "bytes32"
        }
      ],
      "name": "RequestFulfilled",
      "type": "event"
    },
    {
      "anonymous": false,
      "inputs": [
        {
          "indexed": true,
          "internalType": "bytes32",
          "name": "id",
          "type": "bytes32"
        }
      ],
      "name": "RequestSent",
      "type": "event"
    },
    {
      "anonymous": false,
      "inputs": [
        {
          "indexed": false,
          "internalType": "string",
          "name": "name",
          "type": "string"
        }
      ],
      "name": "testevent",
      "type": "event"
    },
    {
      "inputs": [],
      "name": "collectFees",
      "outputs": [],
      "stateMutability": "nonpayable",
      "type": "function"
    },
    {
      "inputs": [
        {
          "internalType": "uint256",
          "name": "matchId",
          "type": "uint256"
        },
        {
          "internalType": "uint256",
          "name": "maxNumberOfChallengers_",
          "type": "uint256"
        },
        {
          "internalType": "uint256",
          "name": "odds_",
          "type": "uint256"
        },
        {
          "internalType": "uint256",
          "name": "maxEntryFee_",
          "type": "uint256"
        },
        {
          "internalType": "uint256[]",
          "name": "betData_",
          "type": "uint256[]"
        }
      ],
      "name": "createBet",
      "outputs": [],
      "stateMutability": "payable",
      "type": "function"
    },
    {
      "inputs": [],
      "name": "donId",
      "outputs": [
        {
          "internalType": "bytes32",
          "name": "",
          "type": "bytes32"
        }
      ],
      "stateMutability": "view",
      "type": "function"
    },
    {
      "inputs": [
        {
          "internalType": "uint256",
          "name": "betId_",
          "type": "uint256"
        },
        {
          "internalType": "bool",
          "name": "tipsterWon",
          "type": "bool"
        }
      ],
      "name": "endBetOwner",
      "outputs": [],
      "stateMutability": "nonpayable",
      "type": "function"
    },
    {
      "inputs": [
        {
          "internalType": "uint256",
          "name": "matchId",
          "type": "uint256"
        }
      ],
      "name": "endBetsUsingMatchId",
      "outputs": [],
      "stateMutability": "nonpayable",
      "type": "function"
    },
    {
      "inputs": [],
      "name": "getAllBets",
      "outputs": [
        {
          "internalType": "uint256[]",
          "name": "",
          "type": "uint256[]"
        }
      ],
      "stateMutability": "view",
      "type": "function"
    },
    {
      "inputs": [
        {
          "internalType": "uint256",
          "name": "betId",
          "type": "uint256"
        }
      ],
      "name": "getBet",
      "outputs": [
        {
          "components": [
            {
              "internalType": "uint256",
              "name": "betId",
              "type": "uint256"
            },
            {
              "internalType": "uint256",
              "name": "matchId",
              "type": "uint256"
            },
            {
              "internalType": "address",
              "name": "tipster",
              "type": "address"
            },
            {
              "internalType": "uint256",
              "name": "collateralGiven",
              "type": "uint256"
            },
            {
              "internalType": "uint256",
              "name": "moneyInBet",
              "type": "uint256"
            },
            {
              "internalType": "uint256",
              "name": "maxNumberOfChallengers",
              "type": "uint256"
            },
            {
              "internalType": "address[]",
              "name": "challengers",
              "type": "address[]"
            },
            {
              "internalType": "uint256[]",
              "name": "challengersMoneyBet",
              "type": "uint256[]"
            },
            {
              "internalType": "uint256",
              "name": "odds",
              "type": "uint256"
            },
            {
              "internalType": "uint256",
              "name": "maxEntryFee",
              "type": "uint256"
            },
            {
              "internalType": "uint256",
              "name": "fee",
              "type": "uint256"
            },
            {
              "internalType": "bool",
              "name": "tipsterWon",
              "type": "bool"
            },
            {
              "internalType": "bool",
              "name": "ended",
              "type": "bool"
            },
            {
              "internalType": "uint256",
              "name": "startMatchTimestamp",
              "type": "uint256"
            },
            {
              "internalType": "uint256[]",
              "name": "betData",
              "type": "uint256[]"
            }
          ],
          "internalType": "struct P2PBetting.Bet",
          "name": "",
          "type": "tuple"
        }
      ],
      "stateMutability": "view",
      "type": "function"
    },
    {
      "inputs": [
        {
          "internalType": "uint256",
          "name": "betId_",
          "type": "uint256"
        }
      ],
      "name": "getCollateralBack",
      "outputs": [],
      "stateMutability": "nonpayable",
      "type": "function"
    },
    {
      "inputs": [],
      "name": "getFee",
      "outputs": [
        {
          "internalType": "uint256",
          "name": "",
          "type": "uint256"
        }
      ],
      "stateMutability": "view",
      "type": "function"
    },
    {
      "inputs": [],
      "name": "getFeesCollected",
      "outputs": [
        {
          "internalType": "uint256",
          "name": "",
          "type": "uint256"
        }
      ],
      "stateMutability": "view",
      "type": "function"
    },
    {
      "inputs": [],
      "name": "getIntervalForAutomation",
      "outputs": [
        {
          "internalType": "uint256",
          "name": "",
          "type": "uint256"
        }
      ],
      "stateMutability": "view",
      "type": "function"
    },
    {
      "inputs": [],
      "name": "getLastTimestamp",
      "outputs": [
        {
          "internalType": "uint256",
          "name": "",
          "type": "uint256"
        }
      ],
      "stateMutability": "view",
      "type": "function"
    },
    {
      "inputs": [
        {
          "internalType": "uint256",
          "name": "matchId",
          "type": "uint256"
        }
      ],
      "name": "getMatch",
      "outputs": [
        {
          "components": [
            {
              "internalType": "uint256",
              "name": "matchId",
              "type": "uint256"
            },
            {
              "internalType": "string",
              "name": "home",
              "type": "string"
            },
            {
              "internalType": "string",
              "name": "away",
              "type": "string"
            },
            {
              "internalType": "uint256",
              "name": "pointsHome",
              "type": "uint256"
            },
            {
              "internalType": "uint256",
              "name": "pointsAway",
              "type": "uint256"
            },
            {
              "internalType": "uint256",
              "name": "timeOfGame",
              "type": "uint256"
            },
            {
              "internalType": "bool",
              "name": "ended",
              "type": "bool"
            },
            {
              "internalType": "uint256[]",
              "name": "betsOfMatch",
              "type": "uint256[]"
            }
          ],
          "internalType": "struct P2PBetting.Match",
          "name": "",
          "type": "tuple"
        }
      ],
      "stateMutability": "view",
      "type": "function"
    },
    {
      "inputs": [],
      "name": "getNumberOfBets",
      "outputs": [
        {
          "internalType": "uint256",
          "name": "",
          "type": "uint256"
        }
      ],
      "stateMutability": "view",
      "type": "function"
    },
    {
      "inputs": [
        {
          "internalType": "uint256",
          "name": "betId_",
          "type": "uint256"
        }
      ],
      "name": "getNumberOfChallenger",
      "outputs": [
        {
          "internalType": "uint256",
          "name": "",
          "type": "uint256"
        }
      ],
      "stateMutability": "view",
      "type": "function"
    },
    {
      "inputs": [],
      "name": "getNumberOfMatchesDone",
      "outputs": [
        {
          "internalType": "uint256",
          "name": "",
          "type": "uint256"
        }
      ],
      "stateMutability": "view",
      "type": "function"
    },
    {
      "inputs": [],
      "name": "getOracle",
      "outputs": [
        {
          "internalType": "address",
          "name": "",
          "type": "address"
        }
      ],
      "stateMutability": "view",
      "type": "function"
    },
    {
      "inputs": [
        {
          "internalType": "address",
          "name": "user",
          "type": "address"
        }
      ],
      "name": "getProfile",
      "outputs": [
        {
          "components": [
            {
              "internalType": "int256",
              "name": "balanceVariation",
              "type": "int256"
            },
            {
              "internalType": "uint256[]",
              "name": "betIdHistory",
              "type": "uint256[]"
            }
          ],
          "internalType": "struct P2PBetting.Profile",
          "name": "",
          "type": "tuple"
        }
      ],
      "stateMutability": "view",
      "type": "function"
    },
    {
      "inputs": [
        {
          "internalType": "uint256",
          "name": "betId",
          "type": "uint256"
        },
        {
          "internalType": "uint256",
          "name": "numberOfChallenger",
          "type": "uint256"
        }
      ],
      "name": "getRewards",
      "outputs": [],
      "stateMutability": "nonpayable",
      "type": "function"
    },
    {
      "inputs": [],
      "name": "getTimestampToGetMatches",
      "outputs": [
        {
          "internalType": "uint256",
          "name": "",
          "type": "uint256"
        }
      ],
      "stateMutability": "view",
      "type": "function"
    },
    {
      "inputs": [
        {
          "internalType": "uint256",
          "name": "usdValue_",
          "type": "uint256"
        }
      ],
      "name": "getUsdConversionRate",
      "outputs": [
        {
          "internalType": "uint256",
          "name": "",
          "type": "uint256"
        }
      ],
      "stateMutability": "view",
      "type": "function"
    },
    {
      "inputs": [
        {
          "internalType": "bytes32",
          "name": "requestId",
          "type": "bytes32"
        },
        {
          "internalType": "bytes",
          "name": "response",
          "type": "bytes"
        },
        {
          "internalType": "bytes",
          "name": "err",
          "type": "bytes"
        }
      ],
      "name": "handleOracleFulfillment",
      "outputs": [],
      "stateMutability": "nonpayable",
      "type": "function"
    },
    {
      "inputs": [
        {
          "internalType": "uint256",
          "name": "betId_",
          "type": "uint256"
        }
      ],
      "name": "joinBet",
      "outputs": [],
      "stateMutability": "payable",
      "type": "function"
    },
    {
      "inputs": [],
      "name": "owner",
      "outputs": [
        {
          "internalType": "address",
          "name": "",
          "type": "address"
        }
      ],
      "stateMutability": "view",
      "type": "function"
    },
    {
      "inputs": [],
      "name": "renounceOwnership",
      "outputs": [],
      "stateMutability": "nonpayable",
      "type": "function"
    },
    {
      "inputs": [],
      "name": "s_lastError",
      "outputs": [
        {
          "internalType": "bytes",
          "name": "",
          "type": "bytes"
        }
      ],
      "stateMutability": "view",
      "type": "function"
    },
    {
      "inputs": [],
      "name": "s_lastRequestId",
      "outputs": [
        {
          "internalType": "bytes32",
          "name": "",
          "type": "bytes32"
        }
      ],
      "stateMutability": "view",
      "type": "function"
    },
    {
      "inputs": [],
      "name": "s_lastResponse",
      "outputs": [
        {
          "internalType": "bytes",
          "name": "",
          "type": "bytes"
        }
      ],
      "stateMutability": "view",
      "type": "function"
    },
    {
      "inputs": [
        {
          "internalType": "bytes32",
          "name": "newDonId",
          "type": "bytes32"
        }
      ],
      "name": "setDonId",
      "outputs": [],
      "stateMutability": "nonpayable",
      "type": "function"
    },
    {
      "inputs": [
        {
          "internalType": "uint256",
          "name": "newFee",
          "type": "uint256"
        }
      ],
      "name": "setFee",
      "outputs": [],
      "stateMutability": "nonpayable",
      "type": "function"
    },
    {
      "inputs": [
        {
          "internalType": "uint256",
          "name": "newInterval",
          "type": "uint256"
        }
      ],
      "name": "setIntervalForAutomation",
      "outputs": [],
      "stateMutability": "nonpayable",
      "type": "function"
    },
    {
      "inputs": [
        {
          "internalType": "uint256",
          "name": "newTimestamp",
          "type": "uint256"
        }
      ],
      "name": "setTimestampToGetMatches",
      "outputs": [],
      "stateMutability": "nonpayable",
      "type": "function"
    },
    {
      "inputs": [
        {
          "internalType": "address",
          "name": "newOracle",
          "type": "address"
        }
      ],
      "name": "setUsdOracle",
      "outputs": [],
      "stateMutability": "nonpayable",
      "type": "function"
    },
    {
      "inputs": [
        {
          "internalType": "uint256",
          "name": "gameId",
          "type": "uint256"
        }
      ],
      "name": "testEndMatch",
      "outputs": [],
      "stateMutability": "nonpayable",
      "type": "function"
    },
    {
      "inputs": [
        {
          "internalType": "uint256",
          "name": "gameId",
          "type": "uint256"
        },
        {
          "internalType": "uint256",
          "name": "timestamp",
          "type": "uint256"
        },
        {
          "internalType": "string",
          "name": "home_",
          "type": "string"
        },
        {
          "internalType": "string",
          "name": "away_",
          "type": "string"
        },
        {
          "internalType": "uint256",
          "name": "pointsHome_",
          "type": "uint256"
        },
        {
          "internalType": "uint256",
          "name": "pointsAway_",
          "type": "uint256"
        }
      ],
      "name": "testingAddMatch",
      "outputs": [],
      "stateMutability": "nonpayable",
      "type": "function"
    },
    {
      "inputs": [
        {
          "internalType": "address",
          "name": "newOwner",
          "type": "address"
        }
      ],
      "name": "transferOwnership",
      "outputs": [],
      "stateMutability": "nonpayable",
      "type": "function"
    },
    {
      "inputs": [
        {
          "internalType": "uint256",
          "name": "_value",
          "type": "uint256"
        }
      ],
      "name": "uintToString",
      "outputs": [
        {
          "internalType": "string",
          "name": "",
          "type": "string"
        }
      ],
      "stateMutability": "pure",
      "type": "function"
    }
  ],
  "bytecode": "0x60a06040526301c9c380600460006101000a81548163ffffffff021916908363ffffffff16021790555073a9d587a00a31a52ed70d6026794a8fc5e2f5dcb06004806101000a81548173ffffffffffffffffffffffffffffffffffffffff021916908373ffffffffffffffffffffffffffffffffffffffff160217905550612065600460186101000a81548167ffffffffffffffff021916908367ffffffffffffffff1602179055507f66756e2d6176616c616e6368652d66756a692d3100000000000000000000000060001b6005556040518060400160405280600181526020017f30000000000000000000000000000000000000000000000000000000000000008152506006908162000115919062000701565b506040518060400160405280600181526020017f3000000000000000000000000000000000000000000000000000000000000000815250600790816200015c919062000701565b5062015180600b556000600e553480156200017657600080fd5b506040516200691c3803806200691c83398181016040528101906200019c9190620008c8565b60048054906101000a900473ffffffffffffffffffffffffffffffffffffffff16620001dd620001d16200026b60201b60201c565b6200027360201b60201c565b8073ffffffffffffffffffffffffffffffffffffffff1660808173ffffffffffffffffffffffffffffffffffffffff16815250505062000223826200033760201b60201c565b6103e88362000233919062000953565b60098190555080600460186101000a81548167ffffffffffffffff021916908367ffffffffffffffff16021790555050505062000ab9565b600033905090565b60008060009054906101000a900473ffffffffffffffffffffffffffffffffffffffff169050816000806101000a81548173ffffffffffffffffffffffffffffffffffffffff021916908373ffffffffffffffffffffffffffffffffffffffff1602179055508173ffffffffffffffffffffffffffffffffffffffff168173ffffffffffffffffffffffffffffffffffffffff167f8be0079c531659141344cd1fd0a4f28419497f9722a3daafe3b4186f6b6457e060405160405180910390a35050565b62000347620003cd60201b60201c565b600073ffffffffffffffffffffffffffffffffffffffff168173ffffffffffffffffffffffffffffffffffffffff1603620003b9576040517f08c379a0000000000000000000000000000000000000000000000000000000008152600401620003b09062000a25565b60405180910390fd5b620003ca816200027360201b60201c565b50565b620003dd6200026b60201b60201c565b73ffffffffffffffffffffffffffffffffffffffff16620004036200045e60201b60201c565b73ffffffffffffffffffffffffffffffffffffffff16146200045c576040517f08c379a0000000000000000000000000000000000000000000000000000000008152600401620004539062000a97565b60405180910390fd5b565b60008060009054906101000a900473ffffffffffffffffffffffffffffffffffffffff16905090565b600081519050919050565b7f4e487b7100000000000000000000000000000000000000000000000000000000600052604160045260246000fd5b7f4e487b7100000000000000000000000000000000000000000000000000000000600052602260045260246000fd5b600060028204905060018216806200050957607f821691505b6020821081036200051f576200051e620004c1565b5b50919050565b60008190508160005260206000209050919050565b60006020601f8301049050919050565b600082821b905092915050565b600060088302620005897fffffffffffffffffffffffffffffffffffffffffffffffffffffffffffffffff826200054a565b6200059586836200054a565b95508019841693508086168417925050509392505050565b6000819050919050565b6000819050919050565b6000620005e2620005dc620005d684620005ad565b620005b7565b620005ad565b9050919050565b6000819050919050565b620005fe83620005c1565b620006166200060d82620005e9565b84845462000557565b825550505050565b600090565b6200062d6200061e565b6200063a818484620005f3565b505050565b5b8181101562000662576200065660008262000623565b60018101905062000640565b5050565b601f821115620006b1576200067b8162000525565b62000686846200053a565b8101602085101562000696578190505b620006ae620006a5856200053a565b8301826200063f565b50505b505050565b600082821c905092915050565b6000620006d660001984600802620006b6565b1980831691505092915050565b6000620006f18383620006c3565b9150826002028217905092915050565b6200070c8262000487565b67ffffffffffffffff81111562000728576200072762000492565b5b620007348254620004f0565b6200074182828562000666565b600060209050601f83116001811462000779576000841562000764578287015190505b620007708582620006e3565b865550620007e0565b601f198416620007898662000525565b60005b82811015620007b3578489015182556001820191506020850194506020810190506200078c565b86831015620007d35784890151620007cf601f891682620006c3565b8355505b6001600288020188555050505b505050505050565b600080fd5b620007f881620005ad565b81146200080457600080fd5b50565b6000815190506200081881620007ed565b92915050565b600073ffffffffffffffffffffffffffffffffffffffff82169050919050565b60006200084b826200081e565b9050919050565b6200085d816200083e565b81146200086957600080fd5b50565b6000815190506200087d8162000852565b92915050565b600067ffffffffffffffff82169050919050565b620008a28162000883565b8114620008ae57600080fd5b50565b600081519050620008c28162000897565b92915050565b600080600060608486031215620008e457620008e3620007e8565b5b6000620008f48682870162000807565b935050602062000907868287016200086c565b92505060406200091a86828701620008b1565b9150509250925092565b7f4e487b7100000000000000000000000000000000000000000000000000000000600052601160045260246000fd5b60006200096082620005ad565b91506200096d83620005ad565b92508282026200097d81620005ad565b9150828204841483151762000997576200099662000924565b5b5092915050565b600082825260208201905092915050565b7f4f776e61626c653a206e6577206f776e657220697320746865207a65726f206160008201527f6464726573730000000000000000000000000000000000000000000000000000602082015250565b600062000a0d6026836200099e565b915062000a1a82620009af565b604082019050919050565b6000602082019050818103600083015262000a4081620009fe565b9050919050565b7f4f776e61626c653a2063616c6c6572206973206e6f7420746865206f776e6572600082015250565b600062000a7f6020836200099e565b915062000a8c8262000a47565b602082019050919050565b6000602082019050818103600083015262000ab28162000a70565b9050919050565b608051615e4762000ad56000396000610ab60152615e476000f3fe60806040526004361061021a5760003560e01c8063800a716b11610123578063c325340b116100ab578063e93956791161006f578063e93956791461076b578063f222d0b9146107a8578063f2fde38b146107d3578063f39522e4146107fc578063fb32e627146108395761021a565b8063c325340b146106aa578063c8796572146106d5578063cc11298e146106ec578063ced72f8714610715578063d4aae80f146107405761021a565b80638dbe7b9d116100f25780638dbe7b9d146105d9578063b1e2174914610604578063b238322d1461062f578063b740af7914610658578063bf4e2858146106815761021a565b8063800a716b14610531578063833b1fce1461055a5780638b6f14f3146105855780638da5cb5b146105ae5761021a565b80634b0795a8116101a65780636bdfaee7116101755780636bdfaee7146104745780636c0106d11461049d578063700eae73146104c6578063715018a6146104f157806378ca5de7146105085761021a565b80634b0795a8146103d95780636605d3f214610404578063677306da1461042057806369fe0e2d1461044b5761021a565b80632ddd9aff116101ed5780632ddd9aff146102ed578063378997701461032a5780633944ea3a1461035557806339fb3f45146103805780633d092b3d1461039c5761021a565b8063061e494f1461021f5780630ca761751461025c5780630f53a4701461028557806311e59e14146102c2575b600080fd5b34801561022b57600080fd5b50610246600480360381019061024191906147b4565b610862565b6040516102539190614afb565b60405180910390f35b34801561026857600080fd5b50610283600480360381019061027e9190614c99565b610ab4565b005b34801561029157600080fd5b506102ac60048036038101906102a79190614d50565b610b76565b6040516102b99190614dd3565b60405180910390f35b3480156102ce57600080fd5b506102d7610c31565b6040516102e49190614e04565b60405180910390f35b3480156102f957600080fd5b50610314600480360381019061030f91906147b4565b610c3b565b6040516103219190614e04565b60405180910390f35b34801561033657600080fd5b5061033f610d18565b60405161034c9190614e04565b60405180910390f35b34801561036157600080fd5b5061036a610d22565b6040516103779190614e9e565b60405180910390f35b61039a600480360381019061039591906147b4565b610db0565b005b3480156103a857600080fd5b506103c360048036038101906103be91906147b4565b6112bc565b6040516103d09190614fd3565b60405180910390f35b3480156103e557600080fd5b506103ee6114a9565b6040516103fb9190614e9e565b60405180910390f35b61041e600480360381019061041991906150bd565b611537565b005b34801561042c57600080fd5b50610435611a6a565b6040516104429190614e04565b60405180910390f35b34801561045757600080fd5b50610472600480360381019061046d91906147b4565b611a74565b005b34801561048057600080fd5b5061049b600480360381019061049691906147b4565b611abc565b005b3480156104a957600080fd5b506104c460048036038101906104bf91906147b4565b611ad0565b005b3480156104d257600080fd5b506104db611b0a565b6040516104e891906151c3565b60405180910390f35b3480156104fd57600080fd5b50610506611b62565b005b34801561051457600080fd5b5061052f600480360381019061052a91906151e5565b611b76565b005b34801561053d57600080fd5b506105586004803603810190610553919061523e565b611b88565b005b34801561056657600080fd5b5061056f611bf1565b60405161057c919061528d565b60405180910390f35b34801561059157600080fd5b506105ac60048036038101906105a791906147b4565b611c1b565b005b3480156105ba57600080fd5b506105c3611c2d565b6040516105d0919061528d565b60405180910390f35b3480156105e557600080fd5b506105ee611c56565b6040516105fb91906152b7565b60405180910390f35b34801561061057600080fd5b50610619611c5c565b60405161062691906152b7565b60405180910390f35b34801561063b57600080fd5b5061065660048036038101906106519190615373565b611c62565b005b34801561066457600080fd5b5061067f600480360381019061067a9190614d50565b611d86565b005b34801561068d57600080fd5b506106a860048036038101906106a391906147b4565b611e15565b005b3480156106b657600080fd5b506106bf612195565b6040516106cc9190614e04565b60405180910390f35b3480156106e157600080fd5b506106ea61219f565b005b3480156106f857600080fd5b50610713600480360381019061070e9190615438565b61228b565b005b34801561072157600080fd5b5061072a6129c5565b6040516107379190614e04565b60405180910390f35b34801561074c57600080fd5b506107556129cf565b6040516107629190614e04565b60405180910390f35b34801561077757600080fd5b50610792600480360381019061078d91906147b4565b6129d9565b60405161079f91906154c2565b60405180910390f35b3480156107b457600080fd5b506107bd612b39565b6040516107ca9190614e04565b60405180910390f35b3480156107df57600080fd5b506107fa60048036038101906107f59190614d50565b612b43565b005b34801561080857600080fd5b50610823600480360381019061081e91906147b4565b612bc6565b6040516108309190614e04565b60405180910390f35b34801561084557600080fd5b50610860600480360381019061085b91906147b4565b612d14565b005b61086a614585565b60116000838152602001908152602001600020604051806101e001604052908160008201548152602001600182015481526020016002820160009054906101000a900473ffffffffffffffffffffffffffffffffffffffff1673ffffffffffffffffffffffffffffffffffffffff1673ffffffffffffffffffffffffffffffffffffffff1681526020016003820154815260200160048201548152602001600582015481526020016006820180548060200260200160405190810160405280929190818152602001828054801561099657602002820191906000526020600020905b8160009054906101000a900473ffffffffffffffffffffffffffffffffffffffff1673ffffffffffffffffffffffffffffffffffffffff168152602001906001019080831161094c575b50505050508152602001600782018054806020026020016040519081016040528092919081815260200182805480156109ee57602002820191906000526020600020905b8154815260200190600101908083116109da575b505050505081526020016008820154815260200160098201548152602001600a8201548152602001600b820160009054906101000a900460ff16151515158152602001600b820160019054906101000a900460ff16151515158152602001600c8201548152602001600d8201805480602002602001604051908101604052809291908181526020018280548015610aa457602002820191906000526020600020905b815481526020019060010190808311610a90575b5050505050815250509050919050565b7f000000000000000000000000000000000000000000000000000000000000000073ffffffffffffffffffffffffffffffffffffffff163373ffffffffffffffffffffffffffffffffffffffff1614610b39576040517fc6829f8300000000000000000000000000000000000000000000000000000000815260040160405180910390fd5b610b44838383612d26565b827f85e1543bf2f84fe80c6badbce3648c8539ad1df4d2b3d822938ca0538be727e660405160405180910390a2505050565b610b7e614615565b601060008373ffffffffffffffffffffffffffffffffffffffff1673ffffffffffffffffffffffffffffffffffffffff1681526020019081526020016000206040518060400160405290816000820154815260200160018201805480602002602001604051908101604052809291908181526020018280548015610c2157602002820191906000526020600020905b815481526020019060010190808311610c0d575b5050505050815250509050919050565b6000600b54905090565b600080600860009054906101000a900473ffffffffffffffffffffffffffffffffffffffff1673ffffffffffffffffffffffffffffffffffffffff1663feaf968c6040518163ffffffff1660e01b815260040160a060405180830381865afa158015610cab573d6000803e3d6000fd5b505050506040513d601f19601f82011682018060405250810190610ccf9190615567565b50505091505060006402540be40082610ce89190615611565b9050600081670de0b6b3a764000086610d019190615689565b610d0b91906156fa565b9050809350505050919050565b6000600c54905090565b60028054610d2f9061575a565b80601f0160208091040260200160405190810160405280929190818152602001828054610d5b9061575a565b8015610da85780601f10610d7d57610100808354040283529160200191610da8565b820191906000526020600020905b815481529060010190602001808311610d8b57829003601f168201915b505050505081565b600060116000838152602001908152602001600020604051806101e001604052908160008201548152602001600182015481526020016002820160009054906101000a900473ffffffffffffffffffffffffffffffffffffffff1673ffffffffffffffffffffffffffffffffffffffff1673ffffffffffffffffffffffffffffffffffffffff16815260200160038201548152602001600482015481526020016005820154815260200160068201805480602002602001604051908101604052809291908181526020018280548015610ede57602002820191906000526020600020905b8160009054906101000a900473ffffffffffffffffffffffffffffffffffffffff1673ffffffffffffffffffffffffffffffffffffffff1681526020019060010190808311610e94575b5050505050815260200160078201805480602002602001604051908101604052809291908181526020018280548015610f3657602002820191906000526020600020905b815481526020019060010190808311610f22575b505050505081526020016008820154815260200160098201548152602001600a8201548152602001600b820160009054906101000a900460ff16151515158152602001600b820160019054906101000a900460ff16151515158152602001600c8201548152602001600d8201805480602002602001604051908101604052809291908181526020018280548015610fec57602002820191906000526020600020905b815481526020019060010190808311610fd8575b50505050508152505090508060c00151518160a0015111611039576040517f81071d2800000000000000000000000000000000000000000000000000000000815260040160405180910390fd5b806101200151341115611078576040517fed47562600000000000000000000000000000000000000000000000000000000815260040160405180910390fd5b8061018001518061109a5750806101a0015161025842611098919061578b565b115b156110d1576040517fba05bf4700000000000000000000000000000000000000000000000000000000815260040160405180910390fd5b60116000838152602001908152602001600020600601339080600181540180825580915050600190039060005260206000200160009091909190916101000a81548173ffffffffffffffffffffffffffffffffffffffff021916908373ffffffffffffffffffffffffffffffffffffffff16021790555060116000838152602001908152602001600020600701349080600181540180825580915050600190039060005260206000200160009091909190915055346011600084815260200190815260200160002060040160008282546111ab919061578b565b92505081905550601060003373ffffffffffffffffffffffffffffffffffffffff1673ffffffffffffffffffffffffffffffffffffffff16815260200190815260200160002060010182908060018154018082558091505060019003906000526020600020016000909190919091505534601060003373ffffffffffffffffffffffffffffffffffffffff1673ffffffffffffffffffffffffffffffffffffffff168152602001908152602001600020600001600082825461126d91906157bf565b92505081905550813373ffffffffffffffffffffffffffffffffffffffff167f36ded20b495c4e5f788b261f134395c38eb7360ff2bb88fc16c7b6775193932860405160405180910390a35050565b6112c461462f565b6012600083815260200190815260200160002060405180610100016040529081600082015481526020016001820180546112fd9061575a565b80601f01602080910402602001604051908101604052809291908181526020018280546113299061575a565b80156113765780601f1061134b57610100808354040283529160200191611376565b820191906000526020600020905b81548152906001019060200180831161135957829003601f168201915b5050505050815260200160028201805461138f9061575a565b80601f01602080910402602001604051908101604052809291908181526020018280546113bb9061575a565b80156114085780601f106113dd57610100808354040283529160200191611408565b820191906000526020600020905b8154815290600101906020018083116113eb57829003601f168201915b505050505081526020016003820154815260200160048201548152602001600582015481526020016006820160009054906101000a900460ff161515151581526020016007820180548060200260200160405190810160405280929190818152602001828054801561149957602002820191906000526020600020905b815481526020019060010190808311611485575b5050505050815250509050919050565b600380546114b69061575a565b80601f01602080910402602001604051908101604052809291908181526020018280546114e29061575a565b801561152f5780601f106115045761010080835404028352916020019161152f565b820191906000526020600020905b81548152906001019060200180831161151257829003601f168201915b505050505081565b6103e88311611572576040517f7ed63ccd00000000000000000000000000000000000000000000000000000000815260040160405180910390fd5b600084036115ac576040517f0d27d3e900000000000000000000000000000000000000000000000000000000815260040160405180910390fd5b600082036115e6576040517f2e2785d600000000000000000000000000000000000000000000000000000000815260040160405180910390fd5b6000601260008781526020019081526020016000206005015403611636576040517f2d5342f500000000000000000000000000000000000000000000000000000000815260040160405180910390fd5b600281511015611672576040517fc4819f9d00000000000000000000000000000000000000000000000000000000815260040160405180910390fd5b818461167e9190615689565b6103e883858761168e9190615689565b6116989190615689565b6116a291906156fa565b6116ac9190615802565b3410156116e5576040517f745f581d00000000000000000000000000000000000000000000000000000000815260040160405180910390fd5b6116ed614585565b33816040019073ffffffffffffffffffffffffffffffffffffffff16908173ffffffffffffffffffffffffffffffffffffffff1681525050848160a001818152505083816101000181815250506009548161014001818152505085816020018181525050828161012001818152505081816101c001819052503481608001818152505034816060018181525050600e548160000181815250506012600087815260200190815260200160002060050154816101a00181815250508060116000600e548152602001908152602001600020600082015181600001556020820151816001015560408201518160020160006101000a81548173ffffffffffffffffffffffffffffffffffffffff021916908373ffffffffffffffffffffffffffffffffffffffff160217905550606082015181600301556080820151816004015560a0820151816005015560c0820151816006019080519060200190611852929190614676565b5060e082015181600701908051906020019061186f929190614700565b506101008201518160080155610120820151816009015561014082015181600a015561016082015181600b0160006101000a81548160ff02191690831515021790555061018082015181600b0160016101000a81548160ff0219169083151502179055506101a082015181600c01556101c082015181600d0190805190602001906118fb929190614700565b50905050601060003373ffffffffffffffffffffffffffffffffffffffff1673ffffffffffffffffffffffffffffffffffffffff168152602001908152602001600020600101600e54908060018154018082558091505060019003906000526020600020016000909190919091505534601060003373ffffffffffffffffffffffffffffffffffffffff1673ffffffffffffffffffffffffffffffffffffffff16815260200190815260200160002060000160008282546119bc91906157bf565b9250508190555060126000878152602001908152602001600020600701600e549080600181540180825580915050600190039060005260206000200160009091909190915055600e6000815480929190611a1590615836565b91905055508484847fbe5a78b4c9e5bd34e20d793f7a455a9d350624e5e173ee900fd14880f679f1e16001600e54611a4d9190615802565b604051611a5a9190614e04565b60405180910390a4505050505050565b6000600d54905090565b611a7c6131fb565b600060095490508160098190555081817f3ddd765e918a581cb556c6b10e6c7cb12c695d5eb7516a9be17358dec5ef3c9660405160405180910390a35050565b611ac46131fb565b611acd81613279565b50565b611ad86131fb565b60016012600083815260200190815260200160002060060160006101000a81548160ff02191690831515021790555050565b60606014805480602002602001604051908101604052809291908181526020018280548015611b5857602002820191906000526020600020905b815481526020019060010190808311611b44575b5050505050905090565b611b6a6131fb565b611b7460006143ba565b565b611b7e6131fb565b8060058190555050565b611b906131fb565b8060116000848152602001908152602001600020600b0160006101000a81548160ff021916908315150217905550600160116000848152602001908152602001600020600b0160016101000a81548160ff0219169083151502179055505050565b6000600860009054906101000a900473ffffffffffffffffffffffffffffffffffffffff16905090565b611c236131fb565b80600d8190555050565b60008060009054906101000a900473ffffffffffffffffffffffffffffffffffffffff16905090565b60055481565b60015481565b611c6a6131fb565b611c7261462f565b86816000018181525050858160a001818152505084816020018190525083816040018190525082816060018181525050818160800181815250508060126000898152602001908152602001600020600082015181600001556020820151816001019081611cdf9190615a2a565b506040820151816002019081611cf59190615a2a565b50606082015181600301556080820151816004015560a0820151816005015560c08201518160060160006101000a81548160ff02191690831515021790555060e0820151816007019080519060200190611d50929190614700565b50905050601487908060018154018082558091505060019003906000526020600020016000909190919091505550505050505050565b611d8e6131fb565b80600860006101000a81548173ffffffffffffffffffffffffffffffffffffffff021916908373ffffffffffffffffffffffffffffffffffffffff1602179055508073ffffffffffffffffffffffffffffffffffffffff167f6f4d463f06d6303ccb5e5f3efff065c43013611c234549b89243f40257a7b72260405160405180910390a250565b600060116000838152602001908152602001600020604051806101e001604052908160008201548152602001600182015481526020016002820160009054906101000a900473ffffffffffffffffffffffffffffffffffffffff1673ffffffffffffffffffffffffffffffffffffffff1673ffffffffffffffffffffffffffffffffffffffff16815260200160038201548152602001600482015481526020016005820154815260200160068201805480602002602001604051908101604052809291908181526020018280548015611f4357602002820191906000526020600020905b8160009054906101000a900473ffffffffffffffffffffffffffffffffffffffff1673ffffffffffffffffffffffffffffffffffffffff1681526020019060010190808311611ef9575b5050505050815260200160078201805480602002602001604051908101604052809291908181526020018280548015611f9b57602002820191906000526020600020905b815481526020019060010190808311611f87575b505050505081526020016008820154815260200160098201548152602001600a8201548152602001600b820160009054906101000a900460ff16151515158152602001600b820160019054906101000a900460ff16151515158152602001600c8201548152602001600d820180548060200260200160405190810160405280929190818152602001828054801561205157602002820191906000526020600020905b81548152602001906001019080831161203d575b5050505050815250509050600081606001510361209a576040517fdfba2d6c00000000000000000000000000000000000000000000000000000000815260040160405180910390fd5b80610180015115806120ae57508061016001515b156120e5576040517ff0f84dd500000000000000000000000000000000000000000000000000000000815260040160405180910390fd5b60006103e8826101000151836060015184608001516121049190615802565b61210e9190615689565b61211891906156fa565b82608001516121279190615802565b905060006011600085815260200190815260200160002060030181905550816040015173ffffffffffffffffffffffffffffffffffffffff166108fc829081150290604051600060405180830381858888f1935050505015801561218f573d6000803e3d6000fd5b50505050565b6000600f54905090565b60006121a9611c2d565b73ffffffffffffffffffffffffffffffffffffffff16600a546040516121ce90615b2d565b60006040518083038185875af1925050503d806000811461220b576040519150601f19603f3d011682016040523d82523d6000602084013e612210565b606091505b505090508061224b576040517f4a5f2a1b00000000000000000000000000000000000000000000000000000000815260040160405180910390fd5b6000600a5490506000600a81905550807ff4f2ad6f4b10f9853be76745070984d581f6da2399617776ec329308e46d080460405160405180910390a25050565b600060116000848152602001908152602001600020604051806101e001604052908160008201548152602001600182015481526020016002820160009054906101000a900473ffffffffffffffffffffffffffffffffffffffff1673ffffffffffffffffffffffffffffffffffffffff1673ffffffffffffffffffffffffffffffffffffffff168152602001600382015481526020016004820154815260200160058201548152602001600682018054806020026020016040519081016040528092919081815260200182805480156123b957602002820191906000526020600020905b8160009054906101000a900473ffffffffffffffffffffffffffffffffffffffff1673ffffffffffffffffffffffffffffffffffffffff168152602001906001019080831161236f575b505050505081526020016007820180548060200260200160405190810160405280929190818152602001828054801561241157602002820191906000526020600020905b8154815260200190600101908083116123fd575b505050505081526020016008820154815260200160098201548152602001600a8201548152602001600b820160009054906101000a900460ff16151515158152602001600b820160019054906101000a900460ff16151515158152602001600c8201548152602001600d82018054806020026020016040519081016040528092919081815260200182805480156124c757602002820191906000526020600020905b8154815260200190600101908083116124b3575b5050505050815250509050806040015173ffffffffffffffffffffffffffffffffffffffff163373ffffffffffffffffffffffffffffffffffffffff1614801561251357508061016001515b801561252457506000816080015114155b801561253257508061018001515b156126cb578060800151601060003373ffffffffffffffffffffffffffffffffffffffff1673ffffffffffffffffffffffffffffffffffffffff168152602001908152602001600020600001600082825461258d9190615b42565b9250508190555060006103e88060646125a69190615689565b6125b09190615689565b826101400151836101000151846060015185608001516125d09190615802565b6125da9190615689565b6125e49190615689565b6125ee91906156fa565b905060008183608001516126029190615802565b90506000601160008781526020019081526020016000206004018190555081600a6000828254612632919061578b565b925050819055503373ffffffffffffffffffffffffffffffffffffffff166108fc829081150290604051600060405180830381858888f1935050505015801561267f573d6000803e3d6000fd5b50803373ffffffffffffffffffffffffffffffffffffffff167f3c92031d788fb886d6b0cef0d544d742f65fe462e576906cfe03a5f36ef1244060405160405180910390a350506129c0565b8060c00151518210801561272857508060c0015182815181106126f1576126f0615b86565b5b602002602001015173ffffffffffffffffffffffffffffffffffffffff163373ffffffffffffffffffffffffffffffffffffffff16145b8015612753575060008160e00151838151811061274857612747615b86565b5b602002602001015114155b801561276157508061018001515b80156127705750806101600151155b1561298d5760006103e88260e00151848151811061279157612790615b86565b5b60200260200101518361010001516127a99190615689565b6127b391906156fa565b905080601060003373ffffffffffffffffffffffffffffffffffffffff1673ffffffffffffffffffffffffffffffffffffffff16815260200190815260200160002060000160008282546128079190615b42565b9250508190555060006103e8606461281f9190615689565b836101400151836128309190615689565b61283a91906156fa565b90506000818361284a9190615802565b9050600060116000888152602001908152602001600020600701868154811061287657612875615b86565b5b906000526020600020018190555081600a6000828254612896919061578b565b9250508190555060003373ffffffffffffffffffffffffffffffffffffffff16826040516128c390615b2d565b60006040518083038185875af1925050503d8060008114612900576040519150601f19603f3d011682016040523d82523d6000602084013e612905565b606091505b5050905080612940576040517f4a5f2a1b00000000000000000000000000000000000000000000000000000000815260040160405180910390fd5b813373ffffffffffffffffffffffffffffffffffffffff167f3c92031d788fb886d6b0cef0d544d742f65fe462e576906cfe03a5f36ef1244060405160405180910390a3505050506129bf565b6040517fdfba2d6c00000000000000000000000000000000000000000000000000000000815260040160405180910390fd5b5b505050565b6000600954905090565b6000600a54905090565b606060008203612a20576040518060400160405280600181526020017f30000000000000000000000000000000000000000000000000000000000000008152509050612b34565b600082905060005b60008214612a52578080612a3b90615836565b915050600a82612a4b91906156fa565b9150612a28565b60008167ffffffffffffffff811115612a6e57612a6d614b6e565b5b6040519080825280601f01601f191660200182016040528015612aa05781602001600182028036833780820191505090505b5090505b60008514612b2d57600182612ab99190615802565b9150600a85612ac89190615bb5565b6030612ad4919061578b565b60f81b818381518110612aea57612ae9615b86565b5b60200101907effffffffffffffffffffffffffffffffffffffffffffffffffffffffffffff1916908160001a905350600a85612b2691906156fa565b9450612aa4565b8093505050505b919050565b6000600e54905090565b612b4b6131fb565b600073ffffffffffffffffffffffffffffffffffffffff168173ffffffffffffffffffffffffffffffffffffffff1603612bba576040517f08c379a0000000000000000000000000000000000000000000000000000000008152600401612bb190615c58565b60405180910390fd5b612bc3816143ba565b50565b60008060116000848152602001908152602001600020600601805480602002602001604051908101604052809291908181526020018280548015612c5f57602002820191906000526020600020905b8160009054906101000a900473ffffffffffffffffffffffffffffffffffffffff1673ffffffffffffffffffffffffffffffffffffffff1681526020019060010190808311612c15575b5050505050905060005b8151811015612cdc573373ffffffffffffffffffffffffffffffffffffffff16828281518110612c9c57612c9b615b86565b5b602002602001015173ffffffffffffffffffffffffffffffffffffffff1603612cc9578092505050612d0f565b8080612cd490615836565b915050612c69565b506040517f1fe25f4c00000000000000000000000000000000000000000000000000000000815260040160405180910390fd5b919050565b612d1c6131fb565b80600b8190555050565b8160029081612d359190615cd3565b508060039081612d459190615cd3565b5060008060808451108015612d5c57506000845114155b1561305d57602082018401519050602082612d77919061578b565b9150600080602084018601519150602084612d92919061578b565b93506020840186015190506000601260008581526020019081526020016000206040518061010001604052908160008201548152602001600182018054612dd89061575a565b80601f0160208091040260200160405190810160405280929190818152602001828054612e049061575a565b8015612e515780601f10612e2657610100808354040283529160200191612e51565b820191906000526020600020905b815481529060010190602001808311612e3457829003601f168201915b50505050508152602001600282018054612e6a9061575a565b80601f0160208091040260200160405190810160405280929190818152602001828054612e969061575a565b8015612ee35780601f10612eb857610100808354040283529160200191612ee3565b820191906000526020600020905b815481529060010190602001808311612ec657829003601f168201915b505050505081526020016003820154815260200160048201548152602001600582015481526020016006820160009054906101000a900460ff1615151515815260200160078201805480602002602001604051908101604052809291908181526020018280548015612f7457602002820191906000526020600020905b815481526020019060010190808311612f60575b5050505050815250509050828160600181815250508181608001818152505060018160c00190151590811515815250508060126000868152602001908152602001600020600082015181600001556020820151816001019081612fd79190615a2a565b506040820151816002019081612fed9190615a2a565b50606082015181600301556080820151816004015560a0820151816005015560c08201518160060160006101000a81548160ff02191690831515021790555060e0820151816007019080519060200190613048929190614700565b5090505061305584613279565b5050506131f4565b5b83518210156131f35760208201840151905060208261307d919061578b565b91506000602083018501519050602083613097919061578b565b925060006130a5868561447e565b90506020846130b4919061578b565b935060006130c2878661447e565b90506020856130d1919061578b565b94506130db61462f565b84816000018181525050818160200181905250828160400181905250838160a001818152505080601260008781526020019081526020016000206000820151816000015560208201518160010190816131349190615a2a565b50604082015181600201908161314a9190615a2a565b50606082015181600301556080820151816004015560a0820151816005015560c08201518160060160006101000a81548160ff02191690831515021790555060e08201518160070190805190602001906131a5929190614700565b50905050600f60008154809291906131bc90615836565b919050555060148590806001815401808255809150506001900390600052602060002001600090919091909150555050505061305e565b5b5050505050565b61320361457d565b73ffffffffffffffffffffffffffffffffffffffff16613221611c2d565b73ffffffffffffffffffffffffffffffffffffffff1614613277576040517f08c379a000000000000000000000000000000000000000000000000000000000815260040161326e90615df1565b60405180910390fd5b565b60006012600083815260200190815260200160002060405180610100016040529081600082015481526020016001820180546132b49061575a565b80601f01602080910402602001604051908101604052809291908181526020018280546132e09061575a565b801561332d5780601f106133025761010080835404028352916020019161332d565b820191906000526020600020905b81548152906001019060200180831161331057829003601f168201915b505050505081526020016002820180546133469061575a565b80601f01602080910402602001604051908101604052809291908181526020018280546133729061575a565b80156133bf5780601f10613394576101008083540402835291602001916133bf565b820191906000526020600020905b8154815290600101906020018083116133a257829003601f168201915b505050505081526020016003820154815260200160048201548152602001600582015481526020016006820160009054906101000a900460ff161515151581526020016007820180548060200260200160405190810160405280929190818152602001828054801561345057602002820191906000526020600020905b81548152602001906001019080831161343c575b50505050508152505090508060c00151613496576040517f84ff05af00000000000000000000000000000000000000000000000000000000815260040160405180910390fd5b60008160e00151905060005b81518110156143b4576000601160008484815181106134c4576134c3615b86565b5b60200260200101518152602001908152602001600020604051806101e001604052908160008201548152602001600182015481526020016002820160009054906101000a900473ffffffffffffffffffffffffffffffffffffffff1673ffffffffffffffffffffffffffffffffffffffff1673ffffffffffffffffffffffffffffffffffffffff168152602001600382015481526020016004820154815260200160058201548152602001600682018054806020026020016040519081016040528092919081815260200182805480156135f357602002820191906000526020600020905b8160009054906101000a900473ffffffffffffffffffffffffffffffffffffffff1673ffffffffffffffffffffffffffffffffffffffff16815260200190600101908083116135a9575b505050505081526020016007820180548060200260200160405190810160405280929190818152602001828054801561364b57602002820191906000526020600020905b815481526020019060010190808311613637575b505050505081526020016008820154815260200160098201548152602001600a8201548152602001600b820160009054906101000a900460ff16151515158152602001600b820160019054906101000a900460ff16151515158152602001600c8201548152602001600d820180548060200260200160405190810160405280929190818152602001828054801561370157602002820191906000526020600020905b8154815260200190600101908083116136ed575b50505050508152505090506002816101c001515110614376576000816101c0015160008151811061373557613734615b86565b5b602002602001015114801561376a57506003816101c001516001815181106137605761375f615b86565b5b6020026020010151105b156139c4576000816101c0015160018151811061378a57613789615b86565b5b60200260200101511480156137a757508360800151846060015111155b806137e657506001816101c001516001815181106137c8576137c7615b86565b5b60200260200101511480156137e557508360800151846060015110155b5b8061382557506002816101c0015160018151811061380757613806615b86565b5b602002602001015114801561382457508360800151846060015114155b5b1561383d576001816101600190151590811515815250505b600181610180019015159081151581525050806011600085858151811061386757613866615b86565b5b60200260200101518152602001908152602001600020600082015181600001556020820151816001015560408201518160020160006101000a81548173ffffffffffffffffffffffffffffffffffffffff021916908373ffffffffffffffffffffffffffffffffffffffff160217905550606082015181600301556080820151816004015560a0820151816005015560c0820151816006019080519060200190613912929190614676565b5060e082015181600701908051906020019061392f929190614700565b506101008201518160080155610120820151816009015561014082015181600a015561016082015181600b0160006101000a81548160ff02191690831515021790555061018082015181600b0160016101000a81548160ff0219169083151502179055506101a082015181600c01556101c082015181600d0190805190602001906139bb929190614700565b50905050614371565b6004816101c0015151101580156139fb57506001816101c001516000815181106139f1576139f0615b86565b5b6020026020010151145b8015613a2757506005816101c00151600181518110613a1d57613a1c615b86565b5b6020026020010151105b8015613a5357506003816101c00151600281518110613a4957613a48615b86565b5b6020026020010151105b15614370576000816101c00151600181518110613a7357613a72615b86565b5b6020026020010151148015613b8e57506000816101c00151600281518110613a9e57613a9d615b86565b5b6020026020010151148015613ad75750806101c00151600381518110613ac757613ac6615b86565b5b6020026020010151846060015111155b80613b3257506001816101c00151600281518110613af857613af7615b86565b5b6020026020010151148015613b315750806101c00151600381518110613b2157613b20615b86565b5b6020026020010151846060015110155b5b80613b8d57506002816101c00151600281518110613b5357613b52615b86565b5b6020026020010151148015613b8c5750806101c00151600381518110613b7c57613b7b615b86565b5b6020026020010151846060015114155b5b5b15613baa576001816101600190151590811515815250506141ed565b6001816101c00151600181518110613bc557613bc4615b86565b5b6020026020010151148015613ce057506000816101c00151600281518110613bf057613bef615b86565b5b6020026020010151148015613c295750806101c00151600381518110613c1957613c18615b86565b5b6020026020010151846080015111155b80613c8457506001816101c00151600281518110613c4a57613c49615b86565b5b6020026020010151148015613c835750806101c00151600381518110613c7357613c72615b86565b5b6020026020010151846080015110155b5b80613cdf57506002816101c00151600281518110613ca557613ca4615b86565b5b6020026020010151148015613cde5750806101c00151600381518110613cce57613ccd615b86565b5b6020026020010151846080015114155b5b5b15613cfc576001816101600190151590811515815250506141ec565b6002816101c00151600181518110613d1757613d16615b86565b5b6020026020010151148015613e5f57506000816101c00151600281518110613d4257613d41615b86565b5b6020026020010151148015613d8a5750806101c00151600381518110613d6b57613d6a615b86565b5b602002602001015184606001518560800151613d87919061578b565b11155b80613df457506001816101c00151600281518110613dab57613daa615b86565b5b6020026020010151148015613df35750806101c00151600381518110613dd457613dd3615b86565b5b602002602001015184606001518560800151613df0919061578b565b10155b5b80613e5e57506002816101c00151600281518110613e1557613e14615b86565b5b6020026020010151148015613e5d5750806101c00151600381518110613e3e57613e3d615b86565b5b602002602001015184606001518560800151613e5a919061578b565b14155b5b5b15613e7b576001816101600190151590811515815250506141eb565b6003816101c00151600181518110613e9657613e95615b86565b5b60200260200101510361400e5760008085606001518660800151613eba91906157bf565b1215613edb5784608001518560600151613ed49190615802565b9050613ef2565b84606001518560800151613eef9190615802565b90505b6000826101c00151600281518110613f0d57613f0c615b86565b5b6020026020010151148015613f425750816101c00151600381518110613f3657613f35615b86565b5b60200260200101518111155b80613f9957506001826101c00151600281518110613f6357613f62615b86565b5b6020026020010151148015613f985750816101c00151600381518110613f8c57613f8b615b86565b5b60200260200101518110155b5b80613ff057506002826101c00151600281518110613fba57613fb9615b86565b5b6020026020010151148015613fef5750816101c00151600381518110613fe357613fe2615b86565b5b60200260200101518114155b5b15614008576001826101600190151590811515815250505b506141ea565b6004816101c0015160018151811061402957614028615b86565b5b60200260200101511480156141d157506000816101c0015160028151811061405457614053615b86565b5b60200260200101511480156140bc5750806101c0015160038151811061407d5761407c615b86565b5b602002602001015184608001511115806140bb5750806101c001516003815181106140ab576140aa615b86565b5b6020026020010151846060015111155b5b8061414657506001816101c001516002815181106140dd576140dc615b86565b5b60200260200101511480156141455750806101c0015160038151811061410657614105615b86565b5b602002602001015184608001511015806141445750806101c0015160038151811061413457614133615b86565b5b6020026020010151846060015110155b5b5b806141d057506002816101c0015160028151811061416757614166615b86565b5b60200260200101511480156141cf5750806101c001516003815181106141905761418f615b86565b5b602002602001015184608001511415806141ce5750806101c001516003815181106141be576141bd615b86565b5b6020026020010151846060015114155b5b5b5b156141e9576001816101600190151590811515815250505b5b5b5b5b600181610180019015159081151581525050806011600085858151811061421757614216615b86565b5b60200260200101518152602001908152602001600020600082015181600001556020820151816001015560408201518160020160006101000a81548173ffffffffffffffffffffffffffffffffffffffff021916908373ffffffffffffffffffffffffffffffffffffffff160217905550606082015181600301556080820151816004015560a0820151816005015560c08201518160060190805190602001906142c2929190614676565b5060e08201518160070190805190602001906142df929190614700565b506101008201518160080155610120820151816009015561014082015181600a015561016082015181600b0160006101000a81548160ff02191690831515021790555061018082015181600b0160016101000a81548160ff0219169083151502179055506101a082015181600c01556101c082015181600d01908051906020019061436b929190614700565b509050505b5b6143a0565b60158590806001815401808255809150506001900390600052602060002001600090919091909150555b5080806143ac90615836565b9150506134a2565b50505050565b60008060009054906101000a900473ffffffffffffffffffffffffffffffffffffffff169050816000806101000a81548173ffffffffffffffffffffffffffffffffffffffff021916908373ffffffffffffffffffffffffffffffffffffffff1602179055508173ffffffffffffffffffffffffffffffffffffffff168173ffffffffffffffffffffffffffffffffffffffff167f8be0079c531659141344cd1fd0a4f28419497f9722a3daafe3b4186f6b6457e060405160405180910390a35050565b6060600060208301840151905060008167ffffffffffffffff8111156144a7576144a6614b6e565b5b6040519080825280601f01601f1916602001820160405280156144d95781602001600182028036833780820191505090505b50905060005b828110156145715785602082876144f6919061578b565b614500919061578b565b8151811061451157614510615b86565b5b602001015160f81c60f81b82828151811061452f5761452e615b86565b5b60200101907effffffffffffffffffffffffffffffffffffffffffffffffffffffffffffff1916908160001a905350808061456990615836565b9150506144df565b50809250505092915050565b600033905090565b604051806101e001604052806000815260200160008152602001600073ffffffffffffffffffffffffffffffffffffffff168152602001600081526020016000815260200160008152602001606081526020016060815260200160008152602001600081526020016000815260200160001515815260200160001515815260200160008152602001606081525090565b604051806040016040528060008152602001606081525090565b604051806101000160405280600081526020016060815260200160608152602001600081526020016000815260200160008152602001600015158152602001606081525090565b8280548282559060005260206000209081019282156146ef579160200282015b828111156146ee5782518260006101000a81548173ffffffffffffffffffffffffffffffffffffffff021916908373ffffffffffffffffffffffffffffffffffffffff16021790555091602001919060010190614696565b5b5090506146fc919061474d565b5090565b82805482825590600052602060002090810192821561473c579160200282015b8281111561473b578251825591602001919060010190614720565b5b509050614749919061474d565b5090565b5b8082111561476657600081600090555060010161474e565b5090565b6000604051905090565b600080fd5b600080fd5b6000819050919050565b6147918161477e565b811461479c57600080fd5b50565b6000813590506147ae81614788565b92915050565b6000602082840312156147ca576147c9614774565b5b60006147d88482850161479f565b91505092915050565b6147ea8161477e565b82525050565b600073ffffffffffffffffffffffffffffffffffffffff82169050919050565b600061481b826147f0565b9050919050565b61482b81614810565b82525050565b600081519050919050565b600082825260208201905092915050565b6000819050602082019050919050565b60006148698383614822565b60208301905092915050565b6000602082019050919050565b600061488d82614831565b614897818561483c565b93506148a28361484d565b8060005b838110156148d35781516148ba888261485d565b97506148c583614875565b9250506001810190506148a6565b5085935050505092915050565b600081519050919050565b600082825260208201905092915050565b6000819050602082019050919050565b600061491883836147e1565b60208301905092915050565b6000602082019050919050565b600061493c826148e0565b61494681856148eb565b9350614951836148fc565b8060005b83811015614982578151614969888261490c565b975061497483614924565b925050600181019050614955565b5085935050505092915050565b60008115159050919050565b6149a48161498f565b82525050565b60006101e0830160008301516149c360008601826147e1565b5060208301516149d660208601826147e1565b5060408301516149e96040860182614822565b5060608301516149fc60608601826147e1565b506080830151614a0f60808601826147e1565b5060a0830151614a2260a08601826147e1565b5060c083015184820360c0860152614a3a8282614882565b91505060e083015184820360e0860152614a548282614931565b915050610100830151614a6b6101008601826147e1565b50610120830151614a806101208601826147e1565b50610140830151614a956101408601826147e1565b50610160830151614aaa61016086018261499b565b50610180830151614abf61018086018261499b565b506101a0830151614ad46101a08601826147e1565b506101c08301518482036101c0860152614aee8282614931565b9150508091505092915050565b60006020820190508181036000830152614b1581846149aa565b905092915050565b6000819050919050565b614b3081614b1d565b8114614b3b57600080fd5b50565b600081359050614b4d81614b27565b92915050565b600080fd5b600080fd5b6000601f19601f8301169050919050565b7f4e487b7100000000000000000000000000000000000000000000000000000000600052604160045260246000fd5b614ba682614b5d565b810181811067ffffffffffffffff82111715614bc557614bc4614b6e565b5b80604052505050565b6000614bd861476a565b9050614be48282614b9d565b919050565b600067ffffffffffffffff821115614c0457614c03614b6e565b5b614c0d82614b5d565b9050602081019050919050565b82818337600083830152505050565b6000614c3c614c3784614be9565b614bce565b905082815260208101848484011115614c5857614c57614b58565b5b614c63848285614c1a565b509392505050565b600082601f830112614c8057614c7f614b53565b5b8135614c90848260208601614c29565b91505092915050565b600080600060608486031215614cb257614cb1614774565b5b6000614cc086828701614b3e565b935050602084013567ffffffffffffffff811115614ce157614ce0614779565b5b614ced86828701614c6b565b925050604084013567ffffffffffffffff811115614d0e57614d0d614779565b5b614d1a86828701614c6b565b9150509250925092565b614d2d81614810565b8114614d3857600080fd5b50565b600081359050614d4a81614d24565b92915050565b600060208284031215614d6657614d65614774565b5b6000614d7484828501614d3b565b91505092915050565b6000819050919050565b614d9081614d7d565b82525050565b6000604083016000830151614dae6000860182614d87565b5060208301518482036020860152614dc68282614931565b9150508091505092915050565b60006020820190508181036000830152614ded8184614d96565b905092915050565b614dfe8161477e565b82525050565b6000602082019050614e196000830184614df5565b92915050565b600081519050919050565b600082825260208201905092915050565b60005b83811015614e59578082015181840152602081019050614e3e565b60008484015250505050565b6000614e7082614e1f565b614e7a8185614e2a565b9350614e8a818560208601614e3b565b614e9381614b5d565b840191505092915050565b60006020820190508181036000830152614eb88184614e65565b905092915050565b600081519050919050565b600082825260208201905092915050565b6000614ee782614ec0565b614ef18185614ecb565b9350614f01818560208601614e3b565b614f0a81614b5d565b840191505092915050565b600061010083016000830151614f2e60008601826147e1565b5060208301518482036020860152614f468282614edc565b91505060408301518482036040860152614f608282614edc565b9150506060830151614f7560608601826147e1565b506080830151614f8860808601826147e1565b5060a0830151614f9b60a08601826147e1565b5060c0830151614fae60c086018261499b565b5060e083015184820360e0860152614fc68282614931565b9150508091505092915050565b60006020820190508181036000830152614fed8184614f15565b905092915050565b600067ffffffffffffffff8211156150105761500f614b6e565b5b602082029050602081019050919050565b600080fd5b600061503961503484614ff5565b614bce565b9050808382526020820190506020840283018581111561505c5761505b615021565b5b835b818110156150855780615071888261479f565b84526020840193505060208101905061505e565b5050509392505050565b600082601f8301126150a4576150a3614b53565b5b81356150b4848260208601615026565b91505092915050565b600080600080600060a086880312156150d9576150d8614774565b5b60006150e78882890161479f565b95505060206150f88882890161479f565b94505060406151098882890161479f565b935050606061511a8882890161479f565b925050608086013567ffffffffffffffff81111561513b5761513a614779565b5b6151478882890161508f565b9150509295509295909350565b600082825260208201905092915050565b6000615170826148e0565b61517a8185615154565b9350615185836148fc565b8060005b838110156151b657815161519d888261490c565b97506151a883614924565b925050600181019050615189565b5085935050505092915050565b600060208201905081810360008301526151dd8184615165565b905092915050565b6000602082840312156151fb576151fa614774565b5b600061520984828501614b3e565b91505092915050565b61521b8161498f565b811461522657600080fd5b50565b60008135905061523881615212565b92915050565b6000806040838503121561525557615254614774565b5b60006152638582860161479f565b925050602061527485828601615229565b9150509250929050565b61528781614810565b82525050565b60006020820190506152a2600083018461527e565b92915050565b6152b181614b1d565b82525050565b60006020820190506152cc60008301846152a8565b92915050565b600067ffffffffffffffff8211156152ed576152ec614b6e565b5b6152f682614b5d565b9050602081019050919050565b6000615316615311846152d2565b614bce565b90508281526020810184848401111561533257615331614b58565b5b61533d848285614c1a565b509392505050565b600082601f83011261535a57615359614b53565b5b813561536a848260208601615303565b91505092915050565b60008060008060008060c087890312156153905761538f614774565b5b600061539e89828a0161479f565b96505060206153af89828a0161479f565b955050604087013567ffffffffffffffff8111156153d0576153cf614779565b5b6153dc89828a01615345565b945050606087013567ffffffffffffffff8111156153fd576153fc614779565b5b61540989828a01615345565b935050608061541a89828a0161479f565b92505060a061542b89828a0161479f565b9150509295509295509295565b6000806040838503121561544f5761544e614774565b5b600061545d8582860161479f565b925050602061546e8582860161479f565b9150509250929050565b600082825260208201905092915050565b600061549482614ec0565b61549e8185615478565b93506154ae818560208601614e3b565b6154b781614b5d565b840191505092915050565b600060208201905081810360008301526154dc8184615489565b905092915050565b600069ffffffffffffffffffff82169050919050565b615503816154e4565b811461550e57600080fd5b50565b600081519050615520816154fa565b92915050565b61552f81614d7d565b811461553a57600080fd5b50565b60008151905061554c81615526565b92915050565b60008151905061556181614788565b92915050565b600080600080600060a0868803121561558357615582614774565b5b600061559188828901615511565b95505060206155a28882890161553d565b94505060406155b388828901615552565b93505060606155c488828901615552565b92505060806155d588828901615511565b9150509295509295909350565b7f4e487b7100000000000000000000000000000000000000000000000000000000600052601160045260246000fd5b600061561c82614d7d565b915061562783614d7d565b925082820261563581614d7d565b91507f8000000000000000000000000000000000000000000000000000000000000000841460008412161561566d5761566c6155e2565b5b8282058414831517615682576156816155e2565b5b5092915050565b60006156948261477e565b915061569f8361477e565b92508282026156ad8161477e565b915082820484148315176156c4576156c36155e2565b5b5092915050565b7f4e487b7100000000000000000000000000000000000000000000000000000000600052601260045260246000fd5b60006157058261477e565b91506157108361477e565b9250826157205761571f6156cb565b5b828204905092915050565b7f4e487b7100000000000000000000000000000000000000000000000000000000600052602260045260246000fd5b6000600282049050600182168061577257607f821691505b6020821081036157855761578461572b565b5b50919050565b60006157968261477e565b91506157a18361477e565b92508282019050808211156157b9576157b86155e2565b5b92915050565b60006157ca82614d7d565b91506157d583614d7d565b92508282039050818112600084121682821360008512151617156157fc576157fb6155e2565b5b92915050565b600061580d8261477e565b91506158188361477e565b92508282039050818111156158305761582f6155e2565b5b92915050565b60006158418261477e565b91507fffffffffffffffffffffffffffffffffffffffffffffffffffffffffffffffff8203615873576158726155e2565b5b600182019050919050565b60008190508160005260206000209050919050565b60006020601f8301049050919050565b600082821b905092915050565b6000600883026158e07fffffffffffffffffffffffffffffffffffffffffffffffffffffffffffffffff826158a3565b6158ea86836158a3565b95508019841693508086168417925050509392505050565b6000819050919050565b600061592761592261591d8461477e565b615902565b61477e565b9050919050565b6000819050919050565b6159418361590c565b61595561594d8261592e565b8484546158b0565b825550505050565b600090565b61596a61595d565b615975818484615938565b505050565b5b818110156159995761598e600082615962565b60018101905061597b565b5050565b601f8211156159de576159af8161587e565b6159b884615893565b810160208510156159c7578190505b6159db6159d385615893565b83018261597a565b50505b505050565b600082821c905092915050565b6000615a01600019846008026159e3565b1980831691505092915050565b6000615a1a83836159f0565b9150826002028217905092915050565b615a3382614ec0565b67ffffffffffffffff811115615a4c57615a4b614b6e565b5b615a56825461575a565b615a6182828561599d565b600060209050601f831160018114615a945760008415615a82578287015190505b615a8c8582615a0e565b865550615af4565b601f198416615aa28661587e565b60005b82811015615aca57848901518255600182019150602085019450602081019050615aa5565b86831015615ae75784890151615ae3601f8916826159f0565b8355505b6001600288020188555050505b505050505050565b600081905092915050565b50565b6000615b17600083615afc565b9150615b2282615b07565b600082019050919050565b6000615b3882615b0a565b9150819050919050565b6000615b4d82614d7d565b9150615b5883614d7d565b925082820190508281121560008312168382126000841215161715615b8057615b7f6155e2565b5b92915050565b7f4e487b7100000000000000000000000000000000000000000000000000000000600052603260045260246000fd5b6000615bc08261477e565b9150615bcb8361477e565b925082615bdb57615bda6156cb565b5b828206905092915050565b7f4f776e61626c653a206e6577206f776e657220697320746865207a65726f206160008201527f6464726573730000000000000000000000000000000000000000000000000000602082015250565b6000615c42602683615478565b9150615c4d82615be6565b604082019050919050565b60006020820190508181036000830152615c7181615c35565b9050919050565b60008190508160005260206000209050919050565b601f821115615cce57615c9f81615c78565b615ca884615893565b81016020851015615cb7578190505b615ccb615cc385615893565b83018261597a565b50505b505050565b615cdc82614e1f565b67ffffffffffffffff811115615cf557615cf4614b6e565b5b615cff825461575a565b615d0a828285615c8d565b600060209050601f831160018114615d3d5760008415615d2b578287015190505b615d358582615a0e565b865550615d9d565b601f198416615d4b86615c78565b60005b82811015615d7357848901518255600182019150602085019450602081019050615d4e565b86831015615d905784890151615d8c601f8916826159f0565b8355505b6001600288020188555050505b505050505050565b7f4f776e61626c653a2063616c6c6572206973206e6f7420746865206f776e6572600082015250565b6000615ddb602083615478565b9150615de682615da5565b602082019050919050565b60006020820190508181036000830152615e0a81615dce565b905091905056fea2646970667358221220004e121c3f44f0c7cdd8ae07b74766551378370f7f4f5d63d3df067b10e498ea64736f6c63430008140033",
  "linkReferences": {},
  "deployedLinkReferences": {}
}