{
  "_format": "hh-sol-artifact-1",
  "contractName": "P2PBettingFront",
  "sourceName": "contracts/P2PBettingFront.sol",
  "abi": [
    {
      "inputs": [
        {
          "internalType": "uint256",
          "name": "fee_",
          "type": "uint256"
        },
        {
          "internalType": "address",
          "name": "owner",
          "type": "address"
        }
      ],
      "stateMutability": "nonpayable",
      "type": "constructor"
    },
    {
      "inputs": [
        {
          "internalType": "address",
          "name": "owner",
          "type": "address"
        }
      ],
      "name": "OwnableInvalidOwner",
      "type": "error"
    },
    {
      "inputs": [
        {
          "internalType": "address",
          "name": "account",
          "type": "address"
        }
      ],
      "name": "OwnableUnauthorizedAccount",
      "type": "error"
    },
    {
      "inputs": [],
      "name": "P2PBetting__AlreadyRetrievedOrBetNonexistent",
      "type": "error"
    },
    {
      "inputs": [],
      "name": "P2PBetting__BetIsFullOrNonexistent",
      "type": "error"
    },
    {
      "inputs": [],
      "name": "P2PBetting__CantCallIfNotOwner",
      "type": "error"
    },
    {
      "inputs": [],
      "name": "P2PBetting__CantEnterBetNow",
      "type": "error"
    },
    {
      "inputs": [],
      "name": "P2PBetting__MatchDidNotEnd",
      "type": "error"
    },
    {
      "inputs": [],
      "name": "P2PBetting__MatchDoesntExist",
      "type": "error"
    },
    {
      "inputs": [],
      "name": "P2PBetting__MaxPriceCantBeZero",
      "type": "error"
    },
    {
      "inputs": [],
      "name": "P2PBetting__NotEnoughEthSent",
      "type": "error"
    },
    {
      "inputs": [],
      "name": "P2PBetting__NumberOfChallengersCantBeZero",
      "type": "error"
    },
    {
      "inputs": [],
      "name": "P2PBetting__OddsMustBeHigherThanOne",
      "type": "error"
    },
    {
      "inputs": [],
      "name": "P2PBetting__OnlyCalledIfTipsterLost",
      "type": "error"
    },
    {
      "inputs": [],
      "name": "P2PBetting__TooMuchEthSent",
      "type": "error"
    },
    {
      "inputs": [],
      "name": "P2PBetting__TransferFailed",
      "type": "error"
    },
    {
      "inputs": [],
      "name": "P2PBetting__UnexpectedRequestId",
      "type": "error"
    },
    {
      "inputs": [],
      "name": "P2PBetting__UserNotInBet",
      "type": "error"
    },
    {
      "inputs": [],
      "name": "P2PBetting__WrongBetFormat",
      "type": "error"
    },
    {
      "anonymous": false,
      "inputs": [
        {
          "indexed": true,
          "internalType": "address",
          "name": "previousOwner",
          "type": "address"
        },
        {
          "indexed": true,
          "internalType": "address",
          "name": "newOwner",
          "type": "address"
        }
      ],
      "name": "OwnershipTransferred",
      "type": "event"
    },
    {
      "anonymous": false,
      "inputs": [
        {
          "indexed": true,
          "internalType": "uint256",
          "name": "maxPrice",
          "type": "uint256"
        },
        {
          "indexed": true,
          "internalType": "uint256",
          "name": "odds",
          "type": "uint256"
        },
        {
          "indexed": true,
          "internalType": "uint256",
          "name": "maxNumOfPlayers",
          "type": "uint256"
        },
        {
          "indexed": false,
          "internalType": "uint256",
          "name": "betId",
          "type": "uint256"
        }
      ],
      "name": "P2PBetting__BetCreated",
      "type": "event"
    },
    {
      "anonymous": false,
      "inputs": [
        {
          "indexed": true,
          "internalType": "uint256",
          "name": "betId",
          "type": "uint256"
        },
        {
          "indexed": true,
          "internalType": "bool",
          "name": "tipsterWon",
          "type": "bool"
        }
      ],
      "name": "P2PBetting__BetEnded",
      "type": "event"
    },
    {
      "anonymous": false,
      "inputs": [
        {
          "indexed": true,
          "internalType": "address",
          "name": "challenger",
          "type": "address"
        },
        {
          "indexed": true,
          "internalType": "uint256",
          "name": "betID",
          "type": "uint256"
        }
      ],
      "name": "P2PBetting__BetJoined",
      "type": "event"
    },
    {
      "anonymous": false,
      "inputs": [
        {
          "indexed": true,
          "internalType": "uint256",
          "name": "feesCollected",
          "type": "uint256"
        }
      ],
      "name": "P2PBetting__FeesCollected",
      "type": "event"
    },
    {
      "anonymous": false,
      "inputs": [
        {
          "indexed": true,
          "internalType": "uint256",
          "name": "oldFee",
          "type": "uint256"
        },
        {
          "indexed": true,
          "internalType": "uint256",
          "name": "newFee",
          "type": "uint256"
        }
      ],
      "name": "P2PBetting__NewFeeSet",
      "type": "event"
    },
    {
      "anonymous": false,
      "inputs": [
        {
          "indexed": true,
          "internalType": "address",
          "name": "oracle",
          "type": "address"
        }
      ],
      "name": "P2PBetting__NewOracleSet",
      "type": "event"
    },
    {
      "anonymous": false,
      "inputs": [
        {
          "indexed": true,
          "internalType": "address",
          "name": "winner",
          "type": "address"
        },
        {
          "indexed": true,
          "internalType": "uint256",
          "name": "amount",
          "type": "uint256"
        }
      ],
      "name": "P2PBetting__RewardClaimed",
      "type": "event"
    },
    {
      "anonymous": false,
      "inputs": [
        {
          "indexed": false,
          "internalType": "string",
          "name": "name",
          "type": "string"
        }
      ],
      "name": "testevent",
      "type": "event"
    },
    {
      "inputs": [],
      "name": "collectFees",
      "outputs": [],
      "stateMutability": "nonpayable",
      "type": "function"
    },
    {
      "inputs": [
        {
          "internalType": "uint256",
          "name": "matchId",
          "type": "uint256"
        },
        {
          "internalType": "uint256",
          "name": "maxNumberOfChallengers_",
          "type": "uint256"
        },
        {
          "internalType": "uint256",
          "name": "odds_",
          "type": "uint256"
        },
        {
          "internalType": "uint256",
          "name": "maxEntryFee_",
          "type": "uint256"
        },
        {
          "internalType": "uint256[]",
          "name": "betData_",
          "type": "uint256[]"
        }
      ],
      "name": "createBet",
      "outputs": [],
      "stateMutability": "payable",
      "type": "function"
    },
    {
      "inputs": [
        {
          "internalType": "uint256",
          "name": "betId",
          "type": "uint256"
        }
      ],
      "name": "endBet",
      "outputs": [],
      "stateMutability": "nonpayable",
      "type": "function"
    },
    {
      "inputs": [
        {
          "internalType": "uint256",
          "name": "betId_",
          "type": "uint256"
        },
        {
          "internalType": "bool",
          "name": "tipsterWon",
          "type": "bool"
        }
      ],
      "name": "endBetOwner",
      "outputs": [],
      "stateMutability": "nonpayable",
      "type": "function"
    },
    {
      "inputs": [
        {
          "internalType": "uint256",
          "name": "matchId",
          "type": "uint256"
        }
      ],
      "name": "endBetsUsingMatchId",
      "outputs": [],
      "stateMutability": "nonpayable",
      "type": "function"
    },
    {
      "inputs": [
        {
          "internalType": "uint256",
          "name": "matchId",
          "type": "uint256"
        }
      ],
      "name": "endMatch",
      "outputs": [
        {
          "internalType": "bool",
          "name": "",
          "type": "bool"
        }
      ],
      "stateMutability": "nonpayable",
      "type": "function"
    },
    {
      "inputs": [],
      "name": "getAllBets",
      "outputs": [
        {
          "internalType": "uint256[]",
          "name": "",
          "type": "uint256[]"
        }
      ],
      "stateMutability": "view",
      "type": "function"
    },
    {
      "inputs": [
        {
          "internalType": "uint256",
          "name": "betId",
          "type": "uint256"
        }
      ],
      "name": "getBet",
      "outputs": [
        {
          "components": [
            {
              "internalType": "uint256",
              "name": "betId",
              "type": "uint256"
            },
            {
              "internalType": "uint256",
              "name": "matchId",
              "type": "uint256"
            },
            {
              "internalType": "address",
              "name": "tipster",
              "type": "address"
            },
            {
              "internalType": "uint256",
              "name": "collateralGiven",
              "type": "uint256"
            },
            {
              "internalType": "uint256",
              "name": "moneyInBet",
              "type": "uint256"
            },
            {
              "internalType": "uint256",
              "name": "maxNumberOfChallengers",
              "type": "uint256"
            },
            {
              "internalType": "address[]",
              "name": "challengers",
              "type": "address[]"
            },
            {
              "internalType": "uint256[]",
              "name": "challengersMoneyBet",
              "type": "uint256[]"
            },
            {
              "internalType": "uint256",
              "name": "odds",
              "type": "uint256"
            },
            {
              "internalType": "uint256",
              "name": "maxEntryFee",
              "type": "uint256"
            },
            {
              "internalType": "uint256",
              "name": "fee",
              "type": "uint256"
            },
            {
              "internalType": "bool",
              "name": "tipsterWon",
              "type": "bool"
            },
            {
              "internalType": "bool",
              "name": "ended",
              "type": "bool"
            },
            {
              "internalType": "uint256",
              "name": "startMatchTimestamp",
              "type": "uint256"
            },
            {
              "internalType": "uint256[]",
              "name": "betData",
              "type": "uint256[]"
            }
          ],
          "internalType": "struct P2PBettingFront.Bet",
          "name": "",
          "type": "tuple"
        }
      ],
      "stateMutability": "view",
      "type": "function"
    },
    {
      "inputs": [
        {
          "internalType": "uint256",
          "name": "betId_",
          "type": "uint256"
        }
      ],
      "name": "getCollateralBack",
      "outputs": [],
      "stateMutability": "nonpayable",
      "type": "function"
    },
    {
      "inputs": [],
      "name": "getFee",
      "outputs": [
        {
          "internalType": "uint256",
          "name": "",
          "type": "uint256"
        }
      ],
      "stateMutability": "view",
      "type": "function"
    },
    {
      "inputs": [],
      "name": "getFeesCollected",
      "outputs": [
        {
          "internalType": "uint256",
          "name": "",
          "type": "uint256"
        }
      ],
      "stateMutability": "view",
      "type": "function"
    },
    {
      "inputs": [
        {
          "internalType": "uint256",
          "name": "matchId",
          "type": "uint256"
        }
      ],
      "name": "getMatch",
      "outputs": [
        {
          "components": [
            {
              "internalType": "uint256",
              "name": "matchId",
              "type": "uint256"
            },
            {
              "internalType": "string",
              "name": "home",
              "type": "string"
            },
            {
              "internalType": "string",
              "name": "away",
              "type": "string"
            },
            {
              "internalType": "uint256",
              "name": "pointsHome",
              "type": "uint256"
            },
            {
              "internalType": "uint256",
              "name": "pointsAway",
              "type": "uint256"
            },
            {
              "internalType": "uint256",
              "name": "timeOfGame",
              "type": "uint256"
            },
            {
              "internalType": "bool",
              "name": "ended",
              "type": "bool"
            },
            {
              "internalType": "uint256[]",
              "name": "betsOfMatch",
              "type": "uint256[]"
            }
          ],
          "internalType": "struct P2PBettingFront.Match",
          "name": "",
          "type": "tuple"
        }
      ],
      "stateMutability": "view",
      "type": "function"
    },
    {
      "inputs": [
        {
          "internalType": "uint256",
          "name": "matchId",
          "type": "uint256"
        }
      ],
      "name": "getMatchTimestamp",
      "outputs": [
        {
          "internalType": "uint256",
          "name": "",
          "type": "uint256"
        }
      ],
      "stateMutability": "view",
      "type": "function"
    },
    {
      "inputs": [],
      "name": "getNumberOfBets",
      "outputs": [
        {
          "internalType": "uint256",
          "name": "",
          "type": "uint256"
        }
      ],
      "stateMutability": "view",
      "type": "function"
    },
    {
      "inputs": [
        {
          "internalType": "uint256",
          "name": "betId_",
          "type": "uint256"
        }
      ],
      "name": "getNumberOfChallenger",
      "outputs": [
        {
          "internalType": "uint256",
          "name": "",
          "type": "uint256"
        }
      ],
      "stateMutability": "view",
      "type": "function"
    },
    {
      "inputs": [],
      "name": "getNumberOfMatchesDone",
      "outputs": [
        {
          "internalType": "uint256",
          "name": "",
          "type": "uint256"
        }
      ],
      "stateMutability": "view",
      "type": "function"
    },
    {
      "inputs": [],
      "name": "getOracle",
      "outputs": [
        {
          "internalType": "address",
          "name": "",
          "type": "address"
        }
      ],
      "stateMutability": "view",
      "type": "function"
    },
    {
      "inputs": [
        {
          "internalType": "address",
          "name": "user",
          "type": "address"
        }
      ],
      "name": "getProfile",
      "outputs": [
        {
          "components": [
            {
              "internalType": "int256",
              "name": "balanceVariation",
              "type": "int256"
            },
            {
              "internalType": "uint256[]",
              "name": "betIdHistory",
              "type": "uint256[]"
            }
          ],
          "internalType": "struct P2PBettingFront.Profile",
          "name": "",
          "type": "tuple"
        }
      ],
      "stateMutability": "view",
      "type": "function"
    },
    {
      "inputs": [
        {
          "internalType": "uint256",
          "name": "betId",
          "type": "uint256"
        },
        {
          "internalType": "uint256",
          "name": "numberOfChallenger",
          "type": "uint256"
        }
      ],
      "name": "getRewards",
      "outputs": [],
      "stateMutability": "nonpayable",
      "type": "function"
    },
    {
      "inputs": [
        {
          "internalType": "uint256",
          "name": "usdValue_",
          "type": "uint256"
        }
      ],
      "name": "getUsdConversionRate",
      "outputs": [
        {
          "internalType": "uint256",
          "name": "",
          "type": "uint256"
        }
      ],
      "stateMutability": "view",
      "type": "function"
    },
    {
      "inputs": [
        {
          "internalType": "uint256",
          "name": "betId_",
          "type": "uint256"
        }
      ],
      "name": "joinBet",
      "outputs": [],
      "stateMutability": "payable",
      "type": "function"
    },
    {
      "inputs": [],
      "name": "owner",
      "outputs": [
        {
          "internalType": "address",
          "name": "",
          "type": "address"
        }
      ],
      "stateMutability": "view",
      "type": "function"
    },
    {
      "inputs": [],
      "name": "renounceOwnership",
      "outputs": [],
      "stateMutability": "nonpayable",
      "type": "function"
    },
    {
      "inputs": [
        {
          "internalType": "address",
          "name": "bettingAction",
          "type": "address"
        }
      ],
      "name": "setBettingActionsContract",
      "outputs": [],
      "stateMutability": "nonpayable",
      "type": "function"
    },
    {
      "inputs": [
        {
          "internalType": "uint256",
          "name": "newFee",
          "type": "uint256"
        }
      ],
      "name": "setFee",
      "outputs": [],
      "stateMutability": "nonpayable",
      "type": "function"
    },
    {
      "inputs": [
        {
          "internalType": "address",
          "name": "newOracle",
          "type": "address"
        }
      ],
      "name": "setUsdOracle",
      "outputs": [],
      "stateMutability": "nonpayable",
      "type": "function"
    },
    {
      "inputs": [
        {
          "internalType": "uint256",
          "name": "gameId",
          "type": "uint256"
        }
      ],
      "name": "testEndMatch",
      "outputs": [],
      "stateMutability": "nonpayable",
      "type": "function"
    },
    {
      "inputs": [
        {
          "internalType": "uint256",
          "name": "gameId",
          "type": "uint256"
        },
        {
          "internalType": "uint256",
          "name": "timestamp",
          "type": "uint256"
        },
        {
          "internalType": "string",
          "name": "home_",
          "type": "string"
        },
        {
          "internalType": "string",
          "name": "away_",
          "type": "string"
        },
        {
          "internalType": "uint256",
          "name": "pointsHome_",
          "type": "uint256"
        },
        {
          "internalType": "uint256",
          "name": "pointsAway_",
          "type": "uint256"
        }
      ],
      "name": "testingAddMatch",
      "outputs": [],
      "stateMutability": "nonpayable",
      "type": "function"
    },
    {
      "inputs": [
        {
          "internalType": "address",
          "name": "newOwner",
          "type": "address"
        }
      ],
      "name": "transferOwnership",
      "outputs": [],
      "stateMutability": "nonpayable",
      "type": "function"
    }
  ],
  "bytecode": "0x608060405260006005553480156200001657600080fd5b5060405162004d7f38038062004d7f83398181016040528101906200003c91906200024b565b80600073ffffffffffffffffffffffffffffffffffffffff168173ffffffffffffffffffffffffffffffffffffffff1603620000b25760006040517f1e4fbdf7000000000000000000000000000000000000000000000000000000008152600401620000a99190620002a3565b60405180910390fd5b620000c381620000e260201b60201c565b506103e882620000d49190620002ef565b60038190555050506200033a565b60008060009054906101000a900473ffffffffffffffffffffffffffffffffffffffff169050816000806101000a81548173ffffffffffffffffffffffffffffffffffffffff021916908373ffffffffffffffffffffffffffffffffffffffff1602179055508173ffffffffffffffffffffffffffffffffffffffff168173ffffffffffffffffffffffffffffffffffffffff167f8be0079c531659141344cd1fd0a4f28419497f9722a3daafe3b4186f6b6457e060405160405180910390a35050565b600080fd5b6000819050919050565b620001c081620001ab565b8114620001cc57600080fd5b50565b600081519050620001e081620001b5565b92915050565b600073ffffffffffffffffffffffffffffffffffffffff82169050919050565b60006200021382620001e6565b9050919050565b620002258162000206565b81146200023157600080fd5b50565b60008151905062000245816200021a565b92915050565b60008060408385031215620002655762000264620001a6565b5b60006200027585828601620001cf565b9250506020620002888582860162000234565b9150509250929050565b6200029d8162000206565b82525050565b6000602082019050620002ba600083018462000292565b92915050565b7f4e487b7100000000000000000000000000000000000000000000000000000000600052601160045260246000fd5b6000620002fc82620001ab565b91506200030983620001ab565b92508282026200031981620001ab565b91508282048414831517620003335762000332620002c0565b5b5092915050565b614a35806200034a6000396000f3fe6080604052600436106101c25760003560e01c8063833b1fce116100f7578063c879657211610095578063d4aae80f11610064578063d4aae80f1461060c578063f222d0b914610637578063f2fde38b14610662578063f39522e41461068b576101c2565b8063c879657214610578578063cc11298e1461058f578063cdfdb089146105b8578063ced72f87146105e1576101c2565b8063b740af79116100d1578063b740af79146104d2578063bf4e2858146104fb578063c325340b14610524578063c41d28ae1461054f576101c2565b8063833b1fce146104535780638da5cb5b1461047e578063b238322d146104a9576101c2565b80636605d3f2116101645780636c0106d11161013e5780636c0106d1146103bf578063700eae73146103e8578063715018a614610413578063800a716b1461042a576101c2565b80636605d3f21461035157806369fe0e2d1461036d5780636bdfaee714610396576101c2565b80631f7d2f2c116101a05780631f7d2f2c1461027e5780632ddd9aff146102bb57806339fb3f45146102f85780633d092b3d14610314576101c2565b8063061e494f146101c75780630eaa8532146102045780630f53a47014610241575b600080fd5b3480156101d357600080fd5b506101ee60048036038101906101e991906136ff565b6106c8565b6040516101fb9190613a46565b60405180910390f35b34801561021057600080fd5b5061022b600480360381019061022691906136ff565b61091a565b6040516102389190613a77565b60405180910390f35b34801561024d57600080fd5b5061026860048036038101906102639190613abe565b610cd0565b6040516102759190613b41565b60405180910390f35b34801561028a57600080fd5b506102a560048036038101906102a091906136ff565b610d8b565b6040516102b29190613b72565b60405180910390f35b3480156102c757600080fd5b506102e260048036038101906102dd91906136ff565b610dab565b6040516102ef9190613b72565b60405180910390f35b610312600480360381019061030d91906136ff565b610e88565b005b34801561032057600080fd5b5061033b600480360381019061033691906136ff565b611394565b6040516103489190613cdb565b60405180910390f35b61036b60048036038101906103669190613e45565b611581565b005b34801561037957600080fd5b50610394600480360381019061038f91906136ff565b611ab4565b005b3480156103a257600080fd5b506103bd60048036038101906103b891906136ff565b611afc565b005b3480156103cb57600080fd5b506103e660048036038101906103e191906136ff565b611c0e565b005b3480156103f457600080fd5b506103fd611c48565b60405161040a9190613f4b565b60405180910390f35b34801561041f57600080fd5b50610428611ca0565b005b34801561043657600080fd5b50610451600480360381019061044c9190613f99565b611cb4565b005b34801561045f57600080fd5b50610468611d1d565b6040516104759190613fe8565b60405180910390f35b34801561048a57600080fd5b50610493611d47565b6040516104a09190613fe8565b60405180910390f35b3480156104b557600080fd5b506104d060048036038101906104cb91906140b8565b611d70565b005b3480156104de57600080fd5b506104f960048036038101906104f49190613abe565b611eac565b005b34801561050757600080fd5b50610522600480360381019061051d91906136ff565b611f3b565b005b34801561053057600080fd5b506105396122bb565b6040516105469190613b72565b60405180910390f35b34801561055b57600080fd5b5061057660048036038101906105719190613abe565b6122c5565b005b34801561058457600080fd5b5061058d612311565b005b34801561059b57600080fd5b506105b660048036038101906105b1919061417d565b612405565b005b3480156105c457600080fd5b506105df60048036038101906105da91906136ff565b612ae2565b005b3480156105ed57600080fd5b506105f661318b565b6040516106039190613b72565b60405180910390f35b34801561061857600080fd5b50610621613195565b60405161062e9190613b72565b60405180910390f35b34801561064357600080fd5b5061064c61319f565b6040516106599190613b72565b60405180910390f35b34801561066e57600080fd5b5061068960048036038101906106849190613abe565b6131a9565b005b34801561069757600080fd5b506106b260048036038101906106ad91906136ff565b61322f565b6040516106bf9190613b72565b60405180910390f35b6106d06134d0565b60086000838152602001908152602001600020604051806101e001604052908160008201548152602001600182015481526020016002820160009054906101000a900473ffffffffffffffffffffffffffffffffffffffff1673ffffffffffffffffffffffffffffffffffffffff1673ffffffffffffffffffffffffffffffffffffffff168152602001600382015481526020016004820154815260200160058201548152602001600682018054806020026020016040519081016040528092919081815260200182805480156107fc57602002820191906000526020600020905b8160009054906101000a900473ffffffffffffffffffffffffffffffffffffffff1673ffffffffffffffffffffffffffffffffffffffff16815260200190600101908083116107b2575b505050505081526020016007820180548060200260200160405190810160405280929190818152602001828054801561085457602002820191906000526020600020905b815481526020019060010190808311610840575b505050505081526020016008820154815260200160098201548152602001600a8201548152602001600b820160009054906101000a900460ff16151515158152602001600b820160019054906101000a900460ff16151515158152602001600c8201548152602001600d820180548060200260200160405190810160405280929190818152602001828054801561090a57602002820191906000526020600020905b8154815260200190600101908083116108f6575b5050505050815250509050919050565b600080600160009054906101000a900473ffffffffffffffffffffffffffffffffffffffff1673ffffffffffffffffffffffffffffffffffffffff166381a60c0d846040518263ffffffff1660e01b81526004016109789190613b72565b606060405180830381865afa158015610995573d6000803e3d6000fd5b505050506040513d601f19601f820116820180604052508101906109b99190614283565b90506001816002600381106109d1576109d06142b0565b5b602002015103610cc5576000600960008581526020019081526020016000206040518061010001604052908160008201548152602001600182018054610a169061430e565b80601f0160208091040260200160405190810160405280929190818152602001828054610a429061430e565b8015610a8f5780601f10610a6457610100808354040283529160200191610a8f565b820191906000526020600020905b815481529060010190602001808311610a7257829003601f168201915b50505050508152602001600282018054610aa89061430e565b80601f0160208091040260200160405190810160405280929190818152602001828054610ad49061430e565b8015610b215780601f10610af657610100808354040283529160200191610b21565b820191906000526020600020905b815481529060010190602001808311610b0457829003601f168201915b505050505081526020016003820154815260200160048201548152602001600582015481526020016006820160009054906101000a900460ff1615151515815260200160078201805480602002602001604051908101604052809291908181526020018280548015610bb257602002820191906000526020600020905b815481526020019060010190808311610b9e575b505050505081525050905081600060038110610bd157610bd06142b0565b5b602002015181606001818152505081600160038110610bf357610bf26142b0565b5b602002015181608001818152505060018160c00190151590811515815250508060096000868152602001908152602001600020600082015181600001556020820151816001019081610c4591906144eb565b506040820151816002019081610c5b91906144eb565b50606082015181600301556080820151816004015560a0820151816005015560c08201518160060160006101000a81548160ff02191690831515021790555060e0820151816007019080519060200190610cb6929190613560565b50905050600192505050610ccb565b60009150505b919050565b610cd86135ad565b600760008373ffffffffffffffffffffffffffffffffffffffff1673ffffffffffffffffffffffffffffffffffffffff1681526020019081526020016000206040518060400160405290816000820154815260200160018201805480602002602001604051908101604052809291908181526020018280548015610d7b57602002820191906000526020600020905b815481526020019060010190808311610d67575b5050505050815250509050919050565b600060096000838152602001908152602001600020600501549050919050565b600080600260009054906101000a900473ffffffffffffffffffffffffffffffffffffffff1673ffffffffffffffffffffffffffffffffffffffff1663feaf968c6040518163ffffffff1660e01b815260040160a060405180830381865afa158015610e1b573d6000803e3d6000fd5b505050506040513d601f19601f82011682018060405250810190610e3f919061462b565b50505091505060006402540be40082610e5891906146d5565b9050600081670de0b6b3a764000086610e71919061474d565b610e7b91906147be565b9050809350505050919050565b600060086000838152602001908152602001600020604051806101e001604052908160008201548152602001600182015481526020016002820160009054906101000a900473ffffffffffffffffffffffffffffffffffffffff1673ffffffffffffffffffffffffffffffffffffffff1673ffffffffffffffffffffffffffffffffffffffff16815260200160038201548152602001600482015481526020016005820154815260200160068201805480602002602001604051908101604052809291908181526020018280548015610fb657602002820191906000526020600020905b8160009054906101000a900473ffffffffffffffffffffffffffffffffffffffff1673ffffffffffffffffffffffffffffffffffffffff1681526020019060010190808311610f6c575b505050505081526020016007820180548060200260200160405190810160405280929190818152602001828054801561100e57602002820191906000526020600020905b815481526020019060010190808311610ffa575b505050505081526020016008820154815260200160098201548152602001600a8201548152602001600b820160009054906101000a900460ff16151515158152602001600b820160019054906101000a900460ff16151515158152602001600c8201548152602001600d82018054806020026020016040519081016040528092919081815260200182805480156110c457602002820191906000526020600020905b8154815260200190600101908083116110b0575b50505050508152505090508060c00151518160a0015111611111576040517f81071d2800000000000000000000000000000000000000000000000000000000815260040160405180910390fd5b806101200151341115611150576040517fed47562600000000000000000000000000000000000000000000000000000000815260040160405180910390fd5b806101800151806111725750806101a001516102584261117091906147ef565b115b156111a9576040517fba05bf4700000000000000000000000000000000000000000000000000000000815260040160405180910390fd5b60086000838152602001908152602001600020600601339080600181540180825580915050600190039060005260206000200160009091909190916101000a81548173ffffffffffffffffffffffffffffffffffffffff021916908373ffffffffffffffffffffffffffffffffffffffff160217905550600860008381526020019081526020016000206007013490806001815401808255809150506001900390600052602060002001600090919091909150553460086000848152602001908152602001600020600401600082825461128391906147ef565b92505081905550600760003373ffffffffffffffffffffffffffffffffffffffff1673ffffffffffffffffffffffffffffffffffffffff16815260200190815260200160002060010182908060018154018082558091505060019003906000526020600020016000909190919091505534600760003373ffffffffffffffffffffffffffffffffffffffff1673ffffffffffffffffffffffffffffffffffffffff16815260200190815260200160002060000160008282546113459190614823565b92505081905550813373ffffffffffffffffffffffffffffffffffffffff167f36ded20b495c4e5f788b261f134395c38eb7360ff2bb88fc16c7b6775193932860405160405180910390a35050565b61139c6135c7565b6009600083815260200190815260200160002060405180610100016040529081600082015481526020016001820180546113d59061430e565b80601f01602080910402602001604051908101604052809291908181526020018280546114019061430e565b801561144e5780601f106114235761010080835404028352916020019161144e565b820191906000526020600020905b81548152906001019060200180831161143157829003601f168201915b505050505081526020016002820180546114679061430e565b80601f01602080910402602001604051908101604052809291908181526020018280546114939061430e565b80156114e05780601f106114b5576101008083540402835291602001916114e0565b820191906000526020600020905b8154815290600101906020018083116114c357829003601f168201915b505050505081526020016003820154815260200160048201548152602001600582015481526020016006820160009054906101000a900460ff161515151581526020016007820180548060200260200160405190810160405280929190818152602001828054801561157157602002820191906000526020600020905b81548152602001906001019080831161155d575b5050505050815250509050919050565b6103e883116115bc576040517f7ed63ccd00000000000000000000000000000000000000000000000000000000815260040160405180910390fd5b600084036115f6576040517f0d27d3e900000000000000000000000000000000000000000000000000000000815260040160405180910390fd5b60008203611630576040517f2e2785d600000000000000000000000000000000000000000000000000000000815260040160405180910390fd5b6000600960008781526020019081526020016000206005015403611680576040517f2d5342f500000000000000000000000000000000000000000000000000000000815260040160405180910390fd5b6002815110156116bc576040517fc4819f9d00000000000000000000000000000000000000000000000000000000815260040160405180910390fd5b81846116c8919061474d565b6103e88385876116d8919061474d565b6116e2919061474d565b6116ec91906147be565b6116f69190614866565b34101561172f576040517f745f581d00000000000000000000000000000000000000000000000000000000815260040160405180910390fd5b6117376134d0565b33816040019073ffffffffffffffffffffffffffffffffffffffff16908173ffffffffffffffffffffffffffffffffffffffff1681525050848160a001818152505083816101000181815250506003548161014001818152505085816020018181525050828161012001818152505081816101c0018190525034816080018181525050348160600181815250506005548160000181815250506009600087815260200190815260200160002060050154816101a001818152505080600860006005548152602001908152602001600020600082015181600001556020820151816001015560408201518160020160006101000a81548173ffffffffffffffffffffffffffffffffffffffff021916908373ffffffffffffffffffffffffffffffffffffffff160217905550606082015181600301556080820151816004015560a0820151816005015560c082015181600601908051906020019061189c92919061360e565b5060e08201518160070190805190602001906118b9929190613560565b506101008201518160080155610120820151816009015561014082015181600a015561016082015181600b0160006101000a81548160ff02191690831515021790555061018082015181600b0160016101000a81548160ff0219169083151502179055506101a082015181600c01556101c082015181600d019080519060200190611945929190613560565b50905050600760003373ffffffffffffffffffffffffffffffffffffffff1673ffffffffffffffffffffffffffffffffffffffff168152602001908152602001600020600101600554908060018154018082558091505060019003906000526020600020016000909190919091505534600760003373ffffffffffffffffffffffffffffffffffffffff1673ffffffffffffffffffffffffffffffffffffffff1681526020019081526020016000206000016000828254611a069190614823565b9250508190555060096000878152602001908152602001600020600701600554908060018154018082558091505060019003906000526020600020016000909190919091505560056000815480929190611a5f9061489a565b91905055508484847fbe5a78b4c9e5bd34e20d793f7a455a9d350624e5e173ee900fd14880f679f1e16001600554611a979190614866565b604051611aa49190613b72565b60405180910390a4505050505050565b611abc61337d565b600060035490508160038190555081817f3ddd765e918a581cb556c6b10e6c7cb12c695d5eb7516a9be17358dec5ef3c9660405160405180910390a35050565b611b0461337d565b6009600082815260200190815260200160002060060160009054906101000a900460ff16611b5e576040517f84ff05af00000000000000000000000000000000000000000000000000000000815260040160405180910390fd5b600060096000838152602001908152602001600020600701805480602002602001604051908101604052809291908181526020018280548015611bc057602002820191906000526020600020905b815481526020019060010190808311611bac575b5050505050905060005b8151811015611c0957611bf6828281518110611be957611be86142b0565b5b6020026020010151612ae2565b8080611c019061489a565b915050611bca565b505050565b611c1661337d565b60016009600083815260200190815260200160002060060160006101000a81548160ff02191690831515021790555050565b6060600a805480602002602001604051908101604052809291908181526020018280548015611c9657602002820191906000526020600020905b815481526020019060010190808311611c82575b5050505050905090565b611ca861337d565b611cb26000613404565b565b611cbc61337d565b8060086000848152602001908152602001600020600b0160006101000a81548160ff021916908315150217905550600160086000848152602001908152602001600020600b0160016101000a81548160ff0219169083151502179055505050565b6000600260009054906101000a900473ffffffffffffffffffffffffffffffffffffffff16905090565b60008060009054906101000a900473ffffffffffffffffffffffffffffffffffffffff16905090565b611d7861337d565b611d806135c7565b86816000018181525050858160a001818152505084816020018190525083816040018190525082816060018181525050818160800181815250508060096000898152602001908152602001600020600082015181600001556020820151816001019081611ded91906144eb565b506040820151816002019081611e0391906144eb565b50606082015181600301556080820151816004015560a0820151816005015560c08201518160060160006101000a81548160ff02191690831515021790555060e0820151816007019080519060200190611e5e929190613560565b50905050600a87908060018154018082558091505060019003906000526020600020016000909190919091505560066000815480929190611e9e9061489a565b919050555050505050505050565b611eb461337d565b80600260006101000a81548173ffffffffffffffffffffffffffffffffffffffff021916908373ffffffffffffffffffffffffffffffffffffffff1602179055508073ffffffffffffffffffffffffffffffffffffffff167f6f4d463f06d6303ccb5e5f3efff065c43013611c234549b89243f40257a7b72260405160405180910390a250565b600060086000838152602001908152602001600020604051806101e001604052908160008201548152602001600182015481526020016002820160009054906101000a900473ffffffffffffffffffffffffffffffffffffffff1673ffffffffffffffffffffffffffffffffffffffff1673ffffffffffffffffffffffffffffffffffffffff1681526020016003820154815260200160048201548152602001600582015481526020016006820180548060200260200160405190810160405280929190818152602001828054801561206957602002820191906000526020600020905b8160009054906101000a900473ffffffffffffffffffffffffffffffffffffffff1673ffffffffffffffffffffffffffffffffffffffff168152602001906001019080831161201f575b50505050508152602001600782018054806020026020016040519081016040528092919081815260200182805480156120c157602002820191906000526020600020905b8154815260200190600101908083116120ad575b505050505081526020016008820154815260200160098201548152602001600a8201548152602001600b820160009054906101000a900460ff16151515158152602001600b820160019054906101000a900460ff16151515158152602001600c8201548152602001600d820180548060200260200160405190810160405280929190818152602001828054801561217757602002820191906000526020600020905b815481526020019060010190808311612163575b505050505081525050905060008160600151036121c0576040517fdfba2d6c00000000000000000000000000000000000000000000000000000000815260040160405180910390fd5b80610180015115806121d457508061016001515b1561220b576040517ff0f84dd500000000000000000000000000000000000000000000000000000000815260040160405180910390fd5b60006103e88261010001518360600151846080015161222a9190614866565b612234919061474d565b61223e91906147be565b826080015161224d9190614866565b905060006008600085815260200190815260200160002060030181905550816040015173ffffffffffffffffffffffffffffffffffffffff166108fc829081150290604051600060405180830381858888f193505050501580156122b5573d6000803e3d6000fd5b50505050565b6000600654905090565b6122cd61337d565b80600160006101000a81548173ffffffffffffffffffffffffffffffffffffffff021916908373ffffffffffffffffffffffffffffffffffffffff16021790555050565b600080600454146123d557600454905060006004819055506000612333611d47565b73ffffffffffffffffffffffffffffffffffffffff168260405161235690614913565b60006040518083038185875af1925050503d8060008114612393576040519150601f19603f3d011682016040523d82523d6000602084013e612398565b606091505b50509050806123d3576040517f4a5f2a1b00000000000000000000000000000000000000000000000000000000815260040160405180910390fd5b505b807ff4f2ad6f4b10f9853be76745070984d581f6da2399617776ec329308e46d080460405160405180910390a250565b600060086000848152602001908152602001600020604051806101e001604052908160008201548152602001600182015481526020016002820160009054906101000a900473ffffffffffffffffffffffffffffffffffffffff1673ffffffffffffffffffffffffffffffffffffffff1673ffffffffffffffffffffffffffffffffffffffff1681526020016003820154815260200160048201548152602001600582015481526020016006820180548060200260200160405190810160405280929190818152602001828054801561253357602002820191906000526020600020905b8160009054906101000a900473ffffffffffffffffffffffffffffffffffffffff1673ffffffffffffffffffffffffffffffffffffffff16815260200190600101908083116124e9575b505050505081526020016007820180548060200260200160405190810160405280929190818152602001828054801561258b57602002820191906000526020600020905b815481526020019060010190808311612577575b505050505081526020016008820154815260200160098201548152602001600a8201548152602001600b820160009054906101000a900460ff16151515158152602001600b820160019054906101000a900460ff16151515158152602001600c8201548152602001600d820180548060200260200160405190810160405280929190818152602001828054801561264157602002820191906000526020600020905b81548152602001906001019080831161262d575b5050505050815250509050806040015173ffffffffffffffffffffffffffffffffffffffff163373ffffffffffffffffffffffffffffffffffffffff1614801561268d57508061016001515b801561269e57506000816080015114155b80156126ac57508061018001515b15612845578060800151600760003373ffffffffffffffffffffffffffffffffffffffff1673ffffffffffffffffffffffffffffffffffffffff16815260200190815260200160002060000160008282546127079190614928565b9250508190555060006103e8806064612720919061474d565b61272a919061474d565b8261014001518361010001518460600151856080015161274a9190614866565b612754919061474d565b61275e919061474d565b61276891906147be565b9050600081836080015161277c9190614866565b90506000600860008781526020019081526020016000206004018190555081600460008282546127ac91906147ef565b925050819055503373ffffffffffffffffffffffffffffffffffffffff166108fc829081150290604051600060405180830381858888f193505050501580156127f9573d6000803e3d6000fd5b50803373ffffffffffffffffffffffffffffffffffffffff167f3c92031d788fb886d6b0cef0d544d742f65fe462e576906cfe03a5f36ef1244060405160405180910390a35050612add565b8060c0015151821080156128a257508060c00151828151811061286b5761286a6142b0565b5b602002602001015173ffffffffffffffffffffffffffffffffffffffff163373ffffffffffffffffffffffffffffffffffffffff16145b80156128cd575060008160e0015183815181106128c2576128c16142b0565b5b602002602001015114155b80156128db57508061018001515b80156128ea5750806101600151155b15612aaa5760006103e88260e00151848151811061290b5761290a6142b0565b5b6020026020010151836101000151612923919061474d565b61292d91906147be565b905080600760003373ffffffffffffffffffffffffffffffffffffffff1673ffffffffffffffffffffffffffffffffffffffff16815260200190815260200160002060000160008282546129819190614928565b9250508190555060006103e86064612999919061474d565b836101400151836129aa919061474d565b6129b491906147be565b9050600081836129c49190614866565b905060006008600088815260200190815260200160002060070186815481106129f0576129ef6142b0565b5b90600052602060002001819055508160046000828254612a1091906147ef565b925050819055503373ffffffffffffffffffffffffffffffffffffffff166108fc829081150290604051600060405180830381858888f19350505050158015612a5d573d6000803e3d6000fd5b50803373ffffffffffffffffffffffffffffffffffffffff167f3c92031d788fb886d6b0cef0d544d742f65fe462e576906cfe03a5f36ef1244060405160405180910390a3505050612adc565b6040517fdfba2d6c00000000000000000000000000000000000000000000000000000000815260040160405180910390fd5b5b505050565b600060086000838152602001908152602001600020604051806101e001604052908160008201548152602001600182015481526020016002820160009054906101000a900473ffffffffffffffffffffffffffffffffffffffff1673ffffffffffffffffffffffffffffffffffffffff1673ffffffffffffffffffffffffffffffffffffffff16815260200160038201548152602001600482015481526020016005820154815260200160068201805480602002602001604051908101604052809291908181526020018280548015612c1057602002820191906000526020600020905b8160009054906101000a900473ffffffffffffffffffffffffffffffffffffffff1673ffffffffffffffffffffffffffffffffffffffff1681526020019060010190808311612bc6575b5050505050815260200160078201805480602002602001604051908101604052809291908181526020018280548015612c6857602002820191906000526020600020905b815481526020019060010190808311612c54575b505050505081526020016008820154815260200160098201548152602001600a8201548152602001600b820160009054906101000a900460ff16151515158152602001600b820160019054906101000a900460ff16151515158152602001600c8201548152602001600d8201805480602002602001604051908101604052809291908181526020018280548015612d1e57602002820191906000526020600020905b815481526020019060010190808311612d0a575b5050505050815250509050600060096000836020015181526020019081526020016000206040518061010001604052908160008201548152602001600182018054612d689061430e565b80601f0160208091040260200160405190810160405280929190818152602001828054612d949061430e565b8015612de15780601f10612db657610100808354040283529160200191612de1565b820191906000526020600020905b815481529060010190602001808311612dc457829003601f168201915b50505050508152602001600282018054612dfa9061430e565b80601f0160208091040260200160405190810160405280929190818152602001828054612e269061430e565b8015612e735780601f10612e4857610100808354040283529160200191612e73565b820191906000526020600020905b815481529060010190602001808311612e5657829003601f168201915b505050505081526020016003820154815260200160048201548152602001600582015481526020016006820160009054906101000a900460ff1615151515815260200160078201805480602002602001604051908101604052809291908181526020018280548015612f0457602002820191906000526020600020905b815481526020019060010190808311612ef0575b5050505050815250509050600081606001519050600082608001519050600080600160009054906101000a900473ffffffffffffffffffffffffffffffffffffffff1673ffffffffffffffffffffffffffffffffffffffff16638e03ce52876101c0015186866040518463ffffffff1660e01b8152600401612f889392919061496c565b6040805180830381865afa158015612fa4573d6000803e3d6000fd5b505050506040513d601f19601f82011682018060405250810190612fc891906149bf565b9150915081156131825781866101800190151590811515815250508015612ffb5780866101600190151590811515815250505b8560086000898152602001908152602001600020600082015181600001556020820151816001015560408201518160020160006101000a81548173ffffffffffffffffffffffffffffffffffffffff021916908373ffffffffffffffffffffffffffffffffffffffff160217905550606082015181600301556080820151816004015560a0820151816005015560c08201518160060190805190602001906130a492919061360e565b5060e08201518160070190805190602001906130c1929190613560565b506101008201518160080155610120820151816009015561014082015181600a015561016082015181600b0160006101000a81548160ff02191690831515021790555061018082015181600b0160016101000a81548160ff0219169083151502179055506101a082015181600c01556101c082015181600d01908051906020019061314d929190613560565b50905050801515877f3e7529bf0003c3cc898fc752bfc3d08b80e8c7569f8858373c34663d04ff5b6560405160405180910390a35b50505050505050565b6000600354905090565b6000600454905090565b6000600554905090565b6131b161337d565b600073ffffffffffffffffffffffffffffffffffffffff168173ffffffffffffffffffffffffffffffffffffffff16036132235760006040517f1e4fbdf700000000000000000000000000000000000000000000000000000000815260040161321a9190613fe8565b60405180910390fd5b61322c81613404565b50565b600080600860008481526020019081526020016000206006018054806020026020016040519081016040528092919081815260200182805480156132c857602002820191906000526020600020905b8160009054906101000a900473ffffffffffffffffffffffffffffffffffffffff1673ffffffffffffffffffffffffffffffffffffffff168152602001906001019080831161327e575b5050505050905060005b8151811015613345573373ffffffffffffffffffffffffffffffffffffffff16828281518110613305576133046142b0565b5b602002602001015173ffffffffffffffffffffffffffffffffffffffff1603613332578092505050613378565b808061333d9061489a565b9150506132d2565b506040517f1fe25f4c00000000000000000000000000000000000000000000000000000000815260040160405180910390fd5b919050565b6133856134c8565b73ffffffffffffffffffffffffffffffffffffffff166133a3611d47565b73ffffffffffffffffffffffffffffffffffffffff1614613402576133c66134c8565b6040517f118cdaa70000000000000000000000000000000000000000000000000000000081526004016133f99190613fe8565b60405180910390fd5b565b60008060009054906101000a900473ffffffffffffffffffffffffffffffffffffffff169050816000806101000a81548173ffffffffffffffffffffffffffffffffffffffff021916908373ffffffffffffffffffffffffffffffffffffffff1602179055508173ffffffffffffffffffffffffffffffffffffffff168173ffffffffffffffffffffffffffffffffffffffff167f8be0079c531659141344cd1fd0a4f28419497f9722a3daafe3b4186f6b6457e060405160405180910390a35050565b600033905090565b604051806101e001604052806000815260200160008152602001600073ffffffffffffffffffffffffffffffffffffffff168152602001600081526020016000815260200160008152602001606081526020016060815260200160008152602001600081526020016000815260200160001515815260200160001515815260200160008152602001606081525090565b82805482825590600052602060002090810192821561359c579160200282015b8281111561359b578251825591602001919060010190613580565b5b5090506135a99190613698565b5090565b604051806040016040528060008152602001606081525090565b604051806101000160405280600081526020016060815260200160608152602001600081526020016000815260200160008152602001600015158152602001606081525090565b828054828255906000526020600020908101928215613687579160200282015b828111156136865782518260006101000a81548173ffffffffffffffffffffffffffffffffffffffff021916908373ffffffffffffffffffffffffffffffffffffffff1602179055509160200191906001019061362e565b5b5090506136949190613698565b5090565b5b808211156136b1576000816000905550600101613699565b5090565b6000604051905090565b600080fd5b600080fd5b6000819050919050565b6136dc816136c9565b81146136e757600080fd5b50565b6000813590506136f9816136d3565b92915050565b600060208284031215613715576137146136bf565b5b6000613723848285016136ea565b91505092915050565b613735816136c9565b82525050565b600073ffffffffffffffffffffffffffffffffffffffff82169050919050565b60006137668261373b565b9050919050565b6137768161375b565b82525050565b600081519050919050565b600082825260208201905092915050565b6000819050602082019050919050565b60006137b4838361376d565b60208301905092915050565b6000602082019050919050565b60006137d88261377c565b6137e28185613787565b93506137ed83613798565b8060005b8381101561381e57815161380588826137a8565b9750613810836137c0565b9250506001810190506137f1565b5085935050505092915050565b600081519050919050565b600082825260208201905092915050565b6000819050602082019050919050565b6000613863838361372c565b60208301905092915050565b6000602082019050919050565b60006138878261382b565b6138918185613836565b935061389c83613847565b8060005b838110156138cd5781516138b48882613857565b97506138bf8361386f565b9250506001810190506138a0565b5085935050505092915050565b60008115159050919050565b6138ef816138da565b82525050565b60006101e08301600083015161390e600086018261372c565b506020830151613921602086018261372c565b506040830151613934604086018261376d565b506060830151613947606086018261372c565b50608083015161395a608086018261372c565b5060a083015161396d60a086018261372c565b5060c083015184820360c086015261398582826137cd565b91505060e083015184820360e086015261399f828261387c565b9150506101008301516139b661010086018261372c565b506101208301516139cb61012086018261372c565b506101408301516139e061014086018261372c565b506101608301516139f56101608601826138e6565b50610180830151613a0a6101808601826138e6565b506101a0830151613a1f6101a086018261372c565b506101c08301518482036101c0860152613a39828261387c565b9150508091505092915050565b60006020820190508181036000830152613a6081846138f5565b905092915050565b613a71816138da565b82525050565b6000602082019050613a8c6000830184613a68565b92915050565b613a9b8161375b565b8114613aa657600080fd5b50565b600081359050613ab881613a92565b92915050565b600060208284031215613ad457613ad36136bf565b5b6000613ae284828501613aa9565b91505092915050565b6000819050919050565b613afe81613aeb565b82525050565b6000604083016000830151613b1c6000860182613af5565b5060208301518482036020860152613b34828261387c565b9150508091505092915050565b60006020820190508181036000830152613b5b8184613b04565b905092915050565b613b6c816136c9565b82525050565b6000602082019050613b876000830184613b63565b92915050565b600081519050919050565b600082825260208201905092915050565b60005b83811015613bc7578082015181840152602081019050613bac565b60008484015250505050565b6000601f19601f8301169050919050565b6000613bef82613b8d565b613bf98185613b98565b9350613c09818560208601613ba9565b613c1281613bd3565b840191505092915050565b600061010083016000830151613c36600086018261372c565b5060208301518482036020860152613c4e8282613be4565b91505060408301518482036040860152613c688282613be4565b9150506060830151613c7d606086018261372c565b506080830151613c90608086018261372c565b5060a0830151613ca360a086018261372c565b5060c0830151613cb660c08601826138e6565b5060e083015184820360e0860152613cce828261387c565b9150508091505092915050565b60006020820190508181036000830152613cf58184613c1d565b905092915050565b600080fd5b7f4e487b7100000000000000000000000000000000000000000000000000000000600052604160045260246000fd5b613d3a82613bd3565b810181811067ffffffffffffffff82111715613d5957613d58613d02565b5b80604052505050565b6000613d6c6136b5565b9050613d788282613d31565b919050565b600067ffffffffffffffff821115613d9857613d97613d02565b5b602082029050602081019050919050565b600080fd5b6000613dc1613dbc84613d7d565b613d62565b90508083825260208201905060208402830185811115613de457613de3613da9565b5b835b81811015613e0d5780613df988826136ea565b845260208401935050602081019050613de6565b5050509392505050565b600082601f830112613e2c57613e2b613cfd565b5b8135613e3c848260208601613dae565b91505092915050565b600080600080600060a08688031215613e6157613e606136bf565b5b6000613e6f888289016136ea565b9550506020613e80888289016136ea565b9450506040613e91888289016136ea565b9350506060613ea2888289016136ea565b925050608086013567ffffffffffffffff811115613ec357613ec26136c4565b5b613ecf88828901613e17565b9150509295509295909350565b600082825260208201905092915050565b6000613ef88261382b565b613f028185613edc565b9350613f0d83613847565b8060005b83811015613f3e578151613f258882613857565b9750613f308361386f565b925050600181019050613f11565b5085935050505092915050565b60006020820190508181036000830152613f658184613eed565b905092915050565b613f76816138da565b8114613f8157600080fd5b50565b600081359050613f9381613f6d565b92915050565b60008060408385031215613fb057613faf6136bf565b5b6000613fbe858286016136ea565b9250506020613fcf85828601613f84565b9150509250929050565b613fe28161375b565b82525050565b6000602082019050613ffd6000830184613fd9565b92915050565b600080fd5b600067ffffffffffffffff82111561402357614022613d02565b5b61402c82613bd3565b9050602081019050919050565b82818337600083830152505050565b600061405b61405684614008565b613d62565b90508281526020810184848401111561407757614076614003565b5b614082848285614039565b509392505050565b600082601f83011261409f5761409e613cfd565b5b81356140af848260208601614048565b91505092915050565b60008060008060008060c087890312156140d5576140d46136bf565b5b60006140e389828a016136ea565b96505060206140f489828a016136ea565b955050604087013567ffffffffffffffff811115614115576141146136c4565b5b61412189828a0161408a565b945050606087013567ffffffffffffffff811115614142576141416136c4565b5b61414e89828a0161408a565b935050608061415f89828a016136ea565b92505060a061417089828a016136ea565b9150509295509295509295565b60008060408385031215614194576141936136bf565b5b60006141a2858286016136ea565b92505060206141b3858286016136ea565b9150509250929050565b600067ffffffffffffffff8211156141d8576141d7613d02565b5b602082029050919050565b6000815190506141f2816136d3565b92915050565b600061420b614206846141bd565b613d62565b9050806020840283018581111561422557614224613da9565b5b835b8181101561424e578061423a88826141e3565b845260208401935050602081019050614227565b5050509392505050565b600082601f83011261426d5761426c613cfd565b5b600361427a8482856141f8565b91505092915050565b600060608284031215614299576142986136bf565b5b60006142a784828501614258565b91505092915050565b7f4e487b7100000000000000000000000000000000000000000000000000000000600052603260045260246000fd5b7f4e487b7100000000000000000000000000000000000000000000000000000000600052602260045260246000fd5b6000600282049050600182168061432657607f821691505b602082108103614339576143386142df565b5b50919050565b60008190508160005260206000209050919050565b60006020601f8301049050919050565b600082821b905092915050565b6000600883026143a17fffffffffffffffffffffffffffffffffffffffffffffffffffffffffffffffff82614364565b6143ab8683614364565b95508019841693508086168417925050509392505050565b6000819050919050565b60006143e86143e36143de846136c9565b6143c3565b6136c9565b9050919050565b6000819050919050565b614402836143cd565b61441661440e826143ef565b848454614371565b825550505050565b600090565b61442b61441e565b6144368184846143f9565b505050565b5b8181101561445a5761444f600082614423565b60018101905061443c565b5050565b601f82111561449f576144708161433f565b61447984614354565b81016020851015614488578190505b61449c61449485614354565b83018261443b565b50505b505050565b600082821c905092915050565b60006144c2600019846008026144a4565b1980831691505092915050565b60006144db83836144b1565b9150826002028217905092915050565b6144f482613b8d565b67ffffffffffffffff81111561450d5761450c613d02565b5b614517825461430e565b61452282828561445e565b600060209050601f8311600181146145555760008415614543578287015190505b61454d85826144cf565b8655506145b5565b601f1984166145638661433f565b60005b8281101561458b57848901518255600182019150602085019450602081019050614566565b868310156145a857848901516145a4601f8916826144b1565b8355505b6001600288020188555050505b505050505050565b600069ffffffffffffffffffff82169050919050565b6145dc816145bd565b81146145e757600080fd5b50565b6000815190506145f9816145d3565b92915050565b61460881613aeb565b811461461357600080fd5b50565b600081519050614625816145ff565b92915050565b600080600080600060a08688031215614647576146466136bf565b5b6000614655888289016145ea565b955050602061466688828901614616565b9450506040614677888289016141e3565b9350506060614688888289016141e3565b9250506080614699888289016145ea565b9150509295509295909350565b7f4e487b7100000000000000000000000000000000000000000000000000000000600052601160045260246000fd5b60006146e082613aeb565b91506146eb83613aeb565b92508282026146f981613aeb565b91507f80000000000000000000000000000000000000000000000000000000000000008414600084121615614731576147306146a6565b5b8282058414831517614746576147456146a6565b5b5092915050565b6000614758826136c9565b9150614763836136c9565b9250828202614771816136c9565b91508282048414831517614788576147876146a6565b5b5092915050565b7f4e487b7100000000000000000000000000000000000000000000000000000000600052601260045260246000fd5b60006147c9826136c9565b91506147d4836136c9565b9250826147e4576147e361478f565b5b828204905092915050565b60006147fa826136c9565b9150614805836136c9565b925082820190508082111561481d5761481c6146a6565b5b92915050565b600061482e82613aeb565b915061483983613aeb565b92508282039050818112600084121682821360008512151617156148605761485f6146a6565b5b92915050565b6000614871826136c9565b915061487c836136c9565b9250828203905081811115614894576148936146a6565b5b92915050565b60006148a5826136c9565b91507fffffffffffffffffffffffffffffffffffffffffffffffffffffffffffffffff82036148d7576148d66146a6565b5b600182019050919050565b600081905092915050565b50565b60006148fd6000836148e2565b9150614908826148ed565b600082019050919050565b600061491e826148f0565b9150819050919050565b600061493382613aeb565b915061493e83613aeb565b925082820190508281121560008312168382126000841215161715614966576149656146a6565b5b92915050565b600060608201905081810360008301526149868186613eed565b90506149956020830185613b63565b6149a26040830184613b63565b949350505050565b6000815190506149b981613f6d565b92915050565b600080604083850312156149d6576149d56136bf565b5b60006149e4858286016149aa565b92505060206149f5858286016149aa565b915050925092905056fea264697066735822122040935e146ace6d7b254453670890200a96716013ed6c36e322ee7887b62b8fae64736f6c63430008140033",
  "linkReferences": {},
  "deployedLinkReferences": {}
}